:10000000A8C00000B6C00000B4C00000B2C000002C
:10001000B0C00000AEC00000ACC00000AAC000002C
:10002000A8C00000A6C00000E6C0000005C1000096
:10003000A0C000009EC000009CC000009AC000004C
:1000400098C0000096C0000094C0000092C000005C
:1000500090C000008EC000008CC000008AC000006C
:1000600088C0000086C0000084C0000082C000007C
:1000700080C000007EC000007CC000007AC000008C
:1000800078C0000076C0000074C0000072C000009C
:1000900070C000006EC000006CC000006AC00000AC
:1000A00068C0000066C0000064C0000000010000DD
:1000B0003901120002000001012200220000230188
:1000C000160021000013010900030000FD000401D7
:1000D000030904F1000A02030904DD0012120352AD
:1000E00000650062006F006F0074006F0072000016
:1000F000000A0350004A00520043000000040309B4
:100100000409022200010100C032090400000103B9
:1001100000000009211101000122160007058103DA
:100120000800800600FF0A0001A1017508150026DD
:10013000FF00950609029102C012010002000000B2
:1001400020C016770400010102000101C102000075
:10015000000011241FBECFEFDAE0DEBFCDBF21E0EB
:10016000A0E0B1E001C01D92A130B207E1F702D0DA
:10017000ACC146CF80E88093610084E08093610049
:1001800014B88FEF85B917B888B91AB88BB91DB8EC
:100190008EB910BA81BB18D089EF90E00197F1F7C2
:1001A00000C0000083B7817F83BFF89483B781606C
:1001B00083BF7894889583B78E7F83BFEDCF80917E
:1001C000E80080FFFCCF089581E08093D70080EAAB
:1001D0008093D80082E189BD09B400FEFDCF80E99B
:1001E0008093D8001092E0001092000188E0809384
:1001F000E200789408951F920F920FB60F92112487
:100200008F938091E1001092E10083FF0FC0109264
:10021000E90081E08093EB001092EC0082E2809391
:10022000ED0088E08093F000109200018F910F9014
:100230000FBE0F901F9018951F920F920FB60F923E
:100240001124EF92FF921F932F933F934F935F934D
:100250006F937F938F939F93AF93BF93CF93DF93CE
:10026000EF93FF931092E9008091E80083FF14C19F
:100270001091F1008091F100E090F1009091F10077
:10028000F12CF92AC091F1009091F100D0E0D92B26
:100290002091F1006091F10092EF9093E800863098
:1002A00009F046C037E08CEA90E0FC01459154919A
:1002B0004E155F0539F4FC013296459154914C1767
:1002C0005D0721F00796315081F7E6C0FC013496B6
:1002D00045915491FC013696849130E0362B2F3FA6
:1002E000310519F010F02FEF30E0281708F4822FB5
:1002F0003EEF9091E800292F2570D9F392FDCFC0F1
:10030000982F813208F090E2FA01292F222331F050
:1003100064916093F10021503196F8CF490F511D3F
:10032000891B3093E8008111E4CF903211F3B7C0FC
:10033000853049F48EEF8093E80041DF8E2D806890
:100340008093E300ACC0893039F511116AC0E092A6
:1003500000018EEF8093E80041E08BE491E0409350
:10036000E9009C012F5F3F4FFC0154915093EB003B
:10037000552359F0F90124912093EC009C012D5F45
:100380003F4F319684918093ED004F5F453011F0DF
:10039000C901E5CF8EE140C0883049F4103809F03A
:1003A00040C00DDF809100018093F10071C0811188
:1003B00013C005DF123851F4C093E9008091EB00BF
:1003C00085FB882780F91092E90001C080E08093C6
:1003D000F1001092F1005CC0982F9D7F913009F5DB
:1003E0001230F9F4EF2809F057C0CF779FEF9C0F38
:1003F000943008F051C09EEF9093E800C093E9005C
:10040000833009F449C089E18093EB0081E090E0FA
:1004100001C0880FCA95EAF78093EA001092EA00BB
:100420003EC0CD2BC9F51132B9F58930A9F58091BF
:10043000E80082FFFCCF5091F1004091F100309133
:10044000F1002091F1009091F1008091F10052377C
:10045000D9F44536C9F43236B9F42F36A9F49F36AB
:1004600099F4843789F415B818B81BB88FEF84B99C
:1004700087B98AB998E09A95F1F7000014B817B8CF
:100480001AB885B988B98BB98BEF8093E80097DEED
:100490008EEF8093E80003C081E28093EB00FF9130
:1004A000EF91DF91CF91BF91AF919F918F917F910C
:1004B0006F915F914F913F912F911F91FF90EF901E
:0E04C0000F900FBE0F901F901895F894FFCF6D
:00000001FF
