:100000000C94C0150C9406160C9406160C94061647
:100010000C9406160C9406160C9406160C940616F0
:100020000C9406160C9406160C94F71F0C94CD2015
:100030000C9406160C9406160C9406160C940616D0
:100040000C9406160C94BC400C9406160C940616E0
:100050000C9406160C9496350C9406160C94061601
:100060000C9406160C9406160C9406160C940616A0
:100070000C9406160C9406160C9406160C94061690
:100080000C9406160C9406160C9406160C94061680
:100090000C9406160C94061636215821432258213A
:1000A00043229A21BD214322122225220427092717
:1000B0000E27132718271D274027402722274027D0
:1000C00027272C273127402736273B27C727C72735
:1000D00033283328CF280B29332B332B2429332BD8
:1000E0001F2A1F2A052B332B332B1E2B750A0113B6
:1000F0000213010402040116021601160216011A67
:10010000021A01120212011502150107020701204D
:10011000022000750A0113021301040204011602F1
:100120001601160216011A021A0112021201150214
:100130001501070207011F021F00750A01130213B0
:10014000010402040116021601160216011A021A0F
:10015000011202120115021501070207011E021EFB
:1001600000022B0001E2012B00750A0111021101AE
:10017000180218010F020F010F020F012D022D01AD
:10018000050205010C020C011102110137023701B1
:10019000050205010F020F01120212010A020A01F3
:1001A000160216011302130112021201170217019F
:1001B0003702370106020601120212011002100076
:1001C000750A0106020601070207012C022C0138FC
:1001D0000238011702170110021001130213012C3B
:1001E000022C01E1012302E1022301E1012302E1EA
:1001F0000223012C022C011A021A010A020A010828
:10020000020801170217012C022C010B020B011727
:1002100002170117021701130213013402340138C7
:1002200002380138023801160216010B020B010CCC
:10023000020C011202120111021101120212011626
:10024000021601370237011602160120022001377B
:100250000237010402040110021001040204011D0E
:10026000021D011202120111021101040204011AFD
:10027000021A0116021601370237010602060112A0
:10028000021201100210013802380115021501088E
:100290000208011302130112021201380238010E82
:1002A000020E01080208011C021C01380238010775
:1002B0000207010802080105020501370237010A99
:1002C000020A01130213010A020A01370237010E62
:1002D000020E01080208011C021C012C022C012D37
:1002E000022D01E1011202E10212012C022C011681
:1002F0000216010B020B010C020C01120212011179
:100300000211012D022D011302130118021801051B
:100310000205010F020F010C020C01060206013753
:10032000023701070207010802080105020501372B
:100330000237010E020E01080208011C021C0137DF
:100340000237010A020A01130213010A020A012CF0
:10035000022C01E1012302E1022301E1012302E178
:100360000223012C022C01160216011802180107A3
:10037000020701120212012C022C010402040113D3
:10038000021301170217012D022D010E020E0108A2
:100390000208011C021C012C022C010402040107AA
:1003A000020701070207012C022C0138023801174D
:1003B000021701100210011302130138023801164E
:1003C0000216010B020B010C020C011202120111A8
:1003D0000211012D022D011302130118021801054B
:1003E0000205010F020F010C020C01060206013783
:1003F000023701070207010802080105020501375B
:100400000237010E020E01080208011C021C01370E
:100410000237010A020A01130213010A020A003517
:10042000003A003B003C003D003E003F00400041E0
:10043000004200430044004500460047A5480054E0
:1004400000530055005600570029001E001F0020D1
:100450000021002200230024002500260027002D73
:10046000002E0089002A0049004A004B00000000CD
:100470000000002B0014001A000800150017001CD3
:100480000018000C00120013002F003000000000C4
:10049000004C004D004E005F0060006100E0000471
:1004A000001600070009000A000B000D000E000FE7
:1004B000003300340031002800000000000000007C
:1004C000005C005D005E00E1001D001B00060019DD
:1004D000000500110010003600370038008700E5E5
:1004E000000000000000005200000059005A005BAC
:1004F000003902E300E2008B002A0028002C008A69
:10050000008800E600F1A6E40000000000000050B2
:100510000051004F006200630058A3000001000179
:1005200000010001000100010001000100010001C3
:1005300000010001000100010001000100010001B3
:1005400000010001000100010001000100010001A3
:100550000001000100010001000100010001000193
:100560000001000100010001000100010001000183
:100570000001000100010001000100010001000173
:100580000001000100010001000100010001000163
:100590000001000100010001000100010001000153
:1005A0000001000100010001000100010001000143
:1005B0000001000100010001000100010001000133
:1005C0000001000100010001000100010001000123
:1005D0000001000100010001000100010001000113
:1005E0000001000100010001000100010001000400
:1005F0008A0100300031002C002C003800870001F7
:1006000000010001000100010001000100010001E2
:10061000000100010001003500010001000100019E
:1006200000010001000100010001000100010001C2
:1006300000010001000100010001000100010001B2
:1006400000010001000100010001000100010001A2
:100650000001000100010001000100010001000192
:100660000001000100010001000100010001000182
:100670000001000100010001000100010001000172
:100680000001000100010001000100010001000162
:100690000001000100010001000100010001000152
:1006A0000001000100010001000100010001000142
:1006B0000001000100010001000100010001000132
:1006C0000001000100010001000100010001000122
:1006D0000001000100010001000100010001000112
:1006E0000001000100010001000100010001008B78
:1006F000002A0028002C008A008800010001000167
:1007000000010001000100010001000100010001E1
:1007100000010001000100010001000100010001D1
:1007200000010001000100010001000100010001C1
:1007300000010001000100010001000100010001B1
:1007400000010001000100010001000100010001A1
:100750000001000100010001000100010001000191
:100760000001000100010001000100010001000181
:100770000001000100010001000100010001000171
:1007800000010001000100010001002002220223FB
:10079000020100010001000100010001000100014F
:1007A0000001000100010001000100010001000141
:1007B0000001000100070208020902010001000116
:1007C0000001000100010001000100010001000121
:1007D000000100010001000100010001000100040E
:1007E00002050206020100010001000100010001F2
:1007F00000010001000100010001000100010001F1
:100800000001000100010001002C001B000100019B
:1008100000010001000100010001000100010001D0
:10082000000100010001000100010001000100FBC6
:10083000500100FC50F650F9500100010001000188
:1008400000010001000100010001000100010001A0
:100850000001000100010001000100010001000190
:100860000001000100010001000100010001000180
:100870000001000100010001000100010001000170
:1008800000010001000100F450F050F5500100019A
:100890000001000100010001000100010001000150
:1008A0000001000100010001000100010001000140
:1008B00000F250F150F3500100010001000100016D
:1008C0000001000100010001000100010001000120
:1008D0000001000100010001000100000000000013
:1008E0000001000100010001000100010001000100
:1008F00000010001000100010001000100010001F0
:100900000001000100F450F550FA5001000100010F
:1009100000010001000100010001000100010001CF
:100920000001000100FB500100FC5001000100012A
:1009300000010001000100010001000100010001AF
:10094000000100010001000100010001000100019F
:10095000000100F950010001000100010001000147
:10096000000100010001000100010001000100017F
:1009700000010001000100010001000100FA500126
:10098000000100010001000100010001000100015F
:10099000000100010001000100010001000100014F
:1009A000000100010001000100010001000100013F
:1009B000000100010001000100010001000100012F
:1009C000000100010001000100010001000100011F
:1009D000000100010001000100010001000100010F
:1009E00000010001000100010001000100010001FF
:1009F00000010001000100010001000100010001EF
:100A0000000100010001000000E944EA44E244B4AE
:100A100044B644CD44B744B544B344000083408257
:100A200040000000000000000092450000218A0004
:100A300000000000000000000000000000000000B6
:100A4000000000000000000000000001C0000005E0
:100A5000F001F002F00000000000000000000000C3
:100A60000000000000000000000000000000000086
:100A700000000000000000000006F003F004F00099
:100A80000000000000000000000000000000000066
:100A9000000000000000000000000000000000282E
:100AA00087000000000000000000000000000000BF
:100AB0000000000000000000000000000000000036
:100AC00000000000C0000000000000000000000066
:100AD000000000000000000000000007F00000001F
:100AE000000000000000F0000037836500010000F6
:100AF00000000000000000000000000000000000F6
:100B00000000003783E944EA44E244B444B644CDEB
:100B100044B744B544B34437838340824037833776
:100B2000833783378392453783218A3783378337E7
:100B300083378337833783378337833783378337E5
:100B40008337833783378301C0378305F001F00291
:100B5000F037833783378337833783378337833758
:100B600083378337833783378337833783378337B5
:100B7000833783378306F003F004F03783378337F6
:100B80008337833783378337833783378337833795
:100B9000833783378337833783378300003783373F
:100BA0008337833783378337833783378337833775
:100BB000833783378337833783378337833783009C
:100BC000C037833783378337833783378337833718
:100BD0008337833783378307F03783378337833708
:100BE0008300F037833783650001000100378337C6
:100BF000833783378337833783378337833783005C
:100C000000000000000000000000000000000000E4
:100C100000000000000000000000000000000000D4
:100C200000000000000000000000000000000000C4
:100C300000000000000000000000000000000000B4
:1012E00000000077817781778177817781778177B7
:1012F000817781778177817781778177817781772E
:101300008177817781778177817781778177810391
:10131000C004C005C0778177817781778177817735
:1013200081778177817781778177817781778177FD
:1013300081778177817781778177817781778177ED
:1013400081778177817781778177817781778177DD
:1013500081778177817781778177817781778177CD
:1013600081778177817781778177817781778177BD
:1013700081778177817781778177817781778177AD
:10138000817781778177817781778177817781779D
:10139000817781778177817781778177817781778D
:1013A00081778177817781778177817781778103F1
:1013B000C004C005C0778177817781778177817795
:1013C000817781778177817781778177817781775D
:1013D0008177817781778177817781778177810ABA
:1013E000002530325800626F756E6365213A200027
:1013F0004B6579626F6172642073746172742E0A36
:101400000055534220636F6E666967757265642E7E
:101410000A000D0A696E69740A005B445D005B4353
:101420005D003403460069006C0063006F0020001B
:101430004D0061006A006500730074006F00750064
:101440006300680020004A0049005300200031007A
:1014500031003000520000000E035B006E0075008A
:101460006C006C005D0000000403090409028D009B
:10147000050100A032090400000103010100092157
:10148000110100012240000705810308000A090438
:1014900001000103010200092111010001224D0098
:1014A0000705820308000A09040200010300000086
:1014B0000921110100012236000705830308000AF3
:1014C00009040300020300000009211101000122A8
:1014D0002200070584032000010705040320000102
:1014E0000904040001030000000921110100012288
:1014F00039000705850320000112011001000000DA
:1015000008D904112001000102000105010906A10A
:1015100001050719E029E7150025019508750181E6
:1015200002050819012905950575019102950175B6
:101530000391010507190029F71500250195F87594
:10154000018102C00631FF0974A101097515002649
:10155000FF009520750881020976150026FF009589
:101560002075089102C005010980A101850216813C
:101570000026B7001A81002AB70075109501810076
:10158000C0050C0901A1018503160100269C021A61
:1015900001002A9C02751095018100C00501090215
:1015A000A1010901A100050919012905150025015D
:1015B00095057501810295017503810105010930C9
:1015C00009311581257F9502750881060938158135
:1015D000257F950175088106050C0A3802158125BD
:1015E0007F950175088106C0C005010906A10105A6
:1015F0000719E029E7150025019508750181029575
:1016000001750881010508190129059505750191E4
:10161000029501750391010507190029FF150026A0
:10162000FF00950675088100C0636F6E73756D6568
:10163000723A20253034580A0073797374656D3A14
:1016400020253034580A000A002530325820006B1B
:101650006579626F6172643A20004C45443A2025F6
:101660003032580A00253032583A20253033326261
:1016700025730A00722F6320303132333435363708
:1016800038394142434445463031323334353637B8
:1016900038394142434445460A005B25583A2530D3
:1016A00032585D00554E4B4E4F574E004143545FEC
:1016B00046554E4354494F4E004143545F434F4DAE
:1016C0004D414E44004143545F4D4143524F004110
:1016D00043545F4C415945525F5441505F45585403
:1016E000004143545F4C415945525F5441500041C1
:1016F00043545F4C41594552004143545F4D4F554F
:1017000053454B4559004143545F555341474500AC
:101710004143545F524D4F44535F54415000414345
:10172000545F4C4D4F44535F544150004143545F0C
:10173000524D4F4453004143545F4C4D4F4453006E
:101740003A257525630025303458256328257529E9
:10175000004B45594D41505F5441505F4B45593AFC
:10176000204E6F207461703A204F6666206F6E20A5
:1017700072656C656173650A004B45594D41505F58
:101780005441505F4B45593A205461703A20756E70
:1017900072656769737465725F636F64650A004B95
:1017A00045594D41505F5441505F4B45593A204E89
:1017B0006F207461703A204F6E206F6E20707265DA
:1017C00073730A004B45594D41505F5441505F4B74
:1017D00045593A205461703A20726567697374659F
:1017E000725F636F64650A004D4F44535F5441500C
:1017F0003A204E6F207461703A206164645F6D6FAF
:1018000064730A004D4F44535F5441503A20546171
:10181000703A20756E72656769737465725F636F85
:1018200064650A004D4F44535F5441503A204E6F57
:10183000207461703A206164645F6D6F64730A00A4
:101840004D4F44535F5441503A205461703A2072D6
:10185000656769737465725F636F64650A004D4FF5
:1018600044535F5441503A205461703A2043616EB2
:1018700063656C3A206164645F6D6F64730A004D48
:101880004F44535F5441505F544F47474C453A20B3
:1018900072656C65617365203A20756E7265676963
:1018A000737465725F6D6F64730A004D4F44535FCC
:1018B0005441505F544F47474C453A20746F676717
:1018C0006C65206D6F6473206F6E0A004D4F44533A
:1018D0005F5441505F544F47474C453A20746F67FF
:1018E000676C65206D6F6473206F66660A004D4FEC
:1018F00044535F5441503A204F6E6573686F743A99
:101900002073746172740A004556454E5420504944
:101910004E3A202D202564202D202575202D2025B0
:1019200078200A000D0A002064656661756C745F9A
:101930006C617965725F73746174653A2000206C24
:10194000617965725F73746174653A200041435434
:10195000494F4E3A20000D0A004556454E543A2054
:10196000000A2D2D2D2D20616374696F6E5F6578DF
:1019700065633A207374617274202D2D2D2D2D0A0C
:101980000070696E5F6C656E6774682D2025640A4F
:101990002070696E5F636861725F63757272656EF5
:1019A000742D2025730A0063757272656E742D2084
:1019B00025730A2070696E2D2025730A2070696EC8
:1019C0005F636861725F617070656E6465642D202D
:1019D00025730A000A0A4556454E542050494E3A8E
:1019E000204552524F5253204841564520484150BD
:1019F00050454E454421210A256420202025640AB3
:101A00000A000A0054415050494E475F4B45593D2A
:101A1000005D0A0025750077616974696E675F6211
:101A200075666665725F7363616E5F7461703A209C
:101A3000666F756E64206174205B0054617070691C
:101A40006E673A2053746172742850726573732004
:101A5000746170206B6579292E0A000A0054617048
:101A600070696E673A20456E642854696D656F75BC
:101A7000742061667465722072656C656173696E4D
:101A800067206C61737420746170293A200054617E
:101A90007070696E673A206F74686572206B657943
:101AA000206A757374206166746572207461702E8B
:101AB0000A0054617070696E673A205374617274E1
:101AC000207769746820696E746572666572696EE4
:101AD00067206F74686572207461702E0A00290A8D
:101AE0000025750054617070696E673A205461700A
:101AF000207072657373280054617070696E673A64
:101B0000206B6579206576656E74207768696C65F1
:101B1000206C6173742074696D656F7574207461D5
:101B200070283E30292E0A0054617070696E673A41
:101B3000205374617274207768696C65206C6173DE
:101B4000742074696D656F75742074617028312913
:101B50002E0A0054617070696E673A205374617286
:101B600074206E65772074617020776974682072C4
:101B7000656C656173696E67206C6173742074694C
:101B80006D656F757420746170283E31292E0A00CE
:101B900054617070696E673A20456E642E206C61E6
:101BA00073742074696D656F757420746170207230
:101BB000656C65617365283E30292E000A0054610A
:101BC0007070696E673A20456E642E2054696D65A9
:101BD0006F75742E204E6F74207461702830293A0E
:101BE000200054617070696E673A206B65792065DA
:101BF00076656E74207768696C65206C61737420FB
:101C0000746170283E30292E0A0054617070696E2C
:101C1000673A205374617274207768696C65206C30
:101C2000617374207461702831292E0A0054617028
:101C300070696E673A205374617274206E65772004
:101C400074617020776974682072656C656173696E
:101C50006E67206C61737420746170283E31292E88
:101C60000A00290A0025750054617070696E673A90
:101C7000205461702072656C656173652800546141
:101C80007070696E673A2072656C65617365206576
:101C900076656E74206F662061206B6579207072A6
:101CA0006573736564206265666F72652074617028
:101CB00070696E670A0054617070696E673A2046F9
:101CC000697273742074617028302D3E31292E0A98
:101CD000007D0A0020005D3D002575005B007B2033
:101CE0000077616974696E675F6275666665725FC9
:101CF000656E713A200077616974696E675F62751D
:101D0000666665725F656E713A204F766572206611
:101D10006C6F772E0A000A000A0A005D203D200041
:101D200025750070726F6365737365643A2077611F
:101D30006974696E675F6275666665725B002D2DFA
:101D40002D2D20616374696F6E5F657865633A203D
:101D500070726F636573732077616974696E675F12
:101D6000627566666572202D2D2D2D2D0A004F5649
:101D70004552464C4F573A20434C45415220414C26
:101D80004C205354415445530A000A0070726F634B
:101D900065737365643A2000555028253032582900
:101DA0000A00444F574E2825303258290A00494E20
:101DB00054455256414C282575290A00574149542B
:101DC000282575290A004B45595F55502825303282
:101DD00058290A004B45595F444F574E2825303249
:101DE00058290A002530386C5828257529000D0A15
:101DF0000020746F20006C617965725F7374617488
:101E0000653A20000A0020746F20006465666175E1
:101E10006C745F6C617965725F73746174653A208C
:101E2000002530386C58282575290064656C5F6B77
:101E300065795F6269743A2063616E277420646516
:101E40006C3A20253032580A006164645F6B657912
:101E50005F6269743A2063616E2774206164643A3A
:101E600020253032580A00646F6E652E0A00626FBA
:101E70006F746D61676963207363616E3A202E2E03
:101E80002E2000290A002575002F002575005D28E9
:101E90000025640020002564002000256400200047
:101EA0002564007C0025303258006D6F7573656BBA
:101EB0006579205B62746E7C782079207620685D7D
:101EC000287265702F61636C293A205B006D6B5F2F
:101ED000776865656C5F74696D655F746F5F6D6170
:101EE00078203D2025640A006D6B5F776865656C1E
:101EF0005F6D61785F7370656564203D2025640ABD
:101F0000006D6B5F74696D655F746F5F6D617820E4
:101F10003D2025640A006D6B5F6D61785F737065AD
:101F20006564203D2025640A006D6B5F696E7465F1
:101F30007276616C203D2025640A006D6B5F6465DC
:101F40006C6179203D2025640A006D6B5F776865C0
:101F5000656C5F74696D655F746F5F6D6178203D5E
:101F60002025640A006D6B5F776865656C5F6D6145
:101F7000785F7370656564203D2025640A006D6B91
:101F80005F74696D655F746F5F6D6178203D2025BA
:101F9000640A006D6B5F6D61785F737065656420C6
:101FA0003D2025640A006D6B5F696E746572766111
:101FB0006C203D2025640A006D6B5F64656C61795F
:101FC000203D2025640A000A00257500363A207756
:101FD0006865656C5F74696D655F746F5F6D61786E
:101FE0003A20000A00257500353A20776865656C4F
:101FF0005F6D61785F73706565643A20000A002543
:102000007500343A2074696D655F746F5F6D617837
:102010003A20000A00257500333A206D61785F731D
:10202000706565643A20000A00257500323A20691F
:102030006E74657276616C286D73293A20000A000F
:10204000257500313A2064656C6179282A31306D3C
:1020500073293A20000A092D2056616C756573209A
:102060002D0A004D3E004D25643E20003F00736563
:10207000742064656661756C740A00433E200077C5
:10208000686572652064656C74613A20637572736B
:102090006F723D25642C20776865656C3D25640A68
:1020A00053656520687474703A2F2F656E2E7769BA
:1020B0006B6970656469612E6F72672F77696B69F0
:1020C0002F4D6F7573655F6B6579730A000A092D73
:1020D000204D6F7573656B6579202D0A4553432F2D
:1020E000713A09717569740A313A0964656C6179EC
:1020F000282A31306D73290A323A09696E74657283
:1021000076616C286D73290A333A096D61785F73C3
:10211000706565640A343A0974696D655F746F5F50
:102120006D61780A353A09776865656C5F6D61782D
:102130005F73706565640A363A09776865656C5F38
:1021400074696D655F746F5F6D61780A0A703A0932
:102150007072696E742076616C7565730A643A09F1
:102160007365742064656661756C74730A75703A82
:10217000092B310A646F776E3A092D310A70677541
:10218000703A092B31300A7067646F776E3A092D07
:1021900031300A0A7370656564203D2064656C7493
:1021A00061202A206D61785F7370656564202A2044
:1021B00028726570656174202F2074696D655F7485
:1021C0006F5F6D6178290A003F004D3E2000433E5D
:1021D00020004C25640A000A092D20436F6E736F9E
:1021E0006C65202D0A4553432F713A097175697446
:1021F0000A6D3A096D6F7573656B65790A000A0996
:102200002D204D61676963202D0A643A0964656277
:1022100075670A783A096465627567206D61747242
:1022200069780A6B3A096465627567206B65796243
:102230006F6172640A6D3A096465627567206D6F3B
:102240007573650A763A0976657273696F6E0A73FB
:102250003A097374617475730A633A09636F6E7334
:102260006F6C65206D6F64650A302D343A096C61BE
:10227000796572302D34284631302D4634290A5084
:102280006175733A09626F6F746C6F616465720A8D
:10229000653A09656570726F6D0A6E3A094E4B5268
:1022A0004F0A7A3A09736C656570204C4544207476
:1022B0006573740A000A002575002E6E6B726F3A02
:1022C00020000A002575002E737761705F626163DC
:1022D0006B736C6173685F6261636B73706163657C
:1022E0003A20000A002575002E737761705F6772CF
:1022F0006176655F6573633A20000A002575002EDC
:102300006E6F5F6775693A20000A002575002E73AD
:102310007761705F72616C745F726775693A2000F3
:102320000A002575002E737761705F6C616C745FB5
:102330006C6775693A20000A002575002E6361708C
:10234000736C6F636B5F746F5F636F6E74726F6CCF
:102350003A20000A002575002E737761705F636F65
:102360006E74726F6C5F636170736C6F636B3A2035
:10237000000A0025303258006B65796D61705F632B
:102380006F6E6669672E7261773A20000A002575C4
:10239000002E6D6F7573653A20000A002575002EBA
:1023A0006B6579626F6172643A20000A00257500DE
:1023B0002E6D61747269783A20000A002575002E2E
:1023C000656E61626C653A20000A00253032580063
:1023D00064656275675F636F6E6669672E726177A9
:1023E0003A20000A0025750064656661756C745FAB
:1023F0006C617965723A20003F004E4B524F3A2093
:102400006F66660A004E4B524F3A206F6E0A007498
:10241000696D65725F72656164333228293A2025DF
:1024200030346C580A006B6579626F6172645F6E5C
:102430006B726F3A2025580A006B6579626F617282
:10244000645F69646C653A2025580A006B6579629F
:102450006F6172645F70726F746F636F6C3A202586
:10246000580A00686F73745F6B6579626F6172649C
:102470005F6C65647328293A2025580A000A092DE3
:1024800020537461747573202D0A004743433A202A
:10249000342E382E31204156522D4C4942433A2099
:1024A000312E382E3073766E204156525F415243A2
:1024B000483A2061767235310A004F5054494F4EE8
:1024C000533A204C55464120424F4F544D414749C5
:1024D00043204D4F5553454B455920455854524183
:1024E0004B455920434F4E534F4C4520434F4D4D84
:1024F000414E44204E4B524F20313032340A00427C
:1025000055494C443A20313233353231622D6469B9
:10251000727479202832323A31393A3132204D61A1
:10252000792020342032303137290A005649443A84
:1025300020307830346439285B6E756C6C5D2920EE
:102540005049443A203078323031312846696C6342
:102550006F204D616A6573746F756368204A4953D3
:10256000203131305229205645523A2030783030CF
:1025700030310A00444553433A2046696C636F206A
:102580004D616A6573746F756368204A49532031E1
:102590003130520A000A092D2056657273696F6E38
:1025A000202D0A000A6D6F7573653A206F66660A02
:1025B000000A6D6F7573653A206F6E0A000A6B65CD
:1025C00079626F6172643A206F66660A000A6B6511
:1025D00079626F6172643A206F6E0A000A6D6174ED
:1025E0007269783A206F66660A000A6D61747269D2
:1025F000783A206F6E0A000A64656275673A206F48
:102600006E0A000A64656275673A206F66660A00A2
:102610000A0A626F6F746C6F616465722E2E2E20D1
:1026200000433E20006565636F6E6669673A0A0085
:10263000536C656570204C454420746573740A00C2
:10264000000000000000000000000000000000008A
:102650000000000004000400030003000200010069
:10266000000000000000000000000000000000006A
:102670000000000004000400030003000200010049
:10268000000000000000000000000000000000004A
:102690000000000004000400030003000200010029
:1026A000000000000000000000000000000000002A
:1026B0000000000004000400030003000200010009
:1026C0000000000000000000000004000300030000
:1026D00003000200010000000000000000000000F4
:1026E00000000000000000000000040003000300E0
:1026F00003000200010000000000000000000000D4
:1027000000000000000000000000040003000300BF
:1027100003000200010000000000000000000000B3
:10272000000000000000000000000400030003009F
:102730000300020001000000000000000000000093
:102740000400030003000300020001000000000079
:102750000000000000000000000000000000000079
:102760000400030003000300020001000000000059
:102770000000000000000000000000000000000059
:102780000400030003000300020001000000000039
:102790000000000000000000000000000000000039
:1027A0000400030003000300020001000000000019
:1027B0000000000000000000000000000000000019
:1027C0000000000000000000000000000000000009
:1027D00000000000000000000000000000000000F9
:1027E00000000000000000000000000000000000E9
:1027F00000000000000000000000000000000000D9
:1028000001000100020002000200030003000300B7
:102810000300040004000400040004000400040099
:102820000400040004000300030002000200010091
:102830000000000000000000000000000000000098
:102840000000000000000000000000000000000088
:102850000000000000000000000000000000000078
:102860000100010002000200020003000300030057
:102870000300040004000400040004000400040039
:102880000400040004000400040004000400040028
:102890000400040004000400040004000400040018
:1028A0000400040004000300030002000200010011
:1028B0000000000000000000000000000000000018
:1028C00001000100020002000200030003000300F7
:1028D00003000400040004000400040004000400D9
:1028E00004000400040004000400040004000400C8
:1028F00004000400040004000400040004000400B8
:1029000004000400040004000400040004000400A7
:102910000400040004000400040004000400040097
:102920000400040004000300030002000200010090
:102930000000000000000000000000000000000097
:102940000000000000000000000000000000000087
:102950000000000000000000000000000000000077
:102960000000000000000000000000000000000067
:102970000000000000000000000000000000000057
:10298000000000000100010001000200020002003E
:10299000030003000300040004000400030002001D
:1029A000000000000000000001000200040001001F
:1029B0000000000000000000000000000000000017
:1029C0000000000000000000000000000000000007
:1029D00000000000000000000000000000000000F7
:1029E00000000000010001000100020002000200DE
:1029F00003000300030004000400040003000200BD
:102A000001000100010000000000000000000000C3
:102A100000000000000000000000000000000000B6
:102A200000000000000000000000000001000200A3
:102A30000400010000000000000000000000000091
:102A4000000000000100010001000200020002007D
:102A5000030003000300040004000400030002005C
:102A60000100010001000000000000000000000063
:102A70000000000000000000000000000000000056
:102A80000000000000000000000000000000000046
:102A90000000000000000000000000000000000036
:102AA0000000000000000000000000000000000026
:102AB000010002000400010000000000000000000E
:102AC00001010101010101010101010101010101F6
:102AD00001010101010101010101010101010101E6
:102AE00006050403020100000000000000000000D1
:102AF00000000000000000000000000000000000D6
:102B0000FF00FF00FF00FF000000000000000000C9
:102B1000FF00FF00FF00FF000000000000000000B9
:102B2000FF00FF00FF00FF000000000000000000A9
:102B3000FF00FF00FF00FF00000000000000000099
:102B4000FF00FF00FF00FF00000000000000000089
:102B5000FF00FF00FF00FF00000000000000000079
:102B6000FF00FF00FF00FF00000000000000000069
:102B7000FF00FF00FF00FF00000000000000000059
:102B800011241FBECFEFD0E2DEBFCDBF04B603FEDF
:102B900024C08091850290918602A0918702B09115
:102BA00088028730904BA740B04BB9F41092850251
:102BB00010928602109287021092880214BE84B787
:102BC000877F84BF88E10FB6F894809360001092ED
:102BD00060000FBEE0E0FEEF099511E0A0E0B1E07B
:102BE000E8EAF1E900E00BBF02C007900D92A435BE
:102BF000B107D9F722E0A4E5B1E001C01D92A538E4
:102C0000B207E1F70E94131D0C94D2480C94000007
:102C1000FF93EF93E0915401F0915501309709F043
:102C20000995EF91FF910895FC018591803011F095
:102C3000EFDFFBCF0895FF27E0E230E247FF0CC053
:102C4000419597FF09C0EDE260957095809590954C
:102C5000611D711D811D911D27FF02C0219530E36B
:102C600050E2AA27660F771F881F991FAA1FA41773
:102C700010F0A41B63955A95A9F7AA3008F0A95F34
:102C8000A05DAF93F395611571058105910541F73D
:102C9000ED3211F4EF93F395F21718F43F93F39597
:102CA000FBCF8F91B5DFFA95E1F70895E991F9919E
:102CB0008591803021F0853219F0AADFF9CF08958F
:102CC00020E0E89455915532C1F3503311F46894E3
:102CD00055915A3348F4505390F3220F022E220F8D
:102CE000220F200D250FF4CF0EF421958991999193
:102CF000533619F3533729F1533559F1BC0188275D
:102D00009927E8945C3621F48991999168945591BA
:102D1000543639F446EF7EF077FF0DC08FEF9FEF0A
:102D20000AC055374AE039F0583540E121F05236B3
:102D300042E009F00895FF93EF937DDFEF91FF915B
:102D4000B7CFFF93EF93FC0181918030B9F360DF3F
:102D5000FBCFFF93EF9368DFF1CFDF93CF93CDB736
:102D6000DEB72596A3DFCF91DF910895FC01613096
:102D700039F48281882309F48DC00E94C33F0895ED
:102D8000623039F48281882309F484C00E94224091
:102D90000895633039F48281882309F47BC00E944E
:102DA000E03F0895643031F48281882309F472C0D1
:102DB0000C943740653031F48281882309F46AC06D
:102DC0000C94BF3F663031F48281882309F462C0DD
:102DD0000C94BC3F673049F48281882309F45AC0BF
:102DE00081E00E94DA3282E053C0611153C00E9438
:102DF000602284FF03C088E80E946D330E94602235
:102E000082FF03C087E40E946D330E94602280FF2E
:102E100003C083E50E946D330E94602281FF06C0DB
:102E200081EE0E946D3389E30E946D330E944F341E
:102E30008FE39CE90197F1F700C0000088E80E9449
:102E4000BE3381EE0E94BE3389E30E94BE3383E528
:102E50000E94BE3387E40E94BE330E944F3481E05B
:102E60000E94BB3282E00E94BB3283E00E94BB32F0
:102E700084E00E94BB3285E00E94BB3286E00E9463
:102E8000BB3287E00E94BB3288E00E94BB3289E0FF
:102E90000C94BB320895CF93DF93EC016230C1F004
:102EA00028F4662379F0613039F035C06430F9F0E8
:102EB000A8F0653029F12FC00E94AE408A81882396
:102EC00051F12CC00E94AE408A81882321F129C093
:102ED0008A81882349F184E691E02EC08FE00E9428
:102EE000BB320E94AE408A818823A9F020C08FE0C7
:102EF0000E94BB320E94AE408A81882361F01AC0D2
:102F00008FE00E94BB320E94AE408A81882319F074
:102F10008CEE90E011C080E090E00EC080EC91E07B
:102F20000BC089E691E008C081E691E005C08AE324
:102F300091E002C083E191E0DF91CF91089580B3E9
:102F400010BA81B311BA84B1817084B985B18E6F22
:102F500085B98AB180748AB98BB18F6B8BB987B10F
:102F6000807887B988B18F6788B9EEE6F1E0A6E589
:102F7000B1E011921192119211921D921D921D9227
:102F80001D9281E0E638F807A1F708956F927F92CD
:102F90008F929F92AF92BF92CF92DF92EF92FF9269
:102FA0001F93CF93DF93C6E5D1E010E0133099F083
:102FB00028F4113051F0123059F004C0143071F07F
:102FC000153079F0829A8A980EC0879A8F980BC034
:102FD000849A8C9808C0859A8D9805C0869A8E9898
:102FE00002C0839A8B9880EA8A95F1F786B1829520
:102FF0008695877091E0892780FB662460F8712CA4
:10300000349B03C040E050E002C042E050E0CA01FF
:1030100086299729339B03C040E050E002C044E07A
:1030200050E0482B592B329B03C080E090E002C057
:1030300088E090E0842B952B319B03C0E0E0F0E02A
:1030400002C0E0E1F0E08E2B9F2B309B03C060E0DC
:1030500070E002C060E270E0862B972B1B9B03C0E0
:1030600040E050E002C040E450E0842B952B1A9BD6
:1030700003C040E050E002C040E850E0842B952BB4
:1030800049B1552747FD5095409550954427550F18
:10309000441F5527542F4427842B952B4D9B03C049
:1030A00060E070E002C060E072E0862B972B4C9BE2
:1030B00003C060E070E002C060E074E0862B972BF4
:1030C0004B9B03C040E050E002C040E058E0842B3E
:1030D000952B4A9B03C0E0E0F0E002C0E0E0F0E1A5
:1030E0008E2B9F2B499B03C060E070E002C060E024
:1030F00070E2862B972BAA2797FDA095BA2F489BA5
:1031000004C040E050E0BA0104C040E050E460E098
:1031100070E0482B592B6A2B7B2B83B1992787FDB5
:103120009095A92FB92F80959095A095B095882757
:10313000B7FD83959927AA27BB27EFE0880F991F32
:10314000AA1FBB1FEA95D1F7482B592B6A2B7B2B63
:10315000369B04C0812C912C540104C0812C912CED
:103160005401A394482959296A297B29199B04C031
:10317000812C912C540105C0812C912C92E0A92E18
:10318000B12C482959296A297B291C9B04C0C12CD0
:10319000D12C760105C0C12CD12C84E0E82EF12C75
:1031A0004C295D296E297F291E9B04C080E090E098
:1031B000DC0104C080E090E0A8E0B0E0482B592B8F
:1031C0006A2B7B2B1D9B04C080E090E0DC0104C0D7
:1031D00080E090E0A0E1B0E0482B592B6A2B7B2BDC
:1031E00088819981AA81BB8184179507A607B707B3
:1031F00069F1488359836A837B8380910001882326
:1032000011F180912E0280FF04C086EE93E10E94AE
:10321000141680912E0280FF0EC0809100011F9233
:103220008F9381EE93E19F938F930E94AD160F9041
:103230000F900F900F9080912E0280FF04C08FEDB1
:1032400093E10E94141685E08093000180B310BAC8
:1032500081B311BA1F5F2496163009F0A7CE809172
:1032600000018823E1F0815080930001882339F028
:103270008FE99FE00197F1F700C0000010C0CEE693
:10328000D1E0E6E5F1E081919191A191B19189932D
:103290009993A993B99391E0EE36F907A1F781E0EC
:1032A000DF91CF911F91FF90EF90DF90CF90BF9073
:1032B000AF909F908F907F906F90089594E0899F3A
:1032C000F0011124E259FE4F608171818281938166
:1032D00008956E9A769A08956E98769808950A9A47
:1032E000129A08950A9812980895099A119A0895C1
:1032F0000998119808956F9A779A08956F9877981A
:103300000895699A719A0895699871980895089A2C
:10331000109A0895089810980895689A709A0895D8
:103320006898709808950D9A159A08950D981598B3
:1033300008950B9A139A08950B98139808950E9A6E
:10334000169A08950E98169808950C949F190C9447
:10335000A219CF93C82F80FF03C00E94764004C0FB
:103360000E947A400E947E19C2FF03C00E946840FA
:1033700004C00E946C400E947819C1FF03C00E94E3
:103380006F4004C00E9473400E948419C4FF03C0B0
:10339000CF910C9499400E949D40CF910C948A1932
:1033A0000F931F93CF93DF9300D000D0CDB7DEB73C
:1033B00069837A838B839C8362FF05C00E94964059
:1033C0000E948B4006C061FF09C00E9492400E948B
:1033D0008F4069817A818B819C810AC00E949640CE
:1033E0000E948F400E9490199C818B817A81698113
:1033F0008B019C010074117022273327012B022BB3
:10340000032B49F069837A838B839C830E948140DC
:103410000E94844012C08B019C0100781270222708
:10342000332769837A838B839C83012B022B032BA5
:1034300049F00E9488400E947D4069817A818B8199
:103440009C810AC00E9481400E9488400E946C19A1
:103450009C818B817A8169818B019C010027107886
:1034600069837A838B839C83012B022B032B39F096
:103470000E94A04069817A818B819C8106C00E9454
:10348000A4409C818B817A81698169837A838B8353
:103490009C8365FF03C00E94614004C00E94654098
:1034A0000E947819698163FF0EC00E9472190E9400
:1034B0005E400F900F900F900F90DF91CF911F9172
:1034C0000F910C94534064FF0EC00E9457400E941D
:1034D0005E400F900F900F900F90DF91CF911F9152
:1034E0000F910C945A400E9472190E945E400F90F6
:1034F0000F900F900F90DF91CF911F910F910C942F
:1035000057408091AA0108959FB7F89410928901BD
:103510009FBF90915702943009F058C09091E900F4
:103520009F702091EC0020FF02C020E801C020E045
:10353000292B94E09093E9009091EB0090FF43C019
:103540009091EE0097FF3FC090918601992321F062
:103550009091E80095FF37C01092860196E0309177
:10356000E80035FD15C030915702343061F53091D7
:10357000EB0035FD28C0915021F481E08093860155
:1035800022C0EFE9FFE03197F1F700C00000E7CF7C
:103590008093F1008091E80085FD0AC08091E800E9
:1035A00080FFFCCF8091E8008E778093E80006C012
:1035B0008FB7F89491E0909389018FBF2F7020937B
:1035C000E90080E008952F702093E9008FEF0895BF
:1035D000CF93DF9300D01F92CDB7DEB72091570273
:1035E000243019F523E029839B838A832093E90003
:1035F0008FEF9091E800815095FD06C095ED9A956A
:10360000F1F700008111F5CF8091E80085FF0DC032
:1036100040E050E063E070E0CE0101960E94ED1DB5
:103620008091E8008E778093E8000F900F900F90C4
:10363000DF91CF910895CF93DF9300D01F92CDB744
:10364000DEB720915702243021F522E029839B83A5
:103650008A8383E08093E9008FEF9091E8008150A6
:1036600095FD06C095ED9A95F1F700008111F5CF13
:103670008091E80085FF0DC040E050E063E070E01D
:10368000CE0101960E94ED1D8091E8008E77809317
:10369000E8000F900F900F90DF91CF910895209147
:1036A00057022430F1F422E02093E9002FEF30910B
:1036B000E800215035FD06C035ED3A95F1F70000E0
:1036C0002111F5CF2091E80025FF0BC040E050E02C
:1036D00065E070E00E94ED1D8091E8008E77809398
:1036E000E8000895CF93DF93EC0180915702843076
:1036F00009F047C080910F018823E1F0809110010B
:103700008823C1F085E08093E9008FEF9091E80075
:10371000815095FD06C095E19A95F1F70000811161
:10372000F5CF8091E80085FF2CC040E050E060E2DA
:1037300070E017C081E08093E9008FEF9091E8007E
:10374000815095FD06C095ED9A95F1F70000811125
:10375000F5CF8091E80085FF14C040E050E068E0BC
:1037600070E0CE010E94ED1D8091E8008E7780937D
:10377000E80080E2FE01AAE8B1E001900D928A958E
:10378000E1F7DF91CF9108958EE194E10E94141644
:1037900080915602811109C00E94791F0E94DB1F8F
:1037A0008091E20084608093E20008958AE194E1D0
:1037B0000E94141610925602089508958091870170
:1037C0008F5F8093870162E30E946D45911135C040
:1037D0001092870180918901882379F180915702A5
:1037E000843049F58091E9008F709091EC0090FF52
:1037F00002C090E801C090E0982B84E08093E9003B
:103800008091EB0080FF14C08091EE0087FF10C014
:103810008091E80085FF03C01092F100F9CF8091FC
:10382000E80080FF05C08091E8008E778093E80073
:103830009F709093E90010928901089542E061EC35
:1038400081E00E94F31E42E061EC82E00E94F31EE0
:1038500042E061EC83E00E94F31E42E261EC84E00E
:103860000E94F31E42E261EC85E00C94F31E80910D
:103870005902833009F455C030F4813071F0823040
:1038800009F48EC008958A3009F47AC08B3009F4A7
:1038900060C0893009F09CC020C080915802813AF4
:1038A00009F096C08091E800877F8093E8008091BE
:1038B0005C0290915D02892B21F060E080E090E055
:1038C00003C060E28AE891E070E00E94361E8091B9
:1038D000E8008B778093E800089580915802813248
:1038E00009F076C080915C0290915D02009719F01A
:1038F000049709F06DC08091E800877F8093E8000D
:103900008091E80082FD05C0809157028111F8CFB7
:103910005FC08091F1008093AA018091E8008B77CD
:1039200053C080915802813A09F052C080915C02E4
:1039300090915D02892B09F04BC08091E800877F50
:103940008093E8008091E80080FFFCCF80910F0118
:1039500036C0809158028132D9F580915C029091F5
:103960005D02892BA9F58091E800877F8093E800AC
:103970000E94281F80915A0280930F010C94F42515
:1039800080915802813221F58091E800877F8093F1
:10399000E8000E94281F80915B028093AB0108958C
:1039A00080915802813AA1F48091E800877F80934A
:1039B000E8008091E80080FFFCCF8091AB0180930C
:1039C000F1008091E8008E778093E8000C94281F26
:1039D0000895089508958091AA0180938801109216
:1039E000AA0180E00E94A9190E941E240E94F425C9
:1039F0000E9450402FEF80E792E02150804090409D
:103A0000E1F700C000000C94B5400C94EB1C0E9440
:103A1000303580915502882329F00E94313581117B
:103A20000C94D71D089584B7877F84BF88E10FB6B3
:103A3000F89480936000109260000FBE90E080E8E0
:103A40000FB6F89480936100909361000FBE84E8F4
:103A50009AE10E94753482E194E10E9414160E945A
:103A6000E91C0E9418230E94791F0E94DB1F80918D
:103A7000E20084608093E200789480915702843061
:103A8000E1F781E094E10E9414160E941A2385E078
:103A900091E00E945B220E94A43F0E94B63F0E94D8
:103AA000A7402FEF8BE594E4215080409040E1F750
:103AB00000C000000E94AB4060E070E0CB010E94BB
:103AC000D01980EF93E10E9414160E94EA1C8091A5
:103AD0005702853019F40E94071DF9CF0E94202358
:103AE000F6CF0E9448350E94B9400E944C40809118
:103AF00088018093AA0108950C94711D292F332702
:103B000023303105A9F06CF42130310509F442C0AD
:103B10002230310509F043C08DE890E02CE634E115
:103B200042C021323105C9F02232310519F137C0C6
:103B300099278130910541F08230910541F0892B20
:103B400071F5E8E6F4E105C0E8E5F4E102C0E2E27F
:103B5000F4E1849190E09F0126C0653000F5E62FE6
:103B6000F0E0EE0FFF1FE45CFE4F2081318189E021
:103B700090E019C0653098F4E62FF0E0DF01AA0F5D
:103B8000BB1FAE5CBE4F2D913C91E35DFE4F80812B
:103B900090E009C082E190E029EF34E104C080E0C8
:103BA00090E020E030E0FA0131832083089584E141
:103BB00089BD86E189BD09B400FEFDCF8091D800A2
:103BC0008F7D8093D8008091E00082608093E00038
:103BD0008091E00081FDFCCF0895CF92DF92EF92BB
:103BE000FF920F931F93CF93DF937C018B01EA0128
:103BF0000E94491F811131C0209731F0888199813D
:103C0000081B190BE80EF91EC12CD12C011511054A
:103C100019F18091E80085FD14C08091E8008E774D
:103C20008093E800209741F0888199818C0D9D1D3B
:103C30009983888385E011C00E94491F882331F34E
:103C40000CC0F70181917F018093F10001501109AF
:103C5000FFEFCF1ADF0ADACF80E0DF91CF911F911B
:103C60000F91FF90EF90DF90CF90089520915E022A
:103C700030915F022617370748F06115710539F456
:103C80002091E8002E772093E80001C0B901FC01E3
:103C900020E06115710599F1809157028823E9F1BF
:103CA0008530E9F18091E80083FD3BC08091E80018
:103CB00082FF06C08091E80082FF24C080E0089562
:103CC0008091E80080FFE5CF8091F2009091F300B1
:103CD0006115710551F08830910538F421912093D8
:103CE000F100615071090196F3CF21E0089709F0C6
:103CF00020E08091E8008E778093E800CACF211100
:103D0000CBCFD8CF80915702882339F0853039F056
:103D10008091E80083FFCECF04C082E0089583E065
:103D2000089581E0089520915E0230915F02261788
:103D3000370748F06115710539F42091E8002E77B6
:103D40002093E80001C0B901FC0120E06115710574
:103D5000B1F180915702882309F43FC0853009F4FE
:103D60003EC08091E80083FD3CC08091E80082FF66
:103D700006C08091E80082FF25C080E00895809110
:103D8000E80080FFE3CF8091F2009091F30061158D
:103D9000710559F08830910540F424912093F10089
:103DA0003196615071090196F2CF21E0089709F030
:103DB00020E08091E8008E778093E800C7CF211142
:103DC000C8CFD7CF80915702882339F0853039F09A
:103DD0008091E80083FFCDCF04C082E0089583E0A6
:103DE000089581E00895982F973058F59093E90051
:103DF000981739F07091EC002091ED005091F0008F
:103E000003C0242F762F50E021FF19C03091EB0022
:103E10003E7F3093EB003091ED003D7F3093ED001D
:103E20003091EB0031603093EB007093EC00209305
:103E3000ED005093F0002091EE0027FF07C09F5F38
:103E4000D3CF8F708093E90081E0089580E00895DA
:103E50008091580287FD05C08091E80080FF0EC068
:103E600012C08091E80082FD05C080915702811147
:103E7000F8CF08958091E8008B7708C080915702B1
:103E80008111EACF08958091E8008E778093E80051
:103E900008958091E4009091E50045E62091EC00C2
:103EA00020FF21C02091E80020FD21C02091570271
:103EB000222389F0253089F02091EB0025FD0FC0E9
:103EC0002091E4003091E5002817390739F341507B
:103ED00041F0C901E3CF82E0089583E0089581E0D5
:103EE000089584E008952091E80022FFDFCF80E06C
:103EF00008950E94EA1F0E94F21FE0EEF0E0808128
:103F000081608083E8EDF0E080818F77808319BC49
:103F1000A7EDB0E08C918E7F8C9380818F7E808323
:103F20001092560208950F931F93CF93DF930E9430
:103F3000EA1F0E94F21FC8EDD0E088818F77888346
:103F400088818068888388818F7D8883E7EDF0E0B1
:103F500080818068808319BC1092570210925302AE
:103F6000109255021092540200EE10E0F801808188
:103F70008B7F808388818160888342E060E080E07D
:103F80000E94F31EE1EEF0E080818E7F8083E2EEFE
:103F9000F0E0808181608083808188608083F80187
:103FA00080818E7F8083888180618883DF91CF913B
:103FB0001F910F910895E8EDF0E080818F7E80835E
:103FC000E7EDF0E080818160808381E0809356029C
:103FD0000C94931FE8EDF0E080818C7F8083109239
:103FE000E20008951092DA001092E10008951F9205
:103FF0000F920FB60F9211240BB60F922F933F938F
:104000004F935F936F937F938F939F93AF93BF93E0
:10401000EF93FF938091E10082FF0BC08091E2005B
:1040200082FF07C08091E1008B7F8093E1000E94B6
:10403000DE1B8091DA0080FF1FC08091D80080FFD6
:104040001BC08091DA008E7F8093DA008091D900C6
:1040500080FF0DC084E189BD86E189BD09B400FE01
:10406000FDCF81E0809357020E94C41B05C019BC9C
:10407000109257020E94D61B8091E10080FF19C068
:104080008091E20080FF15C08091E2008E7F8093D6
:10409000E2008091E20080618093E2008091D8008C
:1040A00080628093D80019BC85E0809357020E94FB
:1040B000051D8091E10084FF30C08091E20084FF03
:1040C0002CC084E189BD86E189BD09B400FEFDCF25
:1040D0008091D8008F7D8093D8008091E1008F7E01
:1040E0008093E1008091E2008F7E8093E2008091D6
:1040F000E20081608093E20080915302882311F0F6
:1041000084E007C08091E30087FF02C083E001C024
:1041100081E0809357020E947C1D8091E10083FF23
:1041200029C08091E20083FF25C08091E100877F54
:104130008093E10082E080935702109253028091B5
:10414000E1008E7F8093E1008091E2008E7F80937A
:10415000E2008091E20080618093E20042E060E052
:1041600080E00E94F31E8091F00088608093F00050
:104170000E94DD1BFF91EF91BF91AF919F918F91B5
:104180007F916F915F914F913F912F910F900BBE57
:104190000F900FBE0F901F9018951F920F920FB6A1
:1041A0000F9211240BB60F922F933F934F935F936F
:1041B0006F937F938F939F93AF93BF93CF93EF931F
:1041C000FF93C091E900CF708091EC001092E9005C
:1041D0008091F000877F8093F00078940E940D21F9
:1041E0001092E9008091F00088608093F000C09305
:1041F000E900FF91EF91CF91BF91AF919F918F9186
:104200007F916F915F914F913F912F910F900BBED6
:104210000F900FBE0F901F9018951F93CF93DF93B1
:10422000CDB7DEB7AA970FB6F894DEBF0FBECDBFED
:10423000E8E5F2E08091F100819322E0E036F207B8
:10424000C9F70E94371C8091E80083FF1CC12091B0
:10425000580230915902832F90E08A30910508F07E
:1042600012C1FC01E45BFF4F0C948D45203881F0B6
:10427000223809F008C180915C028F708093E900B8
:104280008091EB0085FB882780F91092E90006C039
:104290008091540290915502911182609091E800B2
:1042A000977F9093E8008093F1001092F100C5C0D1
:1042B000822F8D7F09F0E7C0222319F0223061F0B0
:1042C000E2C080915A02813009F0DDC0333009F03C
:1042D00080E08093550228C080915A02811124C049
:1042E00020915C022F7009F4CEC02093E9008091E8
:1042F000EB0080FF19C08091EB00333011F4806235
:1043000011C080618093EB0081E090E0022E01C03B
:10431000880F0A94EAF78093EA001092EA008091ED
:10432000EB0088608093EB001092E9008091E80038
:10433000877F86C02111A7C010915A021F778091F4
:10434000E3008078812B8093E3008091E800877FF1
:104350008093E8000E94281F8091E80080FFFCCF36
:104360008091E30080688093E300112311F083E0E3
:1043700001C082E08093570286C02058223008F0A6
:1043800082C080915A0290915B028C3D23E092079B
:1043900079F583E08A838AE289834FB7F894DE0156
:1043A000139620E03EE051E2E32FF0E050935700F7
:1043B000E49120FF03C0E295EF703F5FEF708E2F16
:1043C00090E0EA3010F0C79601C0C0968D939D939F
:1043D0002F5F243149F74FBF8091E800877F80939A
:1043E000E8006AE270E0CE0101960E94361E14C019
:1043F000AE014F5F5F4F60915C020E947E1D00978F
:1044000009F441C02091E800277F2093E800BC0117
:1044100089819A810E94931E8091E8008B77809316
:10442000E80031C0203879F58091E800877F8093DB
:10443000E800809153028093F1008091E8008E772C
:104440008093E8000E94281F1EC021111CC090917B
:104450005A029230C0F48091E800877F8093E80090
:10446000909353020E94281F80915302811104C02F
:104470008091E30087FF02C084E001C081E0809367
:1044800057020E941E1C8091E80083FF0AC08091A1
:10449000E800877F8093E8008091EB008062809342
:1044A000EB00AA960FB6F894DEBF0FBECDBFDF912A
:1044B000CF911F9108959093B1018093B001089519
:1044C000E091B001F091B101309721F00190F081BD
:1044D000E02D099480E00895FF920F931F93CF93EE
:1044E000DF938C01E091B001F091B101309799F127
:1044F0000280F381E02D099580912E0282FF2BC06E
:1045000080FF04C08FE496E10E941416E80180E267
:10451000F82E09E416E180912E0280FF0BC08881FD
:104520001F928F931F930F930E94AD160F900F90C1
:104530000F900F90FA942196F110EDCF80912E02FA
:1045400080FF09C087E496E1DF91CF911F910F9121
:10455000FF900C941416DF91CF911F910F91FF9053
:104560000895E091B001F091B101309721F00480FD
:10457000F581E02D09940895CF93DF93EC018091AC
:10458000AE019091AF01C817D90709F1D093AF01DF
:10459000C093AE01E091B001F091B1013097B9F054
:1045A0000680F781E02DCE01099580912E0282FFD1
:1045B0000EC080FF0CC0DF93CF9389E396E19F93F9
:1045C0008F930E94AD160F900F900F900F90DF9178
:1045D000CF910895CF93DF93EC018091AC0190913E
:1045E000AD01C817D90709F1D093AD01C093AC0153
:1045F000E091B001F091B1013097B9F00084F185FC
:10460000E02DCE01099580912E0282FF0EC080FF21
:104610000CC0DF93CF9389E296E19F938F930E9422
:10462000AD160F900F900F900F90DF91CF910895DE
:104630000C941F240E944C350E949F170C944A36FC
:104640004F925F926F927F929F92AF92BF92CF9262
:10465000DF92EF92FF920F931F93CF93DF93CDB72B
:10466000DEB729970FB6F894DEBF0FBECDBF0E940C
:10467000C61733EBA32E31E0B32E00E010E0902EEE
:10468000802F0E945E19F501C190D190E190F190C8
:104690005F01C626D726E826F926C114D104E10415
:1046A000F104B1F40F5F1F4F0630110541F78FEF92
:1046B00089838A831B820E9455358160782F9D8370
:1046C0008C8349815A816B818D810E94532665C0FC
:1046D00020912E0221FF0AC06E837F8388879987ED
:1046E0000E942024998588857F816E8120E030E0BA
:1046F000422F26013701022E04C076946794579406
:1047000047940A94D2F740FE41C029839A82C12C73
:10471000D12C7601C39404C0CC0CDD1CEE1CFF1C14
:104720004A95D2F7DC01CB018C219D21AE21BF211E
:1047300021E0892B8A2B8B2B09F420E02B830E940C
:1047400055358160782F9D838C8349815A816B8197
:104750008D810E94532649815A816B817C818D8194
:104760000E941C35F801EE0FFF1FEE0FFF1FED54E6
:10477000FE4F80819181A281B3818C259D25AE253C
:10478000BF2580839183A283B38307C02F5F3F4FF0
:104790002531310509F0ACCF85CF0E941B350E9431
:1047A000C2391091B2010E946022181779F10E945B
:1047B00060228093B20190912E0292FF0EC090FF72
:1047C0000CC01F928F938AE596E19F938F930E946E
:1047D000AD160F900F900F900F908091B201299617
:1047E0000FB6F894DEBF0FBECDBFDF91CF911F9102
:1047F0000F91FF90EF90DF90CF90BF90AF909F9080
:104800007F906F905F904F900C942D3529960FB646
:10481000F894DEBF0FBECDBFDF91CF911F910F91F6
:10482000FF90EF90DF90CF90BF90AF909F907F90E0
:104830006F905F904F9008950C94A9190895089572
:10484000EF92FF920F931F93CF93DF9384E796E14C
:104850000E941416C0E0D0E088E4E82E81E0F82E33
:1048600005E616E18C2F0E945E190E94F934FF9232
:10487000EF929F938F937F936F93DF93CF931F93C9
:104880000F930E94AD1621968DB79EB70A960FB66C
:10489000F8949EBF0FBE8DBFC630D10519F7DF91CA
:1048A000CF911F910F91FF90EF9008950895089573
:1048B000AF92BF92CF92DF92EF92FF920F931F932E
:1048C000CF93DF93CDB7DEB76B015A01EDB6FEB6DD
:1048D000BC01C6010E94A745D5010D900020E9F753
:1048E000AA19BB098DB79EB78A1B9B0B0FB6F8940C
:1048F0009EBF0FBE8DBF0DB71EB70F5F1F4FF601D6
:1049000001900020E9F7AF01415051094C195D09B0
:10491000D5010D900020E9F71197AA19BB09A4173A
:10492000B50738F1B501C8010E94C245F6010190F2
:104930000020E9F73197EC19FD09E00FF11F108213
:1049400080912E0280FF2AC01F930F93BF92AF92D7
:10495000DF92CF9287EA99E19F938F930E94AD16E1
:104960008DB79EB708960FB6F8949EBF0FBE8DBF49
:1049700015C080912E0280FF65C0BF93AF935F93F7
:104980004F9384ED99E19F938F930E94AD160F9002
:104990000F900F900F900F900F9054C080912E02A7
:1049A00080FF19C0F80101900020E9F73197E01B62
:1049B000F10B80E692E09F938F93FF93EF9381E852
:1049C00099E19F938F930E94AD160F900F900F90D7
:1049D0000F900F900F90D6010D900020E9F71197DE
:1049E000AC19BD09F50101900020E9F73197EA19EA
:1049F000FB09AE17BF07F1F4B501C6010E94B2452D
:104A0000892BC1F48AE20E946D330E944F348AE2FE
:104A10000E94BE330E944F348AE20E946D330E948E
:104A20004F348AE20E94BE330E944F348FE00E94CE
:104A3000A03208C0B801C6010E94B245892B11F40A
:104A4000B60102C068E471E080E692E00E94BB45D6
:104A50000FB6F894FEBE0FBEEDBE0FB6F894FEBEC4
:104A60000FBEEDBEDF91CF911F910F91FF90EF90A0
:104A7000DF90CF90BF90AF900895CF93C82F882339
:104A800009F464C08CEF8C0F813A20F080E58C0F24
:104A90008E3248F48C2F0E94533E811157C08C2FC8
:104AA0000E946D330CC080E28C0F883058F4C770C0
:104AB00081E001C0880FCA95EAF70E941334CF91B4
:104AC0000C944F348BE58C0F833078F4C53A29F081
:104AD000C63A31F482E890E005C081E890E002C077
:104AE00083E890E0CF910C94BC2288E58C0F85314F
:104AF00068F5C83A89F0C93A91F0CA3A99F0CB3AC8
:104B0000A1F0CC3AA9F0CD3AB1F0CE3AB9F0CF3A13
:104B1000C1F487EB90E017C082EE90E014C089EEFC
:104B200090E011C08AEE90E00EC085EB90E00BC0E3
:104B300086EB90E008C083EB90E005C084EB90E04A
:104B400002C080E090E0CF910C94EA22CF910895CA
:104B5000882349F19CEF980F913A20F090E5980F47
:104B60009E3218F40E94BE330DC090E2980F983028
:104B700058F4877091E001C0990F8A95EAF7892F60
:104B80000E9419340C944F349BE5980F933020F415
:104B900080E090E00C94BC22885A853120F480E0BB
:104BA00090E00C94EA220895882321F00E941334A7
:104BB0000C944F340895882321F00E9419340C94EA
:104BC0004F3408950E9433340E9402340E944F34BF
:104BD0000E94633A0E94353980E090E00E94BC2236
:104BE00080E090E00C94EA220E9423340C94E225A9
:104BF0000E942B33292F22952F7030E02C30310565
:104C00004CF42A3031056CF4225031092230310540
:104C100090F407C02C30310551F02F30310539F0B8
:104C20000AC0803E10F0803F31F481E0089593FB8C
:104C3000882780F9089580E00895CF93DF9300D00E
:104C400000D01F92CDB7DEB749835A836B837C8334
:104C50008D8380912E0280FF1EC0972F2D816623A9
:104C600011F084E601C085E72F939F931F928F93E5
:104C70008A8190E0982F88272981822B9F938F9398
:104C800086E497E19F938F930E94AD160FB6F89438
:104C9000DEBF0FBECDBF0F900F900F900F900F9003
:104CA000DF91CF910895EF92FF920F931F93CF93CF
:104CB000DF93CDB7DEB72B970FB6F894DEBF0FBEEC
:104CC000CDBFE42E4F83F52E588769877A878B876F
:104CD0000A851B850115110541F08FEF581307C098
:104CE00081E09FEF491303C003C081E001C080E071
:104CF00080FD26C080912E0280FF04C081E699E1EC
:104D00000E94141680912E0280FF04C089E599E16B
:104D10000E9414164F81588569857A858B850E947B
:104D20001D2680912E0280FF04C086E599E10E9435
:104D300014164F81588569857A858B850E941C35AC
:104D4000DE01119686E0FD0111928A95E9F7EF8266
:104D5000F8861B870A8785E0FE01379601900D9241
:104D60008A95E1F749815A816B817C818D819E8191
:104D70000E942F2F2B960FB6F894DEBF0FBECDBF2B
:104D8000DF91CF911F910F91FF90EF900895CF93F6
:104D9000DF9300D000D000D0CDB7DEB79E830E9455
:104DA0001D2680912E0280FF18C08E8180FF02C0D8
:104DB0009DE201C090E21F929F9382958F701F9297
:104DC0008F9380E497E19F938F930E94AD160F908D
:104DD0000F900F900F900F900F9026960FB6F894AB
:104DE000DEBF0FBECDBFDF91CF910895CF93DF938C
:104DF000EC01DF7092959F70E92FF0E080912E0218
:104E0000EA5AFF4F0C948D4580FF40C086E397E13E
:104E10003BC080FF3BC08CE297E136C080FF36C0CC
:104E20008EE197E131C080FF31C080E197E12CC075
:104E300080FF2CC086E097E127C080FF27C089EF64
:104E400096E122C080FF22C08FEE96E11DC080FF58
:104E50001DC081EE96E118C080FF18C08FEC96E16E
:104E600013C080FF13C085EC96E10EC080FF0EC01A
:104E700089EB96E109C080FF09C08CEA96E104C085
:104E800080FF04C084EA96E10E94141680912E02ED
:104E900080FF15C0CE0199279F938F938D2F880F88
:104EA000880B8F93DF938AE996E19F938F930E94FB
:104EB000AD160F900F900F900F900F900F90DF9105
:104EC000CF910895AF92BF92CF92DF92EF92FF926F
:104ED0000F931F93CF93DF9300D000D01F92CDB7D5
:104EE000DEB78C0185E0F801DE01119601900D928C
:104EF0008A95E1F7F80130812181F280E580E29422
:104F00004FE0E42283819481892B31F02F3F31F4EB
:104F100081E03F3F19F403C081E001C080E080FDE3
:104F2000A2C339832A8389819A810E942B335C0131
:104F300080912E0280FF04C08DE499E10E94141636
:104F4000C5010E94F62680912E0280FF04C08EE3E8
:104F500099E10E9414160E94233280912E0280FF54
:104F600004C087E299E10E9414160E948C3180915E
:104F70002E0280FF04C084E299E10E941416EB2DFA
:104F8000E295EF70F0E0EA59FF4F0C948D451B2D30
:104F90001F708B2D807F11F01295107FFF2009F478
:104FA00048C0112329F0812F0E9426340E944F34DB
:104FB0008A2D0E943D2580912E0280FF11C0BF9254
:104FC000AF92BF92AF92BF92AF9228E039E13F9388
:104FD0002F930E94AD160FB6F894DEBF0FBECDBF63
:104FE000BF92AF9286E491E09F938F9382E792E025
:104FF0009F938F930E94D1450F900F900F900F9029
:105000000F900F9041E151E060E672E082E792E09C
:105010000F900F900F900F900F90DF91CF911F91F5
:105020000F91FF90EF90DF90CF90BF90AF900C94D6
:1050300058248A2D0E94A825112309F414C3812F16
:105040000E942C340F900F900F900F900F90DF91D3
:10505000CF911F910F91FF90EF90DF90CF90BF9075
:10506000AF900C944F348B2D807F9B2D9F70B92E69
:10507000803219F0B29430EFB322AA2021F091E0EF
:10508000A91661F14BC0FF2001F1EE2009F45AC0CE
:10509000E1E0EE1257C080912E0280FF04C08EEE38
:1050A00098E10E9414168B2D0F900F900F900F9087
:1050B0000F90DF91CF911F910F91FF90EF90DF90B4
:1050C000CF90BF90AF900C943634EE2021F0F1E0F9
:1050D000EF1609F4C8C20E9439345FC0FF20A9F05E
:1050E00081E08E1508F4BFC20E9410348B2190918C
:1050F0002E02882329F090FF50C08CEC98E14BC021
:1051000090FF20C08BEA98E138C0E110ACC28091DA
:105110002E0280FF42C08FE798E13DC080912E02B1
:10512000FF2071F1EE2029F1F801958190FF1CC05C
:1051300080FF04C08EE598E10E941416F801858175
:105140008F7085838B2D0F900F900F900F900F9085
:10515000DF91CF911F910F91FF90EF90DF90CF9053
:10516000BF90AF900C94D42580FFF1C180E498E10A
:10517000ECC180FFE7CF84E298E10E941416E2CFF1
:10518000EE2029F080FF16C284E098E111C280FF72
:1051900004C088EE97E10E9414168B2D72C12B2D4E
:1051A00026952695237030E02115310521F0213018
:1051B0003105C9F058C2FF2019F0C501937002C033
:1051C00080E090E00F900F900F900F900F90DF9184
:1051D000CF911F910F91FF90EF90DF90CF90BF90F4
:1051E000AF900C94BC22FF2019F0C501937002C04F
:1051F00080E090E00F900F900F900F900F90DF9154
:10520000CF911F910F91FF90EF90DF90CF90BF90C3
:10521000AF900C94EA228A2DFF2019F00E944838A2
:1052200002C00E94B0380F900F900F900F900F9017
:10523000DF91CF911F910F91FF90EF90DF90CF9072
:10524000BF90AF900C9435398B2D837009F078C0E6
:10525000F11009C22A2D229526952770220F220FC0
:105260008A2D8F70C82ED12CE12CF12C022E04C077
:10527000CC0CDD1CEE1CFF1C0A94D2F7A4FE10C05F
:105280006FE070E080E090E004C0660F771F881F39
:10529000991F2A95D2F7609570958095909503C0D7
:1052A00060E070E0CB014B2D46954695437050E091
:1052B00042305105D9F04330510569F16C297D29FF
:1052C0008E299F294130510551F10F900F900F9079
:1052D0000F900F90DF91CF911F910F91FF90EF9062
:1052E000DF90CF90BF90AF900C94FF316C297D2957
:1052F0008E299F290F900F900F900F900F90DF91A4
:10530000CF911F910F91FF90EF90DF90CF90BF90C2
:10531000AF900C9411320E94FF31C701B6010F907B
:105320000F900F900F900F90DF91CF911F910F91E1
:10533000FF90EF90DF90CF90BF90AF900C94ED3145
:10534000FF2019F08B2D817001C08695882309F408
:105350008AC12A2D229526952770220F220F8A2D89
:105360008F70C82ED12CE12CF12C022E04C0CC0C55
:10537000DD1CEE1CFF1C0A94D2F7A4FE10C06FE0E7
:1053800070E080E090E004C0660F771F881F991FCF
:105390002A95D2F7609570958095909503C060E04E
:1053A00070E0CB014B2D46954695437050E042305E
:1053B0005105D9F04330510569F16C297D298E29B9
:1053C0009F294130510551F10F900F900F900F9090
:1053D0000F90DF91CF911F910F91FF90EF90DF9091
:1053E000CF90BF90AF900C9407336C297D298E2904
:1053F0009F290F900F900F900F900F90DF91CF91FA
:105400001F910F91FF90EF90DF90CF90BF90AF90E2
:105410000C9419330E940733C701B6010F900F9007
:105420000F900F900F90DF91CF911F910F91FF90F0
:10543000EF90DF90CF90BF90AF900C94F532F0EFEB
:10544000AF1681F1FA1520F080EEA81668F473C04B
:1054500092EFA91609F446C0A91608F43FC0E3EF7D
:10546000AE1609F442C067C01A2D1F708B2D8F71C4
:10547000FF2021F00E94A032812F65CE0E94BB3216
:10548000812F0F900F900F900F900F90DF91CF9181
:105490001F910F91FF90EF90DF90CF90BF90AF9052
:1054A0000C94DB25FF20A9F0E110DDC08B2D8F715E
:1054B0000F900F900F900F900F90DF91CF911F9151
:1054C0000F91FF90EF90DF90CF90BF90AF900C9432
:1054D000DA32F1E0FE1508F4C6C0E8CFFF2009F487
:1054E00081C04DC0F1107EC04AC0FF2099F08B2DC5
:1054F0008F710F900F900F900F900F90DF91CF91C1
:105500001F910F91FF90EF90DF90CF90BF90AF90E1
:105510000C9491320F900F900F900F900F90DF919D
:10552000CF911F910F91FF90EF90DF90CF90BF90A0
:10553000AF900C948C3280912E02FF2099F1EE20D6
:10554000C1F080FF04C084EC97E10E9414168A2DFC
:105550000F900F900F900F900F90DF91CF911F91B0
:105560000F91FF90EF90DF90CF90BF90AF900C9491
:105570003D2580FF04C08FE997E10E9414168B2D12
:105580008F710F900F900F900F900F90DF91CF9130
:105590001F910F91FF90EF90DF90CF90BF90AF9051
:1055A0000C94A032EE20C1F080FF04C089E797E19F
:1055B0000E9414168A2D0F900F900F900F900F904D
:1055C000DF91CF911F910F91FF90EF90DF90CF90DF
:1055D000BF90AF900C94A82580FF04C081E597E1AF
:1055E0000E9414168B2D8F710F900F900F900F90BB
:1055F0000F90DF91CF911F910F91FF90EF90DF906F
:10560000CF90BF90AF900C94BB324B2D4F706A2D52
:10561000C8010E944B170E9451300F900F900F90BD
:105620000F900F90DF91CF911F910F91FF90EF900E
:10563000DF90CF90BF90AF900C94B2404B2D4F7045
:105640006A2DC8010F900F900F900F900F90DF916F
:10565000CF911F910F91FF90EF90DF90CF90BF906F
:10566000AF900C94B6160F900F900F900F900F9074
:10567000DF91CF911F910F91FF90EF90DF90CF902E
:10568000BF90AF90089580912E0280FF04C084E007
:105690009AE10E9414164091FD015091FE01609123
:1056A000FF017091000280910102909102020E941C
:1056B000C72680912E0280FF04C082E09AE10C94FC
:1056C00014160895FF920F931F93CF93DF93809149
:1056D0002E0280FF04C08EED9CE10E941416009102
:1056E000CB01C9EDDCE186E0F82E9091CC018091F0
:1056F0002E020917C1F180FF04C08CED9CE10E94CD
:10570000141680912E0280FF0AC01F920F93DF9320
:10571000CF930E94AD160F900F900F900F90809135
:105720002E0280FF04C086ED9CE10E94141610E05A
:10573000F09EF001F19EF00D1124E353FE4F4081E5
:10574000518162817381848195810E94C7268091F5
:105750002E0280FF04C084ED9CE10E9414160F5FAE
:105760001F4F0770C2CF80FF09C081ED9CE1DF9120
:10577000CF911F910F91FF900C941416DF91CF9150
:105780001F910F91FF900895452B31F06F3F11F05D
:1057900080E008958F3FE1F781E00895CF92DF9296
:1057A000EF92FF920F931F93CF93DF9380910202AA
:1057B00082958F7009F07EC08091FF01882309F4E3
:1057C00079C0C091CB01D090CC01F090FD01E09068
:1057D000FE01009100021091010296E0C92ECD1544
:1057E00009F468C0A8016E2D8F2D0E94C42BD0E053
:1057F00081115DC0CC9EF001CD9EF00D1124E353CC
:10580000FE4F8181E81253C08081F81250C082811E
:1058100081114DC0238134812017310710F42150AC
:105820003109201B310B2436310508F040C080912E
:1058300002028F7080618093020286E08C9FF001EB
:105840008D9FF00D1124EE52FE4F80818F7080618C
:1058500080838DEF91E00E94622780912E0280FF6D
:1058600004C087E19AE10E94141680912E0280FF05
:105870000CC0DF93CF9384E19AE19F938F930E94B2
:10588000AD160F900F900F900F9080912E0280FF19
:1058900004C081E19AE10E941416DF91CF911F911B
:1058A0000F91FF90EF90DF90CF900C94622B219698
:1058B000C77095CFDF91CF911F910F91FF90EF901F
:1058C000DF90CF9008955F926F927F928F929F9218
:1058D000AF92BF92CF92DF92EF92FF920F931F93FE
:1058E000CF93DF93CDB7DEB761970FB6F894DEBFE5
:1058F0000FBECDBF8C0185E0F801DE011D96019041
:105900000D928A95E1F7D8019C901196AC90119771
:1059100012968C9012971396ED90FC9014976090CD
:10592000FD015090FE01C0900002D0900102A6013E
:10593000652D862D0E94C42B782E811129C2B0902E
:10594000FF01BB2009F466C120910202EC14FD04A2
:1059500038F0C7018C199D098436910550F0D5C0E7
:10596000C094D094CE0CDF1CB4E6CB16D10408F062
:10597000CCC0207F09F057C05A101EC069101CC04F
:10598000B82C811019C080912E0280FF04C086EBD4
:105990009CE10E941416809102028F7080618093B6
:1059A00002020E94432B8DEF91E00E9462278091BA
:1059B0000202F80185833CC2A7016A2D892D0E944D
:1059C000C42B811103C081E0882501C080E0F82F3D
:1059D000F170FF2E80FF1DC02091CB018091CC0182
:1059E00096E0281709F4F6C130E0929FF001939FEA
:1059F000F00D1124E353FE4F4181A41206C04081F3
:105A0000941203C04281841204C02F5F3F4F27705D
:105A1000E8CFB82C882009F40BC280910202816083
:105A2000809302029AC05A102DC069102BC08110B9
:105A300029C080912E0280FF04C088E69CE10E946C
:105A4000141680912E0280FF10C080910202829570
:105A50008F701F928F9325E63CE13F932F930E9416
:105A6000AD160F900F900F900F9080912E0280FF37
:105A700004C082E69CE10E94141680910202F801A3
:105A800085831AC19D86AE868D859E850E94F825E8
:105A9000882331F1B82C882019F180910202829577
:105AA0008F7090E020912E020297ACF020FF04C08E
:105AB0008DE29CE10E9414168091FD019091FE01FF
:105AC00098878F831986FB86EA86809102028C87ED
:105AD000CE01079689C020FF70C18AE09CE16BC1AE
:105AE000A7016A2D892D0E94C42B811108C08091C5
:105AF0002E0280FF04C082EE9BE10E941416C801B2
:105B00000E946227BB24B39493C1207F41F580910A
:105B10002E0280FF04C08EEB9BE10E9414167E2DA6
:105B2000F98AE88A492D5A2D682D89890E941D26F7
:105B300080912E0280FF04C08CEB9BE10E94141622
:105B40008DEF91E00E946227EDEFF1E086E0DF014A
:105B50001D928A95E9F70E94432BB12C69C15A1016
:105B60001BC0691019C0811017C080912E0280FFE0
:105B700004C080E99BE10E94141680910202F801A2
:105B80008583C8010E946227EDEFF1E086E0DF0126
:105B90001D928A95E9F74CC19D86AE868D859E85BE
:105BA0000E94F825882341F1B82C882029F18091A2
:105BB000020282958F7090E020912E020297BCF035
:105BC00020FF04C083E59BE10E9414168091FD0133
:105BD0009091FE019A8389831B82FD82EC828091E1
:105BE00002028E83CE0101960E946227E6C020FF4A
:105BF000E4C088E29BE1DFC0A7016A2D892D0E94E5
:105C0000C42B81117CCF80912E0280FF78CF88EF4A
:105C10009AE173CFEC14FD0438F097012C193D097B
:105C20002436310550F093C0C094D094CE0CDF1CC4
:105C3000B4E6CB16D10408F08AC0B82C882009F449
:105C400078C05A104EC069104CC08091020280FD8D
:105C50003FC0982F92959F70D9F1F80185839F30AE
:105C600031F09F5F9295907F8F70892B8583809113
:105C70002E0280FF04C084EE9AE10E9414168091E7
:105C80002E0280FF11C0D80115968C9182958F70DD
:105C90001F928F9321EE3AE13F932F930E94AD160E
:105CA0000F900F900F900F9080912E0280FF04C0F4
:105CB0008EED9AE10E941416C8010E94622786E0C8
:105CC000F801ADEFB1E001900D928A95E1F77FC048
:105CD00086E0F801ADEFB1E001900D928A95E1F711
:105CE000A7C09D86AE868D859E850E94F825F82EDC
:105CF0008823B1F080912E0280FF04C082EB9AE1EC
:105D00000E94141686E0F801ADEFB1E001900D920B
:105D10008A95E1F70E94CE2B0E94432BBF2C88C0AE
:105D200080910202816080930202C8010E94622772
:105D30007FC0A7016A2D892D0E94C42B8111DFCE5F
:105D400080912E0280FFDBCE8EE89AE1D6CE809144
:105D50002E0280FF04C08DE59AE10E9414167E2D6C
:105D6000F98AE88A492D5A2D682D89890E941D26B5
:105D700080912E0280FF04C08BE59AE10E941416E8
:105D8000EDEFF1E086E0DF011D928A95E9F71FC093
:105D9000882009F4B4CE9D86AE868D859E850E94AE
:105DA000F825B82E882309F4AACE80912E0280FF10
:105DB00004C08BE39AE10E94141686E0F801ADEF6F
:105DC000B1E001900D928A95E1F70E94CE2B0E94DE
:105DD000432B2EC09D86AE868D859E850E942B33DB
:105DE000292F22952F7030E0223031052CF49F703E
:105DF00041F0811106C014C0243031052CF49F708D
:105E000089F4805E883060F080912E0280FF04C0AB
:105E10008EE79CE10E941416C8010E9462277F2C25
:105E2000B72C06C0D80115969C91907F51F7F8CFFA
:105E30008B2D61960FB6F894DEBF0FBECDBFDF91FC
:105E4000CF911F910F91FF90EF90DF90CF90BF9077
:105E5000AF909F908F907F906F905F900895EF929A
:105E6000FF920F931F93CF93DF93CDB7DEB72C979D
:105E70000FB6F894DEBF0FBECDBF4F83588769873A
:105E80007A878B879C87CE0107960E94632C882394
:105E900009F14A855B8568858F810E94C42B811139
:105EA00078C080912E0280FF04C08CE89DE10E94A2
:105EB00014164F81588569857A858B859C850E944B
:105EC000C72680912E0280FF64C08AE89DE10E946F
:105ED00014165FC086E0FE013796DE011196019030
:105EE0000D928A95E1F7EF80F8840A851B85A80159
:105EF0006F2D8E2D0E94C42B81114BC04091CC017F
:105F000050E09A012F5F3F4F27703327E091CB017C
:105F1000F0E02E173F0749F480912E0280FF24C045
:105F200086EF9CE10E9414161FC0E982FA821D834D
:105F30000C8386E0849FD001859FB00D1124A3536C
:105F4000BE4FFE01319601900D928A95E1F72093A4
:105F5000CC0180912E0280FF04C081EE9CE10E9462
:105F600014160E94622B15C080912E0280FF04C07F
:105F70008EE69DE10E9414160E94F4251092CC0139
:105F80001092CB01EDEFF1E086E0DF011D928A95E2
:105F9000E9F74A855B8568858F810E94C42B811152
:105FA0000EC09091CC018091CB01981741F0809167
:105FB0002E0280FF04C08EE39DE10E94141626E0AD
:105FC000F22E00E21DE18091CB019091CC01891766
:105FD00049F0F89EC001112483539E4F0E94632C08
:105FE00081110AC04A855B8568858F810E94C42B18
:105FF000882309F441C048C080912E0280FF04C06C
:1060000083E29DE10E94141680912E0280FF0CC055
:106010008091CB011F928F931F930F930E94AD1617
:106020000F900F900F900F9080912E0280FF04C070
:106030008BE19DE10E941416E091CB01FE9EF001E0
:106040001124E353FE4F4081518162817381848129
:1060500095810E94C72680912E0280FF04C088E1AE
:106060009DE10E9414168091CB0190E0019687700B
:1060700099278093CB01A7CF80912E0280FF04C087
:1060800086E19DE10E9414162C960FB6F894DEBFAF
:106090000FBECDBFDF91CF911F910F91FF90EF9079
:1060A00008952F923F924F925F926F927F928F92BC
:1060B0009F92AF92BF92CF92DF92EF92FF920F9397
:1060C0001F93CF93DF9300D01F92CDB7DEB7FC01B3
:1060D000009709F40BC1312C212C8EEA482E8DE15A
:1060E000582E98E9692E9DE1792E0CEB1DE122EAEC
:1060F000E22E2DE1F22E34EDC32E3DE1D32E46ECFF
:10610000A42E4DE1B42ECF0101969B838A83849106
:10611000853709F495C060F4843708F06FC0843087
:1061200008F0ADC08130C1F0823009F43DC0DEC05E
:10613000883709F49FC050F4863709F497C0873731
:1061400009F0D4C0832D0E94203496C09CE7980F9C
:10615000903708F4A7C0CAC04F0192E0890E911C85
:10616000EA81FB81949180912E0280FF0CC01F92E6
:106170009F93DF92CF9299830E94AD160F900F905C
