:100000000C94C6090C940F0A0C940F0A0C940F0A56
:100010000C940F0A0C940F0A0C940F0A0C940F0AFC
:100020000C940F0A0C940F0A0C945D120C94331369
:100030000C940F0A0C940F0A0C940F0A0C940F0ADC
:100040000C940F0A0C94762D0C940F0A0C940F0A42
:100050000C940F0A0C941A220C940F0A0C940F0A99
:100060000C940F0A0C940F0A0C940F0A0C940F0AAC
:100070000C940F0A0C940F0A0C940F0A0C940F0A9C
:100080000C940F0A0C940F0A0C940F0A0C940F0A8C
:100090000C940F0A0C940F0AA413C613B414C613BD
:1000A000B4140B142E14B41483149614291829189C
:1000B00056185618B018EC18E31AE31A0419E31A84
:1000C000FF19FF19B91AE31AE31ACF1A750A0111B9
:1000D000021101180218010F020F010F020F012D6A
:1000E000022D01050205010C020C0111021101375C
:1000F000023701050205010F020F01120212010A67
:10010000020A01160216011302130112021201174C
:10011000021701370237010602060112021201100E
:10012000021000750A0106020601070207012C02EF
:100130002C013802380117021701100210011302B6
:1001400013012C022C01E1012302E1022301E10150
:100150002302E10223012C022C011A021A010A02D5
:100160000A0108020801170217012C022C010B02D8
:100170000B011702170117021701130213013402B2
:1001800034013802380138023801160216010B0218
:100190000B010C020C0112021201110211011202D8
:1001A000120116021601370237011602160120024B
:1001B0002001370237010402040110021001040279
:1001C00004011D021D01120212011102110104029B
:1001D00004011A021A01160216013702370106023B
:1001E0000601120212011002100138023801150234
:1001F000150108020801130213011202120138024C
:1002000038010E020E01080208011C021C0138020E
:10021000380107020701080208010502050137023B
:1002200037010A020A01130213010A020A01370206
:1002300037010E020E01080208011C021C012C02EB
:100240002C012D022D01E1011202E10212012C020A
:100250002C01160216010B020B010C020C011202FA
:100260001201110211012D022D01130213011802B6
:100270001801050205010F020F010C020C01060214
:1002800006013702370107020701080208010502CB
:100290000501370237010E020E01080208011C0297
:1002A0001C01370237010A020A01130213010A0274
:1002B0000A012C022C01E1012302E1022301E101E8
:1002C0002302E10223012C022C011602160118025E
:1002D000180107020701120212012C022C0104026C
:1002E000040113021301170217012D022D010E0242
:1002F0000E01080208011C021C012C022C01040240
:10030000040107020701070207012C022C01380231
:1003100038011702170110021001130213013802ED
:100320003801160216010B020B010C020C0112021D
:100330001201110211012D022D01130213011802E5
:100340001801050205010F020F010C020C01060243
:1003500006013702370107020701080208010502FA
:100360000501370237010E020E01080208011C02C6
:100370001C01370237010A020A01130213010A02A3
:100380000A00F1A62887018E028E048E228A00328E
:10039000F1A84287000000000000000000000000FB
:1003A000000000000000000001C000C009020802B7
:1003B000070206020502040223022202200258A3B9
:1003C000218A353A3B3C3D3E3F404142434445460D
:1003D000C5485453555657291E1F20212223242532
:1003E00026272D2E892A494A4B0000002B141A0873
:1003F00015171C180C12132F3000004C4D4E5F6067
:1004000061E0041607090A0B0D0E0F333431280082
:100410000000005C5D5EE11D1B06190511103637FA
:100420003887C60000005200595A5B39E3E28B2836
:100430002A2C8A88E6C0E400000050514F6263DE37
:10044000353A3B3C3D3E3F40414243444546C5482A
:100450005453555657291E1F202122232425262771
:100460002D2E892A494A4B0000002B141A08151713
:100470001C180C12132F3000004C4D4E5F6061E0D1
:10048000041607090A0B0D0E0F3334312800000043
:10049000005C5D5EE11D1B061905111036373887BB
:1004A000C60000005200595A5B39C4E28B56572CE3
:1004B0008A88E6C7E400000050514F6263DE293AA3
:1004C0003B3C3D3E3F40414243444546C548545372
:1004D000555657291E1F20212223242526272D2E3D
:1004E000892A494A4B0000002B141A0815171C18BA
:1004F0000C12132F3000004C4D4E5F6061E004166B
:1005000007090A0B0D0E0F33343128000000005C80
:100510005D5EE11D1B061905111036373887C600D0
:1005200000005200595A5BE0C3E2E22C282CE6E6B8
:10053000E6C7E400000050514F6263DE0101010193
:10054000010101010101010101010101010101019B
:10055000010101010101010101010101010101018B
:10056000010101010101010101010101010101017B
:100570000101010101010101D7D6D50101010101EC
:1005800001010101010101010101010101DAD9D8D3
:10059000010101010101010101010101010101014B
:1005A0000101DDDCDB0101010101010101010101AA
:1005B000010101010101012C1B01010101010101E6
:1005C00001010101010101010101FB01FCF6F90139
:1005D000010101010101010101010101010101010B
:1005E00001010101010101010101010101010101FB
:1005F000010101010101F4F0F50101010101010115
:100600000101010101010101010101F2F1F3010107
:1006100001010101010101010101010101010101CA
:1006200000000001010101010101010101010101BD
:100630000101010101F4F5FA0101010101010101CA
:10064000010101010101010101010101010101019A
:10065000010101010101010101010101010101018A
:10066000010101010101010101010101010101017A
:10067000010101010101010101010101010101016A
:10068000010101010101010101010101010101015A
:10069000010101010101010101010101F901010152
:1006A000010101010101010101010101010101013A
:1006B000FBFAFC01010100A9AAA8AEACB0AFABAD3A
:1006C0000000A600000000B400DF00C2000000002F
:1006D0000000000000000000D30000000000000047
:1006E000000000000000000000000000000000000A
:1006F00000000000000000000000000000000000FA
:100700000000C10000000000000000000000000028
:1007100000000000D4000000000000000000000005
:10072000C3000000000000006501000000000000A0
:10073000000000C0C1A9AAA8AEACB0AFABADC1C1AA
:10074000A6C1C1C1C1B4C1DFC1C2C1C1C1C1C1C1A2
:10075000C1C1C1C1C1C1D3C1C1C1C1C1C1C1C1C177
:10076000C1C1C1C1C1C1C1C1C1C1C1C1C1C1C1C179
:10077000C1C1C1C1C1C1C1C1C1C1C1C1C1C1C1C169
:10078000C1C1C1C1C1C1C1C1C1C1C1C1C1C1C1C159
:10079000C1C1D4C1C1C1C1C1C1C1C1C1C1C1C3C134
:1007A000C1C1C1C1C1C1650101C1C1C1C1C1C1C115
:1007B000C1C000A9AAA8AEACB0AFABAD0000A60006
:1007C000000000B400DF00C20000000000000000D4
:1007D00000000000D3000000000000000000000046
:1007E0000000000000000000000000000000000009
:1007F0000000000000000000000000000000C80031
:1008000000000000000000000000000000000000E8
:10081000D40000000000000000000000C200000042
:10082000000000006501000000000000000000C0A2
:10083000C8A9AAA8AEACB0AFABADC8C8A6C8C8C856
:10084000C8B4C8DFC8C2C8C8C8C8C8C8C8C8C8C82B
:10085000C8C8D3C8C8C8C8C8C8C8C8C8C8C8C8C80D
:10086000C8C8C8C8C8C8C8C8C8C8C8C8C8C8C8C808
:10087000C8C8C8C8C8C8C8C8C8C8C8C8C8C8C8C8F8
:10088000C8C8C8C8C8C8C8C8C8C8C8C8C8C8D4C8DC
:10089000C8C8C8C8C8C8C8C8C8C8C2C8C8C8C8C8DE
:1008A000C8C8650101C8C8C8C8C8C8C8C8C00A0047
:1008B0002530325800626F756E6365213A20004B17
:1008C0006579626F6172642073746172742E0A00BC
:1008D00055534220636F6E666967757265642E0AB0
:1008E000000D0A696E69740A005B445D005B435D3C
:1008F000001E035B006E0075006C006C005D002044
:10090000003100310030005200200045005300004B
:10091000000E035B006E0075006C006C005D000053
:10092000000403090409028D00050100A032090436
:100930000000010301010009211101000122400012
:100940000705810308000A090401000103010200F0
:10095000092111010001224D000705820308000A48
:100960000904020001030000000921110100012215
:1009700036000705830308000A0904030002030088
:100980000000092111010001222200070584032033
:10099000000107050403200001090404000103000D
:1009A00000000921110100012239000705850320FB
:1009B00000011201100100000008EDFE606001005E
:1009C0000102000105010906A101050719E029E757
:1009D00015002501950875018102050819012905F1
:1009E000950575019102950175039101050719009F
:1009F00029F71500250195F875018102C00631FF20
:100A00000974A1010975150026FF0095207508815C
:100A1000020976150026FF00952075089102C00591
:100A2000010980A101850216810026B7001A810004
:100A30002AB700751095018100C0050C0901A101BC
:100A40008503160100269C021A01002A9C027510DB
:100A500095018100C005010902A1010901A100055C
:100A600009190129051500250195057501810295D2
:100A700001750381010501093009311581257F9533
:100A8000027508810609381581257F950175088151
:100A900006050C0A38021581257F95017508810627
:100AA000C0C005010906A101050719E029E71500E5
:100AB00025019508750181029501750881010508D8
:100AC000190129059505750191029501750391019B
:100AD0000507190029FF150026FF009506750881F6
:100AE00000C0636F6E73756D65723A20253034589F
:100AF0000A0073797374656D3A20253034580A0002
:100B00000A002530325820006B6579626F6172648B
:100B10003A20004C45443A20253032580A0025300E
:100B200032583A20253033326225730A00722F631F
:100B30002030313233343536373839414243444539
:100B40004630313233343536373839414243444503
:100B5000460A0064656C5F6B65795F6269743A2070
:100B600063616E27742064656C3A20253032580A20
:100B7000006164645F6B65795F6269743A206361E8
:100B80006E2774206164643A20253032580A00646C
:100B90006F6E652E0A00626F6F746D616769632006
:100BA0007363616E3A202E2E2E2000290A002575CF
:100BB000002F002575005D280025640020002564B5
:100BC00000200025640020002564007C00253032D0
:100BD00058006D6F7573656B6579205B62746E7C10
:100BE000782079207620685D287265702F61636CAB
:100BF000293A205B006D6B5F776865656C5F74698F
:100C00006D655F746F5F6D6178203D2025640A001B
:100C10006D6B5F776865656C5F6D61785F7370653C
:100C20006564203D2025640A006D6B5F74696D6505
:100C30005F746F5F6D6178203D2025640A006D6BE5
:100C40005F6D61785F7370656564203D2025640A7F
:100C5000006D6B5F696E74657276616C203D202556
:100C6000640A006D6B5F64656C6179203D202564CA
:100C70000A006D6B5F776865656C5F74696D655FB1
:100C8000746F5F6D6178203D2025640A006D6B5F95
:100C9000776865656C5F6D61785F7370656564200A
:100CA0003D2025640A006D6B5F74696D655F746F2C
:100CB0005F6D6178203D2025640A006D6B5F6D617A
:100CC000785F7370656564203D2025640A006D6B54
:100CD0005F696E74657276616C203D2025640A0040
:100CE0006D6B5F64656C6179203D2025640A000AA4
:100CF00000257500363A20776865656C5F74696D0C
:100D0000655F746F5F6D61783A20000A0025750099
:100D1000353A20776865656C5F6D61785F737065E3
:100D200065643A20000A00257500343A2074696D24
:100D3000655F746F5F6D61783A20000A0025750069
:100D4000333A206D61785F73706565643A20000AFC
:100D500000257500323A20696E74657276616C28E0
:100D60006D73293A20000A00257500313A20646528
:100D70006C6179282A31306D73293A20000A092DD7
:100D80002056616C756573202D0A004D3E004D257F
:100D9000643E20003F007365742064656661756C75
:100DA000740A00433E200077686572652064656CB4
:100DB00074613A20637572736F723D25642C2077DD
:100DC0006865656C3D25640A5365652068747470B8
:100DD0003A2F2F656E2E77696B6970656469612E95
:100DE0006F72672F77696B692F4D6F7573655F6BD6
:100DF0006579730A000A092D204D6F7573656B655F
:100E000079202D0A4553432F713A09717569740A87
:100E1000313A0964656C6179282A31306D73290A89
:100E2000323A09696E74657276616C286D73290AAD
:100E3000333A096D61785F73706565640A343A0905
:100E400074696D655F746F5F6D61780A353A097713
:100E50006865656C5F6D61785F73706565640A369F
:100E60003A09776865656C5F74696D655F746F5F7B
:100E70006D61780A0A703A097072696E7420766141
:100E80006C7565730A643A097365742064656661FC
:100E9000756C74730A75703A092B310A646F776E3A
:100EA0003A092D310A706775703A092B31300A7092
:100EB00067646F776E3A092D31300A0A7370656581
:100EC00064203D2064656C7461202A206D61785F28
:100ED0007370656564202A202872657065617420CE
:100EE0002F2074696D655F746F5F6D6178290A00EA
:100EF0003F004D3E2000433E20004C25640A000A7E
:100F0000092D20436F6E736F6C65202D0A45534386
:100F10002F713A09717569740A6D3A096D6F7573AD
:100F2000656B65790A000A092D204D6167696320A8
:100F30002D0A643A0964656275670A783A0964653E
:100F4000627567206D61747269780A6B3A0964652D
:100F5000627567206B6579626F6172640A6D3A0928
:100F60006465627567206D6F7573650A763A0976F8
:100F7000657273696F6E0A733A097374617475737D
:100F80000A633A09636F6E736F6C65206D6F6465F9
:100F90000A302D343A096C61796572302D34284657
:100FA00031302D4634290A506175733A09626F6FEA
:100FB000746C6F616465720A653A09656570726F79
:100FC0006D0A6E3A094E4B524F0A7A3A09736C65B4
:100FD0006570204C454420746573740A000A00252E
:100FE00075002E6E6B726F3A20000A002575002E78
:100FF000737761705F6261636B736C6173685F626A
:1010000061636B73706163653A20000A00257500A7
:101010002E737761705F67726176655F6573633A9F
:1010200020000A002575002E6E6F5F6775693A20F3
:10103000000A002575002E737761705F72616C7411
:101040005F726775693A20000A002575002E737774
:1010500061705F6C616C745F6C6775693A20000A3F
:10106000002575002E636170736C6F636B5F746F26
:101070005F636F6E74726F6C3A20000A0025750012
:101080002E737761705F636F6E74726F6C5F6361F4
:1010900070736C6F636B3A20000A00253032580081
:1010A0006B65796D61705F636F6E6669672E7261E3
:1010B000773A20000A002575002E6D6F7573653A2A
:1010C00020000A002575002E6B6579626F617264DD
:1010D0003A20000A002575002E6D61747269783A15
:1010E00020000A002575002E656E61626C653A204D
:1010F000000A00253032580064656275675F636FCF
:101100006E6669672E7261773A20000A00257500C5
:1011100064656661756C745F6C617965723A200014
:101120003F004E4B524F3A206F66660A004E4B52BC
:101130004F3A206F6E0A0074696D65725F72656167
:1011400064333228293A202530346C580A006B6504
:1011500079626F6172645F6E6B726F3A2025580A14
:10116000006B6579626F6172645F69646C653A20D7
:1011700025580A006B6579626F6172645F70726FE7
:10118000746F636F6C3A2025580A00686F73745F40
:101190006B6579626F6172645F6C65647328293A6C
:1011A0002025580A000A092D205374617475732094
:1011B0002D0A004743433A20342E392E322041561F
:1011C000522D4C4942433A20312E382E3073766EE0
:1011D000204156525F415243483A20617672353180
:1011E0000A004F5054494F4E533A204C5546412027
:1011F000424F4F544D41474943204D4F5553454B66
:1012000045592045585452414B455920434F4E5360
:101210004F4C4520434F4D4D414E44204E4B524F75
:1012200020313032340A004255494C443A20756E20
:101230006B6E6F776E202830303A35313A32352078
:101240004A616E2031352032303137290A00564943
:10125000443A20307846454544285B6E756C6C5D99
:1012600029205049443A20307836303630285B6E99
:10127000756C6C5D20313130522045532920564524
:10128000523A203078303030310A00444553433AE6
:10129000205B6E756C6C5D20313130522045530AF5
:1012A000000A092D2056657273696F6E202D0A00A1
:1012B0000A6D6F7573653A206F66660A000A6D6F76
:1012C0007573653A206F6E0A000A6B6579626F610B
:1012D00072643A206F66660A000A6B6579626F6114
:1012E00072643A206F6E0A000A6D61747269783A0E
:1012F000206F66660A000A6D61747269783A206F21
:101300006E0A000A64656275673A206F6E0A000A09
:1013100064656275673A206F66660A000A0A626F42
:101320006F746C6F616465722E2E2E2000433E2018
:10133000006565636F6E6669673A0A00536C6565A0
:1013400070204C454420746573740A00000000004E
:1013500000000000000000010204060A0F17202C04
:101360003A4A5D71879DB3C7DAE9F5FCFFFCF5E900
:10137000DAC7B39D87715D4A3A2C20170F0A06041D
:1013800002010000000000000000000011241FBE48
:10139000CFEFD0E2DEBFCDBF04B603FE27C0809101
:1013A000350290913602A0913702B0913802873011
:1013B000904BA740B04BD1F41092350210923602F8
:1013C000109237021092380214BE84B7877F84BF10
:1013D0000FB6F894A89580916000886180936000B2
:1013E000109260000FBEE0E0FEEF099511E0A0E072
:1013F000B1E0E0EBFEE500E00BBF02C007900D920C
:10140000AA33B107D9F722E0AAE3B1E001C01D92E7
:10141000A533B207E1F70E94880F0C94562F0C9465
:101420000000FF93EF93E0913A01F0913B01309778
:1014300009F00995EF91FF910895FC0185918030A5
:1014400011F0EFDFFBCF0895FF27E0E230E247FF26
:101450000CC0419597FF09C0EDE2609570958095AD
:101460009095611D711D811D911D27FF02C0219561
:1014700030E350E2AA27660F771F881F991FAA1F23
:10148000A41710F0A41B63955A95A9F7AA3008F089
:10149000A95FA05DAF93F395611571058105910575
:1014A00041F7ED3211F4EF93F395F21718F43F93EF
:1014B000F395FBCF8F91B5DFFA95E1F70895E991A8
:1014C000F9918591803021F0853219F0AADFF9CFAA
:1014D000089520E0E89455915532C1F3503311F44A
:1014E000689455915A3348F4505390F3220F022ECA
:1014F000220F220F200D250FF4CF0EF42195899194
:101500009991533619F3533729F1533559F1BC01E9
:1015100088279927E8945C3621F4899199916894F9
:101520005591543639F446EF7EF077FF0DC08FEFBA
:101530009FEF0AC055374AE039F0583540E121F0B5
:10154000523642E009F00895FF93EF937DDFEF916B
:10155000FF91B7CFFF93EF93FC0181918030B9F3F6
:1015600060DFFBCFFF93EF9368DFF1CFDF93CF9383
:10157000CDB7DEB72596A3DFCF91DF91089566231F
:1015800049F0613071F4FC018281882351F083E2DB
:1015900091E00895FC018281882319F08CEC90E0A1
:1015A000089580E090E0089580B310BA81B311BA35
:1015B00084B1817084B985B18E6F85B98AB1807428
:1015C0008AB98BB18F6B8BB987B1807887B988B1B5
:1015D0008F6788B9E4E5F1E0ACE3B1E011921192D4
:1015E000119211921D921D921D921D9281E0EC3676
:1015F000F807A1F708954F925F926F927F928F92B2
:101600009F92AF92BF92CF92DF92EF92FF920F9391
:101610001F93CF93DF931F92CDB7DEB70CE311E09A
:10162000680120E0233099F028F4213051F0223075
:1016300059F004C0243071F0253079F0829A8A98EC
:101640000EC0879A8F980BC0849A8C9808C0859A90
:101650008D9805C0869A8E9802C0839A8B9880EAEE
:101660008A95F1F786B182958695877091E08927F2
:1016700080FBEE24E0F8F12C349903C082E090E086
:1016800002C080E090E08E299F29339903C0A4E036
:10169000B0E002C0A0E0B0E08A2B9B2B329903C0DF
:1016A00068E070E002C060E070E0862B972B319913
:1016B00003C040E150E002C040E050E0842B952B95
:1016C000309903C0A0E2B0E002C0A0E0B0E08A2BF5
:1016D0009B2B1B9903C0E0E4F0E002C0E0E0F0E0E7
:1016E0008E2B9F2B1A9903C040E850E002C040E0C7
:1016F00050E0BC01642B752B49B1042E000C550B36
:1017000040955095CA018827990F881F9927982FCF
:101710008827862B972B4D9903C040E052E002C0EA
:1017200040E050E04C01842A952A4C9903C040E0E7
:1017300054E002C040E050E0842A952A4B9903C04F
:10174000E0E0F8E002C0E0E0F0E08E2A9F2A4A994B
:1017500003C060E070E102C060E070E0862A972A72
:10176000499903C040E050E202C040E050E0842AC2
:10177000952A092C000CAA08BB08489905C080E0EE
:1017800090E4A0E0B0E003C080E090E0DC01882AB3
:10179000992AAA2ABB2A43B1042E000C550B660BCA
:1017A000770B4095509560957095DB01CA018827AD
:1017B000B7FD83959927AA27BB277FE0880F991F3C
:1017C000AA1FBB1F7A95D1F788299929AA29BB2975
:1017D000369905C0412C512C3201639403C0412C31
:1017E000512C320184299529A629B729199906C0B7
:1017F000412C512C42E0642E712C03C0412C512C01
:10180000320184299529A629B7291C9906C0812C63
:10181000912C34E0A32EB12C03C0812C912C5401C7
:1018200088299929AA29BB291E9905C040E050E0C2
:1018300068E070E003C040E050E0BA01842B952BD3
:10184000A62BB72B1D9905C040E050E060E170E089
:1018500003C040E050E0BA01842B952BA62BB72B98
:10186000F6014081518162817381481759076A07E7
:101870007B0799F180839183A283B38380910001D8
:10188000882341F18091140280FF06C085EB98E027
:1018900029830E941D0A29818091140280FF10C0B3
:1018A000809100011F928F9380EB98E09F938F931C
:1018B00029830E94B60A0F900F900F900F902981F4
:1018C0008091140280FF06C08EEA98E029830E946E
:1018D0001D0A298185E08093000180B310BA81B38D
:1018E00011BA2F5FF4E0CF0ED11C263009F09ACE4A
:1018F000809100018823F1F08150809300018823BA
:1019000039F08FE99FE00197F1F700C0000012C0A5
:1019100024E531E0F80181919191A191B1918F017C
:10192000F90181939193A193B1939F01F1E0043563
:101930001F0781F781E00F90DF91CF911F910F91E9
:10194000FF90EF90DF90CF90BF90AF909F908F90DF
:101950007F906F905F904F90089524E0829FC00128
:101960001124FC01EC5AFE4F6081718182819381C8
:10197000089580FF03C06F9A779A02C06F98779896
:1019800081FF03C0699A719A02C06998719884FFB7
:1019900003C0089A109A08950898109808950F9314
:1019A0001F938B019C010670112722273327012BDF
:1019B000022B032B19F0689A709A02C068987098ED
:1019C0008B019C01007C137022273327012B022BF3
:1019D000032B19F06E9A769A02C06E98769865FF7E
:1019E00003C0099A119A02C00998119864FF03C0B4
:1019F0000A9A129A02C00A9812981F910F9108959C
:101A00008091900108959FB7F89410926F019FBF45
:101A100090912B02943009F057C09091E9009F708B
:101A20003091EC00232F217030FD20E8922B24E030
:101A30002093E9002091EB0020FF43C02091EE00AD
:101A400027FF3FC020916C01222321F02091E80064
:101A500025FF37C010926C0126E03091E80035FD7B
:101A600015C030912B02343061F53091EB0035FD1B
:101A700028C0215021F481E080936C0122C0EFE95D
:101A8000FFE03197F1F700C00000E7CF8093F1004D
:101A90008091E80085FD0AC08091E80080FFFCCFBE
:101AA0008091E8008E778093E80006C08FB7F894A5
:101AB00021E020936F018FBF9F709093E90080E039
:101AC00008959F709093E9008FEF0895CF93DF936F
:101AD00000D01F92CDB7DEB79C0180912B028430DD
:101AE00019F593E099833B832A839093E9008FEF64
:101AF0009091E800815095FD06C095ED9A95F1F71B
:101B000000008111F5CF8091E80085FF0DC040E015
:101B100050E063E070E0CE0101960E944E1080918B
:101B2000E8008E778093E8000F900F900F90DF9180
:101B3000CF910895CF93DF9300D01F92CDB7DEB73A
:101B400020912B02243021F522E029839B838A8374
:101B500083E08093E9008FEF9091E800815095FD3C
:101B600006C095ED9A95F1F700008111F5CF8091AF
:101B7000E80085FF0DC040E050E063E070E0CE017A
:101B800001960E944E108091E8008E778093E800C5
:101B90000F900F900F90DF91CF91089520912B021D
:101BA0002430F1F422E02093E9002FEF3091E80097
:101BB000215035FD06C035ED3A95F1F700002111B1
:101BC000F5CF2091E80025FF0BC040E050E065E034
:101BD00070E00E944E108091E8008E778093E800BC
:101BE0000895CF93DF9320912B02243009F048C051
:101BF000EC0180910B018823E1F080910C01882396
:101C0000C1F085E08093E9008FEF9091E80081506A
:101C100095FD06C095E19A95F1F700008111F5CF89
:101C20008091E80085FF2CC040E050E060E270E069
:101C300017C081E08093E9008FEF9091E800815018
:101C400095FD06C095ED9A95F1F700008111F5CF4D
:101C50008091E80085FF14C040E050E068E070E04B
:101C6000CE010E944E108091E8008E778093E800AC
:101C700080E2FE01A0E7B1E001900D928A95E1F7C4
:101C8000DF91CF9108958DEE98E00E941D0A80911A
:101C90002A02811109C00E94DF110E944112809125
:101CA000E20084608093E200089589EE98E00E944B
:101CB0001D0A10922A020895089520916D012F5F48
:101CC000822F62E30E94E82E992319F020936D0180
:101CD000089510926D0180916F01882371F18091B8
:101CE0002B02843041F58091E9008F702091EC0047
:101CF000922F917020FD90E8892B94E09093E90059
:101D00009091EB0090FF14C09091EE0097FF10C0EF
:101D10009091E80095FF03C01092F100F9CF9091E7
:101D2000E80090FF05C09091E8009E779093E8004E
:101D30008F708093E90010926F01089542E061EC8A
:101D400081E00E94591142E061EC82E00E94591149
:101D500042E061EC83E00E94591142E261EC84E0D0
:101D60000E94591142E261EC85E00C945911809176
:101D70002D02833009F455C030F4813071F0823087
:101D800009F48EC008958A3009F47AC08B3009F4C2
:101D900060C0893009F09CC020C080912C02813A3B
:101DA00009F096C08091E800877F8093E8008091D9
:101DB000300290913102892B21F460E280E791E0BA
:101DC00003C060E080E090E070E00E949910809194
:101DD000E8008B778093E800089580912C0281328F
:101DE00009F076C08091300290913102009719F08D
:101DF000049709F06DC08091E800877F8093E80028
:101E00008091E80082FD05C080912B028111F8CFFE
:101E10005FC08091F100809390018091E8008B7702
:101E200053C080912C02813A09F052C08091300257
:101E300090913102892B09F04BC08091E800877F97
:101E40008093E8008091E80080FFFCCF80910B0137
:101E500036C080912C028132D9F580913002909168
:101E60003102892BA9F58091E800877F8093E800F3
:101E70000E948E1180912E0280930B010C94041B02
:101E800080912C02813221F58091E800877F809338
:101E9000E8000E948E1180912F0280939101089595
:101EA00080912C02813AA1F48091E800877F809391
:101EB000E8008091E80080FFFCCF80919101809341
:101EC000F1008091E8008E778093E8000C948E11E9
:101ED0000895089508958091900180936E01109265
:101EE000900180E00E94B90C0E9492160E94041B8F
:101EF0000C94642D0C946B0F0E94B32180912902E5
:101F0000882329F00E94B42181110C94381008957F
:101F100084B7877F84BF0FB6F894A895809160003E
:101F2000886180936000109260000FBE90E080E8AE
:101F30000FB6F89480936100909361000FBE83E028
:101F40009DE00E943E2181EE98E00E941D0A0E94C1
:101F5000690F0E948D150E94DF110E94411280912D
:101F6000E20084608093E200789480912B028430B8
:101F7000E1F780ED98E00E941D0A0E948F1581E034
:101F800091E00E94CC140E94522D8FEB98E00E94A9
:101F90001D0A0E946A0F80912B02853019F40E945D
:101FA0007C0FF9CF0E949515F6CF0E94CB210E949D
:101FB0006A2D80916E018093900108950C94D50F45
:101FC000292F332723303105C9F064F4213031053E
:101FD00081F02230310509F043C08DE890E025E220
:101FE00039E042C021323105F1F02232310541F1B0
:101FF00037C082E190E022EB39E036C0992781308A
:10200000910541F08230910541F0892B49F5E1E2DB
:10201000F9E005C0E1E1F9E002C0E1EFF8E0849108
:1020200090E09F0121C06530D8F4E62FF0E0EE0F7C
:10203000FF1FEC5DFE4F2081318189E090E014C0EC
:10204000653070F470E0FB01EE0FFF1FE65EFE4F9F
:1020500020813181FB01EB5EFE4F808190E004C066
:1020600080E090E020E030E0FA01318320830895A1
:1020700084E189BD86E189BD09B400FEFDCF809170
:10208000D8008F7D8093D8008091E000826080939B
:10209000E0008091E00081FDFCCF0895CF92DF92B7
:1020A000EF92FF920F931F93CF93DF93EC018B017D
:1020B0006A010E94AD11811133C0C114D10439F0FD
:1020C000F60180819181081B190BC80FD91FE12CE3
:1020D000F12C0115110519F18091E80085FD16C05C
:1020E0008091E8008E778093E800C114D10449F014
:1020F000F60180819181E80EF91EF182E08285E08F
:102100000FC00E94AD11882321F30AC089918093EA
:10211000F10001501109FFEFEF1AFF0ADACF80E05A
:10212000DF91CF911F910F91FF90EF90DF90CF90B3
:10213000089520913202309133022617370748F074
:102140006115710539F42091E8002E772093E8009D
:1021500001C0B90140E06115710599F120912B0290
:10216000222309F441C0253009F440C02091E80041
:1021700023FD3EC02091E80022FD30C02091E80000
:1021800020FFE9CF2091F2003091F300FC01CF0154
:102190006115710559F02830310540F48191809323
:1021A000F100615071092F5F3F4FF1CF41E02830BE
:1021B000310509F040E02091E8002E772093E800F7
:1021C000CACF4111CBCF0AC080912B02882361F086
:1021D000853061F08091E80083FD0AC08091E800BD
:1021E00082FFF2CF80E0089582E0089583E00895B1
:1021F00081E008952091320230913302261737078B
:1022000048F06115710539F42091E8002E7720938C
:10221000E80001C0B901FC0120E06115710581F100
:1022200080912B02882309F43EC0853009F43DC01B
:102230008091E80083FD3BC08091E80082FD2DC0C5
:102240008091E80080FFE9CF8091F2009091F30047
:102250006115710559F08830910540F4249120935F
:10226000F1003196615071090196F2CF21E0089793
:1022700009F020E08091E8008E778093E800CDCFD0
:102280002111CECF0AC080912B02882361F08530C6
:1022900061F08091E80083FD0AC08091E80082FF30
:1022A000F2CF80E0089582E0089583E0089581E010
:1022B0000895982F973058F59093E900981739F0C2
:1022C0007091EC002091ED005091F00003C0242F9C
:1022D000762F50E021FF19C03091EB003E7F309304
:1022E000EB003091ED003D7F3093ED003091EB003D
:1022F00031603093EB007093EC002093ED0050932D
:10230000F0002091EE0027FF07C09F5FD3CF8F70B2
:102310008093E90081E0089580E0089580912C0287
:1023200087FF11C08091E80082FD05C080912B02DB
:102330008111F8CF11C08091E8008B770BC080919C
:102340002B02882349F08091E80080FFF8CF80912C
:10235000E8008E778093E80008952091E4003091A2
:10236000E50095E64091EC00842F817040FF22C08B
:102370008091E80080FD1CC080912B02882391F0A1
:10238000853091F08091EB0085FD10C04091E40014
:102390005091E5004217530729F39A01915011F724
:1023A00084E0089582E0089583E0089581E008952F
:1023B00080E008954091E80042FFDECF08950E943A
:1023C00050120E945812E0EEF0E08081816080831C
:1023D000E8EDF0E080818F77808319BCA7EDB0E055
:1023E0008C918E7F8C9380818F7E808310922A02C5
:1023F00008950F931F93CF93DF930E9450120E9472
:102400005812C8EDD0E088818F77888388818068F2
:10241000888388818F7D8883E7EDF0E08081806804
:10242000808319BC10922B0210922702109229026D
:102430001092280200EE10E0F80180818B7F8083EB
:1024400088818160888342E060E080E00E945911C9
:10245000E1EEF0E080818E7F8083E2EEF0E080812B
:1024600081608083808188608083F80180818E7F95
:102470008083888180618883DF91CF911F910F9144
:102480000895E8EDF0E080818F7E8083E7EDF0E055
:1024900080818160808381E080932A020C94F9110D
:1024A000E8EDF0E080818C7F80831092E200089557
:1024B0001092DA001092E10008951F920F920FB669
:1024C0000F9211240BB60F922F933F934F935F936C
:1024D0006F937F938F939F93AF93BF93EF93FF93EC
:1024E0008091E10082FF0BC08091E20082FF07C073
:1024F0008091E1008B7F8093E1000E945D0E8091CE
:10250000DA0080FF1FC08091D80080FF1BC080913F
:10251000DA008E7F8093DA008091D90080FF0DC0B1
:1025200084E189BD86E189BD09B400FEFDCF81E06B
:1025300080932B020E94430E05C019BC10922B02FF
:102540000E94550E8091E10080FF19C08091E20049
:1025500080FF15C08091E2008E7F8093E200809121
:10256000E20080618093E2008091D80080628093D5
:10257000D80019BC85E080932B020E947A0F8091CD
:10258000E10084FF30C08091E20084FF2CC084E130
:1025900089BD86E189BD09B400FEFDCF8091D800D8
:1025A0008F7D8093D8008091E1008F7E8093E10041
:1025B0008091E2008F7E8093E2008091E200816052
:1025C0008093E20080912702882311F084E007C005
:1025D0008091E30087FD02C081E001C083E0809329
:1025E0002B020E94DE0F8091E10083FF29C08091C1
:1025F000E20083FF25C08091E100877F8093E100A6
:1026000082E080932B02109227028091E1008E7F5E
:102610008093E1008091E2008E7F8093E2008091C0
:10262000E20080618093E20042E060E080E00E948E
:1026300059118091F00088608093F0000E945C0E38
:10264000FF91EF91BF91AF919F918F917F916F918A
:102650005F914F913F912F910F900BBE0F900FBE46
:102660000F901F9018951F920F920FB60F92112482
:102670000BB60F922F933F934F935F936F937F937C
:102680008F939F93AF93BF93CF93DF93EF93FF937A
:10269000C091E900CF708091EC00D82FD17080FDFF
:1026A000D0E81092E9008091F000877F8093F000DD
:1026B00078940E947B131092E9008091F00088606A
:1026C0008093F000CD2BCF70C093E900FF91EF9184
:1026D000DF91CF91BF91AF919F918F917F916F913A
:1026E0005F914F913F912F910F900BBE0F900FBEB6
:1026F0000F901F9018951F93CF93DF93CDB7DEB740
:10270000AA970FB6F894DEBF0FBECDBFECE2F2E0A1
:1027100088E08E0F9091F10091938E13FBCF0E9471
:10272000B70E8091E80083FF1FC180912C02909129
:102730002D02492F50E04A30510508F015C1FA0129
:10274000E45BFF4F0C94082F803881F0823809F049
:102750000BC1809130028F708093E9008091EB0073
:1027600085FB882780F91092E90006C08091280235
:1027700090912902911182609091E800977F909347
:10278000E8008093F1001092F100C8C0282F2D7F3F
:1027900009F0EAC0882319F0823061F0E5C0809129
:1027A0002E02813009F0E0C0933009F080E0809380
:1027B00029022BC080912E02811127C08091300206
:1027C0008F7009F4D1C08093E9002091EB0020FFC5
:1027D0001CC0933021F48091EB00806214C0909172
:1027E000EB0090619093EB0021E030E0A90102C082
:1027F000440F551F8A95E2F74093EA001092EA00D1
:102800008091EB0088608093EB001092E90080914A
:10281000E800877F86C08111A7C010912E021F7724
:102820008091E3008078812B8093E3008091E80021
:10283000877F8093E8000E948E118091E80080FFDE
:10284000FCCF8091E30080688093E300111102C007
:1028500082E001C083E080932B0286C080588230E2
:1028600008F082C080912E0290912F028C3D53E09F
:10287000950779F583E08A838AE289834FB7F894D4
:10288000DE01139620E03EE051E2E32FF0E05093AA
:102890005700E49120FF03C0E295EF703F5FEF70B7
:1028A0008E2F90E0EA3010F0C79601C0C0968D934D
:1028B0009D932F5F243149F74FBF8091E800877FB8
:1028C0008093E8006AE270E0CE0101960E949910C0
:1028D00014C0AE014F5F5F4F609130020E94E00F65
:1028E000BC01892B09F440C09091E800977F909338
:1028F000E80089819A810E94FA108091E8008B7724
:102900008093E80031C0803879F58091E800877FB6
:102910008093E800809127028093F1008091E80085
:102920008E778093E8000E948E111EC081111CC01A
:1029300090912E029230C0F48091E800877F8093BE
:10294000E800909327020E948E1180912702811146
:1029500006C08091E30087FD02C081E001C084E0F1
:1029600080932B020E949E0E8091E80083FF0AC094
:102970008091E800877F8093E8008091EB0080627F
:102980008093EB00AA960FB6F894DEBF0FBECDBFC2
:10299000DF91CF911F9108959093970180939601B5
:1029A0000895E0919601F0919701309721F0019000
:1029B000F081E02D099480E00895EF92FF920F934B
:1029C0001F93CF93DF93E0919601F0919701309799
:1029D000B1F18C010280F381E02D09958091140200
:1029E00082FF2DC080FF04C088E09BE00E941D0A8A
:1029F000E80110E282E0E82E8BE0F82E80911402CC
:102A000080FF0BC088811F928F93FF92EF920E94EC
:102A1000B60A0F900F900F900F9011502196111140
:102A2000EDCF8091140280FF0AC080E09BE0DF912F
:102A3000CF911F910F91FF90EF900C941D0ADF91A1
:102A4000CF911F910F91FF90EF900895E091960123
:102A5000F0919701309721F00480F581E02D0994E1
:102A60000895CF93DF93EC018091940190919501AB
:102A7000C817D90709F1D0939501C0939401E0914B
:102A80009601F09197013097B9F00680F781E02D1B
:102A9000CE0109958091140282FF0EC080FF0CC008
:102AA000DF93CF9382EF9AE09F938F930E94B60AB1
:102AB0000F900F900F900F90DF91CF910895CF93CB
:102AC000DF93EC018091920190919301C817D9078F
:102AD00009F1D0939301C0939201E0919601F09196
:102AE00097013097B9F00084F185E02DCE0109956A
:102AF0008091140282FF0EC080FF0CC0DF93CF9341
:102B000082EE9AE09F938F930E94B60A0F900F90E7
:102B10000F900F90DF91CF9108950C9493160E941F
:102B2000CF210E94D40A0C94DA234F925F926F92C5
:102B30007F929F92AF92BF92CF92DF92EF92FF92DD
:102B40000F931F93CF93DF93CDB7DEB729970FB6BF
:102B5000F894DEBF0FBECDBF0E94FB0A49E9A42E48
:102B600041E0B42E00E010E0902E802F0E94AD0CCA
:102B7000F501C190D190E190F1905F01C626D72672
:102B8000E826F926C114D104E104F104B1F40F5F81
:102B90001F4F0630110541F78FEF89838A831B820F
:102BA0000E94D8218160782F9D838C8349815A812E
:102BB0006B818D810E94CC1664C02091140221FF8C
:102BC0000AC06E837F83888799870E9494169985AF
:102BD00088857F816E8140E050E026013701042E18
:102BE00004C076946794579447940A94D2F740FEB1
:102BF00041C049839A82C12CD12C7601C39404C070
:102C0000CC0CDD1CEE1CFF1C4A95D2F726013701C7
:102C1000462257226822792281E045284628472803
:102C200009F480E08B830E94D8218160782F9D83F6
:102C30008C8349815A816B818D810E94CC16498198
:102C40005A816B817C818D810E949F21000F111F11
:102C5000000F111FF801E756FE4F80819181A2817C
:102C6000B381C826D926EA26FB26C082D182E28219
:102C7000F38207C04F5F5F4F4531510509F0ADCF7B
:102C800086CF0E949E210E946427109198010E9485
:102C9000D114181779F10E94D11480939801909162
:102CA000140292FF0EC090FF0CC01F928F9383E11D
:102CB0009BE09F938F930E94B60A0F900F900F9006
:102CC0000F908091980129960FB6F894DEBF0FBE41
:102CD000CDBFDF91CF911F910F91FF90EF90DF90CB
:102CE000CF90BF90AF909F907F906F905F904F90EC
:102CF0000C94B02129960FB6F894DEBF0FBECDBF5D
:102D0000DF91CF911F910F91FF90EF90DF90CF90C7
:102D1000BF90AF909F907F906F905F904F9008957D
:102D20000C94B90C08950895EF92FF920F931F939E
:102D3000CF93DF938DE29BE00E941D0AC0E0D0E0BC
:102D40008EE2E82E81E0F82E0EE11BE08C2F0E942F
:102D5000AD0C0E947321FF92EF929F938F937F930C
:102D60006F93DF93CF931F930F930E94B60A219620
:102D70008DB79EB70A960FB6F8949EBF0FBE8DBF53
:102D8000C630D10519F7DF91CF911F910F91FF90B8
:102D9000EF90089508950895CF93DF93CDB7DEB7F0
:102DA0002B970FB6F894DEBF0FBECDBF942F4F8385
:102DB000252F588769877A878B874A855B85452BBE
:102DC00021F02F3F09F59F3FF9F4DE01119686E0CF
:102DD000FD0111928A95E9F785E0FE013796019091
:102DE0000D928A95E1F749815A816B817C818D81B1
:102DF0009E810E949E1D2B960FB6F894DEBF0FBEDB
:102E0000CDBFDF91CF9108954F81588569857A852F
:102E10008B850E949F21D9CFCF93882309F4A4C02A
:102E2000C82F8CEF8C0F813A48F48C2F0E94FD2B19
:102E300081119AC08C2F0E9433200CC080E28C0F2D
:102E4000883058F4C77081E001C0880FCA95EAF74E
:102E50000E94DE20CF910C9418218BE58C0F8330DB
:102E600078F4C53A29F0C63A31F083E890E005C01D
:102E700081E890E002C082E890E0CF910C94311597
:102E800088E58C0F853108F06FC0C83A61F1C93A06
:102E900069F1CA3A71F1CB3A79F1CC3A81F1CD3A84
:102EA00089F1CE3A91F1CF3A99F1C13BA1F1C03B02
:102EB000A9F1C23BB1F1C33BB9F1C43BC1F1C53B80
:102EC000C9F1C63BD1F1C73BD9F1C83BE1F1C93BE0
:102ED000E9F1CA3BF1F1CB3BF9F1CC3B09F43FC03E
:102EE00080E090E03EC082EE90E03BC089EE90E052
:102EF00038C08AEE90E035C085EB90E032C086EBBA
:102F000090E02FC083EB90E02CC084EB90E029C0D0
:102F100087EB90E026C08CEC90E023C08DEC90E035
:102F200020C083E891E01DC08AE891E01AC082E9E0
:102F300091E017C084E991E014C081E292E011C0F1
:102F400083E292E00EC084E292E00BC085E292E060
:102F500008C086E292E005C087E292E002C08AE201
:102F600092E0CF910C945F15CF910895882329F1B9
:102F70009CEF980F913A18F40E9486200DC090E2C1
:102F8000980F983058F4877091E001C0990F8A9596
:102F9000EAF7892F0E94E4200C9418219BE5980FF2
:102FA000933020F480E090E00C943115885A8531FC
:102FB00020F480E090E00C945F150895882321F0C0
:102FC0000E94DE200C9418210895882321F00E948D
:102FD000E4200C9418210895CF92DF92EF92FF9293
:102FE0000F931F93CF93DF9300D000D000D0CDB7C5
:102FF000DEB725E0FC01DE01119601900D922A95C5
:10300000E1F7FC0140813181F280258122952F700A
:1030100063817481672B09F4D6C23F3F19F44F3F97
:1030200009F4D1C26C0149833A8389819A812E8344
:103030000E94F21F182F092F0E94F11F0E94011FEA
:10304000E02FE295EF70F0E0EA5AFF4F2E810C94EA
:10305000082F802F807F902F9F70092F882311F0D9
:103060000295007FFF2049F0002309F45DC2802F04
:103070000E94F1200E94182157C2812F0E94B6178A
:10308000002309F4A0C2802F0E94F72026960FB6D5
:10309000F894DEBF0FBECDBFDF91CF911F910F918E
:1030A000FF90EF90DF90CF900C941821802F807FBD
:1030B000902F9F70092F803211F00295007F11230D
:1030C00019F0113001F129C0FF20A9F0802F22232F
:1030D00049F1213039F526960FB6F894DEBF0FBEC0
:1030E000CDBFDF91CF911F910F91FF90EF90DF90B7
:1030F000CF900C940121222319F0213009F463C2EE
:103100000E9404212BC0FF20E9F0223008F05BC2AE
:103110000E94DB20802329F021C0FF20E9F021114B
:1031200014C0802F26960FB6F894DEBF0FBECDBF19
:10313000DF91CF911F910F91FF90EF90DF90CF9093
:103140000C94DE1721113FC209C0F601858180FF72
:10315000EBC18F708583E5CF2111FAC1802F69C142
:10316000202F26952695237030E02115310521F07A
:1031700021303105C9F027C2FF2021F0812F902F87
:10318000937002C080E090E026960FB6F894DEBF00
:103190000FBECDBFDF91CF911F910F91FF90EF90A8
:1031A000DF90CF900C943115FF2021F0812F902FCC
:1031B000937002C080E090E026960FB6F894DEBFD0
:1031C0000FBECDBFDF91CF911F910F91FF90EF9078
:1031D000DF90CF900C945F15812FFF2019F00E9493
:1031E000EA2502C00E94522626960FB6F894DEBF4A
:1031F0000FBECDBFDF91CF911F910F91FF90EF9048
:10320000DF90CF900C94D726802F837009F078C080
:10321000F110D9C1812F829586958770880F880F0C
:10322000912F9F70C92ED12CE12CF12C082E04C0B7
:10323000CC0CDD1CEE1CFF1C0A94D2F714FF12C04C
:103240004FE050E060E070E004C0440F551F661F7F
:10325000771F8A95D2F7CB01BA016095709580955A
:10326000909503C060E070E0CB01202F2695269555
:103270002370422F50E042305105D1F043305105C8
:1032800059F16C297D298E299F294130510541F141
:1032900026960FB6F894DEBF0FBECDBFDF91CF915B
:1032A0001F910F91FF90EF90DF90CF900C94161F1D
:1032B0006C297D298E299F2926960FB6F894DEBFAA
:1032C0000FBECDBFDF91CF911F910F91FF90EF9077
:1032D000DF90CF900C94281F0E94161FC701B601E3
:1032E00026960FB6F894DEBF0FBECDBFDF91CF910B
:1032F0001F910F91FF90EF90DF90CF900C94041FDF
:10330000FF2019F0802F817001C08695882309F471
:103310005AC1812F829586958770880F880F912FCB
:103320009F70C92ED12CE12CF12C082E04C0CC0C9E
:10333000DD1CEE1CFF1C0A94D2F714FF12C04FE0F4
:1033400050E060E070E004C0440F551F661F771F17
:103350008A95D2F7CB01BA016095709580959095CA
:1033600003C060E070E0CB01202F269526952370E6
:10337000422F50E042305105D1F04330510559F110
:103380006C297D298E299F294130510541F12696CE
:103390000FB6F894DEBF0FBECDBFDF91CF911F9166
:1033A0000F91FF90EF90DF90CF900C94CD1F6C2980
:1033B0007D298E299F2926960FB6F894DEBF0FBE71
:1033C000CDBFDF91CF911F910F91FF90EF90DF90D4
:1033D000CF900C94DF1F0E94CD1FC701B601269627
:1033E0000FB6F894DEBF0FBECDBFDF91CF911F9116
:1033F0000F91FF90EF90DF90CF900C94BB1F103F88
:1034000041F118F4103E48F48AC0123F09F44FC04D
:10341000D0F1133F09F45FC082C01F70802F8F71FD
:10342000FF2021F00E94541F812F7CCE0E94751F27
:10343000812F26960FB6F894DEBF0FBECDBFDF9169
:10344000CF911F910F91FF90EF90DF90CF900C9450
:10345000E517FF20A1F02111B6C0802F8F712696AD
:103460000FB6F894DEBF0FBECDBFDF91CF911F9195
:103470000F91FF90EF90DF90CF900C949A1F223025
:1034800008F0A1C0EACFFF20A1F0802F8F7126960F
:103490000FB6F894DEBF0FBECDBFDF91CF911F9165
:1034A0000F91FF90EF90DF90CF900C94541FFF206E
:1034B00061F3802F8F7126960FB6F894DEBF0FBE92
:1034C000CDBFDF91CF911F910F91FF90EF90DF90D3
:1034D000CF900C94751FFF2091F0802F8F7126964E
:1034E0000FB6F894DEBF0FBECDBFDF91CF911F9115
:1034F0000F91FF90EF90DF90CF900C943F1F269696
:103500000FB6F894DEBF0FBECDBFDF91CF911F91F4
:103510000F91FF90EF90DF90CF900C943A1FFF2017
:10352000A1F0222309F4B1CF812F26960FB6F8948B
:10353000DEBF0FBECDBFDF91CF911F910F91FF90E6
:10354000EF90DF90CF900C940C17222309F4B1CFA9
:10355000812F26960FB6F894DEBF0FBECDBFDF9148
:10356000CF911F910F91FF90EF90DF90CF900C942F
:10357000B617402F4F70612FC6010E94BF0A2696D2
:103580000FB6F894DEBF0FBECDBFDF91CF911F9174
:103590000F91FF90EF90DF90CF900C94421E402F40
:1035A0004F70612FC60126960FB6F894DEBF0FBE8E
:1035B000CDBFDF91CF911F910F91FF90EF90DF90E2
:1035C000CF900C94F52226960FB6F894DEBF0FBE6E
:1035D000CDBFDF91CF911F910F91FF90EF90DF90C2
:1035E000CF9008950E94FE200E94CD200E941821B5
:1035F0000E9409280E94D72680E090E00E943115A1
:1036000080E090E00C945F150E94EE200C94F21A7A
:103610000E94F21F292F22952F7030E02C303105A7
:103620004CF42A3031056CF4225031092230310536
:1036300088F407C02C30310549F02F30310531F0C6
:1036400009C0803E48F0803F29F406C093FB8827DC
:1036500080F9089580E0089581E00895CF93DF9385
:1036600000D000D01F92CDB7DEB70F900F900F9013
:103670000F900F90DF91CF910895CF93DF9300D0FB
:1036800000D000D0CDB7DEB726960FB6F894DEBFD7
:103690000FBECDBFDF91CF9108951F93CF93DF93DE
:1036A000C091B10116E08091B201C81799F0D0E045
:1036B0001C9FF0011D9FF00D1124ED54FE4F408121
:1036C000518162817381848195810E943D1B219685
:1036D000C770E9CFDF91CF911F9108954091E30129
:1036E0005091E4016091E5017091E6018091E7015C
:1036F0009091E8010C943D1B8091E80182958F70B8
:1037000009F054C08091E501882309F44FC08091ED
:10371000B101A091B2016091E3017091E401409187
:10372000E6015091E701B6E08A1709F43FC090E046
:1037300041155105C1F17F3F11F46F3FA1F1B89FD1
:10374000F001B99FF00D1124ED54FE4F2181721349
:103750002AC02081621327C02281211124C0238125
:1037600034812417350710F421503109241B350BFF
:1037700026343105C0F42091E8012F702061209398
:10378000E80126E0289FF001299FF00D1124E8545C
:10379000FE4F80818F708061808383EE91E00E9474
:1037A000EC170C944D1B01968770BECF0895CF92F5
:1037B000DF92EF92FF920F931F93CF93DF93CDB7DA
:1037C000DEB762970FB6F894DEBF0FBECDBF8C0197
:1037D00085E0F801DE011D9601900D928A95E1F7D2
:1037E000D8014C9111965C91119712966C91129799
:1037F0001396CD90DC9014973091E3017091E40121
:103800008091E6019091E701009709F46BC17F3F39
:1038100019F43F3F09F466C1E090E501EE2009F498
:10382000C0C02091E801C816D90628F0F601E81BAF
:10383000F90BCF0104C0809590958C0D9D1DFF2440
:10384000F3948634910578F0F12C207F09F0C6C0FE
:103850007C2DD98AC88A89890E942E1B83EE91E02B
:103860000E94EC17B1C0822F807F09F046C075130B
:1038700014C0341312C0611110C02F702061209346
:10388000E8010E946E1B83EE91E00E94EC1780918C
:10389000E801D80115968C932EC0CD2819F15F3F11
:1038A00011F44F3FF9F0F62E61111CC08091B10167
:1038B0002091B20136E0821709F45AC090E0389F97
:1038C000F001399FF00D1124ED54FE4F7181571313
:1038D00006C07081471303C07281711103C0019645
:1038E0008770E9CFF62E662309F418C18091E801AC
:1038F00081608093E801F12C11C1751308C0341365
:1039000006C0611104C08091E801D801C3C04D8791
:103910005E878D859E856A8B0E94081B6A89882335
:10392000E1F16623D1F12091E801822F82958F7019
:1039300090E0029774F08091E3019091E401988700
:103940008F831986DB86CA862C87CE0107960E9454
:10395000EC1786E0F801A3EEB1E001900D928A9594
:10396000E1F70E947C1B0E946E1BFF24F394D6C0DB
:103970004D875E878D859E850E94F21F292F229597
:103980002F7030E0223031050CF0BCC09F7009F080
:10399000B6C0805E883008F4C1C0C8010E94EC1730
:1039A000E4CFC816D90608F453C0F601E81BF90B9A
:1039B000CF018634910508F450C0F12C7C2DD98AB2
:1039C000C88A89890E942E1BE3EEF1E086E0DF01C0
:1039D0001D928A95E9F70E946E1BA0C0751314C052
:1039E000341312C0611110C08091E801F801858381
:1039F000C8010E94EC1786E0E3EEF1E0DF011D92C2
:103A00008A95E9F7FE2C8AC04D875E878D859E8555
:103A10006A8B0E94081B6A89882309F4BECF66233B
:103A200009F4BBCF2091E801822F82958F7090E03E
:103A300002970CF48ECF8091E3019091E4019A8378
:103A400089831B82DD82CC822E83CE0101967FCFBB
:103A5000809590958C0D9D1DACCFF62E662309F4B4
:103A60009CCF75132EC034132CC02091E80120FD8B
:103A70001FC0822F82958F70D9F0D80115962C9394
:103A800015978F3049F08F5F982F9295907F822FF6
:103A90008F70892B15968C93C8010E94EC1786E0D5
:103AA000F801A3EEB1E001900D928A95E1F793CF72
:103AB00086E0F801A3EEB1E001900D928A95E1F75E
:103AC0002DC04D875E878D859E850E94081B8111C4
:103AD00040CF8091E80181608093E801C8010E9495
:103AE000EC171CC0662309F458CF4D875E878D857F
:103AF0009E850E94081B882309F44FCF2ACF81118D
:103B000048CF0CC0243031050CF047CF9F7009F42A
:103B100040CFF8019581907F09F03BCF8F2D6296C1
:103B20000FB6F894DEBF0FBECDBFDF91CF911F91CE
:103B30000F91FF90EF90DF90CF9008951F93CF9358
:103B4000DF93CDB7DEB72C970FB6F894DEBF0FBE6C
:103B5000CDBF4F83588769877A878B879C87CE0133
:103B600007960E94D71B882369F08F8198852A8544
:103B70003B85232BF1F19F3F09F063C08F3F09F094
:103B800060C037C086E0FE013796DE0111960190D5
:103B90000D928A95E1F76F817885EA85FB853097EC
:103BA00041F17F3F11F46F3F21F12091B20130E0EC
:103BB000C9010196877099274091B10150E084179F
:103BC000950709F447C069837A83FD83EC8396E007
:103BD000929FD001939FB00D1124AD54BE4FFE01B2
:103BE000319601900D929A95E1F78093B2010E946F
:103BF0004D1B16E08091B1019091B2018917C1F17E
:103C0000189FC00111248D549E4F0E94D71B8823FA
:103C100079F1E091B1011E9FF0011124ED54FE4FA6
:103C20004081518162817381848195810E943D1B15
:103C30008091B10190E00196877099278093B1013E
:103C4000D9CF4F81588569857A858B859C850E945F
:103C50003D1BCFCF0E94041B1092B2011092B10104
:103C6000E3EEF1E086E0DF011D928A95E9F7C1CF2E
:103C70002C960FB6F894DEBF0FBECDBFDF91CF916B
:103C80001F910895DF92EF92FF920F931F93CF93AE
:103C9000DF93FC01892B09F48AC0E12CF12CDD248F
:103CA000D394EF0121968491853709F461C058F4CB
:103CB000843708F04EC0843008F06AC08130D1F0FB
:103CC000823071F174C0883709F45DC050F48637D2
:103CD00009F455C0873709F06AC08E2D0E94EB2089
:103CE00054C09CE7980F903708F061C08F770E940E
:103CF000B61750C08F010E5F1F4FFE01849190E2F6
:103D0000980F983050F48770FD2D01C0FF0F8A95F1
:103D1000EAF78F2F0E94F12014C00E940C1713C0E5
:103D20008F010E5F1F4FFE01C49180E28C0F88301F
:103D300060F4C7708D2D01C0880FCA95EAF70E9404
:103D4000F7200E941821E80125C08C2F0E94B61789
:103D5000FACF9F012E5F3F4FFE01C491CC2369F043
:103D60008FE99FE00197F1F700C00000C150F6CF46
:103D70009F012E5F3F4FFE01F490E9010BC00E94AE
:103D8000DB20E82E07C00E94EE200E94182102C00E
:103D90000E940C178F2D882341F0EFE9FFE0319747
:103DA000F1F700C000008150F6CFFE017ACFDF911D
:103DB000CF911F910F91FF90EF90DF900895609346
:103DC000ED017093EE018093EF019093F0010E945A
:103DD000AE210C94F21A6093E9017093EA0180938A
:103DE000EB019093EC010E94CF0C6091E90170917E
:103DF000EA018091EB019091EC010E94AF210C94BB
:103E0000F21A08950C94DF1E0F931F930091ED0199
:103E10001091EE012091EF013091F001602B712B98
:103E2000822B932B1F910F910C94DF1E0F931F93E6
:103E30000091ED011091EE012091EF013091F00120
:103E400060237123822393231F910F910C94DF1E13
:103E50000F931F930091ED011091EE012091EF015E
:103E60003091F00160277127822793271F910F91CE
:103E70000C94DF1E60E070E0CB010C94EB1E0F93FE
:103E80001F9341E050E060E070E08A019B0104C0B4
:103E9000000F111F221F331F8A95D2F7C901B801E5
:103EA0001F910F910C94EB1E0F931F9341E050E074
:103EB00060E070E004C0440F551F661F771F8A95AD
:103EC000D2F78091E9019091EA01A091EB01B091C4
:103ED000EC018A019B01082B192B2A2B3B2BC901D2
:103EE000B8011F910F910C94EB1E0F931F9341E0AB
:103EF00050E060E070E004C0440F551F661F771F5C
:103F00008A95D2F740955095609570958091E9011A
:103F10009091EA01A091EB01B091EC018A019B0123
:103F2000082319232A233B23C901B8011F910F91AC
:103F30000C94EB1E0F931F9341E050E060E070E0A3
:103F400004C0440F551F661F771F8A95D2F78091D2
:103F5000E9019091EA01A091EB01B091EC018A0195
:103F60009B01082719272A273B27C901B8011F9160
:103F70000F910C94EB1E0F931F930091E901109188
:103F8000EA012091EB013091EC01602B712B822B27
:103F9000932B1F910F910C94EB1E0F931F93009185
:103FA000E9011091EA012091EB013091EC016023CD
:103FB0007123822393231F910F910C94EB1E0F9377
:103FC0001F930091E9011091EA012091EB013091DA
:103FD000EC0160277127822793271F910F910C9482
:103FE000EB1E0895CF92DF92EF92FF920F931F93F3
:103FF000CF93DF938C01C090ED01D090EE01E09063
:10400000EF01F090F0014091E9015091EA016091D7
:10401000EB017091EC01C42AD52AE62AF72ACFE1F8
:10402000D0E0D701C6010C2E04C0B695A795979590
:1040300087950A94D2F780FF07C0B8018C2F0E94A1
:104040000E238130910531F4219758F7B80180E0B3
:104050000E940E23DF91CF911F910F91FF90EF905F
:10406000DF90CF90089590910B01992321F09091CA
:104070000C01911109C020910D0130910E01F9013F
:1040800032969FEF40E030C0982F96959695969582
:104090009F31A0F4E0910D01F0910E01E90FF11DA7
:1040A000877021E030E0A90102C0440F551F8A95B6
:1040B000E2F7CA019181892B8183089590911402BE
:1040C00090FF23C01F928F9381E79BE09F938F9374
:1040D0000E94B60A0F900F900F900F9008959F3F87
:1040E00039F04F5F4E3141F051915813F8CF0DC068
:1040F0005111F7CF942FF5CF9F3F39F0F901E90F18
:10410000F11D97FDFA9582830895089590910B0112
:10411000992321F090910C01911109C020910D017A
:1041200030910E01F9013296205E3F4F30C0982F3A
:104130009695969596959F31A8F4E0910D01F09192
:104140000E01E90FF11D877021E030E0A90102C0E6
:10415000440F551F8A95E2F7CA0180959181892302
:10416000818308959091140290FF16C01F928F933F
:1041700083E59BE09F938F930E94B60A0F900F9068
:104180000F900F9008953196E217F30729F0908170
:104190009813F9CF1082F7CF089581E090E0E09175
:1041A0000D01F0910E01E80FF91F10820196803287
:1041B0009105A9F708958091130208959091130233
:1041C000892B80931302089580959091130289237F
:1041D000809313020895809313020895109213029E
:1041E000089590911202892B809312020895809570
:1041F0009091120289238093120208951092120264
:1042000008958093F10108951092F101089580912D
:104210000D0190910E01FC0131969C01205E3F4FF3
:1042200080E0919191118F5FE217F307D1F7089524
:10423000E0910D01F0910E01809113028083E091D5
:104240000D01F0910E01908180911202892B8083E3
:104250008091F101882361F0E0910D01F0910E0150
:104260009081892B80830E94072181111092F10196
:1042700080910D0190910E010C94DD1490933B01FF
:1042800080933A0108958295982F9C7C392F36951A
:104290003695282F237344E0249FC0011124932FC7
:1042A000982B292F2A7A2695892F8575880F822B9E
:1042B00008951F93CF93DF931F92CDB7DEB79983F5
:1042C0000E944321182F9981892F0E944321212F79
:1042D00030E0322F2227A901482BCA010F90DF912D
:1042E000CF911F910895CF92DF92EF92FF920F939B
:1042F0001F93CF93DF936B017C01CB010E94592167
:10430000EC01C7010E945921AC01CE01A0E0B0E050
:10431000DC019927882760E070E08C019D01042B67
:10432000152B262B372BC901B801DF91CF911F9197
:104330000F91FF90EF90DF90CF9008950895CF9365
:10434000DF9300D000D01F92CDB7DEB70F900F9053
:104350000F900F900F90DF91CF91089508950895D9
:104360000C94901608950895CF930E94CA160E9447
:10437000FB0A0E94CB16C0E08C2F0E94AD0C672B6D
:10438000682B692B29F4CF5FC630B1F780E001C0FC
:1043900081E0CF9108950E9492160C94041B82E054
:1043A00084BD93E095BD9AEF97BD80936E0008950C
:1043B0002FB7F8948091150290911602A0911702E0
:1043C000B09118022FBF08952FB7F894609115028D
:1043D0007091160280911702909118022FBF0895D4
:1043E000CF92DF92EF92FF920F931F932FB7F89423
:1043F00040911502509116026091170270911802B7
:104400002FBF6A017B01EE24FF248C0120E030E005
:10441000C016D106E206F30610F4415051099A0184
:10442000281B390BC9011F910F91FF90EF90DF906E
:10443000CF9008951F920F920FB60F9211248F9371
:104440009F93AF93BF938091150290911602A09114
:104450001702B09118020196A11DB11D809315029B
:1044600090931602A0931702B0931802BF91AF91D8
:104470009F918F910F900FBE0F901F9018950E94E3
:10448000DF11F8942FEF87EA91E6215080409040A9
:10449000E1F700C0000087E090EBDC01809335027B
:1044A00090933602A0933702B09338029CE088E1E3
:1044B0000FB6F894A895809360000FBE90936000AB
:1044C000FFCF8D3B60F4883A90F5853A28F584302B
:1044D00008F5813009F086C081E090E00895883EBB
:1044E00098F4803EB8F48F3B09F07CC00E94041B16
:1044F0002FEF80E792E0215080409040E1F700C02C
:1045000000000E943F226EC0803F08F46BC090E024
:104510009065089590E00895853A21F0863A21F05B
:1045200033E803C031E801C032E820E458C0883ADB
:1045300051F1893A59F18A3A59F18B3A59F18C3A49
:1045400059F18D3A59F18E3A59F18F3A59F1813B2F
:1045500059F1803B59F1823B59F1833B59F1843B3E
:1045600059F1853B59F1863B61F1873B61F1883B0D
:1045700061F1893B61F18A3B61F18B3B61F18C3BDD
:1045800061F130E001C032EE24E429C039EEFCCF05
:104590003AEEFACF35EBF8CF36EBF6CF33EBF4CF7C
:1045A00034EBF2CF37EBF0CF3CECEECF3DECECCF81
:1045B00033E805C03AE803C032E901C034E925E434
:1045C0000EC031E20BC033E209C034E207C035E26D
:1045D00005C036E203C037E201C03AE226E4832F89
:1045E000922F089580E090E00895089595E1799FD5
:1045F000F00111249EE7899FE00DF11D1124E60FC3
:10460000F11DEE53FC4F84910895E82FF0E0EE0F7A
:10461000FF1FEE5FFD4F8591949108950E94F62251
:10462000803EA8F4803C00F5813309F45CC038F486
:10463000893209F452C08A3209F45BC05FC0893301
:10464000B1F08238A1F0853309F441C057C0833EF0
:1046500041F128F4803E99F0823EB9F04FC0863E89
:1046600031F1873E71F14AC00E940523089590916F
:10467000340290FD02C091FF41C080EE3FC08091A6
:10468000340280FFFACF89E339C08091340282FF7F
:104690000CC08091340284FF02C080E02FC083EE02
:1046A0002DC08091340282FFF4CF82EE27C080912A
:1046B000340283FF0AC08091340284FDEECF87EE7E
:1046C0001DC08091340283FFF6CF86EE17C0809123
:1046D000340285FF06C089E211C08091340285FF53
:1046E000FACF85E30BC08091340286FF06C08AE2D0
:1046F00005C08091340286FFFACF81E30E946122D7
:1047000008958F929F92AF92BF92EF92FF920F9374
:104710001F93CF937C01C0E08C2F0E94AD0C4B0106
:104720005C0100E010E0D501C401002E04C0B69584
:10473000A795979587950A94D2F780FF16C0602FAA
:104740007C2F80E00E940E239C018E159F0559F05E
:10475000832F807E932F907C11F0803A31F430E0EB
:104760002E153F0511F481E009C00F5F1F4F053181
:104770001105C9F6CF5FC63079F680E0CF911F9161
:104780000F91FF90EF90BF90AF909F908F90089502
:10479000CF93DF93EC018CE290E00E948123882389
:1047A00029F0CE01DF91CF910C94812380E0DF913D
:1047B000CF910895CF930E944225811102C00E949B
:1047C000282586E99BE00E941D0AC5E6C15049F0F4
:1047D0000E94FB0A8FE39CE90197F1F700C00000FB
:1047E000F5CF8FE89BE00E941D0A89E290E00E94CD
:1047F000C82381112BC18AE290E00E94C823811155
:104800000E94282585E090E00E94C82381110E9423
:104810003F220E94B2210E944D258093140287E01E
:1048200090E00E94C8238823C1F18BE190E00E94B0
:10483000C823882351F08091140281FB222720F99C
:1048400091E0922790FB81F90FC08EE090E00E94EA
:10485000C823882361F08091140282FB222720F96B
:1048600091E0922790FB82F98093140216C080E1B8
:1048700090E00E94C82390911402882341F093FB9A
:10488000222720F981E0822780FB93F904C0892F39
:10489000809580FB90F990931402809114020E94FD
:1048A00051250E945F258093340280EE90E00E94A3
:1048B000C823882341F080913402982F909590FB73
:1048C00080F98093340289E390E00E94C823882312
:1048D00059F08091340281FB222720F991E0922740
:1048E00090FB81F98093340282EE90E00E94C8230D
:1048F000882359F08091340282FB222720F991E02D
:10490000922790FB82F98093340286EE90E00E9419
:10491000C823882359F08091340283FB222720F991
:1049200091E0922790FB83F98093340283EE90E02C
:104930000E94C823882359F08091340284FB2227E7
:1049400020F991E0922790FB84F98093340285E36B
:1049500090E00E94C823882359F08091340285FB9F
:10496000222720F991E0922790FB85F98093340269
:1049700081E390E00E94C823882359F0809134029B
:1049800086FB222720F991E0922790FB86F98093FD
:10499000340281E190E00E94C823882359F080917D
:1049A000340287FB222720F991E0922790FB87F9B8
:1049B00080933402809134020E94632580913402F6
:1049C00087FB882780F980930C0187E290E00E94A2
:1049D000C823C82F8EE190E00E94C8238111C260D5
:1049E0008FE190E00E94C8238111C46080E290E0D2
:1049F0000E94C8238111C86081E290E00E94C82310
:104A00008111C06182E290E00E94C8238111C062DE
:104A100083E290E00E94C8238111C06484E290E0A8
:104A20000E94C823882311F0C06802C0CC2329F05B
:104A30008C2F0E945A256C2F03C00E945625682F88
:104A400070E080E090E0CF910C94021FCF91089528
:104A50006DEE7EEF80E090E00E94412F60E082E00A
:104A600090E00E94332F60E083E090E00E94332FBB
:104A700060E084E090E00E94332F60E085E090E009
:104A80000C94332F80E090E00E942D2F21E08D3E8A
:104A90009E4F09F020E0822F089582E090E00C9470
:104AA000252F682F82E090E00C94332F83E090E074
:104AB0000C94252F682F83E090E00C94332F84E032
:104AC00090E00C94252F682F84E090E00C94332F15
:104AD00080911B0280FF0BC06091120185E0689FEE
:104AE000B001112475956795759567952BC081FF69
:104AF00009C06091120185E0689FB001112475958D
:104B0000679520C082FF07C06091120185E0689F11
:104B1000B001112417C090911C029923D1F060912B
:104B20001101961788F72091120185E0289F9001C6
:104B30001124929FA001939F500D112470E0CA018F
:104B40000E94F42E6038710540F46115710539F04A
:104B500002C065E070E0862F08958FE7089581E038
:104B6000089580911B0280FF08C06091100170E0E1
:104B7000759567957595679521C081FF06C0609111
:104B8000100170E07595679519C082FF04C06091AF
:104B9000100170E010C090911C029923C1F0609147
:104BA0000F019617A0F780911001899FC001112471
:104BB00070E00E94F42E6038710528F461157105CB
:104BC00021F0862F08958FE7089581E0089561E030
:104BD00070E0F4CF803F21F40E946825819504C0E5
:104BE000813F29F40E94682580931F020895823F27
:104BF00021F40E946825819504C0833F29F40E9416
:104C0000682580931E020895893F19F40E94B125FA
:104C100005C08A3F31F40E94B1258195809320021E
:104C200008958B3F21F40E94B125819504C08C3FEB
:104C300029F40E94B125809321020895843F21F434
:104C400080911D02816017C0853F21F480911D0273
:104C5000826011C0863F21F480911D0284600BC0E8
:104C6000873F21F480911D02886005C0883F31F4A0
:104C700080911D02806180931D0208958D3F21F473
:104C800080911B0281600BC08E3F21F480911B023A
:104C9000826005C08F3F29F480911B02846080935D
:104CA0001B020895803F39F480911F0287FF6CC07A
:104CB00010921F0269C0813F29F480911F021816CB
:104CC000BCF362C090911E02823F29F497FF5CC042
:104CD00010921E0259C0833F19F41916CCF354C028
:104CE000893F41F48091200218160CF04DC01092BB
:104CF00020024AC08A3F29F48091200287FF44C0E5
:104D0000F6CF8B3F39F48091210287FF3DC010928E
:104D100021023AC08C3F29F4809121021816BCF37D
:104D200033C0843F21F480911D028E7F17C0853FE0
:104D300021F480911D028D7F11C0863F21F4809166
:104D40001D028B7F0BC0873F21F480911D02877F5E
:104D500005C0883F31F480911D028F7E80931D0233
:104D600013C08D3F21F480911B028E7F0BC08E3FBC
:104D700021F480911B028D7F05C08F3F29F4809123
:104D80001B028B7F80931B0280911E0281110EC03B
:104D900080911F0281110AC080912002811106C0FA
:104DA00080912102811102C010921C02089580910D
:104DB000140283FF7EC082ED9BE00E941D0A809159
:104DC0001D021F928F938DEC9BE09F938F930E9407
:104DD000B60A8BEC9BE00E941D0A80911E02282FD0
:104DE000082E000C330B3F938F9388EC9BE09F932E
:104DF0008F930E94B60A86EC9BE00E941D0A809168
:104E00001F02282F082E000C330B3F938F9383EC47
:104E10009BE09F938F930E94B60A81EC9BE00E94D7
:104E20001D0A80912002282F082E000C330B3F937F
:104E30008F938EEB9BE09F938F930E94B60A8CEB2F
:104E40009BE00E941D0A80912102282F082E000C51
:104E5000330B3F938F9389EB9BE09F938F930E943B
:104E6000B60A86EB9BE00E941D0A80911C021F92ED
:104E70008F9383EB9BE09F938F930E94B60A81EB05
:104E80009BE00E941D0A80911B021F928F938EEA65
:104E90009BE09F938F930E94B60A8BEA9BE00E944F
:104EA0001D0A8DB79EB74C960FB6F8949EBF0FBEE5
:104EB0008DBF8DE192E00E9426150E94D82190932B
:104EC0001A028093190208951F93CF93DF93809164
:104ED000190290911A020E94F021AC0190911C02DB
:104EE000992321F02091130130E006C02091140194
:104EF0008AE0289F900111244217530708F485C0C7
:104F000080911E02C0911F02D091200210912102B7
:104F1000811107C0C11175C0D11173C0111171C0C9
:104F200074C09F3F19F09F5F90931C02181624F4E1
:104F30000E94682580931E0280911E0287FF05C093
:104F40000E946825819580931E021C1624F40E94FD
:104F5000682580931F0280911F0287FF05C00E9471
:104F60006825819580931F0260911E02662331F1AE
:104F7000C0911F02CC2311F1062E000C770B880B79
:104F8000990B0E94EF2D23E333E343E35FE30E9499
:104F9000532E0E94B72D60931E026C2FCC0F770BFF
:104FA000880B990B0E94EF2D23E333E343E35FE388
:104FB0000E94532E0E94B72D60931F021D1624F4E9
:104FC0000E94B125809320028091200287FF05C0B6
:104FD0000E94B125819580932002111624F40E942D
:104FE000B125809321028091210287FF05C00E9494
:104FF000B125819580932102DF91CF911F910C946F
:10500000D7269F3F09F08FCF97CFDF91CF911F9188
:105010000895EDE1F2E085E0DF011D928A95E9F760
:1050200010921C0210921B02089585EF9DE00E94D1
:105030001D0A1F9281E08F931F9285E08F9387EA6C
:105040009DE09F938F930E94B60A0F900F900F9050
:105050000F900F900F9008958330E9F128F481307C
:1050600061F0823009F10895853009F462C008F4D6
:1050700049C0863009F474C0089580911401262F28
:1050800030E0280F311D2F3F310524F4680F609365
:10509000140103C08FEF80931401809114011F92BB
:1050A0008F9380EE9CE072C080911301262F30E038
:1050B000280F311D2F3F310524F4680F6093130131
:1050C00003C08FEF80931301809113011F928F9380
:1050D0008EEC9CE05BC080911201262F30E0280FFF
:1050E000311D2F3F310524F4680F6093120103C076
:1050F0008FEF80931201809112011F928F938BEB9F
:105100009CE044C080911101262F30E0280F311D12
:105110002F3F310524F4680F6093110103C08FEF16
:1051200080931101809111011F928F9386EA9CE078
:105130002DC080911001262F30E0280F311D2F3F08
:10514000310524F4680F6093100103C08FEF809342
:105150001001809110011F928F938DE89CE016C082
:1051600080910F01262F30E0280F311D2F3F310590
:1051700024F4680F60930F0103C08FEF80930F0139
:1051800080910F011F928F9382E79CE09F938F93F2
:105190000E94B60A0F900F900F900F9008958330E1
:1051A00081F128F4813059F08230D1F008958530B2
:1051B00009F449C0B8F1863009F456C008958091C9
:1051C0001401681720F4861B8093140102C010920A
:1051D0001401809114011F928F9383E69CE054C0C8
:1051E00080911301681720F4861B8093130102C07D
:1051F00010921301809113011F928F9381E59CE01F
:1052000043C080911201681720F4861B809312011D
:1052100002C010921201809112011F928F938EE3AF
:105220009CE032C080911101681720F4861B8093A6
:10523000110102C010921101809111011F928F93F0
:1052400089E29CE021C080911001681720F4861B40
:105250008093100102C010921001809110011F92E2
:105260008F9380E19CE010C080910F01681720F4BB
:10527000861B80930F0102C010920F0180910F01D5
:105280001F928F9385EF9BE09F938F930E94B60AA6
:105290000F900F900F900F900895CF93C82F1F92EB
:1052A0008F938AEF9EE09F938F930E94B60A81E0CE
:1052B00090E0A0E0B0E0BC01CD0104C0660F771F14
:1052C000881F991FCA95D2F70E94021F0F900F9056
:1052D0000F900F90CF910C94041BCF938D3109F454
:1052E00065C0B0F58E3009F4D9C100F5873009F4F6
:1052F000A8C1A8F4863009F074C280911402817F9D
:105300008E7F809314028FEF9EE00E941D0A8DE233
:1053100093E10E941D0A81E0809324028DC18830B0
:1053200009F45CC08B3009F489C15BC2863109F491
:10533000FDC138F4803109F4C5C1813109F437C2A7
:1053400050C2893109F4DBC18B3109F493C149C2E0
:10535000853309F43EC248F4873209F43AC208F4AE
:105360003AC2893209F435C23CC2833438F48A33F4
:1053700008F033C2883309F461C133C2833409F4BD
:1053800028C2883409F02DC20E94041B8CE193E1ED
:105390000E941D0A9FEF23ED80E391502040804042
:1053A000E1F700C000000E943F2246C18CE393E178
:1053B0000E941D0A80912202882339F00E946A2DE2
:1053C0000E94D1140E94B90C02C00E94642D9091D9
:1053D000220281E08927809322022EC181E393E19A
:1053E0000E941D0A80E191E10E941D0A0E9456253B
:1053F0001F928F938DE091E19F938F930E94B60A45
:105400008BE091E10E941D0A0E944D25C82F88EF74
:1054100090E10E941D0A1F92CF9383EF90E19F932A
:105420008F930E94B60A81EF90E10E941D0A87EED9
:1054300090E10E941D0A8C2F81701F928F9384EE41
:1054400090E19F938F930E94B60A82EE90E10E94B2
:105450001D0A88ED90E10E941D0AC1FB882780F992
:105460001F928F9385ED90E19F938F930E94B60AD0
:1054700083ED90E10E941D0A87EC90E10E941D0AD5
:10548000C2FB882780F91F928F9384EC90E19F9351
:105490008F930E94B60A82EC90E10E941D0A89EB6C
:1054A00090E10E941D0AC3FBCC27C0F91F92CF9345
:1054B00086EB90E19F938F930E94B60A84EB90E174
:1054C0000E941D0A0E945F25C82F80EA90E10E9479
:1054D0001D0A1F92CF938BE990E19F938F930E94B7
:1054E000B60A89E990E10E941D0A80E890E10E94D5
:1054F0001D0A8C2F81701F928F938DE790E19F93EF
:105500008F930E94B60A8DB79EB780960FB6F89417
:105510009EBF0FBE8DBF8BE790E10E941D0A84E6FF
:1055200090E10E941D0AC1FB882780F91F928F938A
:1055300081E690E19F938F930E94B60A8FE590E1F8
:105540000E941D0A8DE490E10E941D0AC2FB88277B
:1055500080F91F928F938AE490E19F938F930E942A
:10556000B60A88E490E10E941D0A86E390E10E9459
:105570001D0AC3FB882780F91F928F9383E390E174
:105580009F938F930E94B60A81E390E10E941D0AC7
:1055900087E290E10E941D0AC4FB882780F91F92D0
:1055A0008F9384E290E19F938F930E94B60A82E2E8
:1055B00090E10E941D0A80E190E10E941D0AC5FB56
:1055C000882780F91F928F938DE090E19F938F93AE
:1055D0000E94B60A8BE090E10E941D0A8FEE9FE0C8
:1055E0000E941D0AC6FB882780F91F928F938CEEBC
:1055F0009FE09F938F930E94B60A8AEE9FE00E94DD
:105600001D0A82EE9FE00E941D0AC7FBCC27C0F94D
:105610001F92CF938FED9FE09F938F930E94B60AC6
:105620008DED9FE00E941D0A8DB79EB74C960FB678
:10563000F8949EBF0FBE8DBFC1E0D8C086E29FE048
:105640005BC080911402C82FC17080FF09C08FE039
:1056500093E10E941D0A80911402817F8E7F47C0D2
:1056600083E093E10E941D0A80911402816080937F
:105670001402E2CF9091140291FBCC27C0F981E093
:10568000C827892FC0FB81F980931402CC2319F01D
:1056900086EF92E127C088EE92E12EC0909114022D
:1056A00092FBCC27C0F981E0C827892FC0FB82F983
:1056B00080931402CC2319F089ED92E113C089EC98
:1056C00092E11AC09091140293FBCC27C0F981E0BB
:1056D000C827892FC0FB83F980931402CC2351F093
:1056E0008DEB92E10E941D0A8091140281608093EB
:1056F00014027CC080EB92E10E941D0A9DCF81EADA
:1057000092E10E941D0A8BE892E10E941D0A8EE43C
:1057100092E10E941D0A87E292E10E941D0A82EE38
:1057200091E10E941D0A83EB91E1E6CF85EA91E1C8
:105730000E941D0A0E94D1141F928F938BE891E161
:105740009F938F930E94B60A80910B011F928F93B3
:1057500084E791E19F938F930E94B60A8091910113
:105760001F928F9381E691E19F938F930E94B60AD7
:1057700080910C011F928F938EE491E19F938F9300
:105780000E94B60A0E94E4219F938F937F936F93A8
:1057900087E391E19F938F930E94B60A8DB79EB7DE
:1057A00046960FB6F8949EBF0FBE8DBF45CF0E94A0
:1057B000041BC0910C0181E0C827C0930C01CC23CD
:1057C00029F08DE291E10E941D0A10C082E291E170
:1057D00093CF80E003C08D5101C089530E944D29B1
:1057E0002BCF80E291E10E941D0AC0E08C2FCF9167
:1057F000089580E0089580E00895CF93C82F8091A8
:105800002402813071F020F0823009F44BC042C193
:10581000E0910D01F0910E018081823209F03CC1CE
:1058200007C0E0910D01F0910E018081823261F498
:105830008C2F0E94F92B811104C08C2F0E946D299E
:105840002FC081E090E02CC08C2F0E94FB2B811197
:1058500026C0C431E1F070F4CB3081F0C031D1F416
:105860000E94152882EF9EE00E941D0A82E080932C
:10587000240215C0C93259F0C83361F48FEF9EE09D
:105880000E941D0A86EF9EE00E941D0A08C0109229
:10589000240204C180EF9EE00E941D0AFFC081E047
:1058A0008170FEC0C43228F5CE3108F0C1C0CB30C3
:1058B000A1F1D0F4C73009F0D3C08EE18093140178
:1058C00082E3809313018AE08093120184E1809344
:1058D000110188E08093100188E280930F0186E92E
:1058E0009DE00E941D0ABFC0C33149F1C431C1F01F
:1058F000B7C0CB3409F4A9C028F4C93289F0C83341
:1059000061F0AEC0C13509F49EC0C23509F499C03A
:10591000CE3409F0A5C06AE09EC00E941528A3C03D
:1059200080912302882319F0109223029CC083EAFD
:105930009DE00E941D0A81E080932402B1C08DE7A2
:105940009DE00E941D0A8BE69DE00E941D0A809149
:1059500014011F928F9388E69DE09F938F930E947E
:10596000B60A86E69DE00E941D0A84E59DE00E943D
:105970001D0A809113011F928F9381E59DE09F93F3
:105980008F930E94B60A8FE49DE00E941D0A80E476
:105990009DE00E941D0A809112011F928F938DE35A
:1059A0009DE09F938F930E94B60A8BE39DE00E9437
:1059B0001D0A8AE29DE00E941D0A809111011F923A
:1059C0008F9387E29DE09F938F930E94B60A85E2B2
:1059D0009DE00E941D0A80E19DE00E941D0A8091C9
:1059E00010011F928F938DE09DE09F938F930E94F3
:1059F000B60A8BE09DE00E941D0A84EF9CE00E94A5
:105A00001D0A80910F011F928F9381EF9CE09F935D
:105A10008F930E94B60A8FEE9CE00E941D0A8DB7FC
:105A20009EB748960FB6F8949EBF0FBE8DBF1BC0A1
:105A3000CE51EC2FF0E0E15DFE4F80818093230298
:105A400012C061E003C061E006C06AE080912302F9
:105A50000E942C2808C0809123020E94CF2803C0F6
:105A600084E99DE013C080912302882369F01F928E
:105A70008F938EE89DE09F938F930E94B60A0F90BC
:105A80000F900F900F9004C08BE89DE00E941D0ABC
:105A900081E006C01092240280E002C080E000CFC6
:105AA000CF910895E1E8F0E0808188608083808173
:105AB000816080838FB7F89493E09093890090ED94
:105AC000909388008FBF0895EFE6F0E080818260B8
:105AD00080830895EFE6F0E080818D7F80830895D4
