:100000000C94CD080C9416090C9416090C9416093E
:100010000C9416090C9416090C9416090C941609E4
:100020000C9416090C9416090C944B110C94211283
:100030000C94DB200C9416090C9416090C941609E8
:100040000C9416090C9416090C9416090C941609B4
:100050000C9416090C944F210C9416090C94160953
:100060000C9416090C9416090C9416090C94160994
:100070000C9416090C9416090C9416090C94160984
:100080000C9416090C9416090C9416090C94160974
:100090000C9416090C941609D909D409DE09E30950
:1000A000E809ED09F209F709FC09010A060A9212AA
:1000B000B412A213B412A213F9121C13A2137113D7
:1000C000841317171717441744179E17DA17D119F7
:1000D000D119F217D119ED18ED18A719D119D119A5
:1000E000BD1901E1010902E102090001E101080273
:1000F000E102080001E1010702E102070001E1015C
:100100000602E102060001E1010502E1020500012B
:10011000E1010402E102040001E1012302E1022302
:100120000001E1012202E102220001E1012002E1DD
:1001300002200075000111021101180218010F02BE
:100140000F010F020F012D022D01050205010C0206
:100150000C011102110137023701050205010F02DE
:100160000F01120212010A020A01160216011302FD
:10017000130112021201170217013702370106029A
:10018000060112021201100210007500010602069B
:1001900001070207012C022C01380238011702174F
:1001A0000110021001130213012C022C01E10123A2
:1001B00002E1022301E1012302E10223012C022CCE
:1001C000011A021A010A020A01080208011702179D
:1001D000012C022C010B020B011702170117021749
:1001E0000113021301340234013802380138023895
:1001F00001160216010B020B010C020C0112021275
:100200000111021101120212011602160137023702
:1002100001160216012002200137023701040204F0
:100220000110021001040204011D021D011202123C
:100230000111021101040204011A021A0116021628
:1002400001370237010602060112021201100210E4
:1002500001380238011502150108020801130213C2
:100260000112021201380238010E020E01080208C2
:10027000011C021C013802380107020701080208AC
:100280000105020501370237010A020A01130213B0
:10029000010A020A01370237010E020E01080208A4
:1002A000011C021C012C022C012D022D01E1011266
:1002B00002E10212012C022C01160216010B020BA4
:1002C000010C020C0112021201110211012D022D6A
:1002D000011302130118021801050205010F020F94
:1002E000010C020C01060206013702370107020762
:1002F000010802080105020501370237010E020E4E
:1003000001080208011C021C01370237010A020A17
:1003100001130213010A020A012C022C01E101233C
:1003200002E1022301E1012302E10223012C022C5C
:100330000116021601180218010702070112021223
:10034000012C022C010402040113021301170217ED
:10035000012D022D010E020E01080208011C021CD3
:10036000012C022C01040204010702070107020705
:10037000012C022C0138023801170217011002105B
:10038000011302130138023801160216010B020B89
:10039000010C020C0112021201110211012D022D99
:1003A000011302130118021801050205010F020FC3
:1003B000010C020C01060206013702370107020791
:1003C000010802080105020501370237010E020E7D
:1003D00001080208011C021C01370237010A020A47
:1003E00001130213010A020A00F0A5018C028C0419
:1003F0008C00000000000000000000000000000071
:1004000000000000000000000000000000000001EB
:10041000C000C00AC009C008C007C006C005C004AB
:10042000C003C002C0218A58A3353A3B3C3D3E3F41
:100430004041424344454647485453555657291E68
:100440001F20212223242526272D2E892A494A4B85
:100450000000002B141A0815171C180C12132F304B
:1004600000004C4D4E5F6061E0041607090A0B0D59
:100470000E0F33343128000000005C5D5EE11D1B6F
:10048000061905111036373887E50000005200596B
:100490005A5B39E3E28B282A2C8A88E6C0E4000004
:1004A0000050514F6263DF293A3B3C3D3E3F4041A3
:1004B000424344454647485453555657291E1F202A
:1004C000212223242526272D2E892A494A4B000044
:1004D000002B141A0815171C180C12132F300000CB
:1004E0004C4D4E5F6061E0041607090A0B0D0E0FBC
:1004F00033343128000000005C5D5EE11D1B0619ED
:1005000005111036373887E50000005200595A5B54
:1005100039C0E25456572C5563E6C0E40000005041
:10052000514F6263DF293A3B3C3D3E3F40414243ED
:1005300044454647485453555657291E1F202122EB
:1005400023242526272D2E892A494A4B0000002BDB
:10055000141A0815171C180C12132F3000004C4DDC
:100560004E5F6061E0041607090A0B0D0E0F33346D
:100570003128000000005C5D5EE11D1B06190511BD
:100580001036373887E50000005200595A5BE0C04A
:10059000E2E22C282CE6E6E6C0E400000050514FD1
:1005A0006263DF010101010101010101010101019A
:1005B000010101010101010101010101010101012B
:1005C000010101010101010101010101010101011B
:1005D000010101010101010101010101010101D735
:1005E000D6D5010101010101010101010101010152
:1005F00001010101DAD9D801010101010101010163
:10060000010101010101010101DDDCDB0101010149
:10061000010101010101C0010101010101012C1BC6
:1006200001010101010101010101010101010101BA
:1006300001FB01FCF6F901010101010101010101C8
:10064000010101010101010101010101010101019A
:1006500001010101010101010101010101F4F0F5B4
:10066000010101010101010101010101010101017A
:100670000101F2F1F3010101010101010101010197
:10068000010101010101010000000101010101015D
:1006900001010101C001010101010101F4F5FAC0EC
:1006A000A9AAA8AEACB0AFABADC0C0A6C0C0C0C018
:1006B000B4C0C0C0C1C2C3C4C5C6C7C8C9CACBC004
:1006C000C0C0C0C0C0C0C0C0C0C0C0C0C0C0C0C02A
:1006D000C0C0C0C0C0C0C0C0C0C0C0C0C0C0C0C01A
:1006E000C0C0C0C0C0C0D3C0C0C0C0C0C0C0C0C0F7
:1006F000C0C0C0C0C0C0C0C0C0C0C0C0C0D4C0C0E6
:10070000C0C0C0C0C0C0C0C0C0C0C0C0C0C0C0C0E9
:10071000C065C0C0C0C0C0C0C0C0DEC0C00A002527
:1007200030325800626F756E6365213A20004B6568
:1007300079626F6172642073746172742E0A00555D
:10074000534220636F6E666967757265642E0A0096
:100750000D0A696E69740A005B445D005B435D00CD
:100760001E035B006E0075006C006C005D002000D5
:1007700031003100300052002000450053000000DD
:100780000E035B006E0075006C006C005D000000E5
:100790000403090409028D00050100A032090400C8
:1007A000000103010100092111010001224000079D
:1007B00005810308000A0904010001030102000980
:1007C0002111010001224D000705820308000A09DA
:1007D000040200010300000009211101000122367A
:1007E000000705830308000A090403000203000050
:1007F00000092111010001222200070584032000C5
:10080000010705040320000109040400010300009E
:10081000000921110100012239000705850320008C
:10082000011201100100000008EDFE6060010001EE
:1008300002000105010906A101050719E029E715D4
:100840000025019508750181020508190129059502
:10085000057501910295017503910105071900299C
:10086000F71500250195F875018102C00631FF09D1
:1008700074A1010975150026FF00952075088102F5
:100880000976150026FF00952075089102C0050124
:100890000980A101850216810026B7001A81002A6D
:1008A000B700751095018100C0050C0901A10185F3
:1008B00003160100269C021A01002A9C027510955D
:1008C000018100C005010902A1010901A10005097A
:1008D000190129051500250195057501810295016C
:1008E000750381010501093009311581257F9502C4
:1008F0007508810609381581257F950175088106DF
:10090000050C0A38021581257F950175088106C0FE
:10091000C005010906A101050719E029E715002511
:100920000195087501810295017508810105081975
:100930000129059505750191029501750391010540
:1009400007190029FF150026FF009506750881008C
:10095000C0636F6E73756D65723A20253034580A26
:100960000073797374656D3A20253034580A000A93
:10097000002530325820006B6579626F6172643AED
:1009800020004C45443A20253032580A00253032A8
:10099000583A20253033326225730A00722F6320C3
:1009A00030313233343536373839414243444546A5
:1009B0003031323334353637383941424344454695
:1009C0000A0064656C5F6B65795F6269743A2063E5
:1009D000616E27742064656C3A20253032580A0015
:1009E0006164645F6B65795F6269743A2063616E0C
:1009F0002774206164643A20253032580A00646FFD
:100A00006E652E0A00626F6F746D61676963207393
:100A100063616E3A202E2E2E2000290A00257500D3
:100A20002F002575005D2800256400200025640046
:100A3000200025640020002564007C002530325809
:100A4000006D6F7573656B6579205B62746E7C7881
:100A50002079207620685D287265702F61636C298B
:100A60003A205B006D6B5F776865656C5F74696DDC
:100A7000655F746F5F6D6178203D2025640A006DAD
:100A80006B5F776865656C5F6D61785F73706565D6
:100A900064203D2025640A006D6B5F74696D655F9D
:100AA000746F5F6D6178203D2025640A006D6B5F77
:100AB0006D61785F7370656564203D2025640A0070
:100AC0006D6B5F696E74657276616C203D20256484
:100AD0000A006D6B5F64656C6179203D2025640AB6
:100AE000006D6B5F776865656C5F74696D655F74D9
:100AF0006F5F6D6178203D2025640A006D6B5F7724
:100B00006865656C5F6D61785F7370656564203DD5
:100B10002025640A006D6B5F74696D655F746F5F9B
:100B20006D6178203D2025640A006D6B5F6D6178F2
:100B30005F7370656564203D2025640A006D6B5FFE
:100B4000696E74657276616C203D2025640A006DC3
:100B50006B5F64656C6179203D2025640A000A00A2
:100B6000257500363A20776865656C5F74696D6538
:100B70005F746F5F6D61783A20000A00257500355B
:100B80003A20776865656C5F6D61785F7370656545
:100B9000643A20000A00257500343A2074696D65B6
:100BA0005F746F5F6D61783A20000A00257500332D
:100BB0003A206D61785F73706565643A20000A00C1
:100BC000257500323A20696E74657276616C286D05
:100BD00073293A20000A00257500313A2064656CBB
:100BE0006179282A31306D73293A20000A092D20B5
:100BF00056616C756573202D0A004D3E004D2564CD
:100C00003E20003F007365742064656661756C74F6
:100C10000A00433E200077686572652064656C7445
:100C2000613A20637572736F723D25642C2077687A
:100C300065656C3D25640A53656520687474703A77
:100C40002F2F656E2E77696B6970656469612E6FF1
:100C500072672F77696B692F4D6F7573655F6B6571
:100C600079730A000A092D204D6F7573656B6579DC
:100C7000202D0A4553432F713A09717569740A3161
:100C80003A0964656C6179282A31306D73290A321A
:100C90003A09696E74657276616C286D73290A333E
:100CA0003A096D61785F73706565640A343A097456
:100CB000696D655F746F5F6D61780A353A097768B1
:100CC00065656C5F6D61785F73706565640A363A5F
:100CD00009776865656C5F74696D655F746F5F6DDA
:100CE00061780A0A703A097072696E742076616CD4
:100CF0007565730A643A0973657420646566617585
:100D00006C74730A75703A092B310A646F776E3A06
:100D1000092D310A706775703A092B31300A7067F6
:100D2000646F776E3A092D31300A0A737065656415
:100D3000203D2064656C7461202A206D61785F73AA
:100D400070656564202A2028726570656174202FA3
:100D50002074696D655F746F5F6D6178290A003F6B
:100D6000004D3E2000433E20004C25640A000A0945
:100D70002D20436F6E736F6C65202D0A4553432FF2
:100D8000713A09717569740A6D3A096D6F75736509
:100D90006B65790A000A092D204D61676963202D72
:100DA0000A643A0964656275670A783A096465629B
:100DB0007567206D61747269780A6B3A09646562BF
:100DC0007567206B6579626F6172640A6D3A0964B8
:100DD00065627567206D6F7573650A763A09766589
:100DE0007273696F6E0A733A097374617475730A6A
:100DF000633A09636F6E736F6C65206D6F64650A8B
:100E0000302D343A096C61796572302D34284631C1
:100E1000302D4634290A506175733A09626F6F7438
:100E20006C6F616465720A653A09656570726F6D11
:100E30000A6E3A094E4B524F0A000A002575002EE1
:100E40006E6B726F3A20000A002575002E73776171
:100E5000705F6261636B736C6173685F6261636B27
:100E600073706163653A20000A002575002E737760
:100E700061705F67726176655F6573633A20000A2F
:100E8000002575002E6E6F5F6775693A20000A00B5
:100E90002575002E737761705F72616C745F726785
:100EA00075693A20000A002575002E737761705F1E
:100EB0006C616C745F6C6775693A20000A00257577
:100EC000002E636170736C6F636B5F746F5F636F31
:100ED0006E74726F6C3A20000A002575002E7377CD
:100EE00061705F636F6E74726F6C5F636170736C5F
:100EF0006F636B3A20000A0025303258006B657929
:100F00006D61705F636F6E6669672E7261773A20FC
:100F1000000A002575002E6D6F7573653A20000A72
:100F2000002575002E6B6579626F6172643A20004E
:100F30000A002575002E6D61747269783A20000AE6
:100F4000002575002E656E61626C653A20000A000E
:100F5000253032580064656275675F636F6E66693D
:100F6000672E7261773A20000A0025750064656675
:100F700061756C745F6C617965723A20003F004E58
:100F80004B524F3A206F66660A004E4B524F3A2042
:100F90006F6E0A0074696D65725F726561643332E9
:100FA00028293A202530346C580A006B6579626F25
:100FB0006172645F6E6B726F3A2025580A006B6530
:100FC00079626F6172645F69646C653A2025580AC2
:100FD000006B6579626F6172645F70726F746F63CA
:100FE0006F6C3A2025580A00686F73745F6B6579DF
:100FF000626F6172645F6C65647328293A202558BA
:101000000A000A092D20537461747573202D0A009B
:101010004743433A20342E392E32204156522D4C2C
:101020004942433A20312E382E3073766E20415695
:10103000525F415243483A2061767235310A004F7F
:101040005054494F4E533A204C55464120424F4F41
:10105000544D41474943204D4F5553454B45592029
:1010600045585452414B455920434F4E534F4C45E0
:1010700020434F4D4D414E44204E4B524F20313076
:1010800032340A004255494C443A20756E6B6E6FFB
:10109000776E202832323A31363A3233204A616E46
:1010A0002020342032303137290A005649443A2072
:1010B000307846454544285B6E756C6C5D29205040
:1010C00049443A20307836303630285B6E756C6C87
:1010D0005D203131305220455329205645523A2067
:1010E0003078303030310A00444553433A205B6E4B
:1010F000756C6C5D20313130522045530A000A096D
:101100002D2056657273696F6E202D0A000A6D6F6F
:101110007573653A206F66660A000A6D6F757365B0
:101120003A206F6E0A000A6B6579626F6172643AE9
:10113000206F66660A000A6B6579626F6172643AB5
:10114000206F6E0A000A6D61747269783A206F66CA
:10115000660A000A6D61747269783A206F6E0A003F
:101160000A64656275673A206F6E0A000A646562F8
:1011700075673A206F66660A000A0A626F6F746CC0
:101180006F616465722E2E2E2000433E200065653F
:10119000636F6E6669673A0A000011241FBECFEFC5
:1011A000D0E2DEBFCDBF04B603FE27C0809133027C
:1011B00090913402A0913502B09136028730904B65
:1011C000A740B04BD1F41092330210923402109227
:1011D00035021092360214BE84B7877F84BF0FB6E3
:1011E000F894A895809160008861809360001092C7
:1011F00060000FBEE0E0FEEF099511E0A0E0B1E075
:10120000EEE1FCE500E00BBF02C007900D92AA33AF
:10121000B107D9F722E0AAE3B1E001C01D92A333E0
:10122000B207E1F70E947A0E0C940D2E0C94000088
:10123000FF93EF93E0913A01F0913B01309709F071
:101240000995EF91FF910895FC018591803011F08F
:10125000EFDFFBCF0895FF27E0E230E247FF0CC04D
:10126000419597FF09C0EDE2609570958095909546
:10127000611D711D811D911D27FF02C0219530E365
:1012800050E2AA27660F771F881F991FAA1FA4176D
:1012900010F0A41B63955A95A9F7AA3008F0A95F2E
:1012A000A05DAF93F395611571058105910541F737
:1012B000ED3211F4EF93F395F21718F43F93F39591
:1012C000FBCF8F91B5DFFA95E1F70895E991F99198
:1012D0008591803021F0853219F0AADFF9CF089589
:1012E00020E0E89455915532C1F3503311F46894DD
:1012F00055915A3348F4505390F3220F022E220F87
:10130000220F200D250FF4CF0EF42195899199918C
:10131000533619F3533729F1533559F1BC01882756
:101320009927E8945C3621F48991999168945591B4
:10133000543639F446EF7EF077FF0DC08FEF9FEF04
:101340000AC055374AE039F0583540E121F05236AD
:1013500042E009F00895FF93EF937DDFEF91FF9155
:10136000B7CFFF93EF93FC0181918030B9F360DF39
:10137000FBCFFF93EF9368DFF1CFDF93CF93CDB730
:10138000DEB72596A3DFCF91DF910895462F50E079
:101390004B30510508F03FC0FA01E45BFF4FDC0120
:1013A00012968C910C94BF2D8823A9F18AE891E0C4
:1013B0000895882381F183E391E00895882359F10A
:1013C0008AE291E00895882331F181E291E0089565
:1013D000882309F188E191E008958823E1F08FE006
:1013E00091E008958823B9F086E091E0089588237C
:1013F00091F08DEF90E00895882369F084EF90E0FC
:101400000895882341F08BEE90E00895882319F029
:1014100082EE90E0089580E090E0089580B310BAE5
:1014200081B311BA84B1817084B985B18E6F85B9E9
:101430008AB180748AB98BB18F6B8BB987B1807890
:1014400087B988B18F6788B9E4E5F1E0ACE3B1E032
:1014500011921192119211921D921D921D921D9244
:1014600081E0EC36F807A1F708954F925F926F92F2
:101470007F928F929F92AF92BF92CF92DF92EF9224
:10148000FF920F931F93CF93DF931F92CDB7DEB7D9
:101490000CE311E0680120E0233099F028F42130BA
:1014A00051F0223059F004C0243071F0253079F029
:1014B000829A8A980EC0879A8F980BC0849A8C98CB
:1014C00008C0859A8D9805C0869A8E9802C0839A26
:1014D0008B9880EA8A95F1F786B182958695877018
:1014E00091E0892780FBEE24E0F8F12C349903C0C9
:1014F00082E090E002C080E090E08E299F2933993D
:1015000003C0A4E0B0E002C0A0E0B0E08A2B9B2BB7
:10151000329903C068E070E002C060E070E0862BA2
:10152000972B319903C040E150E002C040E050E009
:10153000842B952B309903C0A0E2B0E002C0A0E05C
:10154000B0E08A2B9B2B1B9903C0E0E4F0E002C0C3
:10155000E0E0F0E08E2B9F2B1A9903C040E850E0AA
:1015600002C040E050E0BC01642B752B49B1042E51
:10157000000C550B40955095CA018827990F881F7C
:101580009927982F8827862B972B4D9903C040E0E9
:1015900052E002C040E050E04C01842A952A4C9968
:1015A00003C040E054E002C040E050E0842A952AA5
:1015B0004B9903C0E0E0F8E002C0E0E0F0E08E2AE2
:1015C0009F2A4A9903C060E070E102C060E070E0C9
:1015D000862A972A499903C040E050E202C040E0C1
:1015E00050E0842A952A092C000CAA08BB084899C7
:1015F00005C080E090E4A0E0B0E003C080E090E0AF
:10160000DC01882A992AAA2ABB2A43B1042E000C9D
:10161000550B660B770B4095509560957095DB01E7
:10162000CA018827B7FD83959927AA27BB277FE0A2
:10163000880F991FAA1FBB1F7A95D1F7882999296E
:10164000AA29BB29369905C0412C512C320163943B
:1016500003C0412C512C320184299529A629B72990
:10166000199906C0412C512C42E0642E712C03C004
:10167000412C512C320184299529A629B7291C997E
:1016800006C0812C912C34E0A32EB12C03C0812CF8
:10169000912C540188299929AA29BB291E9905C092
:1016A00040E050E068E070E003C040E050E0BA0184
:1016B000842B952BA62BB72B1D9905C040E050E03D
:1016C00060E170E003C040E050E0BA01842B952B4C
:1016D000A62BB72BF6014081518162817381481797
:1016E00059076A077B0799F180839183A283B383AB
:1016F00080910001882341F18091140280FF06C08F
:1017000084E297E029830E942409298180911402B0
:1017100080FF10C0809100011F928F938FE197E0AE
:101720009F938F9329830E94BD090F900F900F9074
:101730000F9029818091140280FF06C08DE197E00F
:1017400029830E942409298185E08093000180B3C8
:1017500010BA81B311BA2F5FF4E0CF0ED11C26303E
:1017600009F09ACE809100018823F1F08150809396
:101770000001882339F08FE99FE00197F1F700C05D
:10178000000012C024E531E0F80181919191A1910E
:10179000B1918F01F90181939193A193B1939F012D
:1017A000F1E004351F0781F781E00F90DF91CF91C1
:1017B0001F910F91FF90EF90DF90CF90BF90AF906F
:1017C0009F908F907F906F905F904F90089524E04E
:1017D000829FC0011124FC01EC5AFE4F608171818F
:1017E00082819381089508958091900108959FB713
:1017F000F89410926F019FBF90912902943009F0E4
:1018000057C09091E9009F703091EC00232F217018
:1018100030FD20E8922B24E02093E9002091EB009A
:1018200020FF43C02091EE0027FF3FC020916C01B4
:10183000222321F02091E80025FF37C010926C018F
:1018400026E03091E80035FD15C030912902343092
:1018500061F53091EB0035FD28C0215021F481E085
:1018600080936C0122C0EFE9FFE03197F1F700C0EF
:101870000000E7CF8093F1008091E80085FD0AC069
:101880008091E80080FFFCCF8091E8008E77809304
:10189000E80006C08FB7F89421E020936F018FBF56
:1018A0009F709093E90080E008959F709093E90005
:1018B0008FEF0895CF93DF9300D01F92CDB7DEB79F
:1018C0009C0180912902843019F593E099833B8330
:1018D0002A839093E9008FEF9091E800815095FD65
:1018E00006C095ED9A95F1F700008111F5CF809132
:1018F000E80085FF0DC040E050E063E070E0CE01FD
:1019000001960E943C0F8091E8008E778093E8005A
:101910000F900F900F90DF91CF910895CF93DF93A9
:1019200000D01F92CDB7DEB720912902243021F5D7
:1019300022E029839B838A8383E08093E9008FEFF1
:101940009091E800815095FD06C095ED9A95F1F7CC
:1019500000008111F5CF8091E80085FF0DC040E0C7
:1019600050E063E070E0CE0101960E943C0F809150
:10197000E8008E778093E8000F900F900F90DF9132
:10198000CF910895209129022430F1F422E0209390
:10199000E9002FEF3091E800215035FD06C035ED0C
:1019A0003A95F1F700002111F5CF2091E80025FFCD
:1019B0000BC040E050E065E070E00E943C0F809179
:1019C000E8008E778093E8000895CF93DF9320910D
:1019D0002902243009F048C0EC0180910B018823D2
:1019E000E1F080910C018823C1F085E08093E9004B
:1019F0008FEF9091E800815095FD06C095E19A9592
:101A0000F1F700008111F5CF8091E80085FF2CC02F
:101A100040E050E060E270E017C081E08093E900B0
:101A20008FEF9091E800815095FD06C095ED9A9555
:101A3000F1F700008111F5CF8091E80085FF14C017
:101A400040E050E068E070E0CE010E943C0F8091E1
:101A5000E8008E778093E80080E2FE01A0E7B1E025
:101A600001900D928A95E1F7DF91CF9108958CE571
:101A700097E00E94240980912802811109C00E94E8
:101A8000CD100E942F118091E20084608093E200CB
:101A9000089588E597E00E9424091092280208958D
:101AA000089520916D012F5F822F62E30E949F2D88
:101AB000992319F020936D01089510926D01809182
:101AC0006F01882371F180912902843041F5809162
:101AD000E9008F702091EC00922F917020FD90E82A
:101AE000892B94E09093E9009091EB0090FF14C053
:101AF0009091EE0097FF10C09091E80095FF03C011
:101B00001092F100F9CF9091E80090FF05C09091FC
:101B1000E8009E779093E8008F708093E900109220
:101B20006F01089542E061EC81E00E94471042E0BD
:101B300061EC82E00E94471042E061EC83E00E9489
:101B4000471042E261EC84E00E94471042E261ECFF
:101B500085E00C94471080912B02833009F455C026
:101B600030F4813071F0823009F48EC008958A30EB
:101B700009F47AC08B3009F460C0893009F09CC048
:101B800020C080912A02813A09F096C08091E80035
:101B9000877F8093E80080912E0290912F02892BFD
:101BA00021F460E280E791E003C060E080E090E033
:101BB00070E00E94870F8091E8008B778093E800A7
:101BC000089580912A02813209F076C080912E0218
:101BD00090912F02009719F0049709F06DC0809141
:101BE000E800877F8093E8008091E80082FD05C0CF
:101BF000809129028111F8CF5FC08091F10080931C
:101C000090018091E8008B7753C080912A02813A3D
:101C100009F052C080912E0290912F02892B09F079
:101C20004BC08091E800877F8093E8008091E800B6
:101C300080FFFCCF80910B0136C080912A02813257
:101C4000D9F580912E0290912F02892BA9F58091D0
:101C5000E800877F8093E8000E947C1080912C022E
:101C600080930B010C94F21980912A02813221F5A4
:101C70008091E800877F8093E8000E947C1080912B
:101C80002D0280939101089580912A02813AA1F456
:101C90008091E800877F8093E8008091E80080FFD2
:101CA000FCCF809191018093F1008091E8008E77C4
:101CB0008093E8000C947C10089508950895809115
:101CC000900180936E011092900180E00E94F30BCE
:101CD0000E9480150C94F2190C945F0E0E949720BC
:101CE00080912702882329F00E94C02081110C9442
:101CF000260F089584B7877F84BF0FB6F894A89500
:101D000080916000886180936000109260000FBE37
:101D100090E080E80FB6F8948093610090936100A2
:101D20000FBE87EF9BE00E94222080E597E00E9493
:101D300024090E945D0E0E947B140E94CD100E9417
:101D40002F118091E20084608093E200789480916A
:101D500029028430E1F78FE397E00E9424090E9472
:101D60007D1481E091E00E94BA138EE297E00E9418
:101D700024090E945E0E80912902853019F40E9488
:101D80006E0EF9CF0E948314F6CF0E94D720809167
:101D90006E018093900108950C94C50E292F33276E
:101DA00023303105C9F064F42130310581F022304F
:101DB000310509F043C08DE890E024E937E042C0E6
:101DC00021323105F1F02232310541F137C082E193
:101DD00090E021E238E036C099278130910541F04A
:101DE0008230910541F0892B49F5E0E9F7E005C023
:101DF000E0E8F7E002C0E0E6F7E0849190E09F01C0
:101E000021C06530D8F4E62FF0E0EE0FFF1FEC5D47
:101E1000FE4F2081318189E090E014C0653070F47C
:101E200070E0FB01EE0FFF1FE65EFE4F2081318167
:101E3000FB01EB5EFE4F808190E004C080E090E00B
:101E400020E030E0FA0131832083089584E189BDE8
:101E500086E189BD09B400FEFDCF8091D8008F7D59
:101E60008093D8008091E00082608093E0008091B0
:101E7000E00081FDFCCF0895CF92DF92EF92FF92B8
:101E80000F931F93CF93DF93EC018B016A010E94A4
:101E90009B10811133C0C114D10439F0F601808147
:101EA0009181081B190BC80FD91FE12CF12C0115CA
:101EB000110519F18091E80085FD16C08091E800B8
:101EC0008E778093E800C114D10449F0F601808137
:101ED0009181E80EF91EF182E08285E00FC00E9438
:101EE0009B10882321F30AC089918093F10001504F
:101EF0001109FFEFEF1AFF0ADACF80E0DF91CF91EF
:101F00001F910F91FF90EF90DF90CF900895209157
:101F10003002309131022617370748F061157105FC
:101F200039F42091E8002E772093E80001C0B90130
:101F300040E06115710599F120912902222309F4ED
:101F400041C0253009F440C02091E80023FD3EC087
:101F50002091E80022FD30C02091E80020FFE9CF69
:101F60002091F2003091F300FC01CF016115710561
:101F700059F02830310540F481918093F10061508F
:101F800071092F5F3F4FF1CF41E02830310509F053
:101F900040E02091E8002E772093E800CACF41115D
:101FA000CBCF0AC080912902882361F0853061F08F
:101FB0008091E80083FD0AC08091E80082FFF2CFA3
:101FC00080E0089582E0089583E0089581E0089517
:101FD00020913002309131022617370748F0611501
:101FE000710539F42091E8002E772093E80001C0B4
:101FF000B901FC0120E06115710581F18091290290
:10200000882309F43EC0853009F43DC08091E80082
:1020100083FD3BC08091E80082FD2DC08091E800E7
:1020200080FFE9CF8091F2009091F3006115710576
:1020300059F08830910540F424912093F1003196B5
:10204000615071090196F2CF21E0089709F020E074
:102050008091E8008E778093E800CDCF2111CECF1C
:102060000AC080912902882361F0853061F0809157
:10207000E80083FD0AC08091E80082FFF2CF80E093
:10208000089582E0089583E0089581E00895982FEF
:10209000973058F59093E900981739F07091EC005B
:1020A0002091ED005091F00003C0242F762F50E0D6
:1020B00021FF19C03091EB003E7F3093EB0030914F
:1020C000ED003D7F3093ED003091EB0031603093B7
:1020D000EB007093EC002093ED005093F000209102
:1020E000EE0027FF07C09F5FD3CF8F708093E9007A
:1020F00081E0089580E0089580912A0287FF11C051
:102100008091E80082FD05C0809129028111F8CFFD
:1021100011C08091E8008B770BC080912902882341
:1021200049F08091E80080FFF8CF8091E8008E7739
:102130008093E80008952091E4003091E50095E651
:102140004091EC00842F817040FF22C08091E80014
:1021500080FD1CC080912902882391F0853091F088
:102160008091EB0085FD10C04091E4005091E500A6
:102170004217530729F39A01915011F784E008950B
:1021800082E0089583E0089581E0089580E0089555
:102190004091E80042FFDECF08950E943E110E9468
:1021A0004611E0EEF0E0808181608083E8EDF0E0B0
:1021B00080818F77808319BCA7EDB0E08C918E7FF2
:1021C0008C9380818F7E80831092280208950F93D4
:1021D0001F93CF93DF930E943E110E944611C8EDDA
:1021E000D0E088818F778883888180688883888120
:1021F0008F7D8883E7EDF0E080818068808319BC63
:1022000010922902109225021092270210922602A3
:1022100000EE10E0F80180818B7F808388818160EF
:10222000888342E060E080E00E944710E1EEF0E049
:1022300080818E7F8083E2EEF0E080818160808308
:10224000808188608083F80180818E7F808388818F
:1022500080618883DF91CF911F910F910895E8ED00
:10226000F0E080818F7E8083E7EDF0E08081816007
:10227000808381E0809328020C94E710E8EDF0E081
:1022800080818C7F80831092E20008951092DA00A2
:102290001092E10008951F920F920FB60F92112431
:1022A0000BB60F922F933F934F935F936F937F9350
:1022B0008F939F93AF93BF93EF93FF938091E10030
:1022C00082FF0BC08091E20082FF07C08091E10095
:1022D0008B7F8093E1000E94510D8091DA0080FF96
:1022E0001FC08091D80080FF1BC08091DA008E7FD4
:1022F0008093DA008091D90080FF0DC084E189BD10
:1023000086E189BD09B400FEFDCF81E080932902FA
:102310000E94370D05C019BC109229020E94490D78
:102320008091E10080FF19C08091E20080FF15C01C
:102330008091E2008E7F8093E2008091E2008061D4
:102340008093E2008091D80080628093D80019BC0D
:1023500085E0809329020E946C0E8091E10084FF49
:1023600030C08091E20084FF2CC084E189BD86E109
:1023700089BD09B400FEFDCF8091D8008F7D809388
:10238000D8008091E1008F7E8093E1008091E2008F
:102390008F7E8093E2008091E20081608093E20072
:1023A00080912502882311F084E007C08091E3002A
:1023B00087FD02C081E001C083E0809329020E9472
:1023C000CC0E8091E10083FF29C08091E20083FF61
:1023D00025C08091E100877F8093E10082E08093B7
:1023E0002902109225028091E1008E7F8093E10006
:1023F0008091E2008E7F8093E2008091E200806114
:102400008093E20042E060E080E00E94471080910B
:10241000F00088608093F0000E94500DFF91EF91D2
:10242000BF91AF919F918F917F916F915F914F91EC
:102430003F912F910F900BBE0F900FBE0F901F90EA
:1024400018951F920F920FB60F9211240BB60F9290
:102450002F933F934F935F936F937F938F939F93AC
:10246000AF93BF93CF93DF93EF93FF93C091E900B6
:10247000CF708091EC00D82FD17080FDD0E8109201
:10248000E9008091F000877F8093F00078940E94AB
:1024900069121092E9008091F00088608093F0004A
:1024A000CD2BCF70C093E900FF91EF91DF91CF91D9
:1024B000BF91AF919F918F917F916F915F914F915C
:1024C0003F912F910F900BBE0F900FBE0F901F905A
:1024D00018951F93CF93DF93CDB7DEB7AA970FB6AA
:1024E000F894DEBF0FBECDBFEAE2F2E088E08E0FC7
:1024F0009091F10091938E13FBCF0E94AB0D8091D0
:10250000E80083FF1FC180912A0290912B02492F7E
:1025100050E04A30510508F015C1FA01E95AFF4F61
:102520000C94BF2D803881F0823809F00BC1809166
:102530002E028F708093E9008091EB0085FB882745
:1025400080F91092E90006C080912602909127023E
:10255000911182609091E800977F9093E8008093BA
:10256000F1001092F100C8C0282F2D7F09F0EAC0B9
:10257000882319F0823061F0E5C080912C0281300F
:1025800009F0E0C0933009F080E0809327022BC06F
:1025900080912C02811127C080912E028F7009F446
:1025A000D1C08093E9002091EB0020FF1CC0933044
:1025B00021F48091EB00806214C09091EB00906157
:1025C0009093EB0021E030E0A90102C0440F551FB9
:1025D0008A95E2F74093EA001092EA008091EB00BE
:1025E00088608093EB001092E9008091E800877F7B
:1025F00086C08111A7C010912C021F778091E30043
:102600008078812B8093E3008091E800877F80931E
:10261000E8000E947C108091E80080FFFCCF809150
:10262000E30080688093E300111102C082E001C0E2
:1026300083E08093290286C08058823008F082C0EF
:1026400080912C0290912D028C3D53E0950779F5F5
:1026500083E08A838AE289834FB7F894DE01139678
:1026600020E03EE051E2E32FF0E050935700E49188
:1026700020FF03C0E295EF703F5FEF708E2F90E078
:10268000EA3010F0C79601C0C0968D939D932F5FDE
:10269000243149F74FBF8091E800877F8093E8009D
:1026A0006AE270E0CE0101960E94870F14C0AE016D
:1026B0004F5F5F4F60912E020E94CE0EBC01892BAE
:1026C00009F440C09091E800977F9093E8008981D9
:1026D0009A810E94E80F8091E8008B778093E80050
:1026E00031C0803879F58091E800877F8093E800D9
:1026F000809125028093F1008091E8008E7780938D
:10270000E8000E947C101EC081111CC090912C0218
:102710009230C0F48091E800877F8093E800909326
:1027200025020E947C1080912502811106C08091B3
:10273000E30087FD02C081E001C084E080932902AC
:102740000E94920D8091E80083FF0AC08091E8000A
:10275000877F8093E8008091EB0080628093EB009C
:10276000AA960FB6F894DEBF0FBECDBFDF91CF9112
:102770001F91089590939701809396010895E09199
:102780009601F0919701309721F00190F081E02DB2
:10279000099480E00895EF92FF920F931F93CF93D7
:1027A000DF93E0919601F09197013097B1F18C01A0
:1027B0000280F381E02D09958091140282FF2DC0E3
:1027C00080FF04C087E799E00E942409E80110E235
:1027D00081E7E82E89E0F82E8091140280FF0BC07B
:1027E00088811F928F93FF92EF920E94BD090F90F4
:1027F0000F900F900F90115021961111EDCF8091F5
:10280000140280FF0AC08FE699E0DF91CF911F91FB
:102810000F91FF90EF900C942409DF91CF911F91BD
:102820000F91FF90EF900895E0919601F09197013C
:10283000309721F00480F581E02D09940895CF931D
:10284000DF93EC018091940190919501C817D9070D
:1028500009F1D0939501C0939401E0919601F09114
:1028600097013097B9F00680F781E02DCE010995E8
:102870008091140282FF0EC080FF0CC0DF93CF93C3
:1028800081E699E09F938F930E94BD090F900F906E
:102890000F900F90DF91CF910895CF93DF93EC01CC
:1028A0008091920190919301C817D90709F1D093B3
:1028B0009301C0939201E0919601F09197013097B6
:1028C000B9F00084F185E02DCE01099580911402C4
:1028D00082FF0EC080FF0CC0DF93CF9381E599E0AB
:1028E0009F938F930E94BD090F900F900F900F90B0
:1028F000DF91CF9108950C9481150E9404210E94CC
:102900000E0A0C940F234F925F926F927F929F92C8
:10291000AF92BF92CF92DF92EF92FF920F931F93ED
:10292000CF93DF93CDB7DEB729970FB6F894DEBF0C
:102930000FBECDBF0E94350A49E9A42E41E0B42E56
:1029400000E010E0902E802F0E94E70BF501C1906F
:10295000D190E190F1905F01C626D726E826F926AE
:10296000C114D104E104F104B1F40F5F1F4F06302C
:10297000110541F78FEF89838A831B820E940D2105
:102980008160782F9D838C8349815A816B818D81F1
:102990000E94BA1564C02091140221FF0AC06E8300
:1029A0007F83888799870E948215998588857F8192
:1029B0006E8140E050E026013701042E04C0769479
:1029C0006794579447940A94D2F740FE41C04983D4
:1029D0009A82C12CD12C7601C39404C0CC0CDD1C8E
:1029E000EE1CFF1C4A95D2F72601370146225722DA
:1029F0006822792281E045284628472809F480E0AA
:102A00008B830E940D218160782F9D838C83498167
:102A10005A816B818D810E94BA1549815A816B81DF
:102A20007C818D810E948320000F111F000F111FD8
:102A3000F801E756FE4F80819181A281B381C826BB
:102A4000D926EA26FB26C082D182E282F38207C021
:102A50004F5F5F4F4531510509F0ADCF86CF0E94E2
:102A600082200E949926109198010E94BF13181786
:102A700079F10E94BF13809398019091140292FF04
:102A80000EC090FF0CC01F928F9382E899E09F9335
:102A90008F930E94BD090F900F900F900F9080911F
:102AA000980129960FB6F894DEBF0FBECDBFDF9117
:102AB000CF911F910F91FF90EF90DF90CF90BF903B
:102AC000AF909F907F906F905F904F900C94942068
:102AD00029960FB6F894DEBF0FBECDBFDF91CF9120
:102AE0001F910F91FF90EF90DF90CF90BF90AF902C
:102AF0009F907F906F905F904F9008950C94F30B90
:102B000008950895EF92FF920F931F93CF93DF9351
:102B10008CE999E00E942409C0E0D0E08EE2E82E22
:102B200081E0F82E0DE819E08C2F0E94E70B0E943F
:102B30005720FF92EF929F938F937F936F93DF9332
:102B4000CF931F930F930E94BD0921968DB79EB717
:102B50000A960FB6F8949EBF0FBE8DBFC630D10542
:102B600019F7DF91CF911F910F91FF90EF9008958A
:102B700008950895CF93DF93CDB7DEB72B970FB6A7
:102B8000F894DEBF0FBECDBF942F4F83252F5887FB
:102B900069877A878B874A855B85452B21F02F3F94
:102BA00009F59F3FF9F4DE01119686E0FD011192CF
:102BB0008A95E9F785E0FE01379601900D928A9596
:102BC000E1F749815A816B817C818D819E810E94D0
:102BD0008C1C2B960FB6F894DEBF0FBECDBFDF91D5
:102BE000CF9108954F81588569857A858B850E949C
:102BF0008320D9CFCF93882309F4A4C0C82F8CEFAA
:102C00008C0F813A48F48C2F0E94192B81119AC0A5
:102C10008C2F0E94171F0CC080E28C0F883058F454
:102C2000C77081E001C0880FCA95EAF70E94C21FF1
:102C3000CF910C94FC1F8BE58C0F833078F4C53A50
:102C400029F0C63A31F083E890E005C081E890E0D1
:102C500002C082E890E0CF910C941F1488E58C0F9D
:102C6000853108F06FC0C83A61F1C93A69F1CA3AD2
:102C700071F1CB3A79F1CC3A81F1CD3A89F1CE3A82
:102C800091F1CF3A99F1C13BA1F1C03BA9F1C23B0F
:102C9000B1F1C33BB9F1C43BC1F1C53BC9F1C63B7E
:102CA000D1F1C73BD9F1C83BE1F1C93BE9F1CA3BDE
:102CB000F1F1CB3BF9F1CC3B09F43FC080E090E06F
:102CC0003EC082EE90E03BC089EE90E038C08AEED4
:102CD00090E035C085EB90E032C086EB90E02FC0ED
:102CE00083EB90E02CC084EB90E029C087EB90E070
:102CF00026C08CEC90E023C08DEC90E020C083E8EF
:102D000091E01DC08AE891E01AC082E991E017C005
:102D100084E991E014C081E292E011C083E292E084
:102D20000EC084E292E00BC085E292E008C086E229
:102D300092E005C087E292E002C08AE292E0CF9181
:102D40000C944D14CF910895882329F19CEF980F8E
:102D5000913A18F40E946A1F0DC090E2980F9830C3
:102D600058F4877091E001C0990F8A95EAF7892F8E
:102D70000E94C81F0C94FC1F9BE5980F933020F411
:102D800080E090E00C941F14885A853120F480E094
:102D900090E00C944D140895882321F00E94C21FE6
:102DA0000C94FC1F0895882321F00E94C81F0C94E6
:102DB000FC1F0895CF92DF92EF92FF920F931F9323
:102DC000CF93DF9300D000D000D0CDB7DEB725E0A1
:102DD000FC01DE01119601900D922A95E1F7FC01AC
:102DE00040813181F280258122952F706381748129
:102DF000672B09F4D6C23F3F19F44F3F09F4D1C203
:102E00006C0149833A8389819A812E830E94D61E60
:102E1000182F092F0E94D51E0E94E51DE02FE29574
:102E2000EF70F0E0EF59FF4F2E810C94BF2D802FF3
:102E3000807F902F9F70092F882311F00295007FCB
:102E4000FF2049F0002309F45DC2802F0E94D51FA6
:102E50000E94FC1F57C2812F0E94A416002309F470
:102E6000A0C2802F0E94DB1F26960FB6F894DEBF0B
:102E70000FBECDBFDF91CF911F910F91FF90EF90CB
:102E8000DF90CF900C94FC1F802F807F902F9F703D
:102E9000092F803211F00295007F112319F01130B3
:102EA00001F129C0FF20A9F0802F222349F1213010
:102EB00039F526960FB6F894DEBF0FBECDBFDF9171
:102EC000CF911F910F91FF90EF90DF90CF900C94D6
:102ED000E51F222319F0213009F463C20E94E81F84
:102EE0002BC0FF20E9F0223008F05BC20E94BF1F18
:102EF000802329F021C0FF20E9F0211114C0802F88
:102F000026960FB6F894DEBF0FBECDBFDF91CF91EE
:102F10001F910F91FF90EF90DF90CF900C94CC1603
:102F200021113FC209C0F601858180FFEBC18F707E
:102F30008583E5CF2111FAC1802F69C1202F269505
:102F40002695237030E02115310521F0213031051F
:102F5000C9F027C2FF2021F0812F902F937002C06B
:102F600080E090E026960FB6F894DEBF0FBECDBF8E
:102F7000DF91CF911F910F91FF90EF90DF90CF9055
:102F80000C941F14FF2021F0812F902F937002C00A
:102F900080E090E026960FB6F894DEBF0FBECDBF5E
:102FA000DF91CF911F910F91FF90EF90DF90CF9025
:102FB0000C944D14812FFF2019F00E941F2502C090
:102FC0000E94872526960FB6F894DEBF0FBECDBFB0
:102FD000DF91CF911F910F91FF90EF90DF90CF90F5
:102FE0000C940C26802F837009F078C0F110D9C1A1
:102FF000812F829586958770880F880F912F9F70FB
:10300000C92ED12CE12CF12C082E04C0CC0CDD1CD7
:10301000EE1CFF1C0A94D2F714FF12C04FE050E0E0
:1030200060E070E004C0440F551F661F771F8A954B
:10303000D2F7CB01BA01609570958095909503C049
:1030400060E070E0CB01202F269526952370422F5B
:1030500050E042305105D1F04330510559F16C290F
:103060007D298E299F294130510541F126960FB6C1
:10307000F894DEBF0FBECDBFDF91CF911F910F91AE
:10308000FF90EF90DF90CF900C94FA1D6C297D2972
:103090008E299F2926960FB6F894DEBF0FBECDBFAE
:1030A000DF91CF911F910F91FF90EF90DF90CF9024
:1030B0000C940C1E0E94FA1DC701B60126960FB68D
:1030C000F894DEBF0FBECDBFDF91CF911F910F915E
:1030D000FF90EF90DF90CF900C94E81DFF2019F047
:1030E000802F817001C08695882309F45AC1812FF1
:1030F000829586958770880F880F912F9F70C92EB3
:10310000D12CE12CF12C082E04C0CC0CDD1CEE1CC3
:10311000FF1C0A94D2F714FF12C04FE050E060E0A9
:1031200070E004C0440F551F661F771F8A95D2F7C1
:10313000CB01BA01609570958095909503C060E0D1
:1031400070E0CB01202F269526952370422F50E06A
:1031500042305105D1F04330510559F16C297D2998
:103160008E299F294130510541F126960FB6F894DA
:10317000DEBF0FBECDBFDF91CF911F910F91FF90AA
:10318000EF90DF90CF900C94B11E6C297D298E2991
:103190009F2926960FB6F894DEBF0FBECDBFDF91F4
:1031A000CF911F910F91FF90EF90DF90CF900C94F3
:1031B000C31E0E94B11EC701B60126960FB6F89431
:1031C000DEBF0FBECDBFDF91CF911F910F91FF905A
:1031D000EF90DF90CF900C949F1E103F41F118F4B8
:1031E000103E48F48AC0123F09F44FC0D0F1133F9B
:1031F00009F45FC082C01F70802F8F71FF2021F003
:103200000E94381E812F7CCE0E94591E812F269647
:103210000FB6F894DEBF0FBECDBFDF91CF911F91E7
:103220000F91FF90EF90DF90CF900C94D316FF207A
:10323000A1F02111B6C0802F8F7126960FB6F89499
:10324000DEBF0FBECDBFDF91CF911F910F91FF90D9
:10325000EF90DF90CF900C947E1E223008F0A1C03A
:10326000EACFFF20A1F0802F8F7126960FB6F89439
:10327000DEBF0FBECDBFDF91CF911F910F91FF90A9
:10328000EF90DF90CF900C94381EFF2061F3802FD9
:103290008F7126960FB6F894DEBF0FBECDBFDF91BB
:1032A000CF911F910F91FF90EF90DF90CF900C94F2
:1032B000591EFF2091F0802F8F7126960FB6F8943B
:1032C000DEBF0FBECDBFDF91CF911F910F91FF9059
:1032D000EF90DF90CF900C94231E26960FB6F894B3
:1032E000DEBF0FBECDBFDF91CF911F910F91FF9039
:1032F000EF90DF90CF900C941E1EFF20A1F02223B0
:1033000009F4B1CF812F26960FB6F894DEBF0FBE19
:10331000CDBFDF91CF911F910F91FF90EF90DF9084
:10332000CF900C94FA15222309F4B1CF812F269661
:103330000FB6F894DEBF0FBECDBFDF91CF911F91C6
:103340000F91FF90EF90DF90CF900C94A416402F38
:103350004F70612FC6010E94C60926960FB6F894D9
:10336000DEBF0FBECDBFDF91CF911F910F91FF90B8
:10337000EF90DF90CF900C94301D402F4F70612F55
:10338000C60126960FB6F894DEBF0FBECDBFDF9103
:10339000CF911F910F91FF90EF90DF90CF900C9401
:1033A0002A2226960FB6F894DEBF0FBECDBFDF915E
:1033B000CF911F910F91FF90EF90DF90CF900895E4
:1033C0000E94E21F0E94B11F0E94FC1F0E943E2724
:1033D0000E940C2680E090E00E941F1480E090E0A4
:1033E0000C944D140E94D21F0C94E0190E94D61E1A
:1033F000292F22952F7030E02C3031054CF42A30E3
:1034000031056CF4225031092230310588F407C0AF
:103410002C30310549F02F30310531F009C0803EA4
:1034200048F0803F29F406C093FB882780F908956F
:1034300080E0089581E00895CF93DF9300D000D01D
:103440001F92CDB7DEB70F900F900F900F900F9097
:10345000DF91CF910895CF93DF9300D000D000D0BB
:10346000CDB7DEB726960FB6F894DEBF0FBECDBF40
:10347000DF91CF9108951F93CF93DF93C091B10156
:1034800016E08091B201C81799F0D0E01C9FF001BE
:103490001D9FF00D1124ED54FE4F4081518162813A
:1034A0007381848195810E942B1A2196C770E9CF80
:1034B000DF91CF911F9108954091E3015091E40174
:1034C0006091E5017091E6018091E7019091E8013A
:1034D0000C942B1A8091E80182958F7009F054C0EA
:1034E0008091E501882309F44FC08091B101A0913A
:1034F000B2016091E3017091E4014091E6015091C5
:10350000E701B6E08A1709F43FC090E04115510584
:10351000C1F17F3F11F46F3FA1F1B89FF001B99F56
:10352000F00D1124ED54FE4F218172132AC0208129
:10353000621327C02281211124C0238134812417E2
:10354000350710F421503109241B350B2436310581
:10355000C0F42091E8012F7020612093E80126E05B
:10356000289FF001299FF00D1124E854FE4F80811F
:103570008F708061808383EE91E00E94DA160C9454
:103580003B1A01968770BECF0895CF92DF92EF92DB
:10359000FF920F931F93CF93DF93CDB7DEB7629760
:1035A0000FB6F894DEBF0FBECDBF8C0185E0F801E9
:1035B000DE011D9601900D928A95E1F7D8014C919C
:1035C00011965C91119712966C9112971396CD906B
:1035D000DC9014973091E3017091E4018091E60151
:1035E0009091E701009709F46BC17F3F19F43F3FC9
:1035F00009F466C1E090E501EE2009F4C0C0209115
:10360000E801C816D90628F0F601E81BF90BCF012E
:1036100004C0809590958C0D9D1DFF24F3948436F5
:10362000910578F0F12C207F09F0C6C07C2DD98A55
:10363000C88A89890E941C1A83EE91E00E94DA16DA
:10364000B1C0822F807F09F046C0751314C03413B7
:1036500012C0611110C02F7020612093E8010E94F8
:103660005C1A83EE91E00E94DA168091E801D8019D
:1036700015968C932EC0CD2819F15F3F11F44F3F62
:10368000F9F0F62E61111CC08091B1012091B201B8
:1036900036E0821709F45AC090E0389FF001399F54
:1036A000F00D1124ED54FE4F7181571306C0708147
:1036B000471303C07281711103C001968770E9CF6F
:1036C000F62E662309F418C18091E8018160809389
:1036D000E801F12C11C1751308C0341306C0611143
:1036E00004C08091E801D801C3C04D875E878D85F5
:1036F0009E856A8B0E94F6196A898823E1F1662308
:10370000D1F12091E801822F82958F7090E002978D
:1037100074F08091E3019091E40198878F8319867A
:10372000DB86CA862C87CE0107960E94DA1686E0D1
:10373000F801A3EEB1E001900D928A95E1F70E94A5
:103740006A1A0E945C1AFF24F394D6C04D875E87E4
:103750008D859E850E94D61E292F22952F7030E0E0
:10376000223031050CF0BCC09F7009F0B6C0805EFD
:10377000883008F4C1C0C8010E94DA16E4CFC81628
:10378000D90608F453C0F601E81BF90BCF018436C3
:10379000910508F450C0F12C7C2DD98AC88A8989FA
:1037A0000E941C1AE3EEF1E086E0DF011D928A958B
:1037B000E9F70E945C1AA0C0751314C0341312C03C
:1037C000611110C08091E801F8018583C8010E9451
:1037D000DA1686E0E3EEF1E0DF011D928A95E9F763
:1037E000FE2C8AC04D875E878D859E856A8B0E94E0
:1037F000F6196A89882309F4BECF662309F4BBCF82
:103800002091E801822F82958F7090E002970CF44E
:103810008ECF8091E3019091E4019A8389831B828A
:10382000DD82CC822E83CE0101967FCF809590954C
:103830008C0D9D1DACCFF62E662309F49CCF75131D
:103840002EC034132CC02091E80120FD1FC0822F10
:1038500082958F70D9F0D80115962C9315978F30DB
:1038600049F08F5F982F9295907F822F8F70892BD0
:1038700015968C93C8010E94DA1686E0F801A3EE33
:10388000B1E001900D928A95E1F793CF86E0F801BF
:10389000A3EEB1E001900D928A95E1F72DC04D871E
:1038A0005E878D859E850E94F619811140CF80919B
:1038B000E80181608093E801C8010E94DA161CC00B
:1038C000662309F458CF4D875E878D859E850E94BB
:1038D000F619882309F44FCF2ACF811148CF0CC0A5
:1038E000243031050CF047CF9F7009F440CFF80128
:1038F0009581907F09F03BCF8F2D62960FB6F8949B
:10390000DEBF0FBECDBFDF91CF911F910F91FF9012
:10391000EF90DF90CF9008951F93CF93DF93CDB7B3
:10392000DEB72C970FB6F894DEBF0FBECDBF4F8326
:10393000588769877A878B879C87CE0107960E9474
:10394000C51A882369F08F8198852A853B85232BAA
:10395000F1F19F3F09F063C08F3F09F060C037C0AD
:1039600086E0FE013796DE01119601900D928A9550
:10397000E1F76F817885EA85FB85309741F17F3FDC
:1039800011F46F3F21F12091B20130E0C90101969D
:10399000877099274091B10150E08417950709F489
:1039A00047C069837A83FD83EC8396E0929FD001C0
:1039B000939FB00D1124AD54BE4FFE01319601907E
:1039C0000D929A95E1F78093B2010E943B1A16E09E
:1039D0008091B1019091B2018917C1F1189FC00186
:1039E00011248D549E4F0E94C51A882379F1E091CD
:1039F000B1011E9FF0011124ED54FE4F4081518111
:103A000062817381848195810E942B1A8091B1011A
:103A100090E00196877099278093B101D9CF4F81AB
:103A2000588569857A858B859C850E942B1ACFCF16
:103A30000E94F2191092B2011092B101E3EEF1E08E
:103A400086E0DF011D928A95E9F7C1CF2C960FB66B
:103A5000F894DEBF0FBECDBFDF91CF911F910895C7
:103A6000DF92EF92FF920F931F93CF93DF93FC01AE
:103A7000892B09F48AC0E12CF12CDD24D394EF01C9
:103A800021968491853709F461C058F4843708F091
:103A90004EC0843008F06AC08130D1F0823071F1BC
:103AA00074C0883709F45DC050F4863709F455C0F6
:103AB000873709F06AC08E2D0E94CF1F54C09CE743
:103AC000980F903708F061C08F770E94A41650C0FD
:103AD0008F010E5F1F4FFE01849190E2980F983086
:103AE00050F48770FD2D01C0FF0F8A95EAF78F2FE4
:103AF0000E94D51F14C00E94FA1513C08F010E5FDB
:103B00001F4FFE01C49180E28C0F883060F4C770B3
:103B10008D2D01C0880FCA95EAF70E94DB1F0E9415
:103B2000FC1FE80125C08C2F0E94A416FACF9F012C
:103B30002E5F3F4FFE01C491CC2369F08FE99FE0D7
:103B40000197F1F700C00000C150F6CF9F012E5F32
:103B50003F4FFE01F490E9010BC00E94BF1FE82E09
:103B600007C00E94D21F0E94FC1F02C00E94FA15CB
:103B70008F2D882341F0EFE9FFE03197F1F700C086
:103B800000008150F6CFFE017ACFDF91CF911F91D7
:103B90000F91FF90EF90DF9008956093ED01709387
:103BA000EE018093EF019093F0010E9492200C941B
:103BB000E0196093E9017093EA018093EB0190931F
:103BC000EC010E9493200C94E01908950C94CD1DF3
:103BD0000F931F930091ED011091EE012091EF01E1
:103BE0003091F001602B712B822B932B1F910F9141
:103BF0000C94CD1D0F931F930091ED011091EE01D8
:103C00002091EF013091F0016023712382239323EF
:103C10001F910F910C94CD1D0F931F930091ED01F7
:103C20001091EE012091EF013091F0016027712792
:103C3000822793271F910F910C94CD1D60E070E0B7
:103C4000CB010C94D91D0F931F9341E050E060E02D
:103C500070E08A019B0104C0000F111F221F331F57
:103C60008A95D2F7C901B8011F910F910C94D91D03
:103C70000F931F9341E050E060E070E004C0440FF8
:103C8000551F661F771F8A95D2F78091E9019091A1
:103C9000EA01A091EB01B091EC018A019B01082B94
:103CA000192B2A2B3B2BC901B8011F910F910C94A2
:103CB000D91D0F931F9341E050E060E070E004C015
:103CC000440F551F661F771F8A95D2F74095509570
:103CD000609570958091E9019091EA01A091EB01C6
:103CE000B091EC018A019B01082319232A233B236D
:103CF000C901B8011F910F910C94D91D0F931F9307
:103D000041E050E060E070E004C0440F551F661FC2
:103D1000771F8A95D2F78091E9019091EA01A091ED
:103D2000EB01B091EC018A019B01082719272A2792
:103D30003B27C901B8011F910F910C94D91D0F9316
:103D40001F930091E9011091EA012091EB0130915C
:103D5000EC01602B712B822B932B1F910F910C94F4
:103D6000D91D0F931F930091E9011091EA01209151
:103D7000EB013091EC0160237123822393231F9187
:103D80000F910C94D91D0F931F930091E90110918D
:103D9000EA012091EB013091EC0160277127822725
:103DA00093271F910F910C94D91D0895CF92DF9204
:103DB000EF92FF920F931F93CF93DF938C01C090EC
:103DC000ED01D090EE01E090EF01F090F001409114
:103DD000E9015091EA016091EB017091EC01C42A74
:103DE000D52AE62AF72ACFE1D0E0D701C6010C2E6A
:103DF00004C0B695A795979587950A94D2F780FF4A
:103E000007C0B8018C2F0E9443228130910531F404
:103E1000219758F7B80180E00E944322DF91CF91AB
:103E20001F910F91FF90EF90DF90CF9008959091A8
:103E30000B01992321F090910C01911109C020915F
:103E40000D0130910E01F90132969FEF40E030C034
:103E5000982F9695969596959F31A0F4E0910D0137
:103E6000F0910E01E90FF11D877021E030E0A9010A
:103E700002C0440F551F8A95E2F7CA019181892B30
:103E8000818308959091140290FF23C01F928F9315
:103E900080EE99E09F938F930E94BD090F900F9041
:103EA0000F900F9008959F3F39F04F5F4E3141F0D2
:103EB00051915813F8CF0DC05111F7CF942FF5CF72
:103EC0009F3F39F0F901E90FF11D97FDFA958283C3
:103ED0000895089590910B01992321F090910C0180
:103EE000911109C020910D0130910E01F901329616
:103EF000205E3F4F30C0982F9695969596959F31AE
:103F0000A8F4E0910D01F0910E01E90FF11D877009
:103F100021E030E0A90102C0440F551F8A95E2F765
:103F2000CA0180959181892381830895909114021B
:103F300090FF16C01F928F9382EC99E09F938F930E
:103F40000E94BD090F900F900F900F900895319629
:103F5000E217F30729F090819813F9CF1082F7CF79
:103F6000089581E090E0E0910D01F0910E01E80FDD
:103F7000F91F1082019680329105A9F7089580916A
:103F80001302089590911302892B809313020895D0
:103F90008095909113028923809313020895809352
:103FA0001302089510921302089590911202892B22
:103FB0008093120208958095909112028923809334
:103FC000120208951092120208958093F10108954B
:103FD0001092F101089580910D0190910E01FC0164
:103FE00031969C01205E3F4F80E0919191118F5F4F
:103FF000E217F307D1F70895E0910D01F0910E015A
:10400000809113028083E0910D01F0910E01908167
:1040100080911202892B80838091F101882361F0C5
:10402000E0910D01F0910E019081892B80830E9417
:10403000EB1F81111092F10180910D0190910E0101
:104040000C94CB1390933B0180933A010895829591
:10405000982F9C7C392F36953695282F237344E072
:10406000249FC0011124932F982B292F2A7A26955B
:10407000892F8575880F822B08951F93CF93DF9327
:104080001F92CDB7DEB799830E942720182F998100
:10409000892F0E942720212F30E0322F2227A901CB
:1040A000482BCA010F90DF91CF911F910895CF92B5
:1040B000DF92EF92FF920F931F93CF93DF936B01E9
:1040C0007C01CB010E943D20EC01C7010E943D20F4
:1040D000AC01CE01A0E0B0E0DC019927882760E0C8
:1040E00070E08C019D01042B152B262B372BC90169
:1040F000B801DF91CF911F910F91FF90EF90DF906A
:10410000CF9008950895CF93DF9300D000D01F92F1
:10411000CDB7DEB70F900F900F900F900F90DF91FB
:10412000CF910895089508950C947E150895809177
:104130002902843021F11092150220E488E190E0F8
:104140000FB6F894A895809360000FBE209360008E
:1041500083B7817F846083BF83B7816083BF789496
:10416000889583B78E7F83BF0FB6F894A89580910A
:104170006000886180936000109260000FBE089517
:10418000CF930E94B8150E94350A0E94B915C0E06D
:104190008C2F0E94E70B672B682B692B29F4CF5FCC
:1041A000C630B1F780E001C081E0CF9108950E9450
:1041B00080150C94F2191F920F920FB60F921124D2
:1041C0008F939F93AF93BF9380911502811113C07A
:1041D0008091160290911702A0911802B0911902D5
:1041E0004196A11DB11D8093160290931702A093D2
:1041F0001802B0931902BF91AF919F918F910F90C8
:104200000FBE0F901F90189582E084BD93E095BD7E
:104210009AEF97BD80936E0008952FB7F894809120
:10422000160290911702A0911802B09119022FBFA7
:1042300008952FB7F894609116027091170280913B
:104240001802909119022FBF0895CF92DF92EF923A
:10425000FF920F931F932FB7F8944091160250913D
:10426000170260911802709119022FBF6A017B0139
:10427000EE24FF248C0120E030E0C016D106E206D7
:10428000F30610F4415051099A01281B390BC9015A
:104290001F910F91FF90EF90DF90CF9008951F92A4
:1042A0000F920FB60F9211248F939F93AF93BF93EA
:1042B0008091160290911702A0911802B0911902F4
:1042C0000196A11DB11D8093160290931702A09331
:1042D0001802B0931902BF91AF919F918F910F90E7
:1042E0000FBE0F901F9018950E94CD10F8942FEFDD
:1042F00087EA91E6215080409040E1F700C000003D
:1043000087E090EBDC018093330290933402A0931A
:104310003502B09336029CE088E10FB6F894A89578
:10432000809360000FBE90936000FFCF8D3B60F4E0
:10433000883A90F5853A28F5843008F5813009F0FF
:1043400086C081E090E00895883E98F4803EB8F4FD
:104350008F3B09F07CC00E94F2192FEF80E792E0BA
:10436000215080409040E1F700C000000E9474217D
:104370006EC0803F08F46BC090E09065089590E0B7
:104380000895853A21F0863A21F033E803C031E8F8
:1043900001C032E820E458C0883A51F1893A59F115
:1043A0008A3A59F18B3A59F18C3A59F18D3A59F1CF
:1043B0008E3A59F18F3A59F1813B59F1803B59F1CD
:1043C000823B59F1833B59F1843B59F1853B59F1CB
:1043D000863B61F1873B61F1883B61F1893B61F18B
:1043E0008A3B61F18B3B61F18C3B61F130E001C0B4
:1043F00032EE24E429C039EEFCCF3AEEFACF35EBA9
:10440000F8CF36EBF6CF33EBF4CF34EBF2CF37EB1C
:10441000F0CF3CECEECF3DECECCF33E805C03AE812
:1044200003C032E901C034E925E40EC031E20BC01B
:1044300033E209C034E207C035E205C036E203C00A
:1044400037E201C03AE226E4832F922F089580E0FC
:1044500090E00895089595E1799FF00111249EE779
:10446000899FE00DF11D1124E60FF11DE75DFB4F63
:1044700084910895E82FF0E0EE0FFF1FE759FD4FFC
:104480008591949108950E942B22803EA8F4803C4F
:1044900000F5813309F45CC038F4893209F452C064
:1044A0008A3209F45BC05FC08933B1F08238A1F071
:1044B000853309F441C057C0833E41F128F4803E62
:1044C00099F0823EB9F04FC0863E31F1873E71F1DE
:1044D0004AC00E943A2208959091320290FD02C093
:1044E00091FF41C080EE3FC08091320280FFFACF41
:1044F00089E339C08091320282FF0CC08091320280
:1045000084FF02C080E02FC083EE2DC08091320274
:1045100082FFF4CF82EE27C08091320283FF0AC06F
:104520008091320284FDEECF87EE1DC08091320271
:1045300083FFF6CF86EE17C08091320285FF06C05A
:1045400089E211C08091320285FFFACF85E30BC06A
:104550008091320286FF06C08AE205C08091320255
:1045600086FFFACF81E30E94962108958F929F9251
:10457000AF92BF92EF92FF920F931F93CF937C0164
:10458000C0E08C2F0E94E70B4B015C0100E010E0C3
:10459000D501C401002E04C0B695A79597958795BF
:1045A0000A94D2F780FF16C0602F7C2F80E00E9413
:1045B00043229C018E159F0559F0832F807E932FF7
:1045C000907C11F0803A31F430E02E153F0511F463
:1045D00081E009C00F5F1F4F05311105C9F6CF5F9C
:1045E000C63079F680E0CF911F910F91FF90EF9048
:1045F000BF90AF909F908F900895CF93DF93EC0181
:104600008CE290E00E94B622882329F0CE01DF914F
:10461000CF910C94B62280E0DF91CF910895CF9393
:104620000E947724811102C00E945D2485E09AE0F7
:104630000E942409C5E6C15049F00E94350A8FE363
:104640009CE90197F1F700C00000F5CF8EEF99E0EB
:104650000E94240989E290E00E94FD2281112BC171
:104660008AE290E00E94FD2281110E945D2485E093
:1046700090E00E94FD2281110E9474210E949620E8
:104680000E9482248093140287E090E00E94FD2221
:104690008823C1F18BE190E00E94FD22882351F034
:1046A0008091140281FB222720F991E0922790FB50
:1046B00081F90FC08EE090E00E94FD22882361F016
:1046C0008091140282FB222720F991E0922790FB2F
:1046D00082F98093140216C080E190E00E94FD22CE
:1046E00090911402882341F093FB222720F981E066
:1046F000822780FB93F904C0892F809580FB90F975
:1047000090931402809114020E9486240E949424A3
:104710008093320280EE90E00E94FD22882341F0D7
:1047200080913202982F909590FB80F9809332020D
:1047300089E390E00E94FD22882359F080913202A3
:1047400081FB222720F991E0922790FB81F9809349
:10475000320282EE90E00E94FD22882359F080917F
:10476000320282FB222720F991E0922790FB82F906
:104770008093320286EE90E00E94FD22882359F059
:104780008091320283FB222720F991E0922790FB4F
:1047900083F98093320283EE90E00E94FD22882309
:1047A00059F08091320284FB222720F991E0922770
:1047B00090FB84F98093320285E390E00E94FD2211
:1047C000882359F08091320285FB222720F991E05D
:1047D000922790FB85F98093320281E390E00E945A
:1047E000FD22882359F08091320286FB222720F98E
:1047F00091E0922790FB86F98093320281E190E06C
:104800000E94FD22882359F08091320287FB2227E3
:1048100020F991E0922790FB87F9809332028091F2
:1048200032020E9498248091320287FB882780F907
:1048300080930C0187E290E00E94FD22C82F8EE158
:1048400090E00E94FD228111C2608FE190E00E9401
:10485000FD228111C46080E290E00E94FD2281115E
:10486000C86081E290E00E94FD228111C06182E275
:1048700090E00E94FD228111C06283E290E00E94DC
:10488000FD228111C06484E290E00E94FD22882311
:1048900011F0C06802C0CC2329F08C2F0E948F2415
:1048A0006C2F03C00E948B24682F70E080E090E0A2
:1048B000CF910C94E61DCF9108956DEE7EEF80E0D0
:1048C00090E00E94F82D60E082E090E00E94EA2DE6
:1048D00060E083E090E00E94EA2D60E084E090E0F8
:1048E0000E94EA2D60E085E090E00C94EA2D80E0E3
:1048F00090E00E94E42D21E08D3E9E4F09F020E0E3
:10490000822F089582E090E00C94DC2D682F82E0E5
:1049100090E00C94EA2D83E090E00C94DC2D682F5D
:1049200083E090E00C94EA2D84E090E00C94DC2D80
:10493000682F84E090E00C94EA2D80911C0280FFA7
:104940000BC06091120185E0689FB001112475953C
:104950006795759567952BC081FF09C0609112011D
:1049600085E0689FB00111247595679520C082FF8E
:1049700007C06091120185E0689FB001112417C043
:1049800090911D029923D1F060911101961788F73B
:104990002091120185E0289F90011124929FA0018F
:1049A000939F500D112470E0CA010E94AB2D603816
:1049B000710540F46115710539F002C065E070E0E1
:1049C000862F08958FE7089581E0089580911C0255
:1049D00080FF08C06091100170E07595679575952E
:1049E000679521C081FF06C06091100170E0759548
:1049F000679519C082FF04C06091100170E010C07B
:104A000090911D029923C1F060910F019617A0F7B4
:104A100080911001899FC001112470E00E94AB2D8C
:104A20006038710528F46115710521F0862F08950D
:104A30008FE7089581E0089561E070E0F4CF803F52
:104A400021F40E949D24819504C0813F29F40E9495
:104A50009D24809320020895823F21F40E949D248A
:104A6000819504C0833F29F40E949D2480931F02F6
:104A70000895893F19F40E94E62405C08A3F31F465
:104A80000E94E62481958093210208958B3F21F4B2
:104A90000E94E624819504C08C3F29F40E94E624FC
:104AA000809322020895843F21F480911E02816048
:104AB00017C0853F21F480911E02826011C0863F9D
:104AC00021F480911E0284600BC0873F21F4809105
:104AD0001E02886005C0883F31F480911E0280610B
:104AE00080931E0208958D3F21F480911C02816005
:104AF0000BC08E3F21F480911C02826005C08F3F65
:104B000029F480911C02846080931C020895803FE8
:104B100039F48091200287FF6CC01092200269C096
:104B2000813F29F4809120021816BCF362C0909155
:104B30001F02823F29F497FF5CC010921F0259C0E8
:104B4000833F19F41916CCF354C0893F41F4809186
:104B5000210218160CF04DC0109221024AC08A3F63
:104B600029F48091210287FF44C0F6CF8B3F39F4AE
:104B70008091220287FF3DC0109222023AC08C3FF2
:104B800029F4809122021816BCF333C0843F21F42B
:104B900080911E028E7F17C0853F21F480911E02F6
:104BA0008D7F11C0863F21F480911E028B7F0BC048
:104BB000873F21F480911E02877F05C0883F31F432
:104BC00080911E028F7E80931E0213C08D3F21F4C0
:104BD00080911C028E7F0BC08E3F21F480911C02BD
:104BE0008D7F05C08F3F29F480911C028B7F8093BD
:104BF0001C0280911F0281110EC080912002811140
:104C00000AC080912102811106C080912202811187
:104C100002C010921D0208958091140283FF7EC08D
:104C200081E49AE00E94240980911E021F928F93D2
:104C30008CE39AE09F938F930E94BD098AE39AE0E8
:104C40000E94240980911F02282F082E000C330B8C
:104C50003F938F9387E39AE09F938F930E94BD09C0
:104C600085E39AE00E94240980912002282F082ED3
:104C7000000C330B3F938F9382E39AE09F938F93C3
:104C80000E94BD0980E39AE00E94240980912102DC
:104C9000282F082E000C330B3F938F938DE29AE060
:104CA0009F938F930E94BD098BE29AE00E94240992
:104CB00080912202282F082E000C330B3F938F93F4
:104CC00088E29AE09F938F930E94BD0985E29AE063
:104CD0000E94240980911D021F928F9382E29AE024
:104CE0009F938F930E94BD0980E29AE00E9424095D
:104CF00080911C021F928F938DE19AE09F938F9376
:104D00000E94BD098AE19AE00E9424098DB79EB7EE
:104D10004C960FB6F8949EBF0FBE8DBF8EE192E009
:104D20000E9414140E940D2190931B0280931A027A
:104D300008951F93CF93DF9380911A0290911B02E5
:104D40000E942521AC0190911D02992321F0209110
:104D5000130130E006C0209114018AE0289F9001E1
:104D600011244217530708F485C080911F02C09197
:104D70002002D091210210912202811107C0C1119D
:104D800075C0D11173C0111171C074C09F3F19F06B
:104D90009F5F90931D02181624F40E949D24809317
:104DA0001F0280911F0287FF05C00E949D248195EC
:104DB00080931F021C1624F40E949D2480932002DD
:104DC0008091200287FF05C00E949D2481958093D9
:104DD000200260911F02662331F1C0912002CC2392
:104DE00011F1062E000C770B880B990B0E94A62C54
:104DF00023E333E343E35FE30E940A2D0E946E2C1A
:104E000060931F026C2FCC0F770B880B990B0E94BD
:104E1000A62C23E333E343E35FE30E940A2D0E94C1
:104E20006E2C609320021D1624F40E94E6248093C9
:104E300021028091210287FF05C00E94E62481950E
:104E400080932102111624F40E94E624809322020A
:104E50008091220287FF05C00E94E62481958093FD
:104E60002202DF91CF911F910C940C269F3F09F0F5
:104E70008FCF97CFDF91CF911F910895EEE1F2E0B0
:104E800085E0DF011D928A95E9F710921D021092CC
:104E90001C02089584E69CE00E9424091F9281E090
:104EA0008F931F9285E08F9386E19CE09F938F9371
:104EB0000E94BD090F900F900F900F900F900F90D0
:104EC00008958330E9F128F4813061F0823009F1EE
:104ED0000895853009F462C008F449C0863009F4A9
:104EE00074C0089580911401262F30E0280F311DE1
:104EF0002F3F310524F4680F6093140103C08FEF36
:104F000080931401809114011F928F938FE49BE092
:104F100072C080911301262F30E0280F311D2F3FE2
:104F2000310524F4680F6093130103C08FEF809361
:104F30001301809113011F928F938DE39BE05BC05F
:104F400080911201262F30E0280F311D2F3F3105AF
:104F500024F4680F6093120103C08FEF8093120155
:104F6000809112011F928F938AE29BE044C080914E
:104F70001101262F30E0280F311D2F3F310524F479
:104F8000680F6093110103C08FEF8093110180912E
:104F900011011F928F9385E19BE02DC0809110013C
:104FA000262F30E0280F311D2F3F310524F4680FE4
:104FB0006093100103C08FEF809310018091100166
:104FC0001F928F938CEF9AE016C080910F01262FCD
:104FD00030E0280F311D2F3F310524F4680F609316
:104FE0000F0103C08FEF80930F0180910F011F927B
:104FF0008F9381EE9AE09F938F930E94BD090F904B
:105000000F900F900F900895833081F128F4813034
:1050100059F08230D1F00895853009F449C0B8F1D3
:10502000863009F456C0089580911401681720F461
:10503000861B8093140102C0109214018091140108
:105040001F928F9382ED9AE054C0809113016817EC
:1050500020F4861B8093130102C0109213018091EB
:1050600013011F928F9380EC9AE043C0809112014C
:10507000681720F4861B8093120102C0109212015F
:10508000809112011F928F938DEA9AE032C0809135
:105090001101681720F4861B8093110102C0109241
:1050A0001101809111011F928F9388E99AE021C02C
:1050B00080911001681720F4861B8093100102C0B4
:1050C00010921001809110011F928F938FE79AE048
:1050D00010C080910F01681720F4861B80930F0188
:1050E00002C010920F0180910F011F928F9384E6EE
:1050F0009AE09F938F930E94BD090F900F900F909D
:105100000F900895CF93C82F1F928F9389E69DE04B
:105110009F938F930E94BD0981E090E0A0E0B0E0F2
:10512000BC01CD0104C0660F771F881F991FCA9567
:10513000D2F70E94E61D0F900F900F900F90CF9125
:105140000C94F219CF938B3109F4CBC108F049C00C
:105150008E3009F4DAC100F5873009F4A9C1A8F44A
:10516000863009F05AC280911402817F8E7F80932D
:1051700014028EE69DE00E9424098AE891E10E94D3
:10518000240981E08093240291C1883009F45BC036
:105190008B3009F487C141C2813109F426C220F461
:1051A000803109F4C6C139C2863109F4DDC18931C3
:1051B00009F033C28EEF90E10E94240988EE90E15D
:1051C0000E9424098BEA90E10E94240984E890E17E
:1051D0000E9424098FE390E10E94240980E190E17C
:1051E00063C1853309F413C268F4873209F40FC22E
:1051F00028F48E3108F411C28D510CC2893209F4A1
:1052000006C20BC2833438F48A3308F002C28833F2
:1052100009F448C102C2833409F4F9C1883409F0A1
:10522000FCC10E94F21989E791E10E9424099FEFD5
:1052300023ED80E3915020408040E1F700C0000062
:105240000E94742133C18EE891E10E9424098DE609
:105250009FE00E9424090E948B241F928F938AE66C
:105260009FE09F938F930E94BD0988E69FE00E9474
:1052700024090E948224C82F85E59FE00E9424090A
:105280001F92CF9380E59FE09F938F930E94BD096B
:105290008EE49FE00E94240984E49FE00E94240998
:1052A0008C2F81701F928F9381E49FE09F938F9347
:1052B0000E94BD098FE39FE00E94240985E39FE0DF
:1052C0000E942409C1FB882780F91F928F9382E3F3
:1052D0009FE09F938F930E94BD0980E39FE00E940F
:1052E000240984E29FE00E942409C2FB882780F9F8
:1052F0001F928F9381E29FE09F938F930E94BD093D
:105300008FE19FE00E94240986E19FE00E9424092A
:10531000C3FBCC27C0F91F92CF9383E19FE09F93FB
:105320008F930E94BD0981E19FE00E9424090E94A1
:105330009424C82F8DEF9EE00E9424091F92CF93E2
:1053400088EF9EE09F938F930E94BD0986EF9EE0B9
:105350000E9424098DED9EE00E9424098C2F81700B
:105360001F928F938AED9EE09F938F930E94BD09B9
:105370008DB79EB780960FB6F8949EBF0FBE8DBFB7
:1053800088ED9EE00E94240981EC9EE00E942409A1
:10539000C1FB882780F91F928F938EEB9EE09F932D
:1053A0008F930E94BD098CEB9EE00E9424098AEA3B
:1053B0009EE00E942409C2FB882780F91F928F93E8
:1053C00087EA9EE09F938F930E94BD0985EA9EE045
:1053D0000E94240983E99EE00E942409C3FB8827D8
:1053E00080F91F928F9380E99EE09F938F930E9494
:1053F000BD098EE89EE00E94240984E89EE00E9498
:105400002409C4FB882780F91F928F9381E89EE0CE
:105410009F938F930E94BD098FE79EE00E9424090D
:105420008DE69EE00E942409C5FB882780F91F9223
:105430008F938AE69EE09F938F930E94BD0988E632
:105440009EE00E9424098CE49EE00E942409C6FB91
:10545000882780F91F928F9389E49EE09F938F9312
:105460000E94BD0987E49EE00E9424098FE39EE02C
:105470000E942409C7FBCC27C0F91F92CF938CE36D
:105480009EE09F938F930E94BD098AE39EE00E9455
:1054900024098DB79EB74C960FB6F8949EBF0FBEE9
:1054A0008DBF04C085E99DE00E942409C1E0BAC017
:1054B00080911402C82FC17080FF09C08CE691E171
:1054C0000E94240980911402817F8E7F47C080E66C
:1054D00091E10E942409809114028160809314025A
:1054E000E5CF9091140291FBCC27C0F981E0C82749
:1054F000892FC0FB81F980931402CC2319F083E536
:1055000091E127C085E491E1CFCF9091140292FB05
:10551000CC27C0F981E0C827892FC0FB82F980938E
:105520001402CC2319F086E391E113C086E291E1E5
:10553000BBCF9091140293FBCC27C0F981E0C82720
:10554000892FC0FB83F980931402CC2351F08AE1A8
:1055500091E10E94240980911402816080931402D9
:1055600061C08DE091E1A0CF82E090E10E9424092A
:105570000E94BF131F928F9388EE9FE09F938F939B
:105580000E94BD0980910B011F928F9381ED9FE0D6
:105590009F938F930E94BD09809191011F928F93D9
:1055A0008EEB9FE09F938F930E94BD0980910C0129
:1055B0001F928F938BEA9FE09F938F930E94BD0968
:1055C0000E9419219F938F937F936F9384E99FE0AB
:1055D0009F938F930E94BD098DB79EB746960FB6D5
:1055E000F8949EBF0FBE8DBF61CF0E94F219C0918B
:1055F0000C0181E0C827C0930C01CC2329F08AE874
:105600009FE00E9424090EC08FE79FE04DCF80E00D
:1056100001C089530E94822849CF8DE79FE00E94F4
:105620002409C0E08C2FCF91089580E0089580E098
:105630000895CF93C82F80912402813071F020F01B
:10564000823009F44BC042C1E0910D01F0910E018E
:105650008081823209F03CC107C0E0910D01F091D8
:105660000E018081823261F48C2F0E94152B8111F2
:1056700004C08C2F0E94A2282FC081E090E02CC093
:105680008C2F0E94172B811126C0C431E1F070F4D9
:10569000CB3081F0C031D1F40E944A2781E69DE0F1
:1056A0000E94240982E08093240215C0C93259F077
:1056B000C83361F48EE69DE00E94240985E69DE0F2
:1056C0000E94240908C01092240204C18FE59DE0C5
:1056D0000E942409FFC081E08170FEC0C43228F519
:1056E000CE3108F0C1C0CB30A1F1D0F4C73009F001
:1056F000D3C08EE18093140182E3809313018AE08A
:105700008093120184E18093110188E0809310015D
:1057100088E280930F0185E09CE00E942409BFC0CD
:10572000C33149F1C431C1F0B7C0CB3409F4A9C0C9
:1057300028F4C93289F0C83361F0AEC0C13509F42C
:105740009EC0C23509F499C0CE3409F0A5C06AE004
:105750009EC00E944A27A3C080912302882319F08B
:10576000109223029CC082E19CE00E94240981E007
:1057700080932402B1C08CEE9BE00E9424098AED44
:105780009BE00E942409809114011F928F9387ED62
:105790009BE09F938F930E94BD0985ED9BE00E9443
:1057A000240983EC9BE00E942409809113011F923D
:1057B0008F9380EC9BE09F938F930E94BD098EEBAB
:1057C0009BE00E9424098FEA9BE00E9424098091BB
:1057D00012011F928F938CEA9BE09F938F930E94FC
:1057E000BD098AEA9BE00E94240989E99BE00E94A6
:1057F0002409809111011F928F9386E99BE09F936A
:105800008F930E94BD0984E99BE00E9424098FE7E1
:105810009BE00E942409809110011F928F938CE7D6
:105820009BE09F938F930E94BD098AE79BE00E94B3
:10583000240983E69BE00E94240980910F011F92B6
:105840008F9380E69BE09F938F930E94BD098EE526
:105850009BE00E9424098DB79EB748960FB6F89436
:105860009EBF0FBE8DBF1BC0CE51EC2FF0E0E15D9F
:10587000FE4F80818093230212C061E003C061E08B
:1058800006C06AE0809123020E94612708C08091CF
:1058900023020E94042803C083E09CE013C080918F
:1058A0002302882369F01F928F938DEF9BE09F93D3
:1058B0008F930E94BD090F900F900F900F9004C01E
:1058C0008AEF9BE00E94240981E006C01092240226
:1058D00080E002C080E000CFCF9108950E94752C37
:1058E0006894B1110C94042D08950E94E92C88F05D
:1058F0009F5798F0B92F9927B751B0F0E1F0660F94
:10590000771F881F991F1AF0BA95C9F714C0B130D4
:1059100091F00E94032DB1E008950C94032D672FA0
:10592000782F8827B85F39F0B93FCCF38695779503
:105930006795B395D9F73EF49095809570956195EC
:105940007F4F8F4F9F4F0895E89409C097FB3EF417
:1059500090958095709561957F4F8F4F9F4F9923BC
:10596000A9F0F92F96E9BB279395F695879577953A
:105970006795B795F111F8CFFAF4BB0F11F460FFFA
:105980001BC06F5F7F4F8F4F9F4F16C0882311F052
:1059900096E911C0772321F09EE8872F762F05C066
:1059A000662371F096E8862F70E060E02AF09A9501
:1059B000660F771F881FDAF7880F9695879597F9F6
:1059C000089557FD9058440F551F59F05F3F71F0EF
:1059D0004795880F97FB991F61F09F3F79F0879556
:1059E0000895121613061406551FF2CF4695F1DFDF
:1059F00008C0161617061806991FF1CF869571056F
:105A0000610508940895E894BB2766277727CB01A2
:105A100097F908950E941D2D0C948E2D0E94802DC3
:105A200038F00E94872D20F0952311F00C94772DEB
:105A30000C947D2D11240C94042D0E94E12C70F304
:105A4000959FC1F3950F50E0551F629FF001729F23
:105A5000BB27F00DB11D639FAA27F00DB11DAA1F32
:105A6000649F6627B00DA11D661F829F2227B00D7F
:105A7000A11D621F739FB00DA11D621F839FA00D0A
:105A8000611D221F749F3327A00D611D231F849F5A
:105A9000600D211D822F762F6A2F11249F575040B1
:105AA0009AF0F1F088234AF0EE0FFF1FBB1F661F2C
:105AB000771F881F91505040A9F79E3F510580F0F5
:105AC0000C94772D0C94042D5F3FE4F3983ED4F3AF
:105AD000869577956795B795F795E7959F5FC1F799
