:100000000C94360C0C947F0C0C947F0C0C947F0C8D
:100010000C947F0C0C947F0C0C947F0C0C947F0C34
:100020000C947F0C0C947F0C0C945C160C9432177F
:100030000C947F0C0C947F0C0C947F0C0C947F0C14
:100040000C947F0C0C94AF300C947F0C0C947F0CB0
:100050000C947F0C0C9464260C947F0C0C947F0CF5
:100060000C947F0C0C947F0C0C947F0C0C947F0CE4
:100070000C947F0C0C947F0C0C947F0C0C947F0CD4
:100080000C947F0C0C947F0C0C947F0C0C947F0CC4
:100090000C947F0C0C947F0CA317C517B318C517CD
:1000A000B3180A182D18B31882189518731C731CEE
:1000B000A01CA01CFA1C361D2D1F2D1F4E1D2D1F10
:1000C000491E491E031F2D1F2D1F191F022B000142
:1000D000E2012B00750A0111021101180218010F2B
:1000E000020F010F020F012D022D01050205010C67
:1000F000020C011102110137023701050205010F3F
:10010000020F01120212010A020A0116021601135D
:1001100002130112021201170217013702370106FA
:100120000206011202120110021000750A010602F5
:100130000601070207012C022C01380238011702C0
:10014000170110021001130213012C022C01E1010E
:100150002302E1022301E1012302E10223012C0237
:100160002C011A021A010A020A01080208011702E8
:1001700017012C022C010B020B01170217011702A9
:100180001701130213013402340138023801380216
:100190003801160216010B020B010C020C011202AF
:1001A0001201110211011202120116021601370288
:1001B000370116021601200220013702370104021E
:1001C000040110021001040204011D021D011202AB
:1001D000120111021101040204011A021A0116028D
:1001E000160137023701060206011202120110023F
:1001F0001001380238011502150108020801130226
:10020000130112021201380238010E020E01080217
:1002100008011C021C01380238010702070108020C
:10022000080105020501370237010A020A0113021B
:1002300013010A020A01370237010E020E010802F9
:1002400008011C021C012C022C012D022D01E101D0
:100250001202E10212012C022C01160216010B02FD
:100260000B010C020C0112021201110211012D02EC
:100270002D011302130118021801050205010F02D6
:100280000F010C020C0106020601370237010702BA
:1002900007010802080105020501370237010E02B5
:1002A0000E01080208011C021C01370237010A0274
:1002B0000A01130213010A020A012C022C01E101B6
:1002C0002302E1022301E1012302E10223012C02C6
:1002D0002C0116021601180218010702070112026A
:1002E00012012C022C010402040113021301170253
:1002F00017012D022D010E020E01080208011C0239
:100300001C012C022C010402040107020701070250
:1003100007012C022C0138023801170217011002C4
:1003200010011302130138023801160216010B02E4
:100330000B010C020C0112021201110211012D021B
:100340002D011302130118021801050205010F0205
:100350000F010C020C0106020601370237010702E9
:1003600007010802080105020501370237010E02E4
:100370000E01080208011C021C01370237010A02A3
:100380000A01130213010A020A0035003A003B0079
:100390003C003D003E003F00400041004200430061
:1003A00044004500460047A548005400530055004E
:1003B0005600570029001E001F00200021002200C7
:1003C000230024002500260027002D002E00890090
:1003D0002A0049004A004B000000000000002B00EA
:1003E00014001A000800150017001C0018000C006B
:1003F000120013002F003000000000004C004D00E0
:100400004E005F0060006100E0000400160007007D
:1004100009000A000B000D000E000F00330034002D
:100420003100280000000000000000005C005D00BA
:100430005E00E1001D001B00060019000500110010
:10044000100036003700380087000022000000004E
:1004500000005200000059005A005B003900E30020
:10046000E2008B0028002A002C008A008800E600A9
:10047000F1A6E400000000000000500051004F0011
:100480006200630058A335003A003B003C003D0089
:100490003E003F0040004100420043004400450050
:1004A000460047A548005400530055005600570029
:1004B00029001E001F00200021002200230024002C
:1004C0002500260027002D002E0089002A00490063
:1004D0004A004B000000000000002B0014001A002E
:1004E0000800150017001C0018000C001200130073
:1004F0002F003000000000004C004D004E005F0057
:1005000060006100E00004001600070009000A0016
:100510000B000D000E000F003300340031002800E6
:1005200000000000000000005C005D005E00E100D3
:100530001D001B0006001900050011001000360008
:100540003700380087000022000000000000520041
:10055000000059005A005B003900048EE2008B0055
:10056000560057002C008A008800E600F1A8E4003D
:10057000000000000000500051004F0062006300C6
:1005800058A329003A003B003C003D003E003F00DC
:10059000400041004200430044004500460047A59A
:1005A00048005400530055005600570029001E0013
:1005B0001F00200021002200230024002500260027
:1005C00027002D002E0089002A0049004A004B0018
:1005D0000000000000002B0014001A0008001500A5
:1005E00017001C0018000C00120013002F00300030
:1005F000000000004C004D004E005F0060006100F4
:10060000E00004001600070009000A000B000D00BE
:100610000E000F00330034003100280000000000FD
:10062000000000005C005D005E00E1001D001B009A
:1006300006001900050011001000360037003800D0
:100640008700002200000000000052000000590056
:100650005A005B00E000028EE200E2002C0028005D
:100660002C00E600E600E600F1A8E400000000002F
:100670000000500051004F006200630058A30100C9
:100680000100010001000100010001000100010062
:100690000100010001000100010001000100010052
:1006A0000100010001000100010001000100010042
:1006B0000100010001000100010001000100010032
:1006C0000100010001000100010001000100010022
:1006D0000100010001000100010001000100010012
:1006E0000100010001000100010001000100010002
:1006F00001000100010007020802090201000100D7
:1007000001000100010001000100010001000100E1
:1007100001000100010001000100010001000100D1
:1007200004020502060201000100010001000100AF
:1007300001000100010001000100010001000100B1
:100740000100010001000100010023022202200239
:100750000100010001000100010001000100010091
:100760000100010001000100010001000100010081
:10077000010001002C001B0001000100010001002C
:100780000100010001000100010001000100010061
:1007900001000100010001000100FB500100FC50BC
:1007A000F650F950010001000100010001000100B4
:1007B0000100010001000100010001000100010031
:1007C0000100010001000100010001000100010021
:1007D0000100010001000100010001000100010011
:1007E0000100010001000100010001000100010001
:1007F0000100F450F050F55001000100010001002B
:1008000001000100010001000100010001000100E0
:10081000010001000100010001000100F250F1504F
:10082000F35001000100010001000100010001007E
:1008300001000100010001000100010001000100B0
:1008400001000100010000000000000001000100A3
:100850000100010001000100010001000100010090
:100860000100010001000100010001000100010080
:10087000F450F550FA5001000100010001000100A0
:100880000100010001000100010001000100010060
:100890000100010001000100010001000100010050
:1008A0000100010001000100010001000100010040
:1008B0000100010001000100010001000100010030
:1008C0000100010001000100010001000100010020
:1008D0000100010001000100010001000100010010
:1008E0000100010001000100010001000100010000
:1008F00001000100010001000100010001000100F0
:1009000001000100010001000100010001000100DF
:1009100001000100010001000100010001000100CF
:1009200001000100010001000100010001000100BF
:100930000100010001000100010001000100F95067
:10094000010001000100010001000100010001009F
:10095000010001000100010001000100010001008F
:10096000010001000100FB50FA50FC5001000100A1
:1009700001000000E944EA44E244B444B644CD44F2
:10098000B744B544B34400000000824000000000BA
:100990000000000092450000218A0000018E000046
:1009A0000000000000000000000000000000000047
:1009B00000000000000001C0000000000000000076
:1009C0000000000000000000000000000000000027
:1009D0000000000000000000000000000000000017
:1009E0000000000000000000000000000000000007
:1009F00000000000000000000000000000000000F7
:100A00000000000000000000000028870000000037
:100A100000000000000000000000000000000000D6
:100A2000000000000000000000000000000000C006
:100A300000000000000000000000000000000000B6
:100A4000000000000000028E000000000000000016
:100A500000F0000000006500010000000000000040
:100A6000000000000000000000000000F1A6018E60
:100A7000E944EA44E244B444B644CD44B744B544FE
:100A8000B344018E018E8240018E018E018E018E53
:100A90009245018E218A018E018E018E018E018E7A
:100AA000018E018E018E018E018E018E018E018ECE
:100AB000018E01C0018E018E018E018E018E018E8C
:100AC000018E018E018E018E018E018E018E018EAE
:100AD000018E018E018E018E018E018E018E018E9E
:100AE000018E018E018E018E018E018E018E018E8E
:100AF000018E018E018E018E018E018E018E018E7E
:100B0000018E018E018E018E018E018E018E018E6D
:100B1000018E018E018E018E018E018E018E018E5D
:100B2000018E018E018E018E018E00C0018E018E1C
:100B3000018E018E018E018E018E018E018E018E3D
:100B4000018E028E018E018E018E018E00F0018ECB
:100B5000018E650001000100018E018E018E018E63
:100B6000018E018E018E018EF1A60000E944EA4457
:100B7000E244B444B644CD44B744B544B344000061
:100B800000008240000000000000000092450000CC
:100B9000218A0000018E000000000000000000001B
:100BA000000000000000000000000000000001C084
:100BB0000000000000000000000000000000000035
:100BC0000000000000000000000000000000000025
:100BD0000000000000000000000000000000000015
:100BE0000000000000000000000000000000000005
:100BF00000000000000000000000000000000000F5
:100C0000000042870000000000000000000000001B
:100C100000000000000000000000000000000000D4
:100C200000000000000000C0000000000000000004
:100C30000000000000000000000000000000018E25
:100C4000000000000000000000F00000000065004F
:100C50000100000000000000000000000000000093
:100C600000000000F1A64287E944EA44E244B444AB
:100C7000B644CD44B744B544B3444287428782402A
:100C8000428742874287428792454287218A42872C
:100C9000018E428742874287428742874287428746
:100CA0004287428742874287428701C04287428704
:100CB00042874287428742874287428742874287EC
:100CC00042874287428742874287428742874287DC
:100CD00042874287428742874287428742874287CC
:100CE00042874287428742874287428742874287BC
:100CF00042874287428742874287428742874287AC
:100D0000428742874287428742874287428742879B
:100D1000428742874287428742874287428742878B
:100D2000428700C042874287428742874287428784
:100D300042874287428742874287018E42874287A5
:100D40004287428700F04287428765000100010028
:100D5000428742874287428742874287428742874B
:100D6000F1A60A002530325800626F756E63652166
:100D70003A20004B6579626F61726420737461720E
:100D8000742E0A0055534220636F6E666967757250
:100D900065642E0A000D0A696E69740A005B445D81
:100DA000005B435D003403460069006C0063006F24
:100DB0000020004D0061006A006500730074006F40
:100DC0000075006300680020004A004900530020BD
:100DD00000310031003000520000000E035B006E55
:100DE0000075006C006C005D00000004030904093C
:100DF000028D00050100A032090400000103010179
:100E000000092111010001224000070581030800AB
:100E10000A09040100010301020009211101000176
:100E2000224D000705820308000A0904020001039D
:100E3000000000092111010001223600070583038B
:100E400008000A090403000203000000092111013F
:100E50000001222200070584032000010705040386
:100E60002000010904040001030000000921110110
:100E7000000122390007058503200001120110013D
:100E800000000008D9041120010001020001050141
:100E90000906A101050719E029E7150025019508B4
:100EA0007501810205081901290595057501910251
:100EB0009501750391010507190029F71500250112
:100EC00095F875018102C00631FF0974A101097509
:100ED000150026FF00952075088102097615002669
:100EE000FF00952075089102C005010980A10185C8
:100EF0000216810026B7001A81002AB700751095E6
:100F0000018100C0050C0901A1018503160100261D
:100F10009C021A01002A9C02751095018100C005EF
:100F2000010902A1010901A10005091901290515FD
:100F30000025019505750181029501750381010563
:100F400001093009311581257F950275088106094F
:100F5000381581257F950175088106050C0A380230
:100F60001581257F950175088106C0C00501090618
:100F7000A101050719E029E715002501950875016C
:100F8000810295017508810105081901290595055A
:100F9000750191029501750391010507190029FF5B
:100FA000150026FF00950675088100C0636F6E73FB
:100FB000756D65723A20253034580A007379737460
:100FC000656D3A20253034580A000A002530325821
:100FD00020006B6579626F6172643A20004C454471
:100FE0003A20253032580A00253032583A20253030
:100FF00033326225730A00722F632030313233346A
:10100000353637383941424344454630313233343E
:1010100035363738394142434445460A0064656CE9
:101020005F6B65795F6269743A2063616E27742033
:1010300064656C3A20253032580A006164645F6B45
:1010400065795F6269743A2063616E277420616418
:10105000643A20253032580A00646F6E652E0A000B
:10106000626F6F746D61676963207363616E3A20AC
:101070002E2E2E2000290A002575002F0025750030
:101080005D28002564002000256400200025640000
:1010900020002564007C0025303258006D6F757388
:1010A000656B6579205B62746E7C78207920762090
:1010B000685D287265702F61636C293A205B006D52
:1010C0006B5F776865656C5F74696D655F746F5F92
:1010D0006D6178203D2025640A006D6B5F7768653F
:1010E000656C5F6D61785F7370656564203D202578
:1010F000640A006D6B5F74696D655F746F5F6D612D
:1011000078203D2025640A006D6B5F6D61785F7308
:1011100070656564203D2025640A006D6B5F696E13
:1011200074657276616C203D2025640A006D6B5FEA
:1011300064656C6179203D2025640A006D6B5F77E2
:101140006865656C5F74696D655F746F5F6D61780C
:10115000203D2025640A006D6B5F776865656C5FD4
:101160006D61785F7370656564203D2025640A00B9
:101170006D6B5F74696D655F746F5F6D6178203D45
:101180002025640A006D6B5F6D61785F7370656523
:1011900064203D2025640A006D6B5F696E74657282
:1011A00076616C203D2025640A006D6B5F64656C80
:1011B0006179203D2025640A000A00257500363A31
:1011C00020776865656C5F74696D655F746F5F6DCE
:1011D00061783A20000A00257500353A2077686565
:1011E000656C5F6D61785F73706565643A20000AB5
:1011F00000257500343A2074696D655F746F5F6D0A
:1012000061783A20000A00257500333A206D617834
:101210005F73706565643A20000A00257500323AF4
:1012200020696E74657276616C286D73293A2000AE
:101230000A00257500313A2064656C6179282A31ED
:10124000306D73293A20000A092D2056616C7565AE
:1012500073202D0A004D3E004D25643E20003F00C6
:101260007365742064656661756C740A00433E2082
:101270000077686572652064656C74613A206375F7
:1012800072736F723D25642C20776865656C3D250F
:10129000640A53656520687474703A2F2F656E2E4A
:1012A00077696B6970656469612E6F72672F776902
:1012B0006B692F4D6F7573655F6B6579730A000AF3
:1012C000092D204D6F7573656B6579202D0A455387
:1012D000432F713A09717569740A313A0964656C72
:1012E0006179282A31306D73290A323A09696E749E
:1012F000657276616C286D73290A333A096D6178DD
:101300005F73706565640A343A0974696D655F746A
:101310006F5F6D61780A353A09776865656C5F6D56
:1013200061785F73706565640A363A097768656548
:101330006C5F74696D655F746F5F6D61780A0A70C8
:101340003A097072696E742076616C7565730A640F
:101350003A097365742064656661756C74730A7507
:10136000703A092B310A646F776E3A092D310A7091
:101370006775703A092B31300A7067646F776E3A7F
:10138000092D31300A0A7370656564203D2064655B
:101390006C7461202A206D61785F737065656420CC
:1013A0002A2028726570656174202F2074696D652C
:1013B0005F746F5F6D6178290A003F004D3E200029
:1013C000433E20004C25640A000A092D20436F6E1D
:1013D000736F6C65202D0A4553432F713A0971755F
:1013E00069740A6D3A096D6F7573656B65790A00EA
:1013F0000A092D204D61676963202D0A643A09644A
:10140000656275670A783A096465627567206D617F
:10141000747269780A6B3A096465627567206B6556
:1014200079626F6172640A6D3A096465627567205A
:101430006D6F7573650A763A0976657273696F6EBA
:101440000A733A097374617475730A633A09636FB6
:101450006E736F6C65206D6F64650A302D343A09C8
:101460006C61796572302D34284631302D4634292F
:101470000A506175733A09626F6F746C6F616465CD
:10148000720A653A09656570726F6D0A6E3A094EA7
:101490004B524F0A7A3A09736C656570204C45448B
:1014A00020746573740A000A002575002E6E6B7235
:1014B0006F3A20000A002575002E737761705F6215
:1014C00061636B736C6173685F6261636B7370619E
:1014D00063653A20000A002575002E737761705FFE
:1014E00067726176655F6573633A20000A0025754F
:1014F000002E6E6F5F6775693A20000A002575003F
:101500002E737761705F72616C745F726775693A90
:1015100020000A002575002E737761705F6C616C86
:10152000745F6C6775693A20000A002575002E63A8
:101530006170736C6F636B5F746F5F636F6E7472F7
:101540006F6C3A20000A002575002E737761705F7A
:10155000636F6E74726F6C5F636170736C6F636BDB
:101560003A20000A0025303258006B65796D6170B1
:101570005F636F6E6669672E7261773A20000A00BA
:101580002575002E6D6F7573653A20000A0025756C
:10159000002E6B6579626F6172643A20000A002543
:1015A00075002E6D61747269783A20000A00257505
:1015B000002E656E61626C653A20000A00253032AB
:1015C000580064656275675F636F6E6669672E7247
:1015D00061773A20000A0025750064656661756CC4
:1015E000745F6C617965723A20003F004E4B524F38
:1015F0003A206F66660A004E4B524F3A206F6E0AD1
:101600000074696D65725F72656164333228293ACE
:10161000202530346C580A006B6579626F61726402
:101620005F6E6B726F3A2025580A006B6579626FA6
:101630006172645F69646C653A2025580A006B65C5
:1016400079626F6172645F70726F746F636F6C3A0E
:101650002025580A00686F73745F6B6579626F614B
:1016600072645F6C65647328293A2025580A000A61
:10167000092D20537461747573202D0A004743436C
:101680003A20342E392E32204156522D4C494243B5
:101690003A20312E382E3073766E204156525F41FB
:1016A0005243483A2061767235310A004F5054490E
:1016B0004F4E533A204C55464120424F4F544D41D6
:1016C000474943204D4F5553454B455920455854A4
:1016D00052414B455920434F4E534F4C4520434FA9
:1016E0004D4D414E44204E4B524F20313032340A42
:1016F000004255494C443A203763336566623620D0
:101700002830313A35363A30362041707220313443
:101710002032303137290A005649443A2030783097
:10172000346439285B6E756C6C5D29205049443AED
:10173000203078323031312846696C636F204D613A
:101740006A6573746F756368204A4953203131307C
:101750005229205645523A203078303030310A0034
:10176000444553433A2046696C636F204D616A6576
:1017700073746F756368204A495320313130520ABF
:10178000000A092D2056657273696F6E202D0A00BC
:101790000A6D6F7573653A206F66660A000A6D6F91
:1017A0007573653A206F6E0A000A6B6579626F6126
:1017B00072643A206F66660A000A6B6579626F612F
:1017C00072643A206F6E0A000A6D61747269783A29
:1017D000206F66660A000A6D61747269783A206F3C
:1017E0006E0A000A64656275673A206F6E0A000A25
:1017F00064656275673A206F66660A000A0A626F5E
:101800006F746C6F616465722E2E2E2000433E2033
:10181000006565636F6E6669673A0A00536C6565BB
:1018200070204C454420746573740A000000000069
:1018300000000000000000010204060A0F17202C1F
:101840003A4A5D71879DB3C7DAE9F5FCFFFCF5E91B
:10185000DAC7B39D87715D4A3A2C20170F0A060438
:1018600002010000000000000000000011241FBE63
:10187000CFEFD0E2DEBFCDBF04B603FE27C080911C
:10188000350290913602A0913702B091380287302C
:10189000904BA740B04BD1F4109235021092360213
:1018A000109237021092380214BE84B7877F84BF2B
:1018B0000FB6F894A89580916000886180936000CD
:1018C000109260000FBEE0E0FEEF099511E0A0E08D
:1018D000B1E0E2E2F5E600E00BBF02C007900D9236
:1018E000AA33B107D9F722E0AAE3B1E001C01D9203
:1018F000A533B207E1F70E9487130C948F320C9442
:101900000000FF93EF93E0913A01F0913B01309793
:1019100009F00995EF91FF910895FC0185918030C0
:1019200011F0EFDFFBCF0895FF27E0E230E247FF41
:101930000CC0419597FF09C0EDE2609570958095C8
:101940009095611D711D811D911D27FF02C021957C
:1019500030E350E2AA27660F771F881F991FAA1F3E
:10196000A41710F0A41B63955A95A9F7AA3008F0A4
:10197000A95FA05DAF93F395611571058105910590
:1019800041F7ED3211F4EF93F395F21718F43F930A
:10199000F395FBCF8F91B5DFFA95E1F70895E991C3
:1019A000F9918591803021F0853219F0AADFF9CFC5
:1019B000089520E0E89455915532C1F3503311F465
:1019C000689455915A3348F4505390F3220F022EE5
:1019D000220F220F200D250FF4CF0EF421958991AF
:1019E0009991533619F3533729F1533559F1BC0105
:1019F00088279927E8945C3621F489919991689415
:101A00005591543639F446EF7EF077FF0DC08FEFD5
:101A10009FEF0AC055374AE039F0583540E121F0D0
:101A2000523642E009F00895FF93EF937DDFEF9186
:101A3000FF91B7CFFF93EF93FC0181918030B9F311
:101A400060DFFBCFFF93EF9368DFF1CFDF93CF939E
:101A5000CDB7DEB72596A3DFCF91DF910895611151
:101A600078C181E00E94BF2382E00E94BF2383E00F
:101A70000E94BF2384E00E94BF2385E00E94BF2311
:101A800086E00E94BF2387E00E94BF2388E00E9477
:101A9000BF2389E00E94BF236F9877980998119817
:101AA00069987198089810986E98769868987098C8
:101AB0000A981298699A719A2FEF82E597E021505F
:101AC00080409040E1F700C00000689A709A2FEFC4
:101AD00084E39CE0215080409040E1F700C000008A
:101AE000089A109A2FEF82E597E0215080409040AD
:101AF000E1F700C000006E9A769A2FEF8FEC97E026
:101B0000215080409040E1F700C000006F98779826
:101B10000998119869987198089810986E98769815
:101B2000689870980A9812982FEF85EA9EE02150E5
:101B300080409040E1F700C00000699A719A2FEF51
:101B400082E597E0215080409040E1F700C000001E
:101B5000689A709A2FEF84E39CE021508040904077
:101B6000E1F700C00000089A109A2FEF82E597E095
:101B7000215080409040E1F700C000006E9A769AB4
:101B80002FEF8FEC97E0215080409040E1F700C0AC
:101B900000006F987798099811986998719808983B
:101BA00010986E987698689870980A9812982FEF07
:101BB00085EA9EE0215080409040E1F700C000009F
:101BC000699A719A2FEF82E597E02150804090400A
:101BD000E1F700C00000689A709A2FEF84E39CE060
:101BE000215080409040E1F700C00000089A109A10
:101BF0002FEF82E597E0215080409040E1F700C050
:101C000000006E9A769A2FEF8FEC97E0215080407B
:101C10009040E1F700C000006F98779809981198FC
:101C200069987198089810986E9876986898709846
:101C30000A9812982FEF85EA9EE02150804090404C
:101C4000E1F700C00000699A719A2FEF82E597E0F2
:101C5000215080409040E1F700C00000689A709ADF
:101C60002FEF84E39CE0215080409040E1F700C0DA
:101C70000000089A109A2FEF82E597E021508040EB
:101C80009040E1F700C000006E9A769A2FEF8FEC3B
:101C900097E0215080409040E1F700C000006F982D
:101CA00077980998119869987198089810986E9883
:101CB0007698689870980A9812982FEF85EA9EE0B7
:101CC000215080409040E1F700C00000699A719A6D
:101CD0002FEF82E597E0215080409040E1F700C06F
:101CE0000000689A709A2FEF84E39CE021508040B6
:101CF0009040E1F700C00000089A109A2FEF82E5AB
:101D000097E0215080409040E1F700C000006E9ABB
:101D1000769A2FEF8FEC97E0215080409040E1F7CA
:101D200000C000006F987798099811986998719889
:101D3000089810986E987698689870980A981298F3
:101D40002FEF85EA9EE0215080409040E1F700C0EF
:101D500000000895FC01613021F048F0623069F024
:101D600012C08281882379F08BE291E0089582810C
:101D7000882349F084ED90E008958281811106C0A6
:101D80008CEC90E0089580E090E008958FEC90E076
:101D9000089580B310BA81B311BA84B1817084B947
:101DA00085B18E6F85B98AB180748AB98BB18F6B1A
:101DB0008BB987B1807887B988B18F6788B9E4E536
:101DC000F1E0ACE3B1E011921192119211921D92E7
:101DD0001D921D921D9281E0EC36F807A1F708953F
:101DE0004F925F926F927F928F929F92AF92BF922B
:101DF000CF92DF92EF92FF920F931F93CF93DF93D7
:101E00001F92CDB7DEB70CE311E0680120E023306C
:101E100099F028F4213051F0223059F004C02430D8
:101E200071F0253079F0829A8A980EC0879A8F983F
:101E30000BC0849A8C9808C0859A8D9805C0869AA4
:101E40008E9802C0839A8B9880EA8A95F1F786B1C2
:101E500082958695877091E0892780FBEE24E0F8D3
:101E6000F12C349903C082E090E002C080E090E061
:101E70008E299F29339903C0A4E0B0E002C0A0E0FE
:101E8000B0E08A2B9B2B329903C068E070E002C05F
:101E900060E070E0862B972B319903C040E150E061
:101EA00002C040E050E0842B952B309903C0A0E2A3
:101EB000B0E002C0A0E0B0E08A2B9B2B1B9903C0CE
:101EC000E0E4F0E002C0E0E0F0E08E2B9F2B1A99F6
:101ED00003C040E850E002C040E050E0BC01642B89
:101EE000752B49B1042E000C550B40955095CA0135
:101EF0008827990F881F9927982F8827862B972B3B
:101F00004D9903C040E052E002C040E050E04C0177
:101F1000842A952A4C9903C040E054E002C040E076
:101F200050E0842A952A4B9903C0E0E0F8E002C013
:101F3000E0E0F0E08E2A9F2A4A9903C060E070E159
:101F400002C060E070E0862A972A499903C040E009
:101F500050E202C040E050E0842A952A092C000C8F
:101F6000AA08BB08489905C080E090E4A0E0B0E072
:101F700003C080E090E0DC01882A992AAA2ABB2AC3
:101F800043B1042E000C550B660B770B4095509512
:101F900060957095DB01CA018827B7FD8395992765
:101FA000AA27BB277FE0880F991FAA1FBB1F7A951E
:101FB000D1F788299929AA29BB29369905C0412C2E
:101FC000512C3201639403C0412C512C32018429DD
:101FD0009529A629B729199906C0412C512C42E010
:101FE000642E712C03C0412C512C32018429952977
:101FF000A629B7291C9906C0812C912C34E0A32E68
:10200000B12C03C0812C912C540188299929AA292B
:10201000BB291E9905C040E050E068E070E003C0B5
:1020200040E050E0BA01842B952BA62BB72B1D99CD
:1020300005C040E050E060E170E003C040E050E0E7
:10204000BA01842B952BA62BB72BF6014081518129
:1020500062817381481759076A077B0799F180836A
:102060009183A283B38380910001882341F1809101
:10207000140280FF06C089E69DE029830E948D0C32
:1020800029818091140280FF10C0809100011F926D
:102090008F9384E69DE09F938F9329830E94260D62
:1020A0000F900F900F900F9029818091140280FF64
:1020B00006C082E69DE029830E948D0C298185E07F
:1020C0008093000180B310BA81B311BA2F5FF4E09E
:1020D000CF0ED11C263009F09ACE809100018823C2
:1020E000F1F0815080930001882339F08FE99FE05F
:1020F0000197F1F700C0000012C024E531E0F801BB
:1021000081919191A191B1918F01F9018193919365
:10211000A193B1939F01F1E004351F0781F781E09E
:102120000F90DF91CF911F910F91FF90EF90DF9073
:10213000CF90BF90AF909F908F907F906F905F9067
:102140004F90089524E0829FC0011124FC01EC5AB5
:10215000FE4F60817181828193810895089A109A5F
:10216000089580FF03C06F9A779A02C06F9877989E
:1021700082FF03C0099A119A02C00998119881FF41
:1021800003C0699A719A02C06998719884FF03C06C
:10219000089A109A08950898109808950F931F931D
:1021A0008B019C010670112722273327012B022B5C
:1021B000032B19F0689A709A02C0689870988B0186
:1021C0009C01007C137022273327012B022B032B49
:1021D00019F06E9A769A02C06E98769865FF03C0E1
:1021E000099A119A02C00998119864FF03C00A9ACB
:1021F000129A02C00A9812981F910F910895809127
:10220000900108959FB7F89410926F019FBF90912D
:102210002B02943009F057C09091E9009F703091E3
:10222000EC00232F217030FD20E8922B24E0209336
:10223000E9002091EB0020FF43C02091EE0027FF32
:102240003FC020916C01222321F02091E80025FF5E
:1022500037C010926C0126E03091E80035FD15C0C2
:1022600030912B02343061F53091EB0035FD28C000
:10227000215021F481E080936C0122C0EFE9FFE05E
:102280003197F1F700C00000E7CF8093F100809113
:10229000E80085FD0AC08091E80080FFFCCF8091B6
:1022A000E8008E778093E80006C08FB7F89421E0AD
:1022B00020936F018FBF9F709093E90080E0089595
:1022C0009F709093E9008FEF0895CF93DF9300D034
:1022D0001F92CDB7DEB79C0180912B02843019F597
:1022E00093E099833B832A839093E9008FEF909149
:1022F000E800815095FD06C095ED9A95F1F7000034
:102300008111F5CF8091E80085FF0DC040E050E0DD
:1023100063E070E0CE0101960E944D148091E800C8
:102320008E778093E8000F900F900F90DF91CF9100
:102330000895CF93DF9300D01F92CDB7DEB72091E1
:102340002B02243021F522E029839B838A8383E0BA
:102350008093E9008FEF9091E800815095FD06C0D1
:1023600095ED9A95F1F700008111F5CF8091E80085
:1023700085FF0DC040E050E063E070E0CE010196C3
:102380000E944D148091E8008E778093E8000F90B2
:102390000F900F90DF91CF91089520912B02243060
:1023A000F1F422E02093E9002FEF3091E800215072
:1023B00035FD06C035ED3A95F1F700002111F5CF56
:1023C0002091E80025FF0BC040E050E065E070E0A0
:1023D0000E944D148091E8008E778093E800089564
:1023E000CF93DF9320912B02243009F048C0EC01F9
:1023F00080910B018823E1F080910C018823C1F0CA
:1024000085E08093E9008FEF9091E800815095FD81
:1024100006C095E19A95F1F700008111F5CF809102
:10242000E80085FF2CC040E050E060E270E017C09B
:1024300081E08093E9008FEF9091E800815095FD55
:1024400006C095ED9A95F1F700008111F5CF8091C6
:10245000E80085FF14C040E050E068E070E0CE0185
:102460000E944D148091E8008E778093E80080E20E
:10247000FE01A0E7B1E001900D928A95E1F7DF91AE
:10248000CF91089581EA9DE00E948D0C80912A02EF
:10249000811109C00E94DE150E9440168091E20061
:1024A00084608093E20008958DE99DE00E948D0C88
:1024B00010922A020895089520916D012F5F822FB6
:1024C00062E30E942132992319F020936D0108954F
:1024D00010926D0180916F01882371F180912B0220
:1024E000843041F58091E9008F702091EC00922FAB
:1024F000917020FD90E8892B94E09093E9009091F1
:10250000EB0090FF14C09091EE0097FF10C09091E7
:10251000E80095FF03C01092F100F9CF9091E80018
:1025200090FF05C09091E8009E779093E8008F702F
:102530008093E90010926F01089542E061EC81E020
:102540000E94581542E061EC82E00E94581542E07A
:1025500061EC83E00E94581542E261EC84E00E9445
:10256000581542E261EC85E00C94581580912D02DB
:10257000833009F455C030F4813071F0823009F4B1
:102580008EC008958A3009F47AC08B3009F460C097
:10259000893009F09CC020C080912C02813A09F05A
:1025A00096C08091E800877F8093E8008091300298
:1025B00090913102892B21F460E280E791E003C021
:1025C00060E080E090E070E00E9498148091E80064
:1025D0008B778093E800089580912C02813209F076
:1025E00076C08091300290913102009719F00497E3
:1025F00009F06DC08091E800877F8093E8008091AA
:10260000E80082FD05C080912B028111F8CF5FC0E8
:102610008091F100809390018091E8008B7753C006
:1026200080912C02813A09F052C080913002909141
:102630003102892B09F04BC08091E800877F80939D
:10264000E8008091E80080FFFCCF80910B0136C04C
:1026500080912C028132D9F5809130029091310223
:10266000892BA9F58091E800877F8093E8000E947C
:102670008D1580912E0280930B010C944E1F80913A
:102680002C02813221F58091E800877F8093E80059
:102690000E948D1580912F02809391010895809161
:1026A0002C02813AA1F48091E800877F8093E800B2
:1026B0008091E80080FFFCCF809191018093F10030
:1026C0008091E8008E778093E8000C948D15089532
:1026D000089508958091900180936E011092900169
:1026E00080E00E94B1100E94911A0E944E1F0C942B
:1026F000A0300C946A130E94FD2580912902882342
:1027000029F00E94FE2581110C943714089584B796
:10271000877F84BF0FB6F894A89580916000886188
:1027200080936000109260000FBE90E080E80FB6CA
:10273000F89480936100909361000FBE82E091E174
:102740000E94882585E99DE00E948D0C0E946813F7
:102750000E948C190E94DE150E9440168091E200B2
:1027600084608093E200789480912B028430E1F7BA
:1027700084E89DE00E948D0C0E948E1981E091E01A
:102780000E94CB180E948E3083E79DE00E948D0C42
:102790000E94691380912B02853019F40E947B13EB
:1027A000F9CF0E949419F6CF0E9415260E94A630F8
:1027B00080916E018093900108950C94D413292F79
:1027C000332723303105C9F064F42130310581F01D
:1027D0002230310509F043C08DE890E02FEE3DE056
:1027E00042C021323105F1F02232310541F137C0CA
:1027F00082E190E02CE73EE036C0992781309105D8
:1028000041F08230910541F0892B49F5EBEEFDE076
:1028100005C0EBEDFDE002C0E5EAFDE0849190E04B
:102820009F0121C06530D8F4E62FF0E0EE0FFF1FC6
:10283000EC5DFE4F2081318189E090E014C065306D
:1028400070F470E0FB01EE0FFF1FE65EFE4F20818B
:102850003181FB01EB5EFE4F808190E004C080E09F
:1028600090E020E030E0FA0131832083089584E194
:1028700089BD86E189BD09B400FEFDCF8091D800F5
:102880008F7D8093D8008091E00082608093E0008B
:102890008091E00081FDFCCF0895CF92DF92EF920E
:1028A000FF920F931F93CF93DF93EC018B016A018B
:1028B0000E94AC15811133C0C114D10439F0F60166
:1028C00080819181081B190BC80FD91FE12CF12CB5
:1028D0000115110519F18091E80085FD16C0809160
:1028E000E8008E778093E800C114D10449F0F60126
:1028F00080819181E80EF91EF182E08285E00FC0AF
:102900000E94AC15882321F30AC089918093F100BD
:1029100001501109FFEFEF1AFF0ADACF80E0DF91D3
:10292000CF911F910F91FF90EF90DF90CF9008957E
:1029300020913202309133022617370748F0611593
:10294000710539F42091E8002E772093E80001C04A
:10295000B90140E06115710599F120912B02222304
:1029600009F441C0253009F440C02091E80023FD5E
:102970003EC02091E80022FD30C02091E80020FFF9
:10298000E9CF2091F2003091F300FC01CF016115F5
:10299000710559F02830310540F481918093F100A0
:1029A000615071092F5F3F4FF1CF41E02830310571
:1029B00009F040E02091E8002E772093E800CACF8C
:1029C0004111CBCF0AC080912B02882361F0853062
:1029D00061F08091E80083FD0AC08091E80082FFE9
:1029E000F2CF80E0089582E0089583E0089581E0C9
:1029F000089520913202309133022617370748F0AC
:102A00006115710539F42091E8002E772093E800D4
:102A100001C0B901FC0120E06115710581F18091CF
:102A20002B02882309F43EC0853009F43DC0809113
:102A3000E80083FD3BC08091E80082FD2DC08091BD
:102A4000E80080FFE9CF8091F2009091F3006115DA
:102A5000710559F08830910540F424912093F100DC
:102A60003196615071090196F2CF21E0089709F083
:102A700020E08091E8008E778093E800CDCF21118F
:102A8000CECF0AC080912B02882361F0853061F09F
:102A90008091E80083FD0AC08091E80082FFF2CFB8
:102AA00080E0089582E0089583E0089581E008952C
:102AB000982F973058F59093E900981739F0709156
:102AC000EC002091ED005091F00003C0242F762FF0
:102AD00050E021FF19C03091EB003E7F3093EB00B6
:102AE0003091ED003D7F3093ED003091EB0031608F
:102AF0003093EB007093EC002093ED005093F000C6
:102B00002091EE0027FF07C09F5FD3CF8F70809387
:102B1000E90081E0089580E0089580912C0287FF0C
:102B200011C08091E80082FD05C080912B028111C7
:102B3000F8CF11C08091E8008B770BC080912B02F9
:102B4000882349F08091E80080FFF8CF8091E80069
:102B50008E778093E80008952091E4003091E5009D
:102B600095E64091EC00842F817040FF22C0809157
:102B7000E80080FD1CC080912B02882391F08530F5
:102B800091F08091EB0085FD10C04091E4005091E0
:102B9000E5004217530729F39A01915011F784E099
:102BA000089582E0089583E0089581E0089580E02B
:102BB00008954091E80042FFDECF08950E944F162D
:102BC0000E945716E0EEF0E0808181608083E8ED9E
:102BD000F0E080818F77808319BCA7EDB0E08C9105
:102BE0008E7F8C9380818F7E808310922A0208953D
:102BF0000F931F93CF93DF930E944F160E94571697
:102C0000C8EDD0E088818F77888388818068888349
:102C100088818F7D8883E7EDF0E080818068808304
:102C200019BC10922B0210922702109229021092C6
:102C3000280200EE10E0F80180818B7F808388817C
:102C40008160888342E060E080E00E945815E1EEF8
:102C5000F0E080818E7F8083E2EEF0E08081816011
:102C60008083808188608083F80180818E7F80836B
:102C7000888180618883DF91CF911F910F910895A2
:102C8000E8EDF0E080818F7E8083E7EDF0E08081E9
:102C90008160808381E080932A020C94F815E8ED2E
:102CA000F0E080818C7F80831092E2000895109282
:102CB000DA001092E10008951F920F920FB60F9262
:102CC00011240BB60F922F933F934F935F936F9303
:102CD0007F938F939F93AF93BF93EF93FF938091D5
:102CE000E10082FF0BC08091E20082FF07C080916B
:102CF000E1008B7F8093E1000E945C128091DA00FA
:102D000080FF1FC08091D80080FF1BC08091DA0037
:102D10008E7F8093DA008091D90080FF0DC084E11E
:102D200089BD86E189BD09B400FEFDCF81E08093B5
:102D30002B020E94421205C019BC10922B020E9465
:102D400054128091E10080FF19C08091E20080FF61
:102D500015C08091E2008E7F8093E2008091E200B6
:102D600080618093E2008091D80080628093D800D7
:102D700019BC85E080932B020E9479138091E100B9
:102D800084FF30C08091E20084FF2CC084E189BDC3
:102D900086E189BD09B400FEFDCF8091D8008F7D0A
:102DA0008093D8008091E1008F7E8093E100809134
:102DB000E2008F7E8093E2008091E2008160809348
:102DC000E20080912702882311F084E007C08091FF
:102DD000E30087FD02C081E001C083E080932B0205
:102DE0000E94DD138091E10083FF29C08091E20001
:102DF00083FF25C08091E100877F8093E10082E01E
:102E000080932B02109227028091E1008E7F8093A5
:102E1000E1008091E2008E7F8093E2008091E200E9
:102E200080618093E20042E060E080E00E945815FB
:102E30008091F00088608093F0000E945B12FF9107
:102E4000EF91BF91AF919F918F917F916F915F9122
:102E50004F913F912F910F900BBE0F900FBE0F908F
:102E60001F9018951F920F920FB60F9211240BB658
:102E70000F922F933F934F935F936F937F938F9313
:102E80009F93AF93BF93CF93DF93EF93FF93C09143
:102E9000E900CF708091EC00D82FD17080FDD0E890
:102EA0001092E9008091F000877F8093F000789481
:102EB0000E947A171092E9008091F0008860809358
:102EC000F000CD2BCF70C093E900FF91EF91DF911F
:102ED000CF91BF91AF919F918F917F916F915F91B2
:102EE0004F913F912F910F900BBE0F900FBE0F90FF
:102EF0001F9018951F93CF93DF93CDB7DEB7AA9796
:102F00000FB6F894DEBF0FBECDBFECE2F2E088E072
:102F10008E0F9091F10091938E13FBCF0E94B61209
:102F20008091E80083FF1FC180912C0290912D02B7
:102F3000492F50E04A30510508F015C1FA01E45B11
:102F4000FF4F0C944132803881F0823809F00BC178
:102F5000809130028F708093E9008091EB0085FBB7
:102F6000882780F91092E90006C08091280290918C
:102F70002902911182609091E800977F9093E80078
:102F80008093F1001092F100C8C0282F2D7F09F026
:102F9000EAC0882319F0823061F0E5C080912E02EA
:102FA000813009F0E0C0933009F080E0809329027D
:102FB0002BC080912E02811127C0809130028F702A
:102FC00009F4D1C08093E9002091EB0020FF1CC0E0
:102FD000933021F48091EB00806214C09091EB005B
:102FE00090619093EB0021E030E0A90102C0440F12
:102FF000551F8A95E2F74093EA001092EA0080910B
:10300000EB0088608093EB001092E9008091E8006B
:10301000877F86C08111A7C010912E021F778091F3
:10302000E3008078812B8093E3008091E800877F24
:103030008093E8000E948D158091E80080FFFCCF0E
:103040008091E30080688093E300111102C082E068
:1030500001C083E080932B0286C08058823008F044
:1030600082C080912E0290912F028C3D53E09507F3
:1030700079F583E08A838AE289834FB7F894DE0189
:10308000139620E03EE051E2E32FF0E0509357002A
:10309000E49120FF03C0E295EF703F5FEF708E2F49
:1030A00090E0EA3010F0C79601C0C0968D939D93D2
:1030B0002F5F243149F74FBF8091E800877F8093CD
:1030C000E8006AE270E0CE0101960E94981414C0F4
:1030D000AE014F5F5F4F609130020E94DF13BC0171
:1030E000892B09F440C09091E800977F9093E80005
:1030F00089819A810E94F9148091E8008B778093EE
:10310000E80031C0803879F58091E800877F8093AE
:10311000E800809127028093F1008091E8008E778B
:103120008093E8000E948D151EC081111CC09091F3
:103130002E029230C0F48091E800877F8093E800EF
:10314000909327020E948D1580912702811106C05D
:103150008091E30087FD02C081E001C084E080939C
:103160002B020E949D128091E80083FF0AC080918B
:10317000E800877F8093E8008091EB008062809375
:10318000EB00AA960FB6F894DEBF0FBECDBFDF915D
:10319000CF911F9108959093970180939601089580
:1031A000E0919601F0919701309721F00190F08124
:1031B000E02D099480E00895EF92FF920F931F9302
:1031C000CF93DF93E0919601F09197013097B1F1A1
:1031D0008C010280F381E02D09958091140282FF19
:1031E0002DC080FF04C082ED9FE00E948D0CE8019D
:1031F00010E28CECE82E8FE0F82E8091140280FF14
:103200000BC088811F928F93FF92EF920E94260D30
:103210000F900F900F900F90115021961111EDCF3C
:103220008091140280FF0AC08AEC9FE0DF91CF9169
:103230001F910F91FF90EF900C948D0CDF91CF9127
:103240001F910F91FF90EF900895E0919601F091FA
:103250009701309721F00480F581E02D09940895BD
:10326000CF93DF93EC018091940190919501C81761
:10327000D90709F1D0939501C0939401E09196018B
:10328000F09197013097B9F00680F781E02DCE01DB
:1032900009958091140282FF0EC080FF0CC0DF935D
:1032A000CF938CEB9FE09F938F930E94260D0F90FE
:1032B0000F900F900F90DF91CF910895CF93DF93F0
:1032C000EC018091920190919301C817D90709F1FF
:1032D000D0939301C0939201E0919601F0919701F0
:1032E0003097B9F00084F185E02DCE0109958091E9
:1032F000140282FF0EC080FF0CC0DF93CF938CEAD4
:103300009FE09F938F930E94260D0F900F900F9038
:103310000F90DF91CF9108950C94921A0E94192674
:103320000E94C90E0C9416274F925F926F927F9263
:103330009F92AF92BF92CF92DF92EF92FF920F9344
:103340001F93CF93DF93CDB7DEB729970FB6F894CD
:10335000DEBF0FBECDBF0E94F00E49E9A42E41E0B2
:10336000B42E00E010E0902E802F0E94A210F501F4
:10337000C190D190E190F1905F01C626D726E82652
:10338000F926C114D104E104F104B1F40F5F1F4F19
:103390000630110541F78FEF89838A831B820E94D3
:1033A00022268160782F9D838C8349815A816B818D
:1033B0008D810E94CB1A64C02091140221FF0AC0A3
:1033C0006E837F83888799870E94931A9985888561
:1033D0007F816E8140E050E026013701042E04C059
:1033E00076946794579447940A94D2F740FE41C06C
:1033F00049839A82C12CD12C7601C39404C0CC0C91
:10340000DD1CEE1CFF1C4A95D2F72601370146222F
:1034100057226822792281E045284628472809F466
:1034200080E08B830E9422268160782F9D838C838D
:1034300049815A816B818D810E94CB1A49815A81C1
:103440006B817C818D810E94E925000F111F000F87
:10345000111FF801E756FE4F80819181A281B3814F
:10346000C826D926EA26FB26C082D182E282F382D0
:1034700007C04F5F5F4F4531510509F0ADCF86CF93
:103480000E94E8250E94A02A109198010E94D0185D
:10349000181779F10E94D018809398019091140226
:1034A00092FF0EC090FF0CC01F928F938DED9FE096
:1034B0009F938F930E94260D0F900F900F900F9067
:1034C0008091980129960FB6F894DEBF0FBECDBF4C
:1034D000DF91CF911F910F91FF90EF90DF90CF90F0
:1034E000BF90AF909F907F906F905F904F900C94A3
:1034F000FA2529960FB6F894DEBF0FBECDBFDF9137
:10350000CF911F910F91FF90EF90DF90CF90BF90E0
:10351000AF909F907F906F905F904F9008950C9424
:10352000B11008950895EF92FF920F931F93CF93D8
:10353000DF9387EF9FE00E948D0CC0E0D0E08EE229
:10354000E82E81E0F82E08EE1FE08C2F0E94A210DA
:103550000E94BD25FF92EF929F938F937F936F936D
:10356000DF93CF931F930F930E94260D21968DB763
:103570009EB70A960FB6F8949EBF0FBE8DBFC63099
:10358000D10519F7DF91CF911F910F91FF90EF9027
:10359000089508950895CF93DF93CDB7DEB72B97A5
:1035A0000FB6F894DEBF0FBECDBF942F4F83252FEB
:1035B000588769877A878B874A855B85452B21F0F9
:1035C0002F3F09F59F3FF9F4DE01119686E0FD01DA
:1035D00011928A95E9F785E0FE01379601900D92E8
:1035E0008A95E1F749815A816B817C818D819E8129
:1035F0000E94E8212B960FB6F894DEBF0FBECDBF18
:10360000DF91CF9108954F81588569857A858B85A3
:103610000E94E925D9CFCF93882309F4A9C0C82FE8
:103620008238A1F40E94D01881FDA2C089E30E94D3
:103630007D240E9462252FEF81EE94E0215080408E
:103640009040E1F700C0000089E315C08338C1F461
:103650000E94D01880FD8CC083E50E947D240E94CA
:1036600062252FEF81EE94E0215080409040E1F7F9
:1036700000C0000083E50E94D024CF910C94622505
:103680008438A1F40E94D01882FD72C087E40E94A1
:103690007D240E9462252FEF81EE94E0215080402E
:1036A0009040E1F700C0000087E4E5CF8CEF8C0F7D
:1036B000813A20F080E58C0F8E3248F48C2F0E94E6
:1036C000392F811155C08C2F0E947D24D6CF80E2E6
:1036D0008C0F883048F4C77081E001C0880FCA950C
:1036E000EAF70E942825C9CF8BE58C0F833078F448
:1036F000C53A29F0C63A31F083E890E005C081E888
:1037000090E002C082E890E0CF910C94301988E5F7
:103710008C0F853168F5C83A89F0C93A91F0CA3AF8
:1037200099F0CB3AA1F0CC3AA9F0CD3AB1F0CE3A2B
:10373000B9F0CF3AC1F080E090E017C082EE90E09F
:1037400014C089EE90E011C08AEE90E00EC085EBC7
:1037500090E00BC086EB90E008C083EB90E005C0E2
:1037600084EB90E002C087EB90E0CF910C945E195F
:10377000CF910895882309F46AC08238A1F40E9489
:10378000D01881FF64C089E30E947D240E946225D5
:103790002FEF81EE94E0215080409040E1F700C08F
:1037A000000089E315C08338B9F40E94D01880FF67
:1037B0004EC083E50E947D240E9462252FEF81EE9A
:1037C00094E0215080409040E1F700C0000083E584
:1037D0000E94D0240C9462258438A1F40E94D01851
:1037E00082FF35C087E40E947D240E9462252FEF6E
:1037F00081EE94E0215080409040E1F700C000004D
:1038000087E4E6CF9CEF980F913A10F390E5980F7C
:103810009E32F0F290E2980F983050F4877091E069
:1038200001C0990F8A95EAF7892F0E942E25D2CFE1
:103830009BE5980F933020F480E090E00C943019D1
:10384000885A853120F480E090E00C945E19089548
:10385000882321F00E9428250C946225089588234E
:1038600021F00E942E250C9462250895CF92DF92BC
:10387000EF92FF920F931F93CF93DF9300D000D06E
:1038800000D0CDB7DEB725E0FC01DE011196019036
:103890000D922A95E1F7FC0140813181F28025816A
:1038A00022952F7063817481672B09F4D6C23F3F44
:1038B00019F44F3F09F4D1C26C0149833A838981DD
:1038C0009A812E830E943C24182F092F0E943B24AA
:1038D0000E944B23E02FE295EF70F0E0EA5AFF4F91
:1038E0002E810C944132802F807F902F9F70092F62
:1038F000882311F00295007FFF2049F0002309F48E
:103900005DC2802F0E943B250E94622557C2812FF5
:103910000E94BA1B002309F4A0C2802F0E944125F7
:1039200026960FB6F894DEBF0FBECDBFDF91CF91C4
:103930001F910F91FF90EF90DF90CF900C94622534
:10394000802F807F902F9F70092F803211F0029579
:10395000007F112319F0113001F129C0FF20A9F0D7
:10396000802F222349F1213039F526960FB6F8949D
:10397000DEBF0FBECDBFDF91CF911F910F91FF90A2
:10398000EF90DF90CF900C944B25222319F021303B
:1039900009F463C20E944E252BC0FF20E9F02230BB
:1039A00008F05BC20E942525802329F021C0FF205A
:1039B000E9F0211114C0802F26960FB6F894DEBFCF
:1039C0000FBECDBFDF91CF911F910F91FF90EF9070
:1039D000DF90CF900C94281C21113FC209C0F60142
:1039E000858180FFEBC18F708583E5CF2111FAC1FE
:1039F000802F69C1202F26952695237030E0211550
:103A0000310521F021303105C9F027C2FF2021F016
:103A1000812F902F937002C080E090E026960FB621
:103A2000F894DEBF0FBECDBFDF91CF911F910F91F4
:103A3000FF90EF90DF90CF900C943019FF2021F091
:103A4000812F902F937002C080E090E026960FB6F1
:103A5000F894DEBF0FBECDBFDF91CF911F910F91C4
:103A6000FF90EF90DF90CF900C945E19812FFF2094
:103A700019F00E94262902C00E948E2926960FB6B0
:103A8000F894DEBF0FBECDBFDF91CF911F910F9194
:103A9000FF90EF90DF90CF900C94132A802F8370CB
:103AA00009F078C0F110D9C1812F82958695877071
:103AB000880F880F912F9F70C92ED12CE12CF12CEB
:103AC000082E04C0CC0CDD1CEE1CFF1C0A94D2F79F
:103AD00014FF12C04FE050E060E070E004C0440FFB
:103AE000551F661F771F8A95D2F7CB01BA016095E3
:103AF00070958095909503C060E070E0CB01202F19
:103B0000269526952370422F50E042305105D1F082
:103B10004330510559F16C297D298E299F29413067
:103B2000510541F126960FB6F894DEBF0FBECDBF0A
:103B3000DF91CF911F910F91FF90EF90DF90CF9089
:103B40000C9460236C297D298E299F2926960FB617
:103B5000F894DEBF0FBECDBFDF91CF911F910F91C3
:103B6000FF90EF90DF90CF900C9472230E9460231F
:103B7000C701B60126960FB6F894DEBF0FBECDBFC3
:103B8000DF91CF911F910F91FF90EF90DF90CF9039
:103B90000C944E23FF2019F0802F817001C0869570
:103BA000882309F45AC1812F829586958770880FE2
:103BB000880F912F9F70C92ED12CE12CF12C082E4B
:103BC00004C0CC0CDD1CEE1CFF1C0A94D2F714FFC1
:103BD00012C04FE050E060E070E004C0440F551F99
:103BE000661F771F8A95D2F7CB01BA016095709551
:103BF0008095909503C060E070E0CB01202F269562
:103C000026952370422F50E042305105D1F04330C9
:103C1000510559F16C297D298E299F294130510583
:103C200041F126960FB6F894DEBF0FBECDBFDF91EF
:103C3000CF911F910F91FF90EF90DF90CF900C9458
:103C400017246C297D298E299F2926960FB6F89472
:103C5000DEBF0FBECDBFDF91CF911F910F91FF90BF
:103C6000EF90DF90CF900C9429240E941724C70175
:103C7000B60126960FB6F894DEBF0FBECDBFDF911A
:103C8000CF911F910F91FF90EF90DF90CF900C9408
:103C90000524103F41F118F4103E48F48AC0123F49
:103CA00009F44FC0D0F1133F09F45FC082C01F7008
:103CB000802F8F71FF2021F00E949E23812F7CCEC8
:103CC0000E94BF23812F26960FB6F894DEBF0FBE49
:103CD000CDBFDF91CF911F910F91FF90EF90DF90BB
:103CE000CF900C942F1CFF20A1F02111B6C0802F83
:103CF0008F7126960FB6F894DEBF0FBECDBFDF9151
:103D0000CF911F910F91FF90EF90DF90CF900C9487
:103D1000E423223008F0A1C0EACFFF20A1F0802FD9
:103D20008F7126960FB6F894DEBF0FBECDBFDF9120
:103D3000CF911F910F91FF90EF90DF90CF900C9457
:103D40009E23FF2061F3802F8F7126960FB6F89483
:103D5000DEBF0FBECDBFDF91CF911F910F91FF90BE
:103D6000EF90DF90CF900C94BF23FF2091F0802F35
:103D70008F7126960FB6F894DEBF0FBECDBFDF91D0
:103D8000CF911F910F91FF90EF90DF90CF900C9407
:103D9000892326960FB6F894DEBF0FBECDBFDF9104
:103DA000CF911F910F91FF90EF90DF90CF900C94E7
:103DB0008423FF20A1F0222309F4B1CF812F26967E
:103DC0000FB6F894DEBF0FBECDBFDF91CF911F912C
:103DD0000F91FF90EF90DF90CF900C940B1B22235C
:103DE00009F4B1CF812F26960FB6F894DEBF0FBE2F
:103DF000CDBFDF91CF911F910F91FF90EF90DF909A
:103E0000CF900C94BA1B402F4F70612FC6010E94B7
:103E1000AA0E26960FB6F894DEBF0FBECDBFDF9177
:103E2000CF911F910F91FF90EF90DF90CF900C9466
:103E30008C22402F4F70612FC60126960FB6F89442
:103E4000DEBF0FBECDBFDF91CF911F910F91FF90CD
:103E5000EF90DF90CF900C942F0D26960FB6F8942C
:103E6000DEBF0FBECDBFDF91CF911F910F91FF90AD
:103E7000EF90DF90CF9008950E9448250E9417256B
:103E80000E9462250E94452B0E94132A80E090E048
:103E90000E94301980E090E00C945E190E94382551
:103EA0000C943C1F0E943C24292F22952F7030E057
:103EB0002C3031054CF42A3031056CF42250310994
:103EC0002230310588F407C02C30310549F02F30FD
:103ED000310531F009C0803E48F0803F29F406C02A
:103EE00093FB882780F9089580E0089581E0089584
:103EF000CF93DF9300D000D01F92CDB7DEB70F90E5
:103F00000F900F900F900F90DF91CF910895CF9366
:103F1000DF9300D000D000D0CDB7DEB726960FB625
:103F2000F894DEBF0FBECDBFDF91CF9108951F93F0
:103F3000CF93DF93C091B10116E08091B201C81711
:103F400099F0D0E01C9FF0011D9FF00D1124ED545D
:103F5000FE4F4081518162817381848195810E94ED
:103F6000871F2196C770E9CFDF91CF911F910895E8
:103F70004091E3015091E4016091E5017091E60107
:103F80008091E7019091E8010C94871F8091E801EE
:103F900082958F7009F054C08091E501882309F45F
:103FA0004FC08091B101A091B2016091E301709185
:103FB000E4014091E6015091E701B6E08A1709F467
:103FC0003FC090E041155105C1F17F3F11F46F3FB3
:103FD000A1F1B89FF001B99FF00D1124ED54FE4FEF
:103FE000218172132AC02081621327C022812111EE
:103FF00024C0238134812417350710F4215031095E
:10400000241B350B24363105C0F42091E8012F70B4
:1040100020612093E80126E0289FF001299FF00D00
:104020001124E854FE4F80818F708061808383EE7D
:1040300091E00E94361C0C94971F01968770BECFAA
:104040000895CF92DF92EF92FF920F931F93CF9339
:10405000DF93CDB7DEB762970FB6F894DEBF0FBE21
:10406000CDBF8C0185E0F801DE011D9601900D9217
:104070008A95E1F7D8014C9111965C9111971296AF
:104080006C9112971396CD90DC9014973091E301C8
:104090007091E4018091E6019091E701009709F4A5
:1040A0006BC17F3F19F43F3F09F466C1E090E50121
:1040B000EE2009F4C0C02091E801C816D90628F006
:1040C000F601E81BF90BCF0104C0809590958C0D8B
:1040D0009D1DFF24F3948436910578F0F12C207F08
:1040E00009F0C6C07C2DD98AC88A89890E94781FA8
:1040F00083EE91E00E94361CB1C0822F807F09F0D0
:1041000046C0751314C0341312C0611110C02F7053
:1041100020612093E8010E94B81F83EE91E00E9485
:10412000361C8091E801D80115968C932EC0CD28BD
:1041300019F15F3F11F44F3FF9F0F62E61111CC0E9
:104140008091B1012091B20136E0821709F45AC082
:1041500090E0389FF001399FF00D1124ED54FE4F8F
:104160007181571306C07081471303C072817111AA
:1041700003C001968770E9CFF62E662309F418C1B3
:104180008091E80181608093E801F12C11C17513E1
:1041900008C0341306C0611104C08091E801D80141
:1041A000C3C04D875E878D859E856A8B0E94521F96
:1041B0006A898823E1F16623D1F12091E801822FF9
:1041C00082958F7090E0029774F08091E301909156
:1041D000E40198878F831986DB86CA862C87CE01F7
:1041E00007960E94361C86E0F801A3EEB1E001902C
:1041F0000D928A95E1F70E94C61F0E94B81FFF2406
:10420000F394D6C04D875E878D859E850E943C24A1
:10421000292F22952F7030E0223031050CF0BCC0E0
:104220009F7009F0B6C0805E883008F4C1C0C80134
:104230000E94361CE4CFC816D90608F453C0F60114
:10424000E81BF90BCF018436910508F450C0F12C1E
:104250007C2DD98AC88A89890E94781FE3EEF1E013
:1042600086E0DF011D928A95E9F70E94B81FA0C081
:10427000751314C0341312C0611110C08091E8018D
:10428000F8018583C8010E94361C86E0E3EEF1E068
:10429000DF011D928A95E9F7FE2C8AC04D875E8763
:1042A0008D859E856A8B0E94521F6A89882309F436
:1042B000BECF662309F4BBCF2091E801822F8295FF
:1042C0008F7090E002970CF48ECF8091E301909173
:1042D000E4019A8389831B82DD82CC822E83CE0106
:1042E00001967FCF809590958C0D9D1DACCFF62EBD
:1042F000662309F49CCF75132EC034132CC0209173
:10430000E80120FD1FC0822F82958F70D9F0D8015F
:1043100015962C9315978F3049F08F5F982F9295B3
:10432000907F822F8F70892B15968C93C8010E94E5
:10433000361C86E0F801A3EEB1E001900D928A955B
:10434000E1F793CF86E0F801A3EEB1E001900D9282
:104350008A95E1F72DC04D875E878D859E850E94E9
:10436000521F811140CF8091E80181608093E80164
:10437000C8010E94361C1CC0662309F458CF4D8723
:104380005E878D859E850E94521F882309F44FCF3A
:104390002ACF811148CF0CC0243031050CF047CF13
:1043A0009F7009F440CFF8019581907F09F03BCFD1
:1043B0008F2D62960FB6F894DEBF0FBECDBFDF9192
:1043C000CF911F910F91FF90EF90DF90CF900895C4
:1043D0001F93CF93DF93CDB7DEB72C970FB6F8942A
:1043E000DEBF0FBECDBF4F83588769877A878B8723
:1043F0009C87CE0107960E942120882369F08F8137
:1044000098852A853B85232BF1F19F3F09F063C0F6
:104410008F3F09F060C037C086E0FE013796DE01AD
:10442000119601900D928A95E1F76F817885EA8562
:10443000FB85309741F17F3F11F46F3F21F12091CF
:10444000B20130E0C9010196877099274091B1010E
:1044500050E08417950709F447C069837A83FD8388
:10446000EC8396E0929FD001939FB00D1124AD5440
:10447000BE4FFE01319601900D929A95E1F780931F
:10448000B2010E94971F16E08091B1019091B20194
:104490008917C1F1189FC00111248D549E4F0E94AD
:1044A0002120882379F1E091B1011E9FF0011124B0
:1044B000ED54FE4F408151816281738184819581E9
:1044C0000E94871F8091B10190E001968770992723
:1044D0008093B101D9CF4F81588569857A858B85C5
:1044E0009C850E94871FCFCF0E944E1F1092B20161
:1044F0001092B101E3EEF1E086E0DF011D928A95B2
:10450000E9F7C1CF2C960FB6F894DEBF0FBECDBF32
:10451000DF91CF911F910895DF92EF92FF920F9359
:104520001F93CF93DF93FC01892B09F48AC0E12C00
:10453000F12CDD24D394EF0121968491853709F481
:1045400061C058F4843708F04EC0843008F06AC067
:104550008130D1F0823071F174C0883709F45DC0C8
:1045600050F4863709F455C0873709F06AC08E2D9C
:104570000E94352554C09CE7980F903708F061C021
:104580008F770E94BA1B50C08F010E5F1F4FFE0134
:10459000849190E2980F983050F48770FD2D01C0FF
:1045A000FF0F8A95EAF78F2F0E943B2514C00E94C7
:1045B0000B1B13C08F010E5F1F4FFE01C49180E2E1
:1045C0008C0F883060F4C7708D2D01C0880FCA959C
:1045D000EAF70E9441250E946225E80125C08C2F40
:1045E0000E94BA1BFACF9F012E5F3F4FFE01C4917C
:1045F000CC2369F08FE99FE00197F1F700C000003C
:10460000C150F6CF9F012E5F3F4FFE01F490E901AC
:104610000BC00E942525E82E07C00E9438250E9465
:10462000622502C00E940B1B8F2D882341F0EFE909
:10463000FFE03197F1F700C000008150F6CFFE0196
:104640007ACFDF91CF911F910F91FF90EF90DF9084
:1046500008956093ED017093EE018093EF019093C4
:10466000F0010E94F8250C943C1F6093E9017093BF
:10467000EA018093EB019093EC010E94CE106091CF
:10468000E9017091EA018091EB019091EC010E94A7
:10469000F9250C943C1F08950C9429230F931F9324
:1046A0000091ED011091EE012091EF013091F001A8
:1046B000602B712B822B932B1F910F910C9429232C
:1046C0000F931F930091ED011091EE012091EF01E6
:1046D0003091F00160237123822393231F910F9166
:1046E0000C9429230F931F930091ED011091EE017B
:1046F0002091EF013091F0016027712782279327E5
:104700001F910F910C94292360E070E0CB010C9471
:1047100035230F931F9341E050E060E070E08A0181
:104720009B0104C0000F111F221F331F8A95D2F76F
:10473000C901B8011F910F910C9435230F931F935A
:1047400041E050E060E070E004C0440F551F661F78
:10475000771F8A95D2F78091E9019091EA01A091A3
:10476000EB01B091EC018A019B01082B192B2A2B3C
:104770003B2BC901B8011F910F910C9435230F9366
:104780001F9341E050E060E070E004C0440F551F0B
:10479000661F771F8A95D2F7409550956095709562
:1047A0008091E9019091EA01A091EB01B091EC01B7
:1047B0008A019B01082319232A233B23C901B8013D
:1047C0001F910F910C9435230F931F9341E050E0FC
:1047D00060E070E004C0440F551F661F771F8A9584
:1047E000D2F78091E9019091EA01A091EB01B0919B
:1047F000EC018A019B01082719272A273B27C901B9
:10480000B8011F910F910C9435230F931F930091C2
:10481000E9011091EA012091EB013091EC01602B4C
:10482000712B822B932B1F910F910C9435230F9397
:104830001F930091E9011091EA012091EB01309161
:10484000EC0160237123822393231F910F910C9419
:1048500035230F931F930091E9011091EA012091F4
:10486000EB013091EC0160277127822793271F917C
:104870000F910C9435230895CF92DF92EF92FF921F
:104880000F931F93CF93DF938C01C090ED01D090D5
:10489000EE01E090EF01F090F0014091E9015091BC
:1048A000EA016091EB017091EC01C42AD52AE62A55
:1048B000F72ACFE1D0E0D701C6010C2E04C0B6958F
:1048C000A795979587950A94D2F780FF07C0B801FE
:1048D0008C2F0E94AB268130910531F4219758F737
:1048E000B80180E00E94AB26DF91CF911F910F911C
:1048F000FF90EF90DF90CF90089590910B01992356
:1049000021F090910C01911109C020910D0130917D
:104910000E01F90132969FEF40E030C0982F969536
:10492000969596959F31A0F4E0910D01F0910E01BE
:10493000E90FF11D877021E030E0A90102C0440FAA
:10494000551F8A95E2F7CA019181892B81830895C9
:104950009091140290FF23C01F928F938BE390E1FC
:104960009F938F930E94260D0F900F900F900F90A2
:1049700008959F3F39F04F5F4E3141F051915813E8
:10498000F8CF0DC05111F7CF942FF5CF9F3F39F0DD
:10499000F901E90FF11D97FDFA95828308950895B5
:1049A00090910B01992321F090910C01911109C074
:1049B00020910D0130910E01F9013296205E3F4F9A
:1049C00030C0982F9695969596959F31A8F4E091D2
:1049D0000D01F0910E01E90FF11D877021E030E02B
:1049E000A90102C0440F551F8A95E2F7CA018095BC
:1049F00091818923818308959091140290FF16C0BC
:104A00001F928F938DE190E19F938F930E94260DCB
:104A10000F900F900F900F9008953196E217F307C3
:104A200029F090819813F9CF1082F7CF089581E093
:104A300090E0E0910D01F0910E01E80FF91F108256
:104A4000019680329105A9F7089580911302089587
:104A500090911302892B8093130208958095909171
:104A600013028923809313020895809313020895FB
:104A700010921302089590911202892B80931202D2
:104A800008958095909112028923809312020895CF
:104A90001092120208958093F10108951092F1018D
:104AA000089580910D0190910E01FC0131969C01B9
:104AB000205E3F4F80E0919191118F5FE217F307E5
:104AC000D1F70895E0910D01F0910E01809113024C
:104AD0008083E0910D01F0910E019081809112028E
:104AE000892B80838091F101882361F0E0910D0191
:104AF000F0910E019081892B80830E9451258111B4
:104B00001092F10180910D0190910E010C94DC182E
:104B100090933B0180933A0108958295982F9C7C55
:104B2000392F36953695282F237344E0249FC001F2
:104B30001124932F982B292F2A7A2695892F857552
:104B4000880F822B08951F93CF93DF931F92CDB7C9
:104B5000DEB799830E948D25182F9981892F0E9495
:104B60008D25212F30E0322F2227A901482BCA01A1
:104B70000F90DF91CF911F910895CF92DF92EF9226
:104B8000FF920F931F93CF93DF936B017C01CB01B7
:104B90000E94A325EC01C7010E94A325AC01CE0110
:104BA000A0E0B0E0DC019927882760E070E08C018C
:104BB0009D01042B152B262B372BC901B801DF9142
:104BC000CF911F910F91FF90EF90DF90CF900895BC
:104BD0000895CF93DF9300D000D01F92CDB7DEB7FA
:104BE0000F900F900F900F900F90DF91CF9108953D
:104BF000089508950C948F1A08950895CF930E94F4
:104C0000C91A0E94F00E0E94CA1AC0E08C2F0E949E
:104C1000A210672B682B692B29F4CF5FC630B1F740
:104C200080E001C081E0CF9108950E94911A0C9418
:104C30004E1F82E084BD93E095BD9AEF97BD8093AF
:104C40006E0008952FB7F894809115029091160286
:104C5000A0911702B09118022FBF08952FB7F894B2
:104C600060911502709116028091170290911802BE
:104C70002FBF0895CF92DF92EF92FF920F931F9371
:104C80002FB7F894409115025091160260911702C7
:104C9000709118022FBF6A017B01EE24FF248C0162
:104CA00020E030E0C016D106E206F30610F44150D1
:104CB00051099A01281B390BC9011F910F91FF90CF
:104CC000EF90DF90CF9008951F920F920FB60F9242
:104CD00011248F939F93AF93BF938091150290916E
:104CE0001602A0911702B09118020196A11DB11DE4
:104CF0008093150290931602A0931702B0931802A6
:104D0000BF91AF919F918F910F900FBE0F901F9009
:104D100018950E94DE15F8942FEF87EA91E621504E
:104D200080409040E1F700C0000087E090EBDC019C
:104D30008093350290933602A0933702B0933802E5
:104D40009CE088E10FB6F894A895809360000FBEB0
:104D500090936000FFCF95E1799FF00111249EE7C9
:104D6000899FE00DF11D1124E60FF11DEE0FFF1FCD
:104D7000E657FC4F8591949108958F929F92AF9240
:104D8000BF92EF92FF920F931F93CF937C01C0E0ED
:104D90008C2F0E94A2104B015C0100E010E0D501B5
:104DA000C401002E04C0B695A795979587950A94DF
:104DB000D2F780FF16C0602F7C2F80E00E94AB26C8
:104DC0009C018E159F0559F0832F807E932F907C38
:104DD00011F0803A31F430E02E153F0511F481E0F6
:104DE00009C00F5F1F4F05311105C9F6CF5FC630EF
:104DF00079F680E0CF911F910F91FF90EF90BF90D7
:104E0000AF909F908F900895CF93DF93EC018CE249
:104E100090E00E94BD26882329F0CE01DF91CF913A
:104E20000C94BD2680E0DF91CF910895CF930E942E
:104E30007E28811102C00E94642880E690E10E94D1
:104E40008D0CC5E6C15049F00E94F00E8FE39CE93D
:104E50000197F1F700C00000F5CF89E590E10E94CD
:104E60008D0C89E290E00E94042781112BC18AE217
:104E700090E00E94042781110E94642885E090E060
:104E80000E94042781110E9489260E94FC250E940D
:104E900089288093140287E090E00E9404278823E9
:104EA000C1F18BE190E00E940427882351F08091AA
:104EB000140281FB222720F991E0922790FB81F9CF
:104EC0000FC08EE090E00E940427882361F080915B
:104ED000140282FB222720F991E0922790FB82F9AD
:104EE0008093140216C080E190E00E940427909104
:104EF0001402882341F093FB222720F981E08227C6
:104F000080FB93F904C0892F809580FB90F99093E2
:104F10001402809114020E948D280E949B28809385
:104F2000340280EE90E00E940427882341F08091B3
:104F30003402982F909590FB80F98093340289E396
:104F400090E00E940427882359F08091340281FB6D
:104F5000222720F991E0922790FB81F98093340277
:104F600082EE90E00E940427882359F08091340259
:104F700082FB222720F991E0922790FB82F980930F
:104F8000340286EE90E00E940427882359F0809135
:104F9000340283FB222720F991E0922790FB83F9CA
:104FA0008093340283EE90E00E940427882359F016
:104FB0008091340284FB222720F991E0922790FB14
:104FC00084F98093340285E390E00E9404278823CB
:104FD00059F08091340285FB222720F991E0922735
:104FE00090FB85F98093340281E390E00E940427CE
:104FF000882359F08091340286FB222720F991E022
:10500000922790FB86F98093340281E190E00E9420
:105010000427882359F08091340287FB222720F946
:1050200091E0922790FB87F98093340280913402BB
:105030000E949F288091340287FB882780F9809303
:105040000C0187E290E00E940427C82F8EE190E0D7
:105050000E9404278111C2608FE190E00E94042722
:105060008111C46080E290E00E9404278111C86031
:1050700081E290E00E9404278111C06182E290E009
:105080000E9404278111C06283E290E00E940427FD
:105090008111C06484E290E00E940427882311F00B
:1050A000C06802C0CC2329F08C2F0E9496286C2F58
:1050B00003C00E949228682F70E080E090E0CF91BA
:1050C0000C944C23CF9108956DEE7EEF80E090E03C
:1050D0000E947A3260E082E090E00E946C3260E0F0
:1050E00083E090E00E946C3260E084E090E00E94F7
:1050F0006C3260E085E090E00C946C3280E090E0EF
:105100000E94663221E08D3E9E4F09F020E0822F02
:10511000089582E090E00C945E32682F82E090E087
:105120000C946C3283E090E00C945E32682F83E044
:1051300090E00C946C3284E090E00C945E32682F26
:1051400084E090E00C946C3280911B0280FF0BC0D5
:105150006091120185E0689FB001112475956795F3
:10516000759567952BC081FF09C06091120185E09C
:10517000689FB00111247595679520C082FF07C014
:105180006091120185E0689FB001112417C09091D1
:105190001C029923D1F060911101961788F7209194
:1051A000120185E0289F90011124929FA001939FF6
:1051B000500D112470E0CA010E942D326038710533
:1051C00040F46115710539F002C065E070E0862F8A
:1051D00008958FE7089581E0089580911B0280FF74
:1051E00008C06091100170E0759567957595679599
:1051F00021C081FF06C06091100170E07595679530
:1052000019C082FF04C06091100170E010C090913D
:105210001C029923C1F060910F019617A0F78091AD
:105220001001899FC001112470E00E942D32603866
:10523000710528F46115710521F0862F08958FE717
:10524000089581E0089561E070E0F4CF803F21F49B
:105250000E94A428819504C0813F29F40E94A428BB
:1052600080931F020895823F21F40E94A428819513
:1052700004C0833F29F40E94A42880931E0208954D
:10528000893F19F40E94ED2805C08A3F31F40E943D
:10529000ED2881958093200208958B3F21F40E9490
:1052A000ED28819504C08C3F29F40E94ED2880935D
:1052B00021020895843F21F480911D02816017C06E
:1052C000853F21F480911D02826011C0863F21F448
:1052D00080911D0284600BC0873F21F480911D02E4
:1052E000886005C0883F31F480911D028061809301
:1052F0001D0208958D3F21F480911B0281600BC037
:105300008E3F21F480911B02826005C08F3F29F4FB
:1053100080911B02846080931B020895803F39F4C2
:1053200080911F0287FF6CC010921F0269C0813FED
:1053300029F480911F021816BCF362C090911E02DE
:10534000823F29F497FF5CC010921E0259C0833F30
:1053500019F41916CCF354C0893F41F4809120020E
:1053600018160CF04DC0109220024AC08A3F29F452
:105370008091200287FF44C0F6CF8B3F39F48091A3
:10538000210287FF3DC0109221023AC08C3F29F4D0
:10539000809121021816BCF333C0843F21F4809120
:1053A0001D028E7F17C0853F21F480911D028D7FE5
:1053B00011C0863F21F480911D028B7F0BC0873F77
:1053C00021F480911D02877F05C0883F31F48091D0
:1053D0001D028F7E80931D0213C08D3F21F48091AA
:1053E0001B028E7F0BC08E3F21F480911B028D7FAC
:1053F00005C08F3F29F480911B028B7F80931B0295
:1054000080911E0281110EC080911F0281110AC07D
:1054100080912002811106C080912102811102C079
:1054200010921C0208958091140283FF7EC08CE9C3
:1054300090E10E948D0C80911D021F928F9387E94D
:1054400090E19F938F930E94260D85E990E10E9441
:105450008D0C80911E02282F082E000C330B3F93D9
:105460008F9382E990E19F938F930E94260D80E9AC
:1054700090E10E948D0C80911F02282F082E000CB5
:10548000330B3F938F938DE890E19F938F930E940E
:10549000260D8BE890E10E948D0C80912002282F30
:1054A000082E000C330B3F938F9388E890E19F9375
:1054B0008F930E94260D86E890E10E948D0C8091CA
:1054C0002102282F082E000C330B3F938F9383E883
:1054D00090E19F938F930E94260D80E890E10E94B7
:1054E0008D0C80911C021F928F938DE790E19F930A
:1054F0008F930E94260D8BE790E10E948D0C809186
:105500001B021F928F9388E790E19F938F930E94D5
:10551000260D85E790E10E948D0C8DB79EB74C96C5
:105520000FB6F8949EBF0FBE8DBF8DE192E00E9432
:1055300025190E94222690931A0280931902089539
:105540001F93CF93DF938091190290911A020E94CA
:105550003A26AC0190911C02992321F0209113016D
:1055600030E006C0209114018AE0289F90011124A8
:105570004217530708F485C080911E02C0911F0294
:10558000D091200210912102811107C0C11175C074
:10559000D11173C0111171C074C09F3F19F09F5F8A
:1055A00090931C02181624F40E94A42880931E02D3
:1055B00080911E0287FF05C00E94A42881958093D8
:1055C0001E021C1624F40E94A42880931F028091BE
:1055D0001F0287FF05C00E94A428819580931F02A7
:1055E00060911E02662331F1C0911F02CC2311F19C
:1055F000062E000C770B880B990B0E94283123E3B1
:1056000033E343E35FE30E948C310E94F030609308
:105610001E026C2FCC0F770B880B990B0E94283140
:1056200023E333E343E35FE30E948C310E94F030D5
:1056300060931F021D1624F40E94ED28809320021F
:105640008091200287FF05C00E94ED2881958093FC
:105650002002111624F40E94ED28809321028091EB
:10566000210287FF05C00E94ED28819580932102C9
:10567000DF91CF911F910C94132A9F3F09F08FCF98
:1056800097CFDF91CF911F910895EDE1F2E085E092
:10569000DF011D928A95E9F710921C0210921B02FD
:1056A00008958FEB92E10E948D0C1F9281E08F9301
:1056B0001F9285E08F9381E792E19F938F930E94E1
:1056C000260D0F900F900F900F900F900F90089550
:1056D0008330E9F128F4813061F0823009F10895D6
:1056E000853009F462C008F449C0863009F474C0FA
:1056F000089580911401262F30E0280F311D2F3F8F
:10570000310524F4680F6093140103C08FEF809378
:105710001401809114011F928F938AEA91E172C063
:1057200080911301262F30E0280F311D2F3F3105C6
:1057300024F4680F6093130103C08FEF809313016B
:10574000809113011F928F9388E991E15BC0809152
:105750001201262F30E0280F311D2F3F310524F490
:10576000680F6093120103C08FEF80931201809144
:1057700012011F928F9385E891E144C0809111013D
:10578000262F30E0280F311D2F3F310524F4680FFC
:105790006093110103C08FEF80931101809111017B
:1057A0001F928F9380E791E12DC080911001262FE9
:1057B00030E0280F311D2F3F310524F4680F60932E
:1057C000100103C08FEF80931001809110011F9290
:1057D0008F9387E591E116C080910F01262F30E06D
:1057E000280F311D2F3F310524F4680F60930F01FE
:1057F00003C08FEF80930F0180910F011F928F9351
:105800008CE391E19F938F930E94260D0F900F9050
:105810000F900F900895833081F128F4813059F072
:105820008230D1F00895853009F449C0B8F186304E
:1058300009F456C0089580911401681720F4861B5E
:105840008093140102C010921401809114011F92E0
:105850008F938DE291E154C080911301681720F479
:10586000861B8093130102C01092130180911301D3
:105870001F928F938BE191E143C0809112016817D1
:1058800020F4861B8093120102C0109212018091B5
:1058900012011F928F9388E091E132C08091110133
:1058A000681720F4861B8093110102C01092110129
:1058B000809111011F928F9383EF90E121C080911D
:1058C0001001681720F4861B8093100102C010920B
:1058D0001001809110011F928F938AED90E110C00A
:1058E00080910F01681720F4861B80930F0102C07E
:1058F00010920F0180910F011F928F938FEB90E117
:105900009F938F930E94260D0F900F900F900F90F2
:105910000895CF93C82F1F928F9384EC93E19F93A8
:105920008F930E94260D81E090E0A0E0B0E0BC01E2
:10593000CD0104C0660F771F881F991FCA95D2F743
:105940000E944C230F900F900F900F90CF910C94CA
:105950004E1FCF938D3109F465C0B0F58E3009F438
:10596000D9C100F5873009F4A8C1A8F4863009F040
:1059700074C280911402817F8E7F8093140289EC1F
:1059800093E10E948D0C8DE098E10E948D0C81E0E6
:10599000809324028DC1883009F45CC08B3009F4F7
:1059A00089C15BC2863109F4FDC138F4803109F444
:1059B000C5C1813109F437C250C2893109F4DBC154
:1059C0008B3109F493C149C2853309F43EC248F4CE
:1059D000873209F43AC208F43AC2893209F435C26E
:1059E0003CC2833438F48A3308F033C2883309F474
:1059F00061C133C2833409F428C2883409F02DC24E
:105A00000E944E1F8CEF97E10E948D0C9FEF23EDBB
:105A100080E3915020408040E1F700C000000E94E8
:105A2000892646C18CE198E10E948D0C809122026A
:105A3000882339F00E94A6300E94D0180E94B1102D
:105A400002C00E94A0309091220281E089278093B9
:105A500022022EC181E198E10E948D0C8AED95E130
:105A60000E948D0C0E9492281F928F9387ED95E1E2
:105A70009F938F930E94260D85ED95E10E948D0CDA
:105A80000E948928C82F82EC95E10E948D0C1F92FC
:105A9000CF938DEB95E19F938F930E94260D8BEB17
:105AA00095E10E948D0C81EB95E10E948D0C8C2F6D
:105AB00081701F928F938EEA95E19F938F930E943E
:105AC000260D8CEA95E10E948D0C82EA95E10E94F8
:105AD0008D0CC1FB882780F91F928F938FE995E188
