:100000000C94C0150C9409160C9409160C9409163E
:100010000C9409160C9409160C9409160C940916E4
:100020000C9409160C9409160C94CA1F0C94A02069
:100030000C9409160C9409160C9409160C940916C4
:100040000C9409160C94EE400C9409160C940916A5
:100050000C9409160C94C7350C9409160C940916C7
:100060000C9409160C9409160C9409160C94091694
:100070000C9409160C9409160C9409160C94091684
:100080000C9409160C9409160C9409160C94091674
:100090000C9409160C9409161121332121223321C5
:1000A000212278219B212122F02103221C272127B4
:1000B00026272B2730273527582758273A27582710
:1000C0003F274427492758274E275327DC27DC277B
:1000D0004E284E28EA282829732B732B4329732B8B
:1000E000522A522A412B732B732B5C2B750A011356
:1000F0000213010402040116021601160216011A67
:10010000021A01120212011502150107020701204D
:10011000022000750A0113021301040204011602F1
:100120001601160216011A021A0112021201150214
:100130001501070207011F021F00750A01130213B0
:10014000010402040116021601160216011A021A0F
:10015000011202120115021501070207011E021EFB
:1001600000022B0001E2012B00750A0111021101AE
:10017000180218010F020F010F020F012D022D01AD
:10018000050205010C020C011102110137023701B1
:10019000050205010F020F01120212010A020A01F3
:1001A000160216011302130112021201170217019F
:1001B0003702370106020601120212011002100076
:1001C000750A0106020601070207012C022C0138FC
:1001D0000238011702170110021001130213012C3B
:1001E000022C01E1012302E1022301E1012302E1EA
:1001F0000223012C022C011A021A010A020A010828
:10020000020801170217012C022C010B020B011727
:1002100002170117021701130213013402340138C7
:1002200002380138023801160216010B020B010CCC
:10023000020C011202120111021101120212011626
:10024000021601370237011602160120022001377B
:100250000237010402040110021001040204011D0E
:10026000021D011202120111021101040204011AFD
:10027000021A0116021601370237010602060112A0
:10028000021201100210013802380115021501088E
:100290000208011302130112021201380238010E82
:1002A000020E01080208011C021C01380238010775
:1002B0000207010802080105020501370237010A99
:1002C000020A01130213010A020A01370237010E62
:1002D000020E01080208011C021C012C022C012D37
:1002E000022D01E1011202E10212012C022C011681
:1002F0000216010B020B010C020C01120212011179
:100300000211012D022D011302130118021801051B
:100310000205010F020F010C020C01060206013753
:10032000023701070207010802080105020501372B
:100330000237010E020E01080208011C021C0137DF
:100340000237010A020A01130213010A020A012CF0
:10035000022C01E1012302E1022301E1012302E178
:100360000223012C022C01160216011802180107A3
:10037000020701120212012C022C010402040113D3
:10038000021301170217012D022D010E020E0108A2
:100390000208011C021C012C022C010402040107AA
:1003A000020701070207012C022C0138023801174D
:1003B000021701100210011302130138023801164E
:1003C0000216010B020B010C020C011202120111A8
:1003D0000211012D022D011302130118021801054B
:1003E0000205010F020F010C020C01060206013783
:1003F000023701070207010802080105020501375B
:100400000237010E020E01080208011C021C01370E
:100410000237010A020A01130213010A020A003517
:10042000003A003B003C003D003E003F00400041E0
:10043000004200430044004500460047A5480054E0
:1004400000530055005600570029001E001F0020D1
:100450000021002200230024002500260027002D73
:10046000002E0089002A0049004A004B00000000CD
:100470000000002B0014001A000800150017001CD3
:100480000018000C00120013002F003000000000C4
:10049000004C004D004E005F0060006100E0000471
:1004A000001600070009000A000B000D000E000FE7
:1004B000003300340031002800000000000000007C
:1004C000005C005D005E00E1001D001B00060019DD
:1004D000000500110010003600370038008700E5E5
:1004E000000000000000005200000059005A005BAC
:1004F000003900E300E2008B002A0028002C008A6B
:10050000008800E600F1A6E40000000000000050B2
:100510000051004F006200630058A3290001000150
:1005200000010001000100010001000100010001C3
:1005300000010001000100010001000100010001B3
:10054000000100010035000100010001000100016F
:100550000001000100010001000100010001000193
:100560000001000100010001000100010001000183
:100570000001000100010001000100010001000173
:100580000001000100010001000100010001000163
:10059000000100010001000100390001000100011B
:1005A0000001000100010001000100010001000143
:1005B0000001000100010001000100010001000133
:1005C0000001000100010001000100010001000123
:1005D0000001000100010001000100010001000113
:1005E00000010001000100010001000100E0000124
:1005F00000010001000100010001000100010001F3
:1006000000010001000100010001000100010001E2
:1006100000010001000100000001000100010001D3
:1006200000010001000100010001000100010001C2
:1006300000010001000100010001000100010001B2
:10064000002900010001000100010001000100017A
:100650000001000100010001000100010001000192
:100660000001000100010001000100010001000182
:100670000001000100010001000100010001000172
:100680000001000100010001000100010001000162
:100690000001000100010001000100010001000152
:1006A0000001000100010001000100010001000142
:1006B0000001000100010001000100010001000132
:1006C0000001000100010001000100010001000122
:1006D0000001000100010001000100010001000112
:1006E000000100010001000100E000010000000124
:1006F000002C003000310028000100010001000141
:1007000000010001000100010001000100010001E1
:1007100000010001000100010001000100010001D1
:1007200000010001000100010001000100010001C1
:1007300000010001000100010001000100010001B1
:1007400000010001000100010001000100010001A1
:100750000001000100010001000100010001000191
:100760000001000100010001000100010001000181
:100770000001000100010001000100010001000171
:1007800000010001000100010001002002220223FB
:10079000020100010001000100010001000100014F
:1007A0000001000100010001000100010001000141
:1007B0000001000100070208020902010001000116
:1007C0000001000100010001000100010001000121
:1007D000000100010001000100010001000100040E
:1007E00002050206020100010001000100010001F2
:1007F00000010001000100010001000100010001F1
:100800000001000100010001002C001B000100019B
:1008100000010001000100010001000100010001D0
:10082000000100010001000100010001000100FBC6
:10083000500100FC50F650F9500100010001000188
:1008400000010001000100010001000100010001A0
:100850000001000100010001000100010001000190
:100860000001000100010001000100010001000180
:100870000001000100010001000100010001000170
:1008800000010001000100F450F050F5500100019A
:100890000001000100010001000100010001000150
:1008A0000001000100010001000100010001000140
:1008B00000F250F150F3500100010001000100016D
:1008C0000001000100010001000100010001000120
:1008D0000001000100010001000100000000000013
:1008E0000001000100010001000100010001000100
:1008F00000010001000100010001000100010001F0
:100900000001000100F450F550FA5001000100010F
:1009100000010001000100010001000100010001CF
:100920000001000100FB500100FC5001000100012A
:1009300000010001000100010001000100010001AF
:10094000000100010001000100010001000100019F
:10095000000100F950010001000100010001000147
:10096000000100010001000100010001000100017F
:1009700000010001000100010001000100FA500126
:10098000000100010001000100010001000100015F
:10099000000100010001000100010001000100014F
:1009A000000100010001000100010001000100013F
:1009B000000100010001000100010001000100012F
:1009C000000100010001000100010001000100011F
:1009D000000100010001000100010001000100010F
:1009E00000010001000100010001000100010001FF
:1009F00000010001000100010001000100010001EF
:100A0000000100010001000000E944EA44E244B4AE
:100A100044B644CD44B744B544B344000083408257
:100A200040000000000000000092450000218A0004
:100A300000000000000000000000000000000000B6
:100A4000000000000000000000000001C0000005E0
:100A5000F001F002F00000000000000000000000C3
:100A60000000000000000000000000000000000086
:100A700000000000000000000006F003F004F00099
:100A80000000000000000000000000000000000066
:100A9000000000000000000000000000000000282E
:100AA00087000000000000000000000000000000BF
:100AB0000000000000000000000000000000000036
:100AC00000000000C0000000000000000000000066
:100AD0000000000000000000000000048A00000088
:100AE000000000000000F00000028A650001000024
:100AF00000000000000000000000000000000000F6
:100B00000000003783E944EA44E244B444B644CDEB
:100B100044B744B544B34437838340824037833776
:100B2000833783378392453783218A3783378337E7
:100B300083378337833783378337833783378337E5
:100B40008337833783378301C0378305F001F00291
:100B5000F037833783378337833783378337833758
:100B600083378337833783378337833783378337B5
:100B7000833783378306F003F004F03783378337F6
:100B80008337833783378337833783378337833795
:100B9000833783378337833783378300003783373F
:100BA0008337833783378337833783378337833775
:100BB000833783378337833783378337833783009C
:100BC000C037833783378337833783378337833718
:100BD00083378337833783048A3783378337833771
:100BE0008300F03783028A650001000100378337F4
:100BF000833783378337833783378337833783005C
:100C000000000000000000000000000000000000E4
:100C100000000000000000000000000000000000D4
:100C200000000000000000000000000000000000C4
:100C300000000000000000000000000000000000B4
:1012E00000000077817781778177817781778177B7
:1012F000817781778177817781778177817781772E
:101300008177817781778177817781778177810391
:10131000C004C005C0778177817781778177817735
:1013200081778177817781778177817781778177FD
:1013300081778177817781778177817781778177ED
:1013400081778177817781778177817781778177DD
:1013500081778177817781778177817781778177CD
:1013600081778177817781778177817781778177BD
:1013700081778177817781778177817781778177AD
:10138000817781778177817781778177817781779D
:10139000817781778177817781778177817781778D
:1013A00081778177817781778177817781778103F1
:1013B000C004C005C0778177817781778177817795
:1013C000817781778177817781778177817781775D
:1013D0008177817781778177817781778177810ABA
:1013E000002530325800626F756E6365213A200027
:1013F0004B6579626F6172642073746172742E0A36
:101400000055534220636F6E666967757265642E7E
:101410000A000D0A696E69740A005B445D005B4353
:101420005D003403460069006C0063006F0020001B
:101430004D0061006A006500730074006F00750064
:101440006300680020004A0049005300200031007A
:1014500031003000520000000E035B006E0075008A
:101460006C006C005D0000000403090409028D009B
:10147000050100A032090400000103010100092157
:10148000110100012240000705810308000A090438
:1014900001000103010200092111010001224D0098
:1014A0000705820308000A09040200010300000086
:1014B0000921110100012236000705830308000AF3
:1014C00009040300020300000009211101000122A8
:1014D0002200070584032000010705040320000102
:1014E0000904040001030000000921110100012288
:1014F00039000705850320000112011001000000DA
:1015000008D904112001000102000105010906A10A
:1015100001050719E029E7150025019508750181E6
:1015200002050819012905950575019102950175B6
:101530000391010507190029F71500250195F87594
:10154000018102C00631FF0974A101097515002649
:10155000FF009520750881020976150026FF009589
:101560002075089102C005010980A101850216813C
:101570000026B7001A81002AB70075109501810076
:10158000C0050C0901A1018503160100269C021A61
:1015900001002A9C02751095018100C00501090215
:1015A000A1010901A100050919012905150025015D
:1015B00095057501810295017503810105010930C9
:1015C00009311581257F9502750881060938158135
:1015D000257F950175088106050C0A3802158125BD
:1015E0007F950175088106C0C005010906A10105A6
:1015F0000719E029E7150025019508750181029575
:1016000001750881010508190129059505750191E4
:10161000029501750391010507190029FF150026A0
:10162000FF00950675088100C0636F6E73756D6568
:10163000723A20253034580A0073797374656D3A14
:1016400020253034580A000A002530325820006B1B
:101650006579626F6172643A20004C45443A2025F6
:101660003032580A00253032583A20253033326261
:1016700025730A00722F6320303132333435363708
:1016800038394142434445463031323334353637B8
:1016900038394142434445460A005B25583A2530D3
:1016A00032585D00554E4B4E4F574E004143545FEC
:1016B00046554E4354494F4E004143545F434F4DAE
:1016C0004D414E44004143545F4D4143524F004110
:1016D00043545F4C415945525F5441505F45585403
:1016E000004143545F4C415945525F5441500041C1
:1016F00043545F4C41594552004143545F4D4F554F
:1017000053454B4559004143545F555341474500AC
:101710004143545F524D4F44535F54415000414345
:10172000545F4C4D4F44535F544150004143545F0C
:10173000524D4F4453004143545F4C4D4F4453006E
:101740003A257525630025303458256328257529E9
:10175000004B45594D41505F5441505F4B45593AFC
:10176000204E6F207461703A204F6666206F6E20A5
:1017700072656C656173650A004B45594D41505F58
:101780005441505F4B45593A205461703A20756E70
:1017900072656769737465725F636F64650A004B95
:1017A00045594D41505F5441505F4B45593A204E89
:1017B0006F207461703A204F6E206F6E20707265DA
:1017C00073730A004B45594D41505F5441505F4B74
:1017D00045593A205461703A20726567697374659F
:1017E000725F636F64650A004D4F44535F5441500C
:1017F0003A204E6F207461703A206164645F6D6FAF
:1018000064730A004D4F44535F5441503A20546171
:10181000703A20756E72656769737465725F636F85
:1018200064650A004D4F44535F5441503A204E6F57
:10183000207461703A206164645F6D6F64730A00A4
:101840004D4F44535F5441503A205461703A2072D6
:10185000656769737465725F636F64650A004D4FF5
:1018600044535F5441503A205461703A2043616EB2
:1018700063656C3A206164645F6D6F64730A004D48
:101880004F44535F5441505F544F47474C453A20B3
:1018900072656C65617365203A20756E7265676963
:1018A000737465725F6D6F64730A004D4F44535FCC
:1018B0005441505F544F47474C453A20746F676717
:1018C0006C65206D6F6473206F6E0A004D4F44533A
:1018D0005F5441505F544F47474C453A20746F67FF
:1018E000676C65206D6F6473206F66660A004D4FEC
:1018F00044535F5441503A204F6E6573686F743A99
:101900002073746172740A004556454E5420504944
:101910004E3A202D202564202D202575202D2025B0
:1019200078200A000D0A002064656661756C745F9A
:101930006C617965725F73746174653A2000206C24
:10194000617965725F73746174653A200041435434
:10195000494F4E3A20000D0A004556454E543A2054
:10196000000A2D2D2D2D20616374696F6E5F6578DF
:1019700065633A207374617274202D2D2D2D2D0A0C
:101980000070696E5F6C656E6774682D2025640A4F
:101990002070696E5F636861725F63757272656EF5
:1019A000742D2025730A0063757272656E742D2084
:1019B00025730A2070696E2D2025730A2070696EC8
:1019C0005F636861725F617070656E6465642D202D
:1019D00025730A000A0A4556454E542050494E3A8E
:1019E000204552524F5253204841564520484150BD
:1019F00050454E454421210A256420202025640AB3
:101A00000A000A0054415050494E475F4B45593D2A
:101A1000005D0A0025750077616974696E675F6211
:101A200075666665725F7363616E5F7461703A209C
:101A3000666F756E64206174205B0054617070691C
:101A40006E673A2053746172742850726573732004
:101A5000746170206B6579292E0A000A0054617048
:101A600070696E673A20456E642854696D656F75BC
:101A7000742061667465722072656C656173696E4D
:101A800067206C61737420746170293A200054617E
:101A90007070696E673A206F74686572206B657943
:101AA000206A757374206166746572207461702E8B
:101AB0000A0054617070696E673A205374617274E1
:101AC000207769746820696E746572666572696EE4
:101AD00067206F74686572207461702E0A00290A8D
:101AE0000025750054617070696E673A205461700A
:101AF000207072657373280054617070696E673A64
:101B0000206B6579206576656E74207768696C65F1
:101B1000206C6173742074696D656F7574207461D5
:101B200070283E30292E0A0054617070696E673A41
:101B3000205374617274207768696C65206C6173DE
:101B4000742074696D656F75742074617028312913
:101B50002E0A0054617070696E673A205374617286
:101B600074206E65772074617020776974682072C4
:101B7000656C656173696E67206C6173742074694C
:101B80006D656F757420746170283E31292E0A00CE
:101B900054617070696E673A20456E642E206C61E6
:101BA00073742074696D656F757420746170207230
:101BB000656C65617365283E30292E000A0054610A
:101BC0007070696E673A20456E642E2054696D65A9
:101BD0006F75742E204E6F74207461702830293A0E
:101BE000200054617070696E673A206B65792065DA
:101BF00076656E74207768696C65206C61737420FB
:101C0000746170283E30292E0A0054617070696E2C
:101C1000673A205374617274207768696C65206C30
:101C2000617374207461702831292E0A0054617028
:101C300070696E673A205374617274206E65772004
:101C400074617020776974682072656C656173696E
:101C50006E67206C61737420746170283E31292E88
:101C60000A00290A0025750054617070696E673A90
:101C7000205461702072656C656173652800546141
:101C80007070696E673A2072656C65617365206576
:101C900076656E74206F662061206B6579207072A6
:101CA0006573736564206265666F72652074617028
:101CB00070696E670A0054617070696E673A2046F9
:101CC000697273742074617028302D3E31292E0A98
:101CD000007D0A0020005D3D002575005B007B2033
:101CE0000077616974696E675F6275666665725FC9
:101CF000656E713A200077616974696E675F62751D
:101D0000666665725F656E713A204F766572206611
:101D10006C6F772E0A000A000A0A005D203D200041
:101D200025750070726F6365737365643A2077611F
:101D30006974696E675F6275666665725B002D2DFA
:101D40002D2D20616374696F6E5F657865633A203D
:101D500070726F636573732077616974696E675F12
:101D6000627566666572202D2D2D2D2D0A004F5649
:101D70004552464C4F573A20434C45415220414C26
:101D80004C205354415445530A000A0070726F634B
:101D900065737365643A2000555028253032582900
:101DA0000A00444F574E2825303258290A00494E20
:101DB00054455256414C282575290A00574149542B
:101DC000282575290A004B45595F55502825303282
:101DD00058290A004B45595F444F574E2825303249
:101DE00058290A002530386C5828257529000D0A15
:101DF0000020746F20006C617965725F7374617488
:101E0000653A20000A0020746F20006465666175E1
:101E10006C745F6C617965725F73746174653A208C
:101E2000002530386C58282575290064656C5F6B77
:101E300065795F6269743A2063616E277420646516
:101E40006C3A20253032580A006164645F6B657912
:101E50005F6269743A2063616E2774206164643A3A
:101E600020253032580A00646F6E652E0A00626FBA
:101E70006F746D61676963207363616E3A202E2E03
:101E80002E2000290A002575002F002575005D28E9
:101E90000025640020002564002000256400200047
:101EA0002564007C0025303258006D6F7573656BBA
:101EB0006579205B62746E7C782079207620685D7D
:101EC000287265702F61636C293A205B006D6B5F2F
:101ED000776865656C5F74696D655F746F5F6D6170
:101EE00078203D2025640A006D6B5F776865656C1E
:101EF0005F6D61785F7370656564203D2025640ABD
:101F0000006D6B5F74696D655F746F5F6D617820E4
:101F10003D2025640A006D6B5F6D61785F737065AD
:101F20006564203D2025640A006D6B5F696E7465F1
:101F30007276616C203D2025640A006D6B5F6465DC
:101F40006C6179203D2025640A006D6B5F776865C0
:101F5000656C5F74696D655F746F5F6D6178203D5E
:101F60002025640A006D6B5F776865656C5F6D6145
:101F7000785F7370656564203D2025640A006D6B91
:101F80005F74696D655F746F5F6D6178203D2025BA
:101F9000640A006D6B5F6D61785F737065656420C6
:101FA0003D2025640A006D6B5F696E746572766111
:101FB0006C203D2025640A006D6B5F64656C61795F
:101FC000203D2025640A000A00257500363A207756
:101FD0006865656C5F74696D655F746F5F6D61786E
:101FE0003A20000A00257500353A20776865656C4F
:101FF0005F6D61785F73706565643A20000A002543
:102000007500343A2074696D655F746F5F6D617837
:102010003A20000A00257500333A206D61785F731D
:10202000706565643A20000A00257500323A20691F
:102030006E74657276616C286D73293A20000A000F
:10204000257500313A2064656C6179282A31306D3C
:1020500073293A20000A092D2056616C756573209A
:102060002D0A004D3E004D25643E20003F00736563
:10207000742064656661756C740A00433E200077C5
:10208000686572652064656C74613A20637572736B
:102090006F723D25642C20776865656C3D25640A68
:1020A00053656520687474703A2F2F656E2E7769BA
:1020B0006B6970656469612E6F72672F77696B69F0
:1020C0002F4D6F7573655F6B6579730A000A092D73
:1020D000204D6F7573656B6579202D0A4553432F2D
:1020E000713A09717569740A313A0964656C6179EC
:1020F000282A31306D73290A323A09696E74657283
:1021000076616C286D73290A333A096D61785F73C3
:10211000706565640A343A0974696D655F746F5F50
:102120006D61780A353A09776865656C5F6D61782D
:102130005F73706565640A363A09776865656C5F38
:1021400074696D655F746F5F6D61780A0A703A0932
:102150007072696E742076616C7565730A643A09F1
:102160007365742064656661756C74730A75703A82
:10217000092B310A646F776E3A092D310A70677541
:10218000703A092B31300A7067646F776E3A092D07
:1021900031300A0A7370656564203D2064656C7493
:1021A00061202A206D61785F7370656564202A2044
:1021B00028726570656174202F2074696D655F7485
:1021C0006F5F6D6178290A003F004D3E2000433E5D
:1021D00020004C25640A000A092D20436F6E736F9E
:1021E0006C65202D0A4553432F713A097175697446
:1021F0000A6D3A096D6F7573656B65790A000A0996
:102200002D204D61676963202D0A643A0964656277
:1022100075670A783A096465627567206D61747242
:1022200069780A6B3A096465627567206B65796243
:102230006F6172640A6D3A096465627567206D6F3B
:102240007573650A763A0976657273696F6E0A73FB
:102250003A097374617475730A633A09636F6E7334
:102260006F6C65206D6F64650A302D343A096C61BE
:10227000796572302D34284631302D4634290A5084
:102280006175733A09626F6F746C6F616465720A8D
:10229000653A09656570726F6D0A6E3A094E4B5268
:1022A0004F0A7A3A09736C656570204C4544207476
:1022B0006573740A000A002575002E6E6B726F3A02
:1022C00020000A002575002E737761705F626163DC
:1022D0006B736C6173685F6261636B73706163657C
:1022E0003A20000A002575002E737761705F6772CF
:1022F0006176655F6573633A20000A002575002EDC
:102300006E6F5F6775693A20000A002575002E73AD
:102310007761705F72616C745F726775693A2000F3
:102320000A002575002E737761705F6C616C745FB5
:102330006C6775693A20000A002575002E6361708C
:10234000736C6F636B5F746F5F636F6E74726F6CCF
:102350003A20000A002575002E737761705F636F65
:102360006E74726F6C5F636170736C6F636B3A2035
:10237000000A0025303258006B65796D61705F632B
:102380006F6E6669672E7261773A20000A002575C4
:10239000002E6D6F7573653A20000A002575002EBA
:1023A0006B6579626F6172643A20000A00257500DE
:1023B0002E6D61747269783A20000A002575002E2E
:1023C000656E61626C653A20000A00253032580063
:1023D00064656275675F636F6E6669672E726177A9
:1023E0003A20000A0025750064656661756C745FAB
:1023F0006C617965723A20003F004E4B524F3A2093
:102400006F66660A004E4B524F3A206F6E0A007498
:10241000696D65725F72656164333228293A2025DF
:1024200030346C580A006B6579626F6172645F6E5C
:102430006B726F3A2025580A006B6579626F617282
:10244000645F69646C653A2025580A006B6579629F
:102450006F6172645F70726F746F636F6C3A202586
:10246000580A00686F73745F6B6579626F6172649C
:102470005F6C65647328293A2025580A000A092DE3
:1024800020537461747573202D0A004743433A202A
:10249000342E392E32204156522D4C4942433A2097
:1024A000312E382E3073766E204156525F415243A2
:1024B000483A2061767235310A004F5054494F4EE8
:1024C000533A204C55464120424F4F544D414749C5
:1024D00043204D4F5553454B455920455854524183
:1024E0004B455920434F4E534F4C4520434F4D4D84
:1024F000414E44204E4B524F20313032340A00427C
:1025000055494C443A20376434393832352D6469A2
:10251000727479202830343A33343A3031204170A3
:10252000722032372032303137290A005649443A76
:1025300020307830346439285B6E756C6C5D2920EE
:102540005049443A203078323031312846696C6342
:102550006F204D616A6573746F756368204A4953D3
:10256000203131305229205645523A2030783030CF
:1025700030310A00444553433A2046696C636F206A
:102580004D616A6573746F756368204A49532031E1
:102590003130520A000A092D2056657273696F6E38
:1025A000202D0A000A6D6F7573653A206F66660A02
:1025B000000A6D6F7573653A206F6E0A000A6B65CD
:1025C00079626F6172643A206F66660A000A6B6511
:1025D00079626F6172643A206F6E0A000A6D6174ED
:1025E0007269783A206F66660A000A6D61747269D2
:1025F000783A206F6E0A000A64656275673A206F48
:102600006E0A000A64656275673A206F66660A00A2
:102610000A0A626F6F746C6F616465722E2E2E20D1
:1026200000433E20006565636F6E6669673A0A0085
:10263000536C656570204C454420746573740A00C2
:10264000000000000000000000000000000000008A
:102650000000000004000400030003000200010069
:10266000000000000000000000000000000000006A
:102670000000000004000400030003000200010049
:10268000000000000000000000000000000000004A
:102690000000000004000400030003000200010029
:1026A000000000000000000000000000000000002A
:1026B0000000000004000400030003000200010009
:1026C0000000000000000000000004000300030000
:1026D00003000200010000000000000000000000F4
:1026E00000000000000000000000040003000300E0
:1026F00003000200010000000000000000000000D4
:1027000000000000000000000000040003000300BF
:1027100003000200010000000000000000000000B3
:10272000000000000000000000000400030003009F
:102730000300020001000000000000000000000093
:102740000400030003000300020001000000000079
:102750000000000000000000000000000000000079
:102760000400030003000300020001000000000059
:102770000000000000000000000000000000000059
:102780000400030003000300020001000000000039
:102790000000000000000000000000000000000039
:1027A0000400030003000300020001000000000019
:1027B0000000000000000000000000000000000019
:1027C0000000000000000000000000000000000009
:1027D00000000000000000000000000000000000F9
:1027E00000000000000000000000000000000000E9
:1027F00000000000000000000000000000000000D9
:1028000001000100020002000200030003000300B7
:102810000300040004000400040004000400040099
:102820000400040004000300030002000200010091
:102830000000000000000000000000000000000098
:102840000000000000000000000000000000000088
:102850000000000000000000000000000000000078
:102860000100010002000200020003000300030057
:102870000300040004000400040004000400040039
:102880000400040004000400040004000400040028
:102890000400040004000400040004000400040018
:1028A0000400040004000300030002000200010011
:1028B0000000000000000000000000000000000018
:1028C00001000100020002000200030003000300F7
:1028D00003000400040004000400040004000400D9
:1028E00004000400040004000400040004000400C8
:1028F00004000400040004000400040004000400B8
:1029000004000400040004000400040004000400A7
:102910000400040004000400040004000400040097
:102920000400040004000300030002000200010090
:102930000000000000000000000000000000000097
:102940000000000000000000000000000000000087
:102950000000000000000000000000000000000077
:102960000000000000000000000000000000000067
:102970000000000000000000000000000000000057
:10298000000000000100010001000200020002003E
:10299000030003000300040004000400030002001D
:1029A000000000000000000001000200040001001F
:1029B0000000000000000000000000000000000017
:1029C0000000000000000000000000000000000007
:1029D00000000000000000000000000000000000F7
:1029E00000000000010001000100020002000200DE
:1029F00003000300030004000400040003000200BD
:102A000001000100010000000000000000000000C3
:102A100000000000000000000000000000000000B6
:102A200000000000000000000000000001000200A3
:102A30000400010000000000000000000000000091
:102A4000000000000100010001000200020002007D
:102A5000030003000300040004000400030002005C
:102A60000100010001000000000000000000000063
:102A70000000000000000000000000000000000056
:102A80000000000000000000000000000000000046
:102A90000000000000000000000000000000000036
:102AA0000000000000000000000000000000000026
:102AB000010002000400010000000000000000000E
:102AC00001010101010101010101010101010101F6
:102AD00001010101010101010101010101010101E6
:102AE00006050403020100000000000000000000D1
:102AF00000000000000000000000000000000000D6
:102B0000FF00FF00FF00FF000000000000000000C9
:102B1000FF00FF00FF00FF000000000000000000B9
:102B2000FF00FF00FF00FF000000000000000000A9
:102B3000FF00FF00FF00FF00000000000000000099
:102B4000FF00FF00FF00FF00000000000000000089
:102B5000FF00FF00FF00FF00000000000000000079
:102B6000FF00FF00FF00FF00000000000000000069
:102B7000FF00FF00FF00FF00000000000000000059
:102B800011241FBECFEFD0E2DEBFCDBF04B603FEDF
:102B900027C08091850290918602A0918702B09112
:102BA00088028730904BA740B04BD1F41092850239
:102BB00010928602109287021092880214BE84B787
:102BC000877F84BF0FB6F894A895809160008861D4
:102BD00080936000109260000FBEE0E0FEEF099568
:102BE00011E0A0E0B1E0EEE3F2E900E00BBF02C0CB
:102BF00007900D92A435B107D9F722E0A4E5B1E022
:102C000001C01D92A538B207E1F70E94DF1C0C94A9
:102C10001D490C940000FF93EF93E0915401F09153
:102C20005501309709F00995EF91FF910895FC0146
:102C30008591803011F0EFDFFBCF0895FF27E0E2B0
:102C400030E247FF0CC0419597FF09C0EDE2609567
:102C5000709580959095611D711D811D911D27FFB7
:102C600002C0219530E350E2AA27660F771F881F24
:102C7000991FAA1FA41710F0A41B63955A95A9F7D2
:102C8000AA3008F0A95FA05DAF93F39561157105B7
:102C90008105910541F7ED3211F4EF93F395F217A9
:102CA00018F43F93F395FBCF8F91B5DFFA95E1F7D9
:102CB0000895E991F9918591803021F0853219F0DC
:102CC000AADFF9CF089520E0E89455915532C1F379
:102CD000503311F4689455915A3348F4505390F39B
:102CE000220F022E220F220F200D250FF4CF0EF4FB
:102CF000219589919991533619F3533729F1533519
:102D000059F1BC0188279927E8945C3621F4899110
:102D1000999168945591543639F446EF7EF077FFD7
:102D20000DC08FEF9FEF0AC055374AE039F0583594
:102D300040E121F0523642E009F00895FF93EF930D
:102D40007DDFEF91FF91B7CFFF93EF93FC0181916E
:102D50008030B9F360DFFBCFFF93EF9368DFF1CFF3
:102D6000DF93CF93CDB7DEB72596A3DFCF91DF9169
:102D70000895FC01613039F48281882309F482C00E
:102D80000E9400400895623039F48281882309F45A
:102D900079C00E945D400895633039F482818823B0
:102DA00009F470C00E9419400895643031F48281A2
:102DB000882309F467C00C947040653031F4828137
:102DC000882309F45FC00C94FC3F663031F48281A3
:102DD000882309F457C00C94F93F611153C00E9435
:102DE0003E2284FF03C088E80E9490330E943E2266
:102DF00082FF03C087E40E9490330E943E2280FF3E
:102E000003C083E50E9490330E943E2281FF06C0EA
:102E100081EE0E94903389E30E9490330E947534C2
:102E20008FE39CE90197F1F700C0000088E80E9459
:102E3000E33381EE0E94E33389E30E94E33383E5C9
:102E40000E94E33387E40E94E3330E94753481E0FB
:102E50000E94D33282E00E94D33283E00E94D332B8
:102E600084E00E94D33285E00E94D33286E00E9443
:102E7000D33287E00E94D33288E00E94D33289E0C7
:102E80000C94D3320895CF93DF936230D1F0EC01EC
:102E9000633028F4662379F0613039F036C064304D
:102EA00001F1B0F0653031F130C00E94E0408A811C
:102EB000882359F12DC00E94E0408A81882329F19E
:102EC0002AC0FC018281811129C081E691E02EC0D7
:102ED0008FE00E94D3320E94E0408A818823A9F0CB
:102EE00020C08FE00E94D3320E94E0408A81882374
:102EF00061F01AC08FE00E94D3320E94E0408A81C4
:102F0000882319F08CEE90E011C080E090E00EC0B4
:102F100080EC91E00BC089E691E008C084E691E086
:102F200005C08AE391E002C083E191E0DF91CF9197
:102F3000089580B310BA81B311BA84B1817084B995
:102F400085B18E6F85B98AB180748AB98BB18F6B68
:102F50008BB987B1807887B988B18F6788B9EEE679
:102F6000F1E0A6E5B1E011921192119211921D9239
:102F70001D921D921D9281E0E638F807A1F7089591
:102F80004F925F926F927F928F929F92AF92BF9279
:102F9000CF92DF92EF92FF920F931F93CF93DF9325
:102FA0001F92CDB7DEB706E511E0680120E02330BF
:102FB00099F028F4213051F0223059F004C0243027
:102FC00071F0253079F0829A8A980EC0879A8F988E
:102FD0000BC0849A8C9808C0859A8D9805C0869AF3
:102FE0008E9802C0839A8B9880EA8A95F1F786B111
:102FF00082958695877091E0892780FBEE24E0F822
:10300000F12C349903C082E090E002C080E090E0AF
:103010008E299F29339903C0A4E0B0E002C0A0E04C
:10302000B0E08A2B9B2B329903C068E070E002C0AD
:1030300060E070E0862B972B319903C040E150E0AF
:1030400002C040E050E0842B952B309903C0A0E2F1
:10305000B0E002C0A0E0B0E08A2B9B2B1B9903C01C
:10306000E0E4F0E002C0E0E0F0E08E2B9F2B1A9944
:1030700003C040E850E002C040E050E0BC01642BD7
:10308000752B49B1042E000C550B40955095CA0183
:103090008827990F881F9927982F8827862B972B89
:1030A0004D9903C040E052E002C040E050E04C01C6
:1030B000842A952A4C9903C040E054E002C040E0C5
:1030C00050E0842A952A4B9903C0E0E0F8E002C062
:1030D000E0E0F0E08E2A9F2A4A9903C060E070E1A8
:1030E00002C060E070E0862A972A499903C040E058
:1030F00050E202C040E050E0842A952A092C000CDE
:10310000AA08BB08489905C080E090E4A0E0B0E0C0
:1031100003C080E090E0DC01882A992AAA2ABB2A11
:1031200043B1042E000C550B660B770B4095509560
:1031300060957095DB01CA018827B7FD83959927B3
:10314000AA27BB277FE0880F991FAA1FBB1F7A956C
:10315000D1F788299929AA29BB29369905C0412C7C
:10316000512C3201639403C0412C512C320184292B
:103170009529A629B729199906C0412C512C42E05E
:10318000642E712C03C0412C512C320184299529C5
:10319000A629B7291C9906C0812C912C34E0A32EB6
:1031A000B12C03C0812C912C540188299929AA297A
:1031B000BB291E9905C040E050E068E070E003C004
:1031C00040E050E0BA01842B952BA62BB72B1D991C
:1031D00005C040E050E060E170E003C040E050E036
:1031E000BA01842B952BA62BB72BF6014081518178
:1031F00062817381481759076A077B0799F18083B9
:103200009183A283B38380910001882341F180914F
:103210002E0280FF06C086EE93E129830E941716D6
:10322000298180912E0280FF10C0809100011F92A1
:103230008F9381EE93E19F938F9329830E94B01621
:103240000F900F900F900F90298180912E0280FF98
:1032500006C08FED93E129830E941716298185E02E
:103260008093000180B310BA81B311BA2F5FF4E0EC
:10327000CF0ED11C263009F09ACE80910001882310
:10328000F1F0815080930001882339F08FE99FE0AD
:103290000197F1F700C0000012C02EE631E0F801FE
:1032A00081919191A191B1918F01F90181939193B4
:1032B000A193B1939F01F1E00E361F0781F781E0E2
:1032C0000F90DF91CF911F910F91FF90EF90DF90C2
:1032D000CF90BF90AF909F908F907F906F905F90B6
:1032E0004F90089524E0829FC0011124FC01E2590F
:1032F000FE4F608171818281938108956E9A769AE2
:1033000008956E98769808950A9A129A08950A98E0
:1033100012980895099A119A089509981198089594
:103320006F9A779A08956F9877980895699A719A25
:103330000895699871980895089A109A08950898C0
:1033400010980895689A709A0895689870980895EA
:103350000D9A159A08950D98159808950B9A139A39
:1033600008950B98139808950E9A169A08950E983A
:10337000169808950C94B4190C94B719CF93C82FCC
:1033800080FF03C00E94AF4004C00E94B3400E946F
:103390009319C2FF03C00E94A14004C00E94A5402F
:1033A0000E948D19C1FF03C0CF910C94A8400E94C8
:1033B000AC40CF910C949919CF92DF92EF92FF928B
:1033C0006B017C0162FF03C00E94C44004C00E94E4
:1033D000C8400E94A519C1FE05C00E94CF400E94AE
:1033E0009F1902C00E94CB40D701C6018074917022
:1033F000AA27BB27892B8A2B8B2B19F00E94B6405A
:1034000013C0D701C60180789270AA27BB27892BE9
:103410008A2B8B2B19F00E94BD4006C00E94BA4037
:103420000E94C1400E948119D701C6018827907867
:10343000892B8A2B8B2B19F00E94D24002C00E944C
:10344000D640C5FE03C00E949A4004C00E949E4020
:103450000E948D19C3FE0AC00E9487190E949740DE
:10346000FF90EF90DF90CF900C948C40C4FE0AC088
:103470000E9490400E949740FF90EF90DF90CF9085
:103480000C9493400E9487190E949740FF90EF9000
:10349000DF90CF900C9490408091AA0108959FB73F
:1034A000F894109289019FBF90915702943009F0CF
:1034B00057C09091E9009F703091EC00232F21704C
:1034C00030FD20E8922B24E02093E9002091EB00CE
:1034D00020FF43C02091EE0027FF3FC020918601CE
:1034E000222321F02091E80025FF37C010928601A9
:1034F00026E03091E80035FD15C030915702343098
:1035000061F53091EB0035FD28C0215021F481E0B8
:103510008093860122C0EFE9FFE03197F1F700C008
:103520000000E7CF8093F1008091E80085FD0AC09C
:103530008091E80080FFFCCF8091E8008E77809337
:10354000E80006C08FB7F89421E0209389018FBF6F
:103550009F709093E90080E008959F709093E90038
:103560008FEF0895CF93DF9300D01F92CDB7DEB7D2
:103570009C0180915702843019F593E099833B8335
:103580002A839093E9008FEF9091E800815095FD98
:1035900006C095ED9A95F1F700008111F5CF809165
:1035A000E80085FF0DC040E050E063E070E0CE0130
:1035B00001960E94BB1D8091E8008E778093E80001
:1035C0000F900F900F90DF91CF910895CF93DF93DD
:1035D00000D01F92CDB7DEB720915702243021F5DD
:1035E00022E029839B838A8383E08093E9008FEF25
:1035F0009091E800815095FD06C095ED9A95F1F700
:1036000000008111F5CF8091E80085FF0DC040E0FA
:1036100050E063E070E0CE0101960E94BB1D8091F6
:10362000E8008E778093E8000F900F900F90DF9165
:10363000CF910895209157022430F1F422E0209395
:10364000E9002FEF3091E800215035FD06C035ED3F
:103650003A95F1F700002111F5CF2091E80025FF00
:103660000BC040E050E065E070E00E94BB1D80911F
:10367000E8008E778093E8000895CF93DF93209140
:103680005702243009F048C0EC0180910F018823D3
:10369000E1F0809110018823C1F085E08093E9007A
:1036A0008FEF9091E800815095FD06C095E19A95C5
:1036B000F1F700008111F5CF8091E80085FF2CC063
:1036C00040E050E060E270E017C081E08093E900E4
:1036D0008FEF9091E800815095FD06C095ED9A9589
:1036E000F1F700008111F5CF8091E80085FF14C04B
:1036F00040E050E068E070E0CE010E94BB1D809188
:10370000E8008E778093E80080E2FE01AAE8B1E04D
:1037100001900D928A95E1F7DF91CF9108958EE1A6
:1037200094E10E94171680915602811109C00E94EF
:103730004C1F0E94AE1F8091E20084608093E200E3
:1037400008958AE194E10E94171610925602089596
:103750000895209187012F5F822F62E30E94AE457A
:10376000992319F020938701089510928701809181
:103770008901882371F180915702843041F580914D
:10378000E9008F702091EC00922F917020FD90E85D
:10379000892B94E09093E9009091EB0090FF14C086
:1037A0009091EE0097FF10C09091E80095FF03C044
:1037B0001092F100F9CF9091E80090FF05C0909130
:1037C000E8009E779093E8008F708093E900109254
:1037D0008901089542E061EC81E00E94C61E42E04A
:1037E00061EC82E00E94C61E42E061EC83E00E9430
:1037F000C61E42E261EC84E00E94C61E42E261EC19
:1038000085E00C94C61E80915902833009F455C09E
:1038100030F4813071F0823009F48EC008958A301E
:1038200009F47AC08B3009F460C0893009F09CC07B
:1038300020C080915802813A09F096C08091E8003A
:10384000877F8093E80080915C0290915D02892BD4
:1038500021F460E28AE891E003C060E080E090E05B
:1038600070E00E94061E8091E8008B778093E8004C
:10387000089580915802813209F076C080915C02EF
:1038800090915D02009719F0049709F06DC0809146
:10389000E800877F8093E8008091E80082FD05C002
:1038A000809157028111F8CF5FC08091F100809321
:1038B000AA018091E8008B7753C080915802813A29
:1038C00009F052C080915C0290915D02892B09F051
:1038D0004BC08091E800877F8093E8008091E800EA
:1038E00080FFFCCF80910F0136C080915802813259
:1038F000D9F580915C0290915D02892BA9F58091A8
:10390000E800877F8093E8000E94FB1E80915A02A6
:1039100080930F010C94142680915802813221F576
:103920008091E800877F8093E8000E94FB1E8091D1
:103930005B028093AB01089580915802813AA1F413
:103940008091E800877F8093E8008091E80080FF05
:10395000FCCF8091AB018093F1008091E8008E77DD
:103960008093E8000C94FB1E0895089508958091BB
:10397000AA01809388011092AA0180E00E94BE19DA
:103980000E94FF230E9414260E9489402FEF80E7A7
:1039900092E0215080409040E1F700C000000C947C
:1039A000E7400C94B71C0E94603580915502882333
:1039B00029F00E94613581110C94A51D089584B7EA
:1039C000877F84BF0FB6F894A895809160008861C6
:1039D00080936000109260000FBE90E080E80FB608
:1039E000F89480936100909361000FBE8FE49AE198
:1039F0000E949B3482E194E10E9417160E94B51C3C
:103A00000E94FA220E944C1F0E94AE1F8091E20089
:103A100084608093E2007894809157028430E1F7CB
:103A200081E094E10E9417160E94FC2285E091E05B
:103A30000E9439220E94E13F0E94F33F0E94D94038
:103A40002FEF8BE594E4215080409040E1F700C0D7
:103A500000000E94DD4060E070E0CB010E94DC19B4
:103A600080EF93E10E9417160E94B61C80915702C6
:103A7000853019F40E94D31CF9CF0E940223F6CF9F
:103A80000E9478350E94EB400E9485408091880119
:103A90008093AA0108950C94401D292F33272330C9
:103AA0003105C9F064F42130310581F0223031054F
:103AB00009F043C08DE890E02CE634E142C02132A9
:103AC0003105F1F02232310541F137C082E190E059
:103AD00029EF34E136C099278130910541F08230D9
:103AE000910541F0892B49F5E8E6F4E105C0E8E5E8
:103AF000F4E102C0E2E2F4E1849190E09F0121C090
:103B00006530D8F4E62FF0E0EE0FFF1FE45CFE4FC7
:103B10002081318189E090E014C0653070F470E05C
:103B2000FB01EE0FFF1FEE5CFE4F20813181FB0198
:103B3000E35DFE4F808190E004C080E090E020E0F3
:103B400030E0FA0131832083089584E189BD86E164
:103B500089BD09B400FEFDCF8091D8008F7D809390
:103B6000D8008091E00082608093E0008091E000C6
:103B700081FDFCCF0895CF92DF92EF92FF920F93D9
:103B80001F93CF93DF93EC018B016A010E941A1FF0
:103B9000811133C0C114D10439F0F60180819181C3
:103BA000081B190BC80FD91FE12CF12C01151105A9
:103BB00019F18091E80085FD16C08091E8008E77AC
:103BC0008093E800C114D10449F0F601808191810D
:103BD000E80EF91EF182E08285E00FC00E941A1FF4
:103BE000882321F30AC089918093F10001501109C3
:103BF000FFEFEF1AFF0ADACF80E0DF91CF911F913C
:103C00000F91FF90EF90DF90CF90089520915E028A
:103C100030915F022617370748F06115710539F4B6
:103C20002091E8002E772093E80001C0B90140E020
:103C30006115710599F120915702222309F441C0C1
:103C4000253009F440C02091E80023FD3EC02091BA
:103C5000E80022FD30C02091E80020FFE9CF20914C
:103C6000F2003091F300FC01CF016115710559F0AC
:103C70002830310540F481918093F1006150710941
:103C80002F5F3F4FF1CF41E02830310509F040E090
:103C90002091E8002E772093E800CACF4111CBCFC6
:103CA0000AC080915702882361F0853061F08091CD
:103CB000E80083FD0AC08091E80082FFF2CF80E037
:103CC000089582E0089583E0089581E008952091A9
:103CD0005E0230915F022617370748F061157105C3
:103CE00039F42091E8002E772093E80001C0B90153
:103CF000FC0120E06115710581F180915702882354
:103D000009F43EC0853009F43DC08091E80083FD90
:103D10003BC08091E80082FD2DC08091E80080FFCB
:103D2000E9CF8091F2009091F3006115710559F08F
:103D30008830910540F424912093F1003196615030
:103D400071090196F2CF21E0089709F020E08091F7
:103D5000E8008E778093E800CDCF2111CECF0AC046
:103D600080915702882361F0853061F08091E800EE
:103D700083FD0AC08091E80082FFF2CF80E00895C1
:103D800082E0089583E0089581E00895982F9730A8
:103D900058F59093E900981739F07091EC00209154
:103DA000ED005091F00003C0242F762F50E021FF4A
:103DB00019C03091EB003E7F3093EB003091ED0065
:103DC0003D7F3093ED003091EB0031603093EB009C
:103DD0007093EC002093ED005093F0002091EE00E2
:103DE00027FF07C09F5FD3CF8F708093E90081E0EA
:103DF000089580E008958091580287FF11C0809156
:103E0000E80082FD05C0809157028111F8CF11C0F2
:103E10008091E8008B770BC080915702882349F08E
:103E20008091E80080FFF8CF8091E8008E77809342
:103E3000E80008952091E4003091E50095E6409176
:103E4000EC00842F817040FF22C08091E80080FD4B
:103E50001CC080915702882391F0853091F08091A9
:103E6000EB0085FD10C04091E4005091E500421741
:103E7000530729F39A01915011F784E0089582E0E5
:103E8000089583E0089581E0089580E008954091C9
:103E9000E80042FFDECF08950E94BD1F0E94C51FAB
:103EA000E0EEF0E0808181608083E8EDF0E08081E9
:103EB0008F77808319BCA7EDB0E08C918E7F8C93B7
:103EC00080818F7E80831092560208950F931F93F6
:103ED000CF93DF930E94BD1F0E94C51FC8EDD0E0A5
:103EE00088818F77888388818068888388818F7DA7
:103EF0008883E7EDF0E080818068808319BC1092B0
:103F0000570210925302109255021092540200EE82
:103F100010E0F80180818B7F8083888181608883B5
:103F200042E060E080E00E94C61EE1EEF0E08081A9
:103F30008E7F8083E2EEF0E08081816080838081EB
:103F400088608083F80180818E7F80838881806192
:103F50008883DF91CF911F910F910895E8EDF0E0F4
:103F600080818F7E8083E7EDF0E0808181608083B7
:103F700081E0809356020C94661FE8EDF0E08081AA
:103F80008C7F80831092E20008951092DA001092E4
:103F9000E10008951F920F920FB60F9211240BB6F5
:103FA0000F922F933F934F935F936F937F938F93D2
:103FB0009F93AF93BF93EF93FF938091E10082FFB4
:103FC0000BC08091E20082FF07C08091E1008B7FEF
:103FD0008093E1000E94A91B8091DA0080FF1FC03E
:103FE0008091D80080FF1BC08091DA008E7F809383
:103FF000DA008091D90080FF0DC084E189BD86E19F
:1040000089BD09B400FEFDCF81E0809357020E9474
:104010008F1B05C019BC109257020E94A11B8091F2
:10402000E10080FF19C08091E20080FF15C08091FF
:10403000E2008E7F8093E2008091E20080618093B5
:10404000E2008091D80080628093D80019BC85E09E
:10405000809357020E94D11C8091E10084FF30C000
:104060008091E20084FF2CC084E189BD86E189BD96
:1040700009B400FEFDCF8091D8008F7D8093D800D9
:104080008091E1008F7E8093E1008091E2008F7E3D
:104090008093E2008091E20081608093E200809151
:1040A0005302882311F084E007C08091E30087FD6C
:1040B00002C081E001C083E0809357020E944B1D43
:1040C0008091E10083FF29C08091E20083FF25C039
:1040D0008091E100877F8093E10082E08093570226
:1040E000109253028091E1008E7F8093E1008091D5
:1040F000E2008E7F8093E2008091E20080618093F5
:10410000E20042E060E080E00E94C61E8091F00084
:1041100088608093F0000E94A81BFF91EF91BF91EF
:10412000AF919F918F917F916F915F914F913F914F
:104130002F910F900BBE0F900FBE0F901F901895F0
:104140001F920F920FB60F9211240BB60F922F935E
:104150003F934F935F936F937F938F939F93AF930F
:10416000BF93CF93DF93EF93FF93C091E900CF709C
:104170008091EC00D82FD17080FDD0E81092E9003A
:104180008091F000877F8093F00078940E94E8206F
:104190001092E9008091F00088608093F000CD2BB0
:1041A000CF70C093E900FF91EF91DF91CF91BF9164
:1041B000AF919F918F917F916F915F914F913F91BF
:1041C0002F910F900BBE0F900FBE0F901F90189560
:1041D0001F93CF93DF93CDB7DEB7AA970FB6F894AE
:1041E000DEBF0FBECDBFE8E5F2E088E08E0F909114
:1041F000F10091938E13FBCF0E94031C8091E80085
:1042000083FF1FC18091580290915902492F50E0BD
:104210004A30510508F015C1FA01E45BFF4F0C94D8
:10422000CE45803881F0823809F00BC180915C0264
:104230008F708093E9008091EB0085FB882780F9DF
:104240001092E90006C0809154029091550291119C
:1042500082609091E800977F9093E8008093F1004E
:104260001092F100C8C0282F2D7F09F0EAC08823E2
:1042700019F0823061F0E5C080915A02813009F076
:10428000E0C0933009F080E0809355022BC080910C
:104290005A02811127C080915C028F7009F4D1C04D
:1042A0008093E9002091EB0020FF1CC0933021F4A3
:1042B0008091EB00806214C09091EB00906190932C
:1042C000EB0021E030E0A90102C0440F551F8A95A0
:1042D000E2F74093EA001092EA008091EB008860D8
:1042E0008093EB001092E9008091E800877F86C000
:1042F0008111A7C010915A021F778091E300807846
:10430000812B8093E3008091E800877F8093E80011
:104310000E94FB1E8091E80080FFFCCF8091E300AB
:1043200080688093E300111102C082E001C083E045
:104330008093570286C08058823008F082C08091F6
:104340005A0290915B028C3D53E0950779F583E02A
:104350008A838AE289834FB7F894DE01139620E0BE
:104360003EE051E2E32FF0E050935700E49120FF4C
:1043700003C0E295EF703F5FEF708E2F90E0EA3060
:1043800010F0C79601C0C0968D939D932F5F243186
:1043900049F74FBF8091E800877F8093E8006AE289
:1043A00070E0CE0101960E94061E14C0AE014F5F60
:1043B0005F4F60915C020E944D1DBC01892B09F486
:1043C00040C09091E800977F9093E80089819A819E
:1043D0000E94671E8091E8008B778093E80031C0CF
:1043E000803879F58091E800877F8093E80080919C
:1043F00053028093F1008091E8008E778093E8006B
:104400000E94FB1E1EC081111CC090915A02923066
:10441000C0F48091E800877F8093E8009093530276
:104420000E94FB1E80915302811106C08091E3001F
:1044300087FD02C081E001C084E0809357020E94A2
:10444000EA1B8091E80083FF0AC08091E800877F23
:104450008093E8008091EB0080628093EB00AA9645
:104460000FB6F894DEBF0FBECDBFDF91CF911F9185
:1044700008959093B1018093B0010895E091B00147
:10448000F091B101309721F00190F081E02D099475
:1044900080E00895EF92FF920F931F93CF93DF93E5
:1044A000E091B001F091B1013097B1F18C0102803F
:1044B000F381E02D099580912E0282FF2DC080FFAF
:1044C00004C08FE496E10E941716E80110E289E427
:1044D000E82E86E1F82E80912E0280FF0BC08881A5
:1044E0001F928F93FF92EF920E94B0160F900F9041
:1044F0000F900F90115021961111EDCF80912E0247
:1045000080FF0AC087E496E1DF91CF911F910F9160
:10451000FF90EF900C941716DF91CF911F910F91A0
:10452000FF90EF900895E091B001F091B1013097C4
:1045300021F00480F581E02D09940895CF93DF9355
:10454000EC018091AE019091AF01C817D90709F134
:10455000D093AF01C093AE01E091B001F091B101F1
:104560003097B9F00680F781E02DCE010995809152
:104570002E0282FF0EC080FF0CC0DF93CF9389E331
:1045800096E19F938F930E94B0160F900F900F901B
:104590000F90DF91CF910895CF93DF93EC0180913D
:1045A000AC019091AD01C817D90709F1D093AD01C5
:1045B000C093AC01E091B001F091B1013097B9F036
:1045C0000084F185E02DCE01099580912E0282FFB5
:1045D0000EC080FF0CC0DF93CF9389E296E19F93DA
:1045E0008F930E94B0160F900F900F900F90DF9155
:1045F000CF9108950C9400240E947C350E94991755
:104600000C9479364F925F926F927F929F92AF9205
:10461000BF92CF92DF92EF92FF920F931F93CF93AF
:10462000DF93CDB7DEB729970FB6F894DEBF0FBE84
:10463000CDBF0E94C01743EBA42E41E0B42E00E092
:1046400010E0902E802F0E947219F501C190D19038
:10465000E190F1905F01C626D726E826F926C1141D
:10466000D104E104F104B1F40F5F1F4F06301105CE
:1046700041F78FEF89838A831B820E948535816091
:10468000782F9D838C8349815A816B818D810E9413
:10469000742664C020912E0221FF0AC06E837F839E
:1046A000888799870E940124998588857F816E81FA
:1046B00040E050E026013701042E04C07694679450
:1046C000579447940A94D2F740FE41C049839A8296
:1046D000C12CD12C7601C39404C0CC0CDD1CEE1C83
:1046E000FF1C4A95D2F7260137014622572268223D
:1046F000792281E045284628472809F480E08B8309
:104700000E9485358160782F9D838C8349815A81F1
:104710006B818D810E94742649815A816B817C81D5
:104720008D810E944C35000F111F000F111FF801E1
:10473000ED54FE4F80819181A281B381C826D92694
:10474000EA26FB26C082D182E282F38207C04F5F55
:104750005F4F4531510509F0ADCF86CF0E944B35F3
:104760000E94F3391091B2010E943E22181779F18C
:104770000E943E228093B20190912E0292FF0EC0C1
:1047800090FF0CC01F928F938AE596E19F938F93C1
:104790000E94B0160F900F900F900F908091B20171
:1047A00029960FB6F894DEBF0FBECDBFDF91CF9133
:1047B0001F910F91FF90EF90DF90CF90BF90AF903F
:1047C0009F907F906F905F904F900C945D352996ED
:1047D0000FB6F894DEBF0FBECDBFDF91CF911F9112
:1047E0000F91FF90EF90DF90CF90BF90AF909F9090
:1047F0007F906F905F904F9008950C94BE1908952C
:104800000895EF92FF920F931F93CF93DF9384E766
:1048100096E10E941716C0E0D0E088E4E82E81E01F
:10482000F82E05E616E18C2F0E9472190E942035A1
:10483000FF92EF929F938F937F936F93DF93CF932A
:104840001F930F930E94B01621968DB79EB70A96BC
:104850000FB6F8949EBF0FBE8DBFC630D10519F7B5
:10486000DF91CF911F910F91FF90EF9008950895E0
:104870000895AF92BF92CF92DF92EF92FF920F9383
:104880001F93CF93DF93CDB7DEB78B015A01EDB6FF
:10489000FEB6BC01C8010E94EB45D5010D90002079
:1048A000E9F7CD018A199B092DB73EB7281B390BB3
:1048B0000FB6F8943EBF0FBE2DBF8DB79EB70196C1
:1048C0006C01F80101900020E9F73197AF01401B1E
:1048D000510BD5010D900020E9F71197CD018A19F0
:1048E0009B098417950740F1B501C6010E94064651
:1048F000F80101900020E9F73197E01BF10BEC0D76
:10490000FD1D108280912E0280FF2BC0DF92CF927E
:10491000BF92AF921F930F9387EA99E19F938F9372
:104920000E94B0162DB73EB7285F3F4F0FB6F894E0
:104930003EBF0FBE2DBF15C020912E0220FFA2C08A
:104940009F938F935F934F9384ED99E19F938F9300
:104950000E94B0160F900F900F900F900F900F9035
:1049600091C080912E0280FF19C0F60101900020B5
:10497000E9F73197EC19FD0980E692E09F938F9358
:10498000FF93EF9381E899E19F938F930E94B01674
:104990000F900F900F900F900F900F90F8010190D3
:1049A0000020E9F73197CF01801B910BF5010190B1
:1049B0000020E9F73197EA19FB098E179F0709F0E4
:1049C00059C0B501C8010E94F645892B09F052C0B3
:1049D00080EE0E94903384E00E9490330E947534F0
:1049E00080EE0E94E33384E00E94E3338AE20E9477
:1049F00090330E9475348AE20E94E3330E9475343A
:104A0000E1E1F1E001900020E9F731978F010151D8
:104A10001140169507950115110569F08AE20E946B
:104A200090330E9475348AE20E94E3330E94753409
:104A300001501109F0CFE1E1F1E001900020E9F728
:104A400031978F01015111401695079501151105F8
:104A500069F08CE40E9490330E9475348CE40E94CB
:104A6000E3330E94753401501109F0CF8FE00E94AA
:104A7000B23208C0B601C8010E94F645892B11F474
:104A8000B80102C068E471E080E692E00E94FF4550
:104A90000FB6F894FEBE0FBEEDBE0FB6F894FEBE84
:104AA0000FBEEDBEDF91CF911F910F91FF90EF9060
:104AB000DF90CF90BF90AF900895CF93882309F4F3
:104AC00065C0C82F8CEF8C0F813A20F080E58C0FE9
:104AD0008E3248F48C2F0E948D3E811157C08C2F4E
:104AE0000E9490330CC080E28C0F883058F4C7705D
:104AF00081E001C0880FCA95EAF70E943B34CF914C
:104B00000C9475348BE58C0F833078F4C53A29F01A
:104B1000C63A31F083E890E005C081E890E002C039
:104B200082E890E0CF910C949E2288E58C0F85312D
:104B300068F5C83A89F0C93A91F0CA3A99F0CB3A87
:104B4000A1F0CC3AA9F0CD3AB1F0CE3AB9F0CF3AD3
:104B5000C1F080E090E017C082EE90E014C089EED2
:104B600090E011C08AEE90E00EC085EB90E00BC0A3
:104B700086EB90E008C083EB90E005C084EB90E00A
:104B800002C087EB90E0CF910C94CC22CF91089596
:104B9000882349F19CEF980F913A20F090E5980F07
:104BA0009E3218F40E94E3330DC090E2980F9830C3
:104BB00058F4877091E001C0990F8A95EAF7892F20
:104BC0000E9441340C9475349BE5980F933020F487
:104BD00080E090E00C949E22885A853120F480E099
:104BE00090E00C94CC220895882321F00E943B345D
:104BF0000C9475340895882321F00E9441340C945C
:104C0000753408950E945B340E942A340E947534E2
:104C10000E94983A0E94663980E090E00E949E22AD
:104C200080E090E00C94CC220E944B340C9402263D
:104C30000E944F33292F22952F7030E02C30310500
:104C40004CF42A3031056CF4225031092230310500
:104C500088F407C02C30310549F02F30310531F090
:104C600009C0803E48F0803F29F406C093FB8827A6
:104C700080F9089580E0089581E00895CF93DF934F
:104C800000D000D01F92CDB7DEB749835A836B8323
:104C90007C838D8380912E0280FF1EC0972F2D81F3
:104CA000611102C085E701C084E62F939F931F9294
:104CB0008F938A8190E0982F88272981822B9F9358
:104CC0008F9386E497E19F938F930E94B0160FB65F
:104CD000F894DEBF0FBECDBF0F900F900F900F90D6
:104CE0000F90DF91CF910895EF92FF920F931F9352
:104CF000CF93DF93CDB7DEB72B970FB6F894DEBF17
:104D00000FBECDBF042F4F83152F588769877A8731
:104D10008B87EA84FB84E114F10451F15F3F11F4C5
:104D20004F3F31F180912E0280FF04C081E699E16E
:104D30000E94171680912E0280FF04C089E599E138
:104D40000E9417164F81588569857A858B850E9448
:104D50003E2680912E0280FF04C086E599E10E94E4
:104D600017164F81588569857A858B850E944C3549
:104D7000DE01119686E0FD0111928A95E9F70F8315
:104D80001887FB86EA8685E0FE01379601900D9232
:104D90008A95E1F749815A816B817C818D819E8161
:104DA0000E94552F2B960FB6F894DEBF0FBECDBFD5
:104DB000DF91CF911F910F91FF90EF900895CF93C6
:104DC000DF9300D000D000D0CDB7DEB79E830E9425
:104DD0003E2680912E0280FF18C08E8180FD02C089
:104DE00090E201C09DE21F929F9382958F701F9267
:104DF0008F9380E497E19F938F930E94B0160F905A
:104E00000F900F900F900F900F9026960FB6F8947A
:104E1000DEBF0FBECDBFDF91CF910895CF93DF935B
:104E2000EC01DF7092959F70E92FF0E020912E0247
:104E3000EA5AFF4F0C94CE4520FF40C086E397E12D
:104E40003BC020FF3BC08CE297E136C020FF36C05C
:104E50008EE197E131C020FF31C080E197E12CC0A5
:104E600020FF2CC086E097E127C020FF27C089EFF4
:104E700096E122C020FF22C08FEE96E11DC020FFE8
:104E80001DC081EE96E118C020FF18C08FEC96E19E
:104E900013C020FF13C085EC96E10EC020FF0EC0AA
:104EA00089EB96E109C020FF09C08CEA96E104C0B5
:104EB00020FF04C084EA96E10E94171680912E021A
:104EC00080FF15C0CE0199279F938F938D2F880F58
:104ED000880B8F93DF938AE996E19F938F930E94CB
:104EE000B0160F900F900F900F900F900F90DF91D2
:104EF000CF9108958F929F92AF92BF92CF92DF92FF
:104F0000EF92FF920F931F93CF93DF9300D000D0C7
:104F10001F92CDB7DEB725E0FC01DE0111960190AE
:104F20000D922A95E1F7FC0130812181F280E58024
:104F3000E2944FE0E42243815481452B09F4D3C32A
:104F40002F3F19F43F3F09F4CEC36C0139832A8304
:104F500089819A810E944F338C0180912E0280FFBB
:104F600004C08DE499E10E941716C8010E940E2723
:104F700080912E0280FF04C08EE399E10E941716F3
:104F80000E942F3280912E0280FF04C087E299E1B7
:104F90000E9417160E94983180912E0280FF04C053
:104FA00084E299E10E941716E12FE295EF70F0E09C
:104FB000EA59FF4F0C94CE45912F9F70812F807F2F
:104FC000E92E19F0E29480EFE822FF2009F44AC0AC
:104FD000EE2029F08E2D0E944E340E947534802FD1
:104FE0000E945D2580912E0280FF11C01F930F93B8
:104FF0001F930F931F930F9388E099E19F938F93D3
:105000000E94B0160FB6F894DEBF0FBECDBF1F933F
:105010000F9386E491E09F938F9382E792E09F93B2
:105020008F930E9415460F900F900F900F900F9046
:105030000F9041E151E060E672E082E792E00F906C
:105040000F900F900F900F90DF91CF911F910F91C4
:10505000FF90EF90DF90CF90BF90AF909F908F9098
:105060000C943924802F0E94C825EE2009F43BC3FC
:105070008E2D0E9454340F900F900F900F900F9030
:10508000DF91CF911F910F91FF90EF90DF90CF9024
:10509000BF90AF909F908F900C947534812F807F3C
:1050A0001F70803211F01295107F002319F001302B
:1050B00071F14DC0FF2011F1EE2009F45CC091E0C8
:1050C000E91259C080912E0280FF04C08EEE98E153
:1050D0000E941716812F0F900F900F900F900F9036
:1050E000DF91CF911F910F91FF90EF90DF90CF90C4
:1050F000BF90AF909F908F900C945E34EE2021F083
:10510000E1E0EE1609F4EFC20E94613461C0FF20B5
:10511000A9F0F1E0FE1508F4E6C20E9438348123BC
:1051200090912E02882329F090FF52C08CEC98E1D8
:105130004DC090FF20C08BEA98E13AC0E110D3C285
:1051400080912E0280FF44C08FE798E13FC080919C
:105150002E02FF2081F1EE2039F1F601958190FFBA
:105160001EC080FF04C08EE598E10E941716F6016C
:1051700085818F708583812F0F900F900F900F90F6
:105180000F90DF91CF911F910F91FF90EF90DF90E3
:10519000CF90BF90AF909F908F900C94F42580FF9C
:1051A0000AC280E498E105C280FFE5CF84E298E17D
:1051B0000E941716E0CFEE2029F080FF33C284E072
:1051C00098E12EC280FF04C088EE97E10E94171676
:1051D000812F83C1812F86958695837090E00097FB
:1051E00019F00197D9F07FC2FF2019F0C801937020
:1051F00002C080E090E00F900F900F900F900F9002
:10520000DF91CF911F910F91FF90EF90DF90CF90A2
:10521000BF90AF909F908F900C949E22FF2019F02A
:10522000C801937002C080E090E00F900F900F9043
:105230000F900F90DF91CF911F910F91FF90EF9002
:10524000DF90CF90BF90AF909F908F900C94CC2226
:10525000802FFF2019F00E94793802C00E94E138A7
:105260000F900F900F900F900F90DF91CF911F91A3
:105270000F91FF90EF90DF90CF90BF90AF909F90F5
:105280008F900C946639812F837009F082C0F110E1
:105290002AC2202F229526952770220F220F602FD9
:1052A0006F70862F90E0A0E0B0E04C015D01022E0F
:1052B00004C0880C991CAA1CBB1C0A94D2F704FFDA
:1052C00012C08FE090E0A0E0B0E004C0880F991F0A
:1052D000AA1FBB1F2A95D2F7BC01CD01609570951E
:1052E0008095909503C060E070E0CB01169516950F
:1052F0001370412F50E042305105E9F04330510521
:1053000089F1682979298A299B294130510571F150
:105310000F900F900F900F900F90DF91CF911F91F2
:105320000F91FF90EF90DF90CF90BF90AF909F9044
:105330008F900C940B32682979298A299B290F9028
:105340000F900F900F900F90DF91CF911F910F91C1
:10535000FF90EF90DF90CF90BF90AF909F908F9095
:105360000C941D320E940B32C501B4010F900F90B6
:105370000F900F900F90DF91CF911F910F91FF90A1
:10538000EF90DF90CF90BF90AF909F908F900C9454
:10539000F931FF2019F0812F817001C08695882393
:1053A00009F4A1C1202F229526952770220F220FE4
:1053B000602F6F70862F90E0A0E0B0E04C015D019F
:1053C000022E04C0880C991CAA1CBB1C0A94D2F79C
:1053D00004FF12C08FE090E0A0E0B0E004C0880FAE
:1053E000991FAA1FBB1F2A95D2F7BC01CD0160955A
:1053F00070958095909503C060E070E0CB011695A4
:1054000016951370412F50E042305105E9F04330BA
:10541000510589F1682979298A299B29413051054B
:1054200071F10F900F900F900F900F90DF91CF912F
:105430001F910F91FF90EF90DF90CF90BF90AF90B2
:105440009F908F900C942B33682979298A299B2966
:105450000F900F900F900F900F90DF91CF911F91B1
:105460000F91FF90EF90DF90CF90BF90AF909F9003
:105470008F900C943D330E942B33C501B4010F90E3
:105480000F900F900F900F90DF91CF911F910F9180
:10549000FF90EF90DF90CF90BF90AF909F908F9054
:1054A0000C941933003F61F118F4003E50F477C0BA
:1054B000023F09F447C008F441C0033F09F445C066
:1054C0006EC00F70812F8F71FF2021F00E94B232C9
:1054D000802F52CE0E94D332802F0F900F900F90CA
:1054E0000F900F90DF91CF911F910F91FF90EF9050
:1054F000DF90CF90BF90AF909F908F900C94FB2542
:10550000FF20B9F0E110EFC0812F8F710F900F9045
:105510000F900F900F90DF91CF911F910F91FF90FF
:10552000EF90DF90CF90BF90AF909F908F900C94B2
:10553000F832F1E0FE1508F4D6C0E6CFFF2009F4FA
:105540008BC053C0F11088C050C0FF20A9F0812F3C
:105550008F710F900F900F900F900F90DF91CF9160
:105560001F910F91FF90EF90DF90CF90BF90AF9081
:105570009F908F900C949D320F900F900F900F90F2
:105580000F90DF91CF911F910F91FF90EF90DF90DF
:10559000CF90BF90AF909F908F900C949832809155
:1055A0002E02FF20B9F1EE20D1F080FF04C084EC80
:1055B00097E10E941716802F0F900F900F900F9079
:1055C0000F90DF91CF911F910F91FF90EF90DF909F
:1055D000CF90BF90AF909F908F900C945D2580FFEF
:1055E00004C08FE997E10E941716812F8F710F90E9
:1055F0000F900F900F900F90DF91CF911F910F910F
:10560000FF90EF90DF90CF90BF90AF909F908F90E2
:105610000C94B232EE20D1F080FF04C089E797E10C
:105620000E941716802F0F900F900F900F900F90E1
:10563000DF91CF911F910F91FF90EF90DF90CF906E
:10564000BF90AF909F908F900C94C82580FF04C0AE
:1056500081E597E10E941716812F8F710F900F90AF
:105660000F900F900F90DF91CF911F910F91FF90AE
:10567000EF90DF90CF90BF90AF909F908F900C9461
:10568000D332412F4F70602FC6010E9443170E94F2
:1056900077300F900F900F900F900F90DF91CF9178
:1056A0001F910F91FF90EF90DF90CF90BF90AF9040
:1056B0009F908F900C94E440412F4F70602FC60153
:1056C0000F900F900F900F900F90DF91CF911F913F
:1056D0000F91FF90EF90DF90CF90BF90AF909F9091
:1056E0008F900C94B9160F900F900F900F900F9011
:1056F000DF91CF911F910F91FF90EF90DF90CF90AE
:10570000BF90AF909F908F90089580912E0280FF60
:1057100004C084E09AE10E9417164091FD01509167
:10572000FE016091FF017091000280910102909151
:1057300002020E94DF2680912E0280FF04C082E0D8
:105740009AE10C9417160895FF920F931F93CF932D
:10575000DF9380912E0280FF04C08EED9CE10E94B9
:105760001716C091CB0109ED1CE186E0F82E90914F
:10577000CC0180912E02C917B9F180FF04C08CEDD5
:105780009CE10E94171680912E0280FF0AC01F9292
:10579000CF931F930F930E94B0160F900F900F900E
:1057A0000F9080912E0280FF04C086ED9CE10E9444
:1057B0001716D0E0FC9EF001FD9EF00D1124E3537E
:1057C000FE4F4081518162817381848195810E9465
:1057D000DF2680912E0280FF04C084ED9CE10E94B0
:1057E00017162196C770C3CF80FF09C081ED9CE1D9
:1057F000DF91CF911F910F91FF900C941716DF91BD
:10580000CF911F910F91FF900895452B41F06F3F6D
:1058100041F491E08F3F09F090E0892F03C081E0CF
:1058200001C080E081700895CF92DF92EF92FF92E5
:105830000F931F93CF93DF938091020282958F7015
:1058400009F07EC08091FF01882309F479C0C091DE
:10585000CB01D090CC01F090FD01E090FE010091D1
:1058600000021091010286E0C82ECD1509F468C02F
:10587000A8016E2D8F2D0E94052CD0E081115DC0F6
:10588000CC9EF001CD9EF00D1124E353FE4F81819B
:10589000E81253C08081F81250C0828181114DC03E
:1058A000238134812017310710F421503109201B46
:1058B000310B2436310508F040C0809102028F7010
:1058C00080618093020286E08C9FF0018D9FF00D35
:1058D0001124EE52FE4F80818F70806180838DEFA6
:1058E00091E00E947A2780912E0280FF04C087E118
:1058F0009AE10E94171680912E0280FF0CC0DF9360
:10590000CF9384E19AE19F938F930E94B0160F90FA
:105910000F900F900F9080912E0280FF04C081E1C4
:105920009AE10E941716DF91CF911F910F91FF907E
:10593000EF90DF90CF900C94A42B2196C77095CF59
:10594000DF91CF911F910F91FF90EF90DF90CF905B
:1059500008955F926F927F928F929F92AF92BF92C3
:10596000CF92DF92EF92FF920F931F93CF93DF932B
:10597000CDB7DEB761970FB6F894DEBF0FBECDBFCF
:105980008C0185E0F801DE011D9601900D928A954B
:10599000E1F7D801EC901196DC9011971296CC901B
:1059A00012971396AD90BC9014977090FD01609083
:1059B000FE018090000290900102A401662D872DC7
:1059C0000E94052C81111BC25090FF01552009F443
:1059D0006CC190910202A814B90448F095012819ED
:1059E0003909FF24F3942436310580F00AC08094ED
:1059F00090948A0C9B1CFF24F394B4E68B169104BC
:105A000028F0F12C907F09F0F5C0CDC0907F09F00F
:105A10004BC06D101DC07E101BC0C11019C08091FD
:105A20002E0280FF04C086EB9CE10E941716809135
:105A300002028F708061809302020E94852B8DEF9D
:105A400091E00E947A2780910202F80185832AC0A2
:105A5000A5016D2D8E2D0E94052C81111AC0FC2CE4
:105A6000C11017C0DFC101968770831709F4E0C128
:105A700090E0289FF001299FF00D1124E353FE4F81
:105A80004181D412F0CF4081E412EDCF4281442312
:105A900051F3FC2CCC2009F4F1C180910202816009
:105AA00080930202F12CEAC16D102DC07E102BC034
:105AB000C11029C080912E0280FF04C088E69CE1BD
:105AC0000E94171680912E0280FF10C08091020262
:105AD00082958F701F928F9385E69CE19F938F93A1
:105AE0000E94B0160F900F900F900F9080912E0291
:105AF00080FF04C082E69CE10E941716809102029A
:105B0000F80185832FC1ED86DE868D859E850E94F6
:105B100018268823A9F1CC2099F180910202829560
:105B20008F7090E020912E020297ACF020FF04C00D
:105B30008DE29CE10E9417168091FD019091FE017B
:105B400098878F831986BB86AA86809102028C87EC
:105B5000CE01079694C020FF04C08AE09CE10E9419
:105B6000171686E0F801ADEFB1E001900D928A952D
:105B7000E1F70E94142C0E94852BFF24F3947EC130
:105B8000A5016D2D8E2D0E94052C811108C08091DC
:105B90002E0280FF04C082EE9BE10E941716C8010E
:105BA0000E947A27EACF80912E0280FF04C08EEBFC
:105BB0009BE10E9417167A2DB98AA88A4E2D5D2D79
:105BC0006C2D89890E943E2680912E0280FF04C0A0
:105BD0008CEB9BE10E9417168DEF91E00E947A27D3
:105BE000EDEFF1E086E0DF011D928A95E9F70E9472
:105BF000852B44C16D101CC07E101AC0C11018C086
:105C000080912E0280FF04C080E99BE10E9417165C
:105C100080910202F8018583C8010E947A2786E0FC
:105C2000EDEFF1E0DF011D928A95E9F7F52C26C131
:105C3000ED86DE868D859E850E941826882339F1A3
:105C4000CC2029F18091020282958F7090E0209102
:105C50002E020297BCF020FF04C083E59BE10E9466
:105C600017168091FD019091FE019A8389831B8212
:105C7000BD82AC82809102028E83CE0101960E9489
:105C80007A276FCF20FF6DCF88E29BE168CFA50117
:105C90006D2D8E2D0E94052C811181CF80912E02B9
:105CA00080FF7DCF88EF9AE178CFA814B90438F04F
:105CB000C501881999098436910598F008C0809427
:105CC00090948A0C9B1CB4E68B16910450F0F12C36
:105CD00080912E0280FF81C08DE59AE10E94171607
:105CE0007CC0FC2CCC2009F46AC06D1050C07E1022
:105CF0004EC02091020220FD41C0822F82958F70FC
:105D0000E9F1F80125838F3041F08F5F982F92954C
:105D1000907F822F8F70892B858380912E0280FF48
:105D200004C084EE9AE10E94171680912E0280FF33
:105D300011C0D80115968C9182958F701F928F9308
:105D400081EE9AE19F938F930E94B0160F900F906F
:105D50000F900F9080912E0280FF04C08EED9AE18B
:105D60000E941716C8010E947A2786E0F801ADEF5D
:105D7000B1E001900D928A95E1F739CF86E0F80104
:105D8000ADEFB1E001900D928A95E1F777C0ED8615
:105D9000DE868D859E850E941826882339F08091A5
:105DA0002E0280FFDECE82EB9AE1D9CE80910202F4
:105DB000816080930202C8010E947A275FC0A5011A
:105DC0006D2D8E2D0E94052C8111E9CE80912E0221
:105DD00080FFE5CE8EE89AE1E0CE7A2DB98AA88AD6
:105DE0004E2D5D2D6C2D89890E943E2680912E02BC
:105DF00080FFF6CE8BE59AE10E941716F1CECC20FB
:105E000009F4CDCEED86DE868D859E850E9418260E
:105E1000882309F4C4CE80912E0280FFA2CE8BE3AA
:105E20009AE19DCE8091CB013091CC0126E01DCE30
:105E3000ED86DE868D859E850E944F33292F229523
:105E40002F7030E0223031052CF49F7041F0811129
:105E500006C014C0243031052CF49F7051F4805ECC
:105E6000883060F080912E0280FF99CE8EE79CE111
:105E700094CED80115969C91907F89F78F2D6196CD
:105E80000FB6F894DEBF0FBECDBFDF91CF911F914B
:105E90000F91FF90EF90DF90CF90BF90AF909F90C9
:105EA0008F907F906F905F900895EF92FF920F9385
:105EB0001F93CF93DF93CDB7DEB72C970FB6F8942F
:105EC000DEBF0FBECDBF4F83588769877A878B8728
:105ED0009C87CE0107960E94A92C882309F14A8548
:105EE0005B8568858F810E94052C811178C0809127
:105EF0002E0280FF04C08CE89DE10E9417164F819E
:105F0000588569857A858B859C850E94DF268091DE
:105F10002E0280FF64C08AE89DE10E9417165FC0D0
:105F200086E0FE013796DE01119601900D928A956A
:105F3000E1F7EF80F8840A851B85A8016F2D8E2D6F
:105F40000E94052C81114BC0E091CC01F0E09F0133
:105F50002F5F3F4F27703327A091CB01B0E02A1766
:105F60003B0749F480912E0280FF24C086EF9CE11C
:105F70000E9417161FC0E982FA821D830C8386E0F7
:105F80008E9FD0018F9FB00D1124A353BE4FFE01F1
:105F9000319601900D928A95E1F72093CC01809182
:105FA0002E0280FF04C081EE9CE10E9417160E9421
:105FB000A42B15C080912E0280FF04C08EE69DE1C7
:105FC0000E9417160E9414261092CC011092CB0149
:105FD000EDEFF1E086E0DF011D928A95E9F74A8551
:105FE0005B8568858F810E94052C81110EC0909180
:105FF000CC018091CB01981741F080912E0280FF57
:1060000004C08EE39DE10E94171686E0F82E00E2A0
:106010001DE18091CB019091CC01891749F0F89E48
:10602000C001112483539E4F0E94A92C81110AC0E4
:106030004A855B8568858F810E94052C882309F439
:1060400041C048C080912E0280FF04C083E29DE1E0
:106050000E94171680912E0280FF0CC08091CB0108
:106060001F928F931F930F930E94B0160F900F9063
:106070000F900F9080912E0280FF04C08BE19DE174
:106080000E941716E091CB01FE9EF0011124E3530C
:10609000FE4F4081518162817381848195810E948C
:1060A000DF2680912E0280FF04C088E19DE10E94DE
:1060B00017168091CB0190E0019687709927809305
:1060C000CB01A7CF80912E0280FF04C086E19DE125
:1060D0000E9417162C960FB6F894DEBF0FBECDBFE8
:1060E000DF91CF911F910F91FF90EF9008952F9224
:1060F0003F924F925F926F927F928F929F92AF9258
:10610000BF92CF92DF92EF92FF920F931F93CF93A4
:10611000DF93FC01892B09F4F8C0312C212C8EEA85
:10612000482E8DE1582E98E9692E9DE1792E2CEBB1
:10613000E22E2DE1F22E32EAC32E3DE1D32E44EDC4
:10614000A42E4DE1B42E56EC852E5DE1952EEF0187
:1061500021961491153709F488C058F4143708F0C3
:1061600066C0143008F09EC01130B9F01230C9F189
:10617000CCC0183709F491C050F4163709F489C01F
